{
	"contracts/sequential.sol": {
		"MyToken": {
			"abi": [
				{
					"inputs": [
						{
							"internalType": "string",
							"name": "_name",
							"type": "string"
						},
						{
							"internalType": "string",
							"name": "_symbol",
							"type": "string"
						},
						{
							"internalType": "uint256",
							"name": "_price",
							"type": "uint256"
						},
						{
							"internalType": "uint256",
							"name": "_supply",
							"type": "uint256"
						}
					],
					"stateMutability": "nonpayable",
					"type": "constructor"
				},
				{
					"anonymous": false,
					"inputs": [
						{
							"indexed": true,
							"internalType": "address",
							"name": "owner",
							"type": "address"
						},
						{
							"indexed": true,
							"internalType": "address",
							"name": "approved",
							"type": "address"
						},
						{
							"indexed": true,
							"internalType": "uint256",
							"name": "tokenId",
							"type": "uint256"
						}
					],
					"name": "Approval",
					"type": "event"
				},
				{
					"anonymous": false,
					"inputs": [
						{
							"indexed": true,
							"internalType": "address",
							"name": "owner",
							"type": "address"
						},
						{
							"indexed": true,
							"internalType": "address",
							"name": "operator",
							"type": "address"
						},
						{
							"indexed": false,
							"internalType": "bool",
							"name": "approved",
							"type": "bool"
						}
					],
					"name": "ApprovalForAll",
					"type": "event"
				},
				{
					"anonymous": false,
					"inputs": [
						{
							"indexed": true,
							"internalType": "address",
							"name": "previousOwner",
							"type": "address"
						},
						{
							"indexed": true,
							"internalType": "address",
							"name": "newOwner",
							"type": "address"
						}
					],
					"name": "OwnershipTransferred",
					"type": "event"
				},
				{
					"anonymous": false,
					"inputs": [
						{
							"indexed": true,
							"internalType": "address",
							"name": "from",
							"type": "address"
						},
						{
							"indexed": true,
							"internalType": "address",
							"name": "to",
							"type": "address"
						},
						{
							"indexed": true,
							"internalType": "uint256",
							"name": "tokenId",
							"type": "uint256"
						}
					],
					"name": "Transfer",
					"type": "event"
				},
				{
					"inputs": [
						{
							"internalType": "address",
							"name": "to",
							"type": "address"
						},
						{
							"internalType": "uint256",
							"name": "tokenId",
							"type": "uint256"
						}
					],
					"name": "approve",
					"outputs": [],
					"stateMutability": "nonpayable",
					"type": "function"
				},
				{
					"inputs": [
						{
							"internalType": "address",
							"name": "owner",
							"type": "address"
						}
					],
					"name": "balanceOf",
					"outputs": [
						{
							"internalType": "uint256",
							"name": "",
							"type": "uint256"
						}
					],
					"stateMutability": "view",
					"type": "function"
				},
				{
					"inputs": [],
					"name": "baseTokenURI",
					"outputs": [
						{
							"internalType": "string",
							"name": "",
							"type": "string"
						}
					],
					"stateMutability": "view",
					"type": "function"
				},
				{
					"inputs": [
						{
							"internalType": "uint256",
							"name": "_value",
							"type": "uint256"
						}
					],
					"name": "calculateTax",
					"outputs": [
						{
							"internalType": "uint256",
							"name": "",
							"type": "uint256"
						}
					],
					"stateMutability": "pure",
					"type": "function"
				},
				{
					"inputs": [
						{
							"internalType": "uint256",
							"name": "tokenId",
							"type": "uint256"
						}
					],
					"name": "getApproved",
					"outputs": [
						{
							"internalType": "address",
							"name": "",
							"type": "address"
						}
					],
					"stateMutability": "view",
					"type": "function"
				},
				{
					"inputs": [
						{
							"internalType": "address",
							"name": "owner",
							"type": "address"
						},
						{
							"internalType": "address",
							"name": "operator",
							"type": "address"
						}
					],
					"name": "isApprovedForAll",
					"outputs": [
						{
							"internalType": "bool",
							"name": "",
							"type": "bool"
						}
					],
					"stateMutability": "view",
					"type": "function"
				},
				{
					"inputs": [],
					"name": "mintPrice",
					"outputs": [
						{
							"internalType": "uint256",
							"name": "",
							"type": "uint256"
						}
					],
					"stateMutability": "view",
					"type": "function"
				},
				{
					"inputs": [],
					"name": "name",
					"outputs": [
						{
							"internalType": "string",
							"name": "",
							"type": "string"
						}
					],
					"stateMutability": "view",
					"type": "function"
				},
				{
					"inputs": [],
					"name": "owner",
					"outputs": [
						{
							"internalType": "address",
							"name": "",
							"type": "address"
						}
					],
					"stateMutability": "view",
					"type": "function"
				},
				{
					"inputs": [
						{
							"internalType": "uint256",
							"name": "tokenId",
							"type": "uint256"
						}
					],
					"name": "ownerOf",
					"outputs": [
						{
							"internalType": "address",
							"name": "",
							"type": "address"
						}
					],
					"stateMutability": "view",
					"type": "function"
				},
				{
					"inputs": [],
					"name": "renounceOwnership",
					"outputs": [],
					"stateMutability": "nonpayable",
					"type": "function"
				},
				{
					"inputs": [
						{
							"internalType": "address",
							"name": "to",
							"type": "address"
						}
					],
					"name": "safeMint",
					"outputs": [],
					"stateMutability": "payable",
					"type": "function"
				},
				{
					"inputs": [
						{
							"internalType": "address",
							"name": "from",
							"type": "address"
						},
						{
							"internalType": "address",
							"name": "to",
							"type": "address"
						},
						{
							"internalType": "uint256",
							"name": "tokenId",
							"type": "uint256"
						}
					],
					"name": "safeTransferFrom",
					"outputs": [],
					"stateMutability": "nonpayable",
					"type": "function"
				},
				{
					"inputs": [
						{
							"internalType": "address",
							"name": "from",
							"type": "address"
						},
						{
							"internalType": "address",
							"name": "to",
							"type": "address"
						},
						{
							"internalType": "uint256",
							"name": "tokenId",
							"type": "uint256"
						},
						{
							"internalType": "bytes",
							"name": "_data",
							"type": "bytes"
						}
					],
					"name": "safeTransferFrom",
					"outputs": [],
					"stateMutability": "nonpayable",
					"type": "function"
				},
				{
					"inputs": [
						{
							"internalType": "address",
							"name": "operator",
							"type": "address"
						},
						{
							"internalType": "bool",
							"name": "approved",
							"type": "bool"
						}
					],
					"name": "setApprovalForAll",
					"outputs": [],
					"stateMutability": "nonpayable",
					"type": "function"
				},
				{
					"inputs": [
						{
							"internalType": "string",
							"name": "baseURI",
							"type": "string"
						}
					],
					"name": "setBaseURI",
					"outputs": [],
					"stateMutability": "nonpayable",
					"type": "function"
				},
				{
					"inputs": [
						{
							"internalType": "bytes4",
							"name": "interfaceId",
							"type": "bytes4"
						}
					],
					"name": "supportsInterface",
					"outputs": [
						{
							"internalType": "bool",
							"name": "",
							"type": "bool"
						}
					],
					"stateMutability": "view",
					"type": "function"
				},
				{
					"inputs": [],
					"name": "symbol",
					"outputs": [
						{
							"internalType": "string",
							"name": "",
							"type": "string"
						}
					],
					"stateMutability": "view",
					"type": "function"
				},
				{
					"inputs": [
						{
							"internalType": "uint256",
							"name": "tokenId",
							"type": "uint256"
						}
					],
					"name": "tokenURI",
					"outputs": [
						{
							"internalType": "string",
							"name": "",
							"type": "string"
						}
					],
					"stateMutability": "view",
					"type": "function"
				},
				{
					"inputs": [],
					"name": "totalSupply",
					"outputs": [
						{
							"internalType": "uint256",
							"name": "",
							"type": "uint256"
						}
					],
					"stateMutability": "view",
					"type": "function"
				},
				{
					"inputs": [
						{
							"internalType": "address",
							"name": "from",
							"type": "address"
						},
						{
							"internalType": "address",
							"name": "to",
							"type": "address"
						},
						{
							"internalType": "uint256",
							"name": "tokenId",
							"type": "uint256"
						}
					],
					"name": "transferFrom",
					"outputs": [],
					"stateMutability": "nonpayable",
					"type": "function"
				},
				{
					"inputs": [
						{
							"internalType": "address",
							"name": "newOwner",
							"type": "address"
						}
					],
					"name": "transferOwnership",
					"outputs": [],
					"stateMutability": "nonpayable",
					"type": "function"
				}
			],
			"devdoc": {
				"kind": "dev",
				"methods": {
					"approve(address,uint256)": {
						"details": "See {IERC721-approve}."
					},
					"balanceOf(address)": {
						"details": "See {IERC721-balanceOf}."
					},
					"getApproved(uint256)": {
						"details": "See {IERC721-getApproved}."
					},
					"isApprovedForAll(address,address)": {
						"details": "See {IERC721-isApprovedForAll}."
					},
					"name()": {
						"details": "See {IERC721Metadata-name}."
					},
					"owner()": {
						"details": "Returns the address of the current owner."
					},
					"ownerOf(uint256)": {
						"details": "See {IERC721-ownerOf}."
					},
					"renounceOwnership()": {
						"details": "Leaves the contract without owner. It will not be possible to call `onlyOwner` functions anymore. Can only be called by the current owner. NOTE: Renouncing ownership will leave the contract without an owner, thereby removing any functionality that is only available to the owner."
					},
					"safeTransferFrom(address,address,uint256)": {
						"details": "See {IERC721-safeTransferFrom}."
					},
					"safeTransferFrom(address,address,uint256,bytes)": {
						"details": "See {IERC721-safeTransferFrom}."
					},
					"setApprovalForAll(address,bool)": {
						"details": "See {IERC721-setApprovalForAll}."
					},
					"supportsInterface(bytes4)": {
						"details": "See {IERC165-supportsInterface}."
					},
					"symbol()": {
						"details": "See {IERC721Metadata-symbol}."
					},
					"tokenURI(uint256)": {
						"details": "See {IERC721Metadata-tokenURI}."
					},
					"transferFrom(address,address,uint256)": {
						"details": "See {IERC721-transferFrom}."
					},
					"transferOwnership(address)": {
						"details": "Transfers ownership of the contract to a new account (`newOwner`). Can only be called by the current owner."
					}
				},
				"version": 1
			},
			"evm": {
				"assembly": "    /* \"contracts/sequential.sol\":274:1795  contract MyToken is ERC721, Ownable {... */\n  mstore(0x40, 0xa0)\n    /* \"contracts/sequential.sol\":525:605  address immutable private pixeltrue = 0xdD870fA1b7C4700F2BD7f44238821C26f7392148 */\n  mstore(0x80, 0xdd870fa1b7c4700f2bd7f44238821c26f7392148000000000000000000000000)\n    /* \"contracts/sequential.sol\":613:783  constructor(string memory _name, string memory _symbol,uint _price,uint _supply) ERC721(_name, _symbol) {... */\n  callvalue\n  dup1\n  iszero\n  tag_1\n  jumpi\n  0x00\n  dup1\n  revert\ntag_1:\n  pop\n  mload(0x40)\n  sub(codesize, bytecodeSize)\n  dup1\n  bytecodeSize\n  dup4\n  codecopy\n  dup2\n  add\n  0x40\n  dup2\n  swap1\n  mstore\n  tag_2\n  swap2\n  tag_3\n  jump\t// in\ntag_2:\n    /* \"@openzeppelin/contracts/token/ERC721/ERC721.sol\":1456:1469  _name = name_ */\n  dup4\n  mload\n    /* \"contracts/sequential.sol\":701:706  _name */\n  dup5\n  swap1\n    /* \"contracts/sequential.sol\":708:715  _symbol */\n  dup5\n  swap1\n    /* \"@openzeppelin/contracts/token/ERC721/ERC721.sol\":1456:1469  _name = name_ */\n  tag_8\n  swap1\n    /* \"@openzeppelin/contracts/token/ERC721/ERC721.sol\":1456:1461  _name */\n  0x00\n  swap1\n    /* \"@openzeppelin/contracts/token/ERC721/ERC721.sol\":1456:1469  _name = name_ */\n  0x20\n  dup6\n  add\n  swap1\n  tag_9\n  jump\t// in\ntag_8:\n  pop\n    /* \"@openzeppelin/contracts/token/ERC721/ERC721.sol\":1479:1496  _symbol = symbol_ */\n  dup1\n  mload\n  tag_10\n  swap1\n    /* \"@openzeppelin/contracts/token/ERC721/ERC721.sol\":1479:1486  _symbol */\n  0x01\n  swap1\n    /* \"@openzeppelin/contracts/token/ERC721/ERC721.sol\":1479:1496  _symbol = symbol_ */\n  0x20\n  dup5\n  add\n  swap1\n  tag_9\n  jump\t// in\ntag_10:\n  pop\n    /* \"@openzeppelin/contracts/token/ERC721/ERC721.sol\":1390:1503  constructor(string memory name_, string memory symbol_) {... */\n  pop\n  pop\n    /* \"@openzeppelin/contracts/access/Ownable.sol\":921:953  _transferOwnership(_msgSender()) */\n  tag_12\n    /* \"@openzeppelin/contracts/access/Ownable.sol\":940:952  _msgSender() */\n  tag_13\n    /* \"@openzeppelin/contracts/access/Ownable.sol\":940:950  _msgSender */\n  shl(0x20, tag_14)\n    /* \"@openzeppelin/contracts/access/Ownable.sol\":940:952  _msgSender() */\n  0x20\n  shr\n  jump\t// in\ntag_13:\n    /* \"@openzeppelin/contracts/access/Ownable.sol\":921:939  _transferOwnership */\n  tag_15\n    /* \"@openzeppelin/contracts/access/Ownable.sol\":921:953  _transferOwnership(_msgSender()) */\n  jump\t// in\ntag_12:\n    /* \"contracts/sequential.sol\":727:738  totalSupply */\n  0x08\n    /* \"contracts/sequential.sol\":727:748  totalSupply = _supply */\n  sstore\n    /* \"contracts/sequential.sol\":758:767  mintPrice */\n  0x0a\n    /* \"contracts/sequential.sol\":758:776  mintPrice = _price */\n  sstore\n  pop\n    /* \"contracts/sequential.sol\":274:1795  contract MyToken is ERC721, Ownable {... */\n  tag_31\n  swap1\n  pop\n  jump\n    /* \"@openzeppelin/contracts/utils/Context.sol\":640:736  function _msgSender() internal view virtual returns (address) {... */\ntag_14:\n    /* \"@openzeppelin/contracts/utils/Context.sol\":719:729  msg.sender */\n  caller\n  swap1\n    /* \"@openzeppelin/contracts/utils/Context.sol\":640:736  function _msgSender() internal view virtual returns (address) {... */\n  jump\t// out\n    /* \"@openzeppelin/contracts/access/Ownable.sol\":2270:2457  function _transferOwnership(address newOwner) internal virtual {... */\ntag_15:\n    /* \"@openzeppelin/contracts/access/Ownable.sol\":2362:2368  _owner */\n  0x06\n  dup1\n  sload\n  sub(shl(0xa0, 0x01), 0x01)\n    /* \"@openzeppelin/contracts/access/Ownable.sol\":2378:2395  _owner = newOwner */\n  dup4\n  dup2\n  and\n  not(sub(shl(0xa0, 0x01), 0x01))\n  dup4\n  and\n  dup2\n  or\n  swap1\n  swap4\n  sstore\n    /* \"@openzeppelin/contracts/access/Ownable.sol\":2410:2450  OwnershipTransferred(oldOwner, newOwner) */\n  mload(0x40)\n    /* \"@openzeppelin/contracts/access/Ownable.sol\":2362:2368  _owner */\n  swap2\n  and\n  swap2\n    /* \"@openzeppelin/contracts/access/Ownable.sol\":2378:2395  _owner = newOwner */\n  swap1\n    /* \"@openzeppelin/contracts/access/Ownable.sol\":2362:2368  _owner */\n  dup3\n  swap1\n    /* \"@openzeppelin/contracts/access/Ownable.sol\":2410:2450  OwnershipTransferred(oldOwner, newOwner) */\n  0x8be0079c531659141344cd1fd0a4f28419497f9722a3daafe3b4186f6b6457e0\n  swap1\n    /* \"@openzeppelin/contracts/access/Ownable.sol\":2343:2359  address oldOwner */\n  0x00\n  swap1\n    /* \"@openzeppelin/contracts/access/Ownable.sol\":2410:2450  OwnershipTransferred(oldOwner, newOwner) */\n  log3\n    /* \"@openzeppelin/contracts/access/Ownable.sol\":2333:2457  {... */\n  pop\n    /* \"@openzeppelin/contracts/access/Ownable.sol\":2270:2457  function _transferOwnership(address newOwner) internal virtual {... */\n  pop\n  jump\t// out\n    /* \"contracts/sequential.sol\":274:1795  contract MyToken is ERC721, Ownable {... */\ntag_9:\n  dup3\n  dup1\n  sload\n  tag_20\n  swap1\n  tag_21\n  jump\t// in\ntag_20:\n  swap1\n  0x00\n  mstore\n  keccak256(0x00, 0x20)\n  swap1\n  0x1f\n  add\n  0x20\n  swap1\n  div\n  dup2\n  add\n  swap3\n  dup3\n  tag_23\n  jumpi\n  0x00\n  dup6\n  sstore\n  jump(tag_26)\ntag_23:\n  dup3\n  0x1f\n  lt\n  tag_24\n  jumpi\n  dup1\n  mload\n  not(0xff)\n  and\n  dup4\n  dup1\n  add\n  or\n  dup6\n  sstore\n  jump(tag_26)\ntag_24:\n  dup3\n  dup1\n  add\n  0x01\n  add\n  dup6\n  sstore\n  dup3\n  iszero\n  tag_26\n  jumpi\n  swap2\n  dup3\n  add\ntag_25:\n  dup3\n  dup2\n  gt\n  iszero\n  tag_26\n  jumpi\n  dup3\n  mload\n  dup3\n  sstore\n  swap2\n  0x20\n  add\n  swap2\n  swap1\n  0x01\n  add\n  swap1\n  jump(tag_25)\ntag_26:\n  pop\n  tag_27\n  swap3\n  swap2\n  pop\n  tag_28\n  jump\t// in\ntag_27:\n  pop\n  swap1\n  jump\t// out\ntag_28:\ntag_29:\n  dup1\n  dup3\n  gt\n  iszero\n  tag_27\n  jumpi\n  0x00\n  dup2\n  sstore\n  0x01\n  add\n  jump(tag_29)\n    /* \"#utility.yul\":14:899   */\ntag_32:\n    /* \"#utility.yul\":68:73   */\n  0x00\n    /* \"#utility.yul\":121:124   */\n  dup3\n    /* \"#utility.yul\":114:118   */\n  0x1f\n    /* \"#utility.yul\":106:112   */\n  dup4\n    /* \"#utility.yul\":102:119   */\n  add\n    /* \"#utility.yul\":98:125   */\n  slt\n    /* \"#utility.yul\":88:143   */\n  tag_34\n  jumpi\n    /* \"#utility.yul\":139:140   */\n  0x00\n    /* \"#utility.yul\":136:137   */\n  dup1\n    /* \"#utility.yul\":129:141   */\n  revert\n    /* \"#utility.yul\":88:143   */\ntag_34:\n    /* \"#utility.yul\":162:175   */\n  dup2\n  mload\n  sub(shl(0x40, 0x01), 0x01)\n    /* \"#utility.yul\":224:234   */\n  dup1\n  dup3\n  gt\n    /* \"#utility.yul\":221:257   */\n  iszero\n  tag_36\n  jumpi\n    /* \"#utility.yul\":237:255   */\n  tag_36\n  tag_37\n  jump\t// in\ntag_36:\n    /* \"#utility.yul\":312:314   */\n  0x40\n    /* \"#utility.yul\":306:315   */\n  mload\n    /* \"#utility.yul\":280:282   */\n  0x1f\n    /* \"#utility.yul\":366:379   */\n  dup4\n  add\n  not(0x1f)\n    /* \"#utility.yul\":362:384   */\n  swap1\n  dup2\n  and\n    /* \"#utility.yul\":386:388   */\n  0x3f\n    /* \"#utility.yul\":358:389   */\n  add\n    /* \"#utility.yul\":354:394   */\n  and\n    /* \"#utility.yul\":342:395   */\n  dup2\n  add\n  swap1\n    /* \"#utility.yul\":410:428   */\n  dup3\n  dup3\n  gt\n    /* \"#utility.yul\":430:452   */\n  dup2\n  dup4\n  lt\n    /* \"#utility.yul\":407:453   */\n  or\n    /* \"#utility.yul\":404:476   */\n  iszero\n  tag_39\n  jumpi\n    /* \"#utility.yul\":456:474   */\n  tag_39\n  tag_37\n  jump\t// in\ntag_39:\n    /* \"#utility.yul\":496:506   */\n  dup2\n    /* \"#utility.yul\":492:494   */\n  0x40\n    /* \"#utility.yul\":485:507   */\n  mstore\n    /* \"#utility.yul\":531:533   */\n  dup4\n    /* \"#utility.yul\":523:529   */\n  dup2\n    /* \"#utility.yul\":516:534   */\n  mstore\n    /* \"#utility.yul\":553:557   */\n  0x20\n    /* \"#utility.yul\":543:557   */\n  swap3\n  pop\n    /* \"#utility.yul\":598:601   */\n  dup7\n    /* \"#utility.yul\":593:595   */\n  dup4\n    /* \"#utility.yul\":588:590   */\n  dup6\n    /* \"#utility.yul\":580:586   */\n  dup9\n    /* \"#utility.yul\":576:591   */\n  add\n    /* \"#utility.yul\":572:596   */\n  add\n    /* \"#utility.yul\":569:602   */\n  gt\n    /* \"#utility.yul\":566:619   */\n  iszero\n  tag_40\n  jumpi\n    /* \"#utility.yul\":615:616   */\n  0x00\n    /* \"#utility.yul\":612:613   */\n  dup1\n    /* \"#utility.yul\":605:617   */\n  revert\n    /* \"#utility.yul\":566:619   */\ntag_40:\n    /* \"#utility.yul\":637:638   */\n  0x00\n    /* \"#utility.yul\":628:638   */\n  swap2\n  pop\n    /* \"#utility.yul\":647:780   */\ntag_41:\n    /* \"#utility.yul\":661:663   */\n  dup4\n    /* \"#utility.yul\":658:659   */\n  dup3\n    /* \"#utility.yul\":655:664   */\n  lt\n    /* \"#utility.yul\":647:780   */\n  iszero\n  tag_43\n  jumpi\n    /* \"#utility.yul\":749:763   */\n  dup6\n  dup3\n  add\n    /* \"#utility.yul\":745:768   */\n  dup4\n  add\n    /* \"#utility.yul\":739:769   */\n  mload\n    /* \"#utility.yul\":718:732   */\n  dup2\n  dup4\n  add\n    /* \"#utility.yul\":714:737   */\n  dup5\n  add\n    /* \"#utility.yul\":707:770   */\n  mstore\n    /* \"#utility.yul\":672:682   */\n  swap1\n  dup3\n  add\n  swap1\n    /* \"#utility.yul\":647:780   */\n  jump(tag_41)\ntag_43:\n    /* \"#utility.yul\":798:800   */\n  dup4\n    /* \"#utility.yul\":795:796   */\n  dup3\n    /* \"#utility.yul\":792:801   */\n  gt\n    /* \"#utility.yul\":789:869   */\n  iszero\n  tag_44\n  jumpi\n    /* \"#utility.yul\":857:858   */\n  0x00\n    /* \"#utility.yul\":852:854   */\n  dup4\n    /* \"#utility.yul\":847:849   */\n  dup6\n    /* \"#utility.yul\":839:845   */\n  dup4\n    /* \"#utility.yul\":835:850   */\n  add\n    /* \"#utility.yul\":831:855   */\n  add\n    /* \"#utility.yul\":824:859   */\n  mstore\n    /* \"#utility.yul\":789:869   */\ntag_44:\n    /* \"#utility.yul\":887:893   */\n  swap7\n    /* \"#utility.yul\":14:899   */\n  swap6\n  pop\n  pop\n  pop\n  pop\n  pop\n  pop\n  jump\t// out\n    /* \"#utility.yul\":904:1589   */\ntag_3:\n    /* \"#utility.yul\":1021:1027   */\n  0x00\n    /* \"#utility.yul\":1029:1035   */\n  dup1\n    /* \"#utility.yul\":1037:1043   */\n  0x00\n    /* \"#utility.yul\":1045:1051   */\n  dup1\n    /* \"#utility.yul\":1098:1101   */\n  0x80\n    /* \"#utility.yul\":1086:1095   */\n  dup6\n    /* \"#utility.yul\":1077:1084   */\n  dup8\n    /* \"#utility.yul\":1073:1096   */\n  sub\n    /* \"#utility.yul\":1069:1102   */\n  slt\n    /* \"#utility.yul\":1066:1119   */\n  iszero\n  tag_46\n  jumpi\n    /* \"#utility.yul\":1115:1116   */\n  0x00\n    /* \"#utility.yul\":1112:1113   */\n  dup1\n    /* \"#utility.yul\":1105:1117   */\n  revert\n    /* \"#utility.yul\":1066:1119   */\ntag_46:\n    /* \"#utility.yul\":1142:1158   */\n  dup5\n  mload\n  sub(shl(0x40, 0x01), 0x01)\n    /* \"#utility.yul\":1207:1221   */\n  dup1\n  dup3\n  gt\n    /* \"#utility.yul\":1204:1238   */\n  iszero\n  tag_47\n  jumpi\n    /* \"#utility.yul\":1234:1235   */\n  0x00\n    /* \"#utility.yul\":1231:1232   */\n  dup1\n    /* \"#utility.yul\":1224:1236   */\n  revert\n    /* \"#utility.yul\":1204:1238   */\ntag_47:\n    /* \"#utility.yul\":1257:1318   */\n  tag_48\n    /* \"#utility.yul\":1310:1317   */\n  dup9\n    /* \"#utility.yul\":1301:1307   */\n  dup4\n    /* \"#utility.yul\":1290:1299   */\n  dup10\n    /* \"#utility.yul\":1286:1308   */\n  add\n    /* \"#utility.yul\":1257:1318   */\n  tag_32\n  jump\t// in\ntag_48:\n    /* \"#utility.yul\":1247:1318   */\n  swap6\n  pop\n    /* \"#utility.yul\":1364:1366   */\n  0x20\n    /* \"#utility.yul\":1353:1362   */\n  dup8\n    /* \"#utility.yul\":1349:1367   */\n  add\n    /* \"#utility.yul\":1343:1368   */\n  mload\n    /* \"#utility.yul\":1327:1368   */\n  swap2\n  pop\n    /* \"#utility.yul\":1393:1395   */\n  dup1\n    /* \"#utility.yul\":1383:1391   */\n  dup3\n    /* \"#utility.yul\":1380:1396   */\n  gt\n    /* \"#utility.yul\":1377:1413   */\n  iszero\n  tag_49\n  jumpi\n    /* \"#utility.yul\":1409:1410   */\n  0x00\n    /* \"#utility.yul\":1406:1407   */\n  dup1\n    /* \"#utility.yul\":1399:1411   */\n  revert\n    /* \"#utility.yul\":1377:1413   */\ntag_49:\n  pop\n    /* \"#utility.yul\":1432:1495   */\n  tag_50\n    /* \"#utility.yul\":1487:1494   */\n  dup8\n    /* \"#utility.yul\":1476:1484   */\n  dup3\n    /* \"#utility.yul\":1465:1474   */\n  dup9\n    /* \"#utility.yul\":1461:1485   */\n  add\n    /* \"#utility.yul\":1432:1495   */\n  tag_32\n  jump\t// in\ntag_50:\n    /* \"#utility.yul\":1535:1537   */\n  0x40\n    /* \"#utility.yul\":1520:1538   */\n  dup8\n  add\n    /* \"#utility.yul\":1514:1539   */\n  mload\n    /* \"#utility.yul\":1579:1581   */\n  0x60\n    /* \"#utility.yul\":1564:1582   */\n  swap1\n  swap8\n  add\n    /* \"#utility.yul\":1558:1583   */\n  mload\n    /* \"#utility.yul\":904:1589   */\n  swap6\n  swap9\n    /* \"#utility.yul\":1422:1495   */\n  swap1\n  swap8\n  pop\n    /* \"#utility.yul\":904:1589   */\n  swap4\n  pop\n  pop\n  pop\n  pop\n  jump\t// out\n    /* \"#utility.yul\":1594:1974   */\ntag_21:\n    /* \"#utility.yul\":1673:1674   */\n  0x01\n    /* \"#utility.yul\":1669:1681   */\n  dup2\n  dup2\n  shr\n  swap1\n    /* \"#utility.yul\":1716:1728   */\n  dup3\n  and\n  dup1\n    /* \"#utility.yul\":1737:1798   */\n  tag_52\n  jumpi\n    /* \"#utility.yul\":1791:1795   */\n  0x7f\n    /* \"#utility.yul\":1783:1789   */\n  dup3\n    /* \"#utility.yul\":1779:1796   */\n  and\n    /* \"#utility.yul\":1769:1796   */\n  swap2\n  pop\n    /* \"#utility.yul\":1737:1798   */\ntag_52:\n    /* \"#utility.yul\":1844:1846   */\n  0x20\n    /* \"#utility.yul\":1836:1842   */\n  dup3\n    /* \"#utility.yul\":1833:1847   */\n  lt\n    /* \"#utility.yul\":1813:1831   */\n  dup2\n    /* \"#utility.yul\":1810:1848   */\n  eq\n    /* \"#utility.yul\":1807:1968   */\n  iszero\n  tag_53\n  jumpi\n    /* \"#utility.yul\":1890:1900   */\n  0x4e487b71\n    /* \"#utility.yul\":1885:1888   */\n  0xe0\n    /* \"#utility.yul\":1881:1901   */\n  shl\n    /* \"#utility.yul\":1878:1879   */\n  0x00\n    /* \"#utility.yul\":1871:1902   */\n  mstore\n    /* \"#utility.yul\":1925:1929   */\n  0x22\n    /* \"#utility.yul\":1922:1923   */\n  0x04\n    /* \"#utility.yul\":1915:1930   */\n  mstore\n    /* \"#utility.yul\":1953:1957   */\n  0x24\n    /* \"#utility.yul\":1950:1951   */\n  0x00\n    /* \"#utility.yul\":1943:1958   */\n  revert\n    /* \"#utility.yul\":1807:1968   */\ntag_53:\n  pop\n    /* \"#utility.yul\":1594:1974   */\n  swap2\n  swap1\n  pop\n  jump\t// out\n    /* \"#utility.yul\":1979:2106   */\ntag_37:\n    /* \"#utility.yul\":2040:2050   */\n  0x4e487b71\n    /* \"#utility.yul\":2035:2038   */\n  0xe0\n    /* \"#utility.yul\":2031:2051   */\n  shl\n    /* \"#utility.yul\":2028:2029   */\n  0x00\n    /* \"#utility.yul\":2021:2052   */\n  mstore\n    /* \"#utility.yul\":2071:2075   */\n  0x41\n    /* \"#utility.yul\":2068:2069   */\n  0x04\n    /* \"#utility.yul\":2061:2076   */\n  mstore\n    /* \"#utility.yul\":2095:2099   */\n  0x24\n    /* \"#utility.yul\":2092:2093   */\n  0x00\n    /* \"#utility.yul\":2085:2100   */\n  revert\n    /* \"#utility.yul\":1979:2106   */\ntag_31:\n    /* \"contracts/sequential.sol\":274:1795  contract MyToken is ERC721, Ownable {... */\n  shr(0x60, mload(0x80))\n  codecopy(0x00, dataOffset(sub_0), dataSize(sub_0))\n  0x00\n  assignImmutable(\"0xa076ba0bd0a46b169fc6e8c70296c39bed79a95016d43b9507affd064e39f1de\")\n  return(0x00, dataSize(sub_0))\nstop\n\nsub_0: assembly {\n        /* \"contracts/sequential.sol\":274:1795  contract MyToken is ERC721, Ownable {... */\n      mstore(0x40, 0x80)\n      jumpi(tag_1, lt(calldatasize, 0x04))\n      shr(0xe0, calldataload(0x00))\n      dup1\n      0x6817c76c\n      gt\n      tag_24\n      jumpi\n      dup1\n      0xa22cb465\n      gt\n      tag_25\n      jumpi\n      dup1\n      0xa22cb465\n      eq\n      tag_18\n      jumpi\n      dup1\n      0xb88d4fde\n      eq\n      tag_19\n      jumpi\n      dup1\n      0xc87b56dd\n      eq\n      tag_20\n      jumpi\n      dup1\n      0xd547cfb7\n      eq\n      tag_21\n      jumpi\n      dup1\n      0xe985e9c5\n      eq\n      tag_22\n      jumpi\n      dup1\n      0xf2fde38b\n      eq\n      tag_23\n      jumpi\n      0x00\n      dup1\n      revert\n    tag_25:\n      dup1\n      0x6817c76c\n      eq\n      tag_13\n      jumpi\n      dup1\n      0x70a08231\n      eq\n      tag_14\n      jumpi\n      dup1\n      0x715018a6\n      eq\n      tag_15\n      jumpi\n      dup1\n      0x8da5cb5b\n      eq\n      tag_16\n      jumpi\n      dup1\n      0x95d89b41\n      eq\n      tag_17\n      jumpi\n      0x00\n      dup1\n      revert\n    tag_24:\n      dup1\n      0x23b872dd\n      gt\n      tag_26\n      jumpi\n      dup1\n      0x23b872dd\n      eq\n      tag_7\n      jumpi\n      dup1\n      0x40d097c3\n      eq\n      tag_8\n      jumpi\n      dup1\n      0x42842e0e\n      eq\n      tag_9\n      jumpi\n      dup1\n      0x483a9310\n      eq\n      tag_10\n      jumpi\n      dup1\n      0x55f804b3\n      eq\n      tag_11\n      jumpi\n      dup1\n      0x6352211e\n      eq\n      tag_12\n      jumpi\n      0x00\n      dup1\n      revert\n    tag_26:\n      dup1\n      0x01ffc9a7\n      eq\n      tag_2\n      jumpi\n      dup1\n      0x06fdde03\n      eq\n      tag_3\n      jumpi\n      dup1\n      0x081812fc\n      eq\n      tag_4\n      jumpi\n      dup1\n      0x095ea7b3\n      eq\n      tag_5\n      jumpi\n      dup1\n      0x18160ddd\n      eq\n      tag_6\n      jumpi\n    tag_1:\n      0x00\n      dup1\n      revert\n        /* \"@openzeppelin/contracts/token/ERC721/ERC721.sol\":1570:1870  function supportsInterface(bytes4 interfaceId) public view virtual override(ERC165, IERC165) returns (bool) {... */\n    tag_2:\n      callvalue\n      dup1\n      iszero\n      tag_27\n      jumpi\n      0x00\n      dup1\n      revert\n    tag_27:\n      pop\n      tag_28\n      tag_29\n      calldatasize\n      0x04\n      tag_30\n      jump\t// in\n    tag_29:\n      tag_31\n      jump\t// in\n    tag_28:\n      mload(0x40)\n        /* \"#utility.yul\":6785:6799   */\n      swap1\n      iszero\n        /* \"#utility.yul\":6778:6800   */\n      iszero\n        /* \"#utility.yul\":6760:6801   */\n      dup2\n      mstore\n        /* \"#utility.yul\":6748:6750   */\n      0x20\n        /* \"#utility.yul\":6733:6751   */\n      add\n        /* \"@openzeppelin/contracts/token/ERC721/ERC721.sol\":1570:1870  function supportsInterface(bytes4 interfaceId) public view virtual override(ERC165, IERC165) returns (bool) {... */\n    tag_32:\n      mload(0x40)\n      dup1\n      swap2\n      sub\n      swap1\n      return\n        /* \"@openzeppelin/contracts/token/ERC721/ERC721.sol\":2488:2586  function name() public view virtual override returns (string memory) {... */\n    tag_3:\n      callvalue\n      dup1\n      iszero\n      tag_34\n      jumpi\n      0x00\n      dup1\n      revert\n    tag_34:\n      pop\n      tag_35\n      tag_36\n      jump\t// in\n    tag_35:\n      mload(0x40)\n      tag_32\n      swap2\n      swap1\n      tag_38\n      jump\t// in\n        /* \"@openzeppelin/contracts/token/ERC721/ERC721.sol\":4000:4217  function getApproved(uint256 tokenId) public view virtual override returns (address) {... */\n    tag_4:\n      callvalue\n      dup1\n      iszero\n      tag_39\n      jumpi\n      0x00\n      dup1\n      revert\n    tag_39:\n      pop\n      tag_40\n      tag_41\n      calldatasize\n      0x04\n      tag_42\n      jump\t// in\n    tag_41:\n      tag_43\n      jump\t// in\n    tag_40:\n      mload(0x40)\n      sub(shl(0xa0, 0x01), 0x01)\n        /* \"#utility.yul\":6083:6115   */\n      swap1\n      swap2\n      and\n        /* \"#utility.yul\":6065:6116   */\n      dup2\n      mstore\n        /* \"#utility.yul\":6053:6055   */\n      0x20\n        /* \"#utility.yul\":6038:6056   */\n      add\n        /* \"@openzeppelin/contracts/token/ERC721/ERC721.sol\":4000:4217  function getApproved(uint256 tokenId) public view virtual override returns (address) {... */\n      tag_32\n        /* \"#utility.yul\":5919:6122   */\n      jump\n        /* \"@openzeppelin/contracts/token/ERC721/ERC721.sol\":3538:3939  function approve(address to, uint256 tokenId) public virtual override {... */\n    tag_5:\n      callvalue\n      dup1\n      iszero\n      tag_46\n      jumpi\n      0x00\n      dup1\n      revert\n    tag_46:\n      pop\n      tag_47\n      tag_48\n      calldatasize\n      0x04\n      tag_49\n      jump\t// in\n    tag_48:\n      tag_50\n      jump\t// in\n    tag_47:\n      stop\n        /* \"contracts/sequential.sol\":437:460  uint public totalSupply */\n    tag_6:\n      callvalue\n      dup1\n      iszero\n      tag_51\n      jumpi\n      0x00\n      dup1\n      revert\n    tag_51:\n      pop\n      tag_52\n      sload(0x08)\n      dup2\n      jump\n    tag_52:\n      mload(0x40)\n        /* \"#utility.yul\":13828:13853   */\n      swap1\n      dup2\n      mstore\n        /* \"#utility.yul\":13816:13818   */\n      0x20\n        /* \"#utility.yul\":13801:13819   */\n      add\n        /* \"contracts/sequential.sol\":437:460  uint public totalSupply */\n      tag_32\n        /* \"#utility.yul\":13682:13859   */\n      jump\n        /* \"@openzeppelin/contracts/token/ERC721/ERC721.sol\":4727:5057  function transferFrom(... */\n    tag_7:\n      callvalue\n      dup1\n      iszero\n      tag_56\n      jumpi\n      0x00\n      dup1\n      revert\n    tag_56:\n      pop\n      tag_47\n      tag_58\n      calldatasize\n      0x04\n      tag_59\n      jump\t// in\n    tag_58:\n      tag_60\n      jump\t// in\n        /* \"contracts/sequential.sol\":789:1167  function safeMint(address to) public payable {... */\n    tag_8:\n      tag_47\n      tag_62\n      calldatasize\n      0x04\n      tag_63\n      jump\t// in\n    tag_62:\n      tag_64\n      jump\t// in\n        /* \"@openzeppelin/contracts/token/ERC721/ERC721.sol\":5123:5302  function safeTransferFrom(... */\n    tag_9:\n      callvalue\n      dup1\n      iszero\n      tag_65\n      jumpi\n      0x00\n      dup1\n      revert\n    tag_65:\n      pop\n      tag_47\n      tag_67\n      calldatasize\n      0x04\n      tag_59\n      jump\t// in\n    tag_67:\n      tag_68\n      jump\t// in\n        /* \"contracts/sequential.sol\":1692:1793  function calculateTax(uint _value)public pure returns(uint){... */\n    tag_10:\n      callvalue\n      dup1\n      iszero\n      tag_69\n      jumpi\n      0x00\n      dup1\n      revert\n    tag_69:\n      pop\n      tag_52\n      tag_71\n      calldatasize\n      0x04\n      tag_42\n      jump\t// in\n    tag_71:\n      tag_72\n      jump\t// in\n        /* \"contracts/sequential.sol\":1367:1466  function setBaseURI(string memory baseURI) public onlyOwner {... */\n    tag_11:\n      callvalue\n      dup1\n      iszero\n      tag_74\n      jumpi\n      0x00\n      dup1\n      revert\n    tag_74:\n      pop\n      tag_47\n      tag_76\n      calldatasize\n      0x04\n      tag_77\n      jump\t// in\n    tag_76:\n      tag_78\n      jump\t// in\n        /* \"@openzeppelin/contracts/token/ERC721/ERC721.sol\":2191:2426  function ownerOf(uint256 tokenId) public view virtual override returns (address) {... */\n    tag_12:\n      callvalue\n      dup1\n      iszero\n      tag_79\n      jumpi\n      0x00\n      dup1\n      revert\n    tag_79:\n      pop\n      tag_40\n      tag_81\n      calldatasize\n      0x04\n      tag_42\n      jump\t// in\n    tag_81:\n      tag_82\n      jump\t// in\n        /* \"contracts/sequential.sol\":498:519  uint public mintPrice */\n    tag_13:\n      callvalue\n      dup1\n      iszero\n      tag_84\n      jumpi\n      0x00\n      dup1\n      revert\n    tag_84:\n      pop\n      tag_52\n      sload(0x0a)\n      dup2\n      jump\n        /* \"@openzeppelin/contracts/token/ERC721/ERC721.sol\":1929:2134  function balanceOf(address owner) public view virtual override returns (uint256) {... */\n    tag_14:\n      callvalue\n      dup1\n      iszero\n      tag_88\n      jumpi\n      0x00\n      dup1\n      revert\n    tag_88:\n      pop\n      tag_52\n      tag_90\n      calldatasize\n      0x04\n      tag_63\n      jump\t// in\n    tag_90:\n      tag_91\n      jump\t// in\n        /* \"@openzeppelin/contracts/access/Ownable.sol\":1668:1769  function renounceOwnership() public virtual onlyOwner {... */\n    tag_15:\n      callvalue\n      dup1\n      iszero\n      tag_93\n      jumpi\n      0x00\n      dup1\n      revert\n    tag_93:\n      pop\n      tag_47\n      tag_95\n      jump\t// in\n        /* \"@openzeppelin/contracts/access/Ownable.sol\":1036:1121  function owner() public view virtual returns (address) {... */\n    tag_16:\n      callvalue\n      dup1\n      iszero\n      tag_96\n      jumpi\n      0x00\n      dup1\n      revert\n    tag_96:\n      pop\n        /* \"@openzeppelin/contracts/access/Ownable.sol\":1108:1114  _owner */\n      and(sub(shl(0xa0, 0x01), 0x01), sload(0x06))\n        /* \"@openzeppelin/contracts/access/Ownable.sol\":1036:1121  function owner() public view virtual returns (address) {... */\n      jump(tag_40)\n        /* \"@openzeppelin/contracts/token/ERC721/ERC721.sol\":2650:2752  function symbol() public view virtual override returns (string memory) {... */\n    tag_17:\n      callvalue\n      dup1\n      iszero\n      tag_100\n      jumpi\n      0x00\n      dup1\n      revert\n    tag_100:\n      pop\n      tag_35\n      tag_102\n      jump\t// in\n        /* \"@openzeppelin/contracts/token/ERC721/ERC721.sol\":4284:4437  function setApprovalForAll(address operator, bool approved) public virtual override {... */\n    tag_18:\n      callvalue\n      dup1\n      iszero\n      tag_104\n      jumpi\n      0x00\n      dup1\n      revert\n    tag_104:\n      pop\n      tag_47\n      tag_106\n      calldatasize\n      0x04\n      tag_107\n      jump\t// in\n    tag_106:\n      tag_108\n      jump\t// in\n        /* \"@openzeppelin/contracts/token/ERC721/ERC721.sol\":5368:5688  function safeTransferFrom(... */\n    tag_19:\n      callvalue\n      dup1\n      iszero\n      tag_109\n      jumpi\n      0x00\n      dup1\n      revert\n    tag_109:\n      pop\n      tag_47\n      tag_111\n      calldatasize\n      0x04\n      tag_112\n      jump\t// in\n    tag_111:\n      tag_113\n      jump\t// in\n        /* \"contracts/sequential.sol\":1472:1686  function tokenURI(uint256 tokenId)... */\n    tag_20:\n      callvalue\n      dup1\n      iszero\n      tag_114\n      jumpi\n      0x00\n      dup1\n      revert\n    tag_114:\n      pop\n      tag_35\n      tag_116\n      calldatasize\n      0x04\n      tag_42\n      jump\t// in\n    tag_116:\n      tag_117\n      jump\t// in\n        /* \"contracts/sequential.sol\":466:492  string public baseTokenURI */\n    tag_21:\n      callvalue\n      dup1\n      iszero\n      tag_119\n      jumpi\n      0x00\n      dup1\n      revert\n    tag_119:\n      pop\n      tag_35\n      tag_121\n      jump\t// in\n        /* \"@openzeppelin/contracts/token/ERC721/ERC721.sol\":4503:4665  function isApprovedForAll(address owner, address operator) public view virtual override returns (bool) {... */\n    tag_22:\n      callvalue\n      dup1\n      iszero\n      tag_123\n      jumpi\n      0x00\n      dup1\n      revert\n    tag_123:\n      pop\n      tag_28\n      tag_125\n      calldatasize\n      0x04\n      tag_126\n      jump\t// in\n    tag_125:\n      sub(shl(0xa0, 0x01), 0x01)\n        /* \"@openzeppelin/contracts/token/ERC721/ERC721.sol\":4623:4648  _operatorApprovals[owner] */\n      swap2\n      dup3\n      and\n        /* \"@openzeppelin/contracts/token/ERC721/ERC721.sol\":4600:4604  bool */\n      0x00\n        /* \"@openzeppelin/contracts/token/ERC721/ERC721.sol\":4623:4648  _operatorApprovals[owner] */\n      swap1\n      dup2\n      mstore\n        /* \"@openzeppelin/contracts/token/ERC721/ERC721.sol\":4623:4641  _operatorApprovals */\n      0x05\n        /* \"@openzeppelin/contracts/token/ERC721/ERC721.sol\":4623:4648  _operatorApprovals[owner] */\n      0x20\n      swap1\n      dup2\n      mstore\n      0x40\n      dup1\n      dup4\n      keccak256\n        /* \"@openzeppelin/contracts/token/ERC721/ERC721.sol\":4623:4658  _operatorApprovals[owner][operator] */\n      swap4\n      swap1\n      swap5\n      and\n      dup3\n      mstore\n      swap2\n      swap1\n      swap2\n      mstore\n      keccak256\n      sload\n      0xff\n      and\n      swap1\n        /* \"@openzeppelin/contracts/token/ERC721/ERC721.sol\":4503:4665  function isApprovedForAll(address owner, address operator) public view virtual override returns (bool) {... */\n      jump\n        /* \"@openzeppelin/contracts/access/Ownable.sol\":1918:2116  function transferOwnership(address newOwner) public virtual onlyOwner {... */\n    tag_23:\n      callvalue\n      dup1\n      iszero\n      tag_129\n      jumpi\n      0x00\n      dup1\n      revert\n    tag_129:\n      pop\n      tag_47\n      tag_131\n      calldatasize\n      0x04\n      tag_63\n      jump\t// in\n    tag_131:\n      tag_132\n      jump\t// in\n        /* \"@openzeppelin/contracts/token/ERC721/ERC721.sol\":1570:1870  function supportsInterface(bytes4 interfaceId) public view virtual override(ERC165, IERC165) returns (bool) {... */\n    tag_31:\n        /* \"@openzeppelin/contracts/token/ERC721/ERC721.sol\":1672:1676  bool */\n      0x00\n      not(sub(shl(0xe0, 0x01), 0x01))\n        /* \"@openzeppelin/contracts/token/ERC721/ERC721.sol\":1707:1747  interfaceId == type(IERC721).interfaceId */\n      dup3\n      and\n      shl(0xe0, 0x80ac58cd)\n      eq\n      dup1\n        /* \"@openzeppelin/contracts/token/ERC721/ERC721.sol\":1707:1811  interfaceId == type(IERC721).interfaceId ||... */\n      tag_134\n      jumpi\n      pop\n      not(sub(shl(0xe0, 0x01), 0x01))\n        /* \"@openzeppelin/contracts/token/ERC721/ERC721.sol\":1763:1811  interfaceId == type(IERC721Metadata).interfaceId */\n      dup3\n      and\n      shl(0xe0, 0x5b5e139f)\n      eq\n        /* \"@openzeppelin/contracts/token/ERC721/ERC721.sol\":1707:1811  interfaceId == type(IERC721).interfaceId ||... */\n    tag_134:\n        /* \"@openzeppelin/contracts/token/ERC721/ERC721.sol\":1707:1863  interfaceId == type(IERC721).interfaceId ||... */\n      dup1\n      tag_136\n      jumpi\n      pop\n      shl(0xe0, 0x01ffc9a7)\n      not(sub(shl(0xe0, 0x01), 0x01))\n        /* \"@openzeppelin/contracts/utils/introspection/ERC165.sol\":937:977  interfaceId == type(IERC165).interfaceId */\n      dup4\n      and\n      eq\n        /* \"@openzeppelin/contracts/token/ERC721/ERC721.sol\":1827:1863  super.supportsInterface(interfaceId) */\n    tag_136:\n        /* \"@openzeppelin/contracts/token/ERC721/ERC721.sol\":1688:1863  return... */\n      swap3\n        /* \"@openzeppelin/contracts/token/ERC721/ERC721.sol\":1570:1870  function supportsInterface(bytes4 interfaceId) public view virtual override(ERC165, IERC165) returns (bool) {... */\n      swap2\n      pop\n      pop\n      jump\t// out\n        /* \"@openzeppelin/contracts/token/ERC721/ERC721.sol\":2488:2586  function name() public view virtual override returns (string memory) {... */\n    tag_36:\n        /* \"@openzeppelin/contracts/token/ERC721/ERC721.sol\":2542:2555  string memory */\n      0x60\n        /* \"@openzeppelin/contracts/token/ERC721/ERC721.sol\":2574:2579  _name */\n      0x00\n        /* \"@openzeppelin/contracts/token/ERC721/ERC721.sol\":2567:2579  return _name */\n      dup1\n      sload\n      tag_139\n      swap1\n      tag_140\n      jump\t// in\n    tag_139:\n      dup1\n      0x1f\n      add\n      0x20\n      dup1\n      swap2\n      div\n      mul\n      0x20\n      add\n      mload(0x40)\n      swap1\n      dup2\n      add\n      0x40\n      mstore\n      dup1\n      swap3\n      swap2\n      swap1\n      dup2\n      dup2\n      mstore\n      0x20\n      add\n      dup3\n      dup1\n      sload\n      tag_141\n      swap1\n      tag_140\n      jump\t// in\n    tag_141:\n      dup1\n      iszero\n      tag_142\n      jumpi\n      dup1\n      0x1f\n      lt\n      tag_143\n      jumpi\n      0x0100\n      dup1\n      dup4\n      sload\n      div\n      mul\n      dup4\n      mstore\n      swap2\n      0x20\n      add\n      swap2\n      jump(tag_142)\n    tag_143:\n      dup3\n      add\n      swap2\n      swap1\n      0x00\n      mstore\n      keccak256(0x00, 0x20)\n      swap1\n    tag_144:\n      dup2\n      sload\n      dup2\n      mstore\n      swap1\n      0x01\n      add\n      swap1\n      0x20\n      add\n      dup1\n      dup4\n      gt\n      tag_144\n      jumpi\n      dup3\n      swap1\n      sub\n      0x1f\n      and\n      dup3\n      add\n      swap2\n    tag_142:\n      pop\n      pop\n      pop\n      pop\n      pop\n      swap1\n      pop\n        /* \"@openzeppelin/contracts/token/ERC721/ERC721.sol\":2488:2586  function name() public view virtual override returns (string memory) {... */\n      swap1\n      jump\t// out\n        /* \"@openzeppelin/contracts/token/ERC721/ERC721.sol\":4000:4217  function getApproved(uint256 tokenId) public view virtual override returns (address) {... */\n    tag_43:\n        /* \"@openzeppelin/contracts/token/ERC721/ERC721.sol\":4076:4083  address */\n      0x00\n        /* \"@openzeppelin/contracts/token/ERC721/ERC721.sol\":7248:7264  _owners[tokenId] */\n      dup2\n      dup2\n      mstore\n        /* \"@openzeppelin/contracts/token/ERC721/ERC721.sol\":7248:7255  _owners */\n      0x02\n        /* \"@openzeppelin/contracts/token/ERC721/ERC721.sol\":7248:7264  _owners[tokenId] */\n      0x20\n      mstore\n      0x40\n      dup2\n      keccak256\n      sload\n      sub(shl(0xa0, 0x01), 0x01)\n      and\n        /* \"@openzeppelin/contracts/token/ERC721/ERC721.sol\":4095:4168  require(_exists(tokenId), \"ERC721: approved query for nonexistent token\") */\n      tag_148\n      jumpi\n      mload(0x40)\n      shl(0xe5, 0x461bcd)\n      dup2\n      mstore\n        /* \"#utility.yul\":11946:11948   */\n      0x20\n        /* \"@openzeppelin/contracts/token/ERC721/ERC721.sol\":4095:4168  require(_exists(tokenId), \"ERC721: approved query for nonexistent token\") */\n      0x04\n      dup3\n      add\n        /* \"#utility.yul\":11928:11949   */\n      mstore\n        /* \"#utility.yul\":11985:11987   */\n      0x2c\n        /* \"#utility.yul\":11965:11983   */\n      0x24\n      dup3\n      add\n        /* \"#utility.yul\":11958:11988   */\n      mstore\n        /* \"#utility.yul\":12024:12058   */\n      0x4552433732313a20617070726f76656420717565727920666f72206e6f6e6578\n        /* \"#utility.yul\":12004:12022   */\n      0x44\n      dup3\n      add\n        /* \"#utility.yul\":11997:12059   */\n      mstore\n      shl(0xa1, 0x34b9ba32b73a103a37b5b2b7)\n        /* \"#utility.yul\":12075:12093   */\n      0x64\n      dup3\n      add\n        /* \"#utility.yul\":12068:12110   */\n      mstore\n        /* \"#utility.yul\":12127:12146   */\n      0x84\n      add\n        /* \"@openzeppelin/contracts/token/ERC721/ERC721.sol\":4095:4168  require(_exists(tokenId), \"ERC721: approved query for nonexistent token\") */\n    tag_149:\n      mload(0x40)\n      dup1\n      swap2\n      sub\n      swap1\n      revert\n    tag_148:\n      pop\n        /* \"@openzeppelin/contracts/token/ERC721/ERC721.sol\":4186:4210  _tokenApprovals[tokenId] */\n      0x00\n      swap1\n      dup2\n      mstore\n        /* \"@openzeppelin/contracts/token/ERC721/ERC721.sol\":4186:4201  _tokenApprovals */\n      0x04\n        /* \"@openzeppelin/contracts/token/ERC721/ERC721.sol\":4186:4210  _tokenApprovals[tokenId] */\n      0x20\n      mstore\n      0x40\n      swap1\n      keccak256\n      sload\n      sub(shl(0xa0, 0x01), 0x01)\n      and\n      swap1\n        /* \"@openzeppelin/contracts/token/ERC721/ERC721.sol\":4000:4217  function getApproved(uint256 tokenId) public view virtual override returns (address) {... */\n      jump\t// out\n        /* \"@openzeppelin/contracts/token/ERC721/ERC721.sol\":3538:3939  function approve(address to, uint256 tokenId) public virtual override {... */\n    tag_50:\n        /* \"@openzeppelin/contracts/token/ERC721/ERC721.sol\":3618:3631  address owner */\n      0x00\n        /* \"@openzeppelin/contracts/token/ERC721/ERC721.sol\":3634:3657  ERC721.ownerOf(tokenId) */\n      tag_152\n        /* \"@openzeppelin/contracts/token/ERC721/ERC721.sol\":3649:3656  tokenId */\n      dup3\n        /* \"@openzeppelin/contracts/token/ERC721/ERC721.sol\":3634:3648  ERC721.ownerOf */\n      tag_82\n        /* \"@openzeppelin/contracts/token/ERC721/ERC721.sol\":3634:3657  ERC721.ownerOf(tokenId) */\n      jump\t// in\n    tag_152:\n        /* \"@openzeppelin/contracts/token/ERC721/ERC721.sol\":3618:3657  address owner = ERC721.ownerOf(tokenId) */\n      swap1\n      pop\n        /* \"@openzeppelin/contracts/token/ERC721/ERC721.sol\":3681:3686  owner */\n      dup1\n      sub(shl(0xa0, 0x01), 0x01)\n        /* \"@openzeppelin/contracts/token/ERC721/ERC721.sol\":3675:3686  to != owner */\n      and\n        /* \"@openzeppelin/contracts/token/ERC721/ERC721.sol\":3675:3677  to */\n      dup4\n      sub(shl(0xa0, 0x01), 0x01)\n        /* \"@openzeppelin/contracts/token/ERC721/ERC721.sol\":3675:3686  to != owner */\n      and\n      eq\n      iszero\n        /* \"@openzeppelin/contracts/token/ERC721/ERC721.sol\":3667:3724  require(to != owner, \"ERC721: approval to current owner\") */\n      tag_153\n      jumpi\n      mload(0x40)\n      shl(0xe5, 0x461bcd)\n      dup2\n      mstore\n        /* \"#utility.yul\":12720:12722   */\n      0x20\n        /* \"@openzeppelin/contracts/token/ERC721/ERC721.sol\":3667:3724  require(to != owner, \"ERC721: approval to current owner\") */\n      0x04\n      dup3\n      add\n        /* \"#utility.yul\":12702:12723   */\n      mstore\n        /* \"#utility.yul\":12759:12761   */\n      0x21\n        /* \"#utility.yul\":12739:12757   */\n      0x24\n      dup3\n      add\n        /* \"#utility.yul\":12732:12762   */\n      mstore\n        /* \"#utility.yul\":12798:12832   */\n      0x4552433732313a20617070726f76616c20746f2063757272656e74206f776e65\n        /* \"#utility.yul\":12778:12796   */\n      0x44\n      dup3\n      add\n        /* \"#utility.yul\":12771:12833   */\n      mstore\n      shl(0xf9, 0x39)\n        /* \"#utility.yul\":12849:12867   */\n      0x64\n      dup3\n      add\n        /* \"#utility.yul\":12842:12873   */\n      mstore\n        /* \"#utility.yul\":12890:12909   */\n      0x84\n      add\n        /* \"@openzeppelin/contracts/token/ERC721/ERC721.sol\":3667:3724  require(to != owner, \"ERC721: approval to current owner\") */\n      tag_149\n        /* \"#utility.yul\":12518:12915   */\n      jump\n        /* \"@openzeppelin/contracts/token/ERC721/ERC721.sol\":3667:3724  require(to != owner, \"ERC721: approval to current owner\") */\n    tag_153:\n        /* \"@openzeppelin/contracts/utils/Context.sol\":719:729  msg.sender */\n      caller\n      sub(shl(0xa0, 0x01), 0x01)\n        /* \"@openzeppelin/contracts/token/ERC721/ERC721.sol\":3756:3777  _msgSender() == owner */\n      dup3\n      and\n      eq\n      dup1\n        /* \"@openzeppelin/contracts/token/ERC721/ERC721.sol\":3756:3818  _msgSender() == owner || isApprovedForAll(owner, _msgSender()) */\n      tag_159\n      jumpi\n      pop\n        /* \"@openzeppelin/contracts/token/ERC721/ERC721.sol\":3781:3818  isApprovedForAll(owner, _msgSender()) */\n      tag_159\n        /* \"@openzeppelin/contracts/token/ERC721/ERC721.sol\":3798:3803  owner */\n      dup2\n        /* \"@openzeppelin/contracts/utils/Context.sol\":719:729  msg.sender */\n      caller\n        /* \"@openzeppelin/contracts/token/ERC721/ERC721.sol\":4503:4665  function isApprovedForAll(address owner, address operator) public view virtual override returns (bool) {... */\n      tag_125\n      jump\t// in\n        /* \"@openzeppelin/contracts/token/ERC721/ERC721.sol\":3781:3818  isApprovedForAll(owner, _msgSender()) */\n    tag_159:\n        /* \"@openzeppelin/contracts/token/ERC721/ERC721.sol\":3735:3900  require(... */\n      tag_161\n      jumpi\n      mload(0x40)\n      shl(0xe5, 0x461bcd)\n      dup2\n      mstore\n        /* \"#utility.yul\":9999:10001   */\n      0x20\n        /* \"@openzeppelin/contracts/token/ERC721/ERC721.sol\":3735:3900  require(... */\n      0x04\n      dup3\n      add\n        /* \"#utility.yul\":9981:10002   */\n      mstore\n        /* \"#utility.yul\":10038:10040   */\n      0x38\n        /* \"#utility.yul\":10018:10036   */\n      0x24\n      dup3\n      add\n        /* \"#utility.yul\":10011:10041   */\n      mstore\n        /* \"#utility.yul\":10077:10111   */\n      0x4552433732313a20617070726f76652063616c6c6572206973206e6f74206f77\n        /* \"#utility.yul\":10057:10075   */\n      0x44\n      dup3\n      add\n        /* \"#utility.yul\":10050:10112   */\n      mstore\n        /* \"#utility.yul\":10148:10174   */\n      0x6e6572206e6f7220617070726f76656420666f7220616c6c0000000000000000\n        /* \"#utility.yul\":10128:10146   */\n      0x64\n      dup3\n      add\n        /* \"#utility.yul\":10121:10175   */\n      mstore\n        /* \"#utility.yul\":10192:10211   */\n      0x84\n      add\n        /* \"@openzeppelin/contracts/token/ERC721/ERC721.sol\":3735:3900  require(... */\n      tag_149\n        /* \"#utility.yul\":9797:10217   */\n      jump\n        /* \"@openzeppelin/contracts/token/ERC721/ERC721.sol\":3735:3900  require(... */\n    tag_161:\n        /* \"@openzeppelin/contracts/token/ERC721/ERC721.sol\":3911:3932  _approve(to, tokenId) */\n      tag_164\n        /* \"@openzeppelin/contracts/token/ERC721/ERC721.sol\":3920:3922  to */\n      dup4\n        /* \"@openzeppelin/contracts/token/ERC721/ERC721.sol\":3924:3931  tokenId */\n      dup4\n        /* \"@openzeppelin/contracts/token/ERC721/ERC721.sol\":3911:3919  _approve */\n      tag_165\n        /* \"@openzeppelin/contracts/token/ERC721/ERC721.sol\":3911:3932  _approve(to, tokenId) */\n      jump\t// in\n    tag_164:\n        /* \"@openzeppelin/contracts/token/ERC721/ERC721.sol\":3608:3939  {... */\n      pop\n        /* \"@openzeppelin/contracts/token/ERC721/ERC721.sol\":3538:3939  function approve(address to, uint256 tokenId) public virtual override {... */\n      pop\n      pop\n      jump\t// out\n        /* \"@openzeppelin/contracts/token/ERC721/ERC721.sol\":4727:5057  function transferFrom(... */\n    tag_60:\n        /* \"@openzeppelin/contracts/token/ERC721/ERC721.sol\":4916:4957  _isApprovedOrOwner(_msgSender(), tokenId) */\n      tag_167\n        /* \"@openzeppelin/contracts/utils/Context.sol\":719:729  msg.sender */\n      caller\n        /* \"@openzeppelin/contracts/token/ERC721/ERC721.sol\":4949:4956  tokenId */\n      dup3\n        /* \"@openzeppelin/contracts/token/ERC721/ERC721.sol\":4916:4934  _isApprovedOrOwner */\n      tag_169\n        /* \"@openzeppelin/contracts/token/ERC721/ERC721.sol\":4916:4957  _isApprovedOrOwner(_msgSender(), tokenId) */\n      jump\t// in\n    tag_167:\n        /* \"@openzeppelin/contracts/token/ERC721/ERC721.sol\":4908:5011  require(_isApprovedOrOwner(_msgSender(), tokenId), \"ERC721: transfer caller is not owner nor approved\") */\n      tag_170\n      jumpi\n      mload(0x40)\n      shl(0xe5, 0x461bcd)\n      dup2\n      mstore\n      0x04\n      add\n      tag_149\n      swap1\n      tag_172\n      jump\t// in\n    tag_170:\n        /* \"@openzeppelin/contracts/token/ERC721/ERC721.sol\":5022:5050  _transfer(from, to, tokenId) */\n      tag_164\n        /* \"@openzeppelin/contracts/token/ERC721/ERC721.sol\":5032:5036  from */\n      dup4\n        /* \"@openzeppelin/contracts/token/ERC721/ERC721.sol\":5038:5040  to */\n      dup4\n        /* \"@openzeppelin/contracts/token/ERC721/ERC721.sol\":5042:5049  tokenId */\n      dup4\n        /* \"@openzeppelin/contracts/token/ERC721/ERC721.sol\":5022:5031  _transfer */\n      tag_174\n        /* \"@openzeppelin/contracts/token/ERC721/ERC721.sol\":5022:5050  _transfer(from, to, tokenId) */\n      jump\t// in\n        /* \"contracts/sequential.sol\":789:1167  function safeMint(address to) public payable {... */\n    tag_64:\n        /* \"contracts/sequential.sol\":881:892  totalSupply */\n      sload(0x08)\n        /* \"contracts/sequential.sol\":852:867  _tokenIdCounter */\n      0x07\n        /* \"@openzeppelin/contracts/utils/Counters.sol\":918:932  counter._value */\n      sload\n        /* \"contracts/sequential.sol\":852:892  _tokenIdCounter.current() <= totalSupply */\n      gt\n      iszero\n        /* \"contracts/sequential.sol\":844:911  require(_tokenIdCounter.current() <= totalSupply,\"limit completed\") */\n      tag_178\n      jumpi\n      mload(0x40)\n      shl(0xe5, 0x461bcd)\n      dup2\n      mstore\n        /* \"#utility.yul\":13540:13542   */\n      0x20\n        /* \"contracts/sequential.sol\":844:911  require(_tokenIdCounter.current() <= totalSupply,\"limit completed\") */\n      0x04\n      dup3\n      add\n        /* \"#utility.yul\":13522:13543   */\n      mstore\n        /* \"#utility.yul\":13579:13581   */\n      0x0f\n        /* \"#utility.yul\":13559:13577   */\n      0x24\n      dup3\n      add\n        /* \"#utility.yul\":13552:13582   */\n      mstore\n      shl(0x8a, 0x1b1a5b5a5d0818dbdb5c1b195d1959)\n        /* \"#utility.yul\":13598:13616   */\n      0x44\n      dup3\n      add\n        /* \"#utility.yul\":13591:13636   */\n      mstore\n        /* \"#utility.yul\":13653:13671   */\n      0x64\n      add\n        /* \"contracts/sequential.sol\":844:911  require(_tokenIdCounter.current() <= totalSupply,\"limit completed\") */\n      tag_149\n        /* \"#utility.yul\":13338:13677   */\n      jump\n        /* \"contracts/sequential.sol\":844:911  require(_tokenIdCounter.current() <= totalSupply,\"limit completed\") */\n    tag_178:\n        /* \"contracts/sequential.sol\":942:951  mintPrice */\n      sload(0x0a)\n        /* \"contracts/sequential.sol\":929:938  msg.value */\n      callvalue\n        /* \"contracts/sequential.sol\":929:951  msg.value == mintPrice */\n      eq\n        /* \"contracts/sequential.sol\":921:966  require(msg.value == mintPrice,\"less amount\") */\n      tag_181\n      jumpi\n      mload(0x40)\n      shl(0xe5, 0x461bcd)\n      dup2\n      mstore\n        /* \"#utility.yul\":11245:11247   */\n      0x20\n        /* \"contracts/sequential.sol\":921:966  require(msg.value == mintPrice,\"less amount\") */\n      0x04\n      dup3\n      add\n        /* \"#utility.yul\":11227:11248   */\n      mstore\n        /* \"#utility.yul\":11284:11286   */\n      0x0b\n        /* \"#utility.yul\":11264:11282   */\n      0x24\n      dup3\n      add\n        /* \"#utility.yul\":11257:11287   */\n      mstore\n      shl(0xaa, 0x1b195cdcc8185b5bdd5b9d)\n        /* \"#utility.yul\":11303:11321   */\n      0x44\n      dup3\n      add\n        /* \"#utility.yul\":11296:11337   */\n      mstore\n        /* \"#utility.yul\":11354:11372   */\n      0x64\n      add\n        /* \"contracts/sequential.sol\":921:966  require(msg.value == mintPrice,\"less amount\") */\n      tag_149\n        /* \"#utility.yul\":11043:11378   */\n      jump\n        /* \"contracts/sequential.sol\":921:966  require(msg.value == mintPrice,\"less amount\") */\n    tag_181:\n        /* \"contracts/sequential.sol\":976:991  uint256 tokenId */\n      0x00\n        /* \"contracts/sequential.sol\":994:1019  _tokenIdCounter.current() */\n      tag_184\n        /* \"contracts/sequential.sol\":994:1009  _tokenIdCounter */\n      0x07\n        /* \"@openzeppelin/contracts/utils/Counters.sol\":918:932  counter._value */\n      sload\n      swap1\n        /* \"@openzeppelin/contracts/utils/Counters.sol\":827:939  function current(Counter storage counter) internal view returns (uint256) {... */\n      jump\n        /* \"contracts/sequential.sol\":994:1019  _tokenIdCounter.current() */\n    tag_184:\n        /* \"contracts/sequential.sol\":976:1019  uint256 tokenId = _tokenIdCounter.current() */\n      swap1\n      pop\n        /* \"contracts/sequential.sol\":1029:1056  _tokenIdCounter.increment() */\n      tag_185\n        /* \"contracts/sequential.sol\":1029:1044  _tokenIdCounter */\n      0x07\n        /* \"@openzeppelin/contracts/utils/Counters.sol\":1032:1051  counter._value += 1 */\n      dup1\n      sload\n        /* \"@openzeppelin/contracts/utils/Counters.sol\":1050:1051  1 */\n      0x01\n        /* \"@openzeppelin/contracts/utils/Counters.sol\":1032:1051  counter._value += 1 */\n      add\n      swap1\n      sstore\n        /* \"@openzeppelin/contracts/utils/Counters.sol\":945:1068  function increment(Counter storage counter) internal {... */\n      jump\n        /* \"contracts/sequential.sol\":1029:1056  _tokenIdCounter.increment() */\n    tag_185:\n        /* \"contracts/sequential.sol\":1066:1088  _safeMint(to, tokenId) */\n      tag_187\n        /* \"contracts/sequential.sol\":1076:1078  to */\n      dup3\n        /* \"contracts/sequential.sol\":1080:1087  tokenId */\n      dup3\n        /* \"contracts/sequential.sol\":1066:1075  _safeMint */\n      tag_188\n        /* \"contracts/sequential.sol\":1066:1088  _safeMint(to, tokenId) */\n      jump\t// in\n    tag_187:\n        /* \"contracts/sequential.sol\":1115:1124  pixeltrue */\n      immutable(\"0xa076ba0bd0a46b169fc6e8c70296c39bed79a95016d43b9507affd064e39f1de\")\n      sub(shl(0xa0, 0x01), 0x01)\n        /* \"contracts/sequential.sol\":1107:1134  payable(pixeltrue).transfer */\n      and\n        /* \"contracts/sequential.sol\":1107:1159  payable(pixeltrue).transfer(calculateTax(msg.value)) */\n      0x08fc\n        /* \"contracts/sequential.sol\":1135:1158  calculateTax(msg.value) */\n      tag_189\n        /* \"contracts/sequential.sol\":1148:1157  msg.value */\n      callvalue\n        /* \"contracts/sequential.sol\":1135:1147  calculateTax */\n      tag_72\n        /* \"contracts/sequential.sol\":1135:1158  calculateTax(msg.value) */\n      jump\t// in\n    tag_189:\n        /* \"contracts/sequential.sol\":1107:1159  payable(pixeltrue).transfer(calculateTax(msg.value)) */\n      mload(0x40)\n      dup2\n      iszero\n      swap1\n      swap3\n      mul\n      swap2\n      0x00\n      dup2\n      dup2\n      dup2\n      dup6\n      dup9\n      dup9\n      call\n      swap4\n      pop\n      pop\n      pop\n      pop\n      iszero\n      dup1\n      iszero\n      tag_164\n      jumpi\n      returndatasize\n      0x00\n      dup1\n      returndatacopy\n      revert(0x00, returndatasize)\n        /* \"@openzeppelin/contracts/token/ERC721/ERC721.sol\":5123:5302  function safeTransferFrom(... */\n    tag_68:\n        /* \"@openzeppelin/contracts/token/ERC721/ERC721.sol\":5256:5295  safeTransferFrom(from, to, tokenId, \"\") */\n      tag_164\n        /* \"@openzeppelin/contracts/token/ERC721/ERC721.sol\":5273:5277  from */\n      dup4\n        /* \"@openzeppelin/contracts/token/ERC721/ERC721.sol\":5279:5281  to */\n      dup4\n        /* \"@openzeppelin/contracts/token/ERC721/ERC721.sol\":5283:5290  tokenId */\n      dup4\n        /* \"@openzeppelin/contracts/token/ERC721/ERC721.sol\":5256:5295  safeTransferFrom(from, to, tokenId, \"\") */\n      mload(0x40)\n      dup1\n      0x20\n      add\n      0x40\n      mstore\n      dup1\n      0x00\n      dup2\n      mstore\n      pop\n        /* \"@openzeppelin/contracts/token/ERC721/ERC721.sol\":5256:5272  safeTransferFrom */\n      tag_113\n        /* \"@openzeppelin/contracts/token/ERC721/ERC721.sol\":5256:5295  safeTransferFrom(from, to, tokenId, \"\") */\n      jump\t// in\n        /* \"contracts/sequential.sol\":1692:1793  function calculateTax(uint _value)public pure returns(uint){... */\n    tag_72:\n        /* \"contracts/sequential.sol\":1746:1750  uint */\n      0x00\n        /* \"contracts/sequential.sol\":1768:1780  _value/10000 */\n      tag_195\n        /* \"contracts/sequential.sol\":1775:1780  10000 */\n      0x2710\n        /* \"contracts/sequential.sol\":1768:1774  _value */\n      dup4\n        /* \"contracts/sequential.sol\":1768:1780  _value/10000 */\n      tag_196\n      jump\t// in\n    tag_195:\n        /* \"contracts/sequential.sol\":1768:1786  _value/10000 * 927 */\n      tag_136\n      swap1\n        /* \"contracts/sequential.sol\":1783:1786  927 */\n      0x039f\n        /* \"contracts/sequential.sol\":1768:1786  _value/10000 * 927 */\n      tag_198\n      jump\t// in\n        /* \"contracts/sequential.sol\":1367:1466  function setBaseURI(string memory baseURI) public onlyOwner {... */\n    tag_78:\n        /* \"@openzeppelin/contracts/access/Ownable.sol\":1108:1114  _owner */\n      and(sub(shl(0xa0, 0x01), 0x01), sload(0x06))\n        /* \"@openzeppelin/contracts/utils/Context.sol\":719:729  msg.sender */\n      caller\n        /* \"@openzeppelin/contracts/access/Ownable.sol\":1248:1271  owner() == _msgSender() */\n      eq\n        /* \"@openzeppelin/contracts/access/Ownable.sol\":1240:1308  require(owner() == _msgSender(), \"Ownable: caller is not the owner\") */\n      tag_202\n      jumpi\n      mload(0x40)\n      shl(0xe5, 0x461bcd)\n      dup2\n      mstore\n      0x04\n      add\n      tag_149\n      swap1\n      tag_204\n      jump\t// in\n    tag_202:\n        /* \"contracts/sequential.sol\":1437:1459  baseTokenURI = baseURI */\n      dup1\n      mload\n      tag_206\n      swap1\n        /* \"contracts/sequential.sol\":1437:1449  baseTokenURI */\n      0x09\n      swap1\n        /* \"contracts/sequential.sol\":1437:1459  baseTokenURI = baseURI */\n      0x20\n      dup5\n      add\n      swap1\n      tag_207\n      jump\t// in\n    tag_206:\n      pop\n        /* \"contracts/sequential.sol\":1367:1466  function setBaseURI(string memory baseURI) public onlyOwner {... */\n      pop\n      jump\t// out\n        /* \"@openzeppelin/contracts/token/ERC721/ERC721.sol\":2191:2426  function ownerOf(uint256 tokenId) public view virtual override returns (address) {... */\n    tag_82:\n        /* \"@openzeppelin/contracts/token/ERC721/ERC721.sol\":2263:2270  address */\n      0x00\n        /* \"@openzeppelin/contracts/token/ERC721/ERC721.sol\":2298:2314  _owners[tokenId] */\n      dup2\n      dup2\n      mstore\n        /* \"@openzeppelin/contracts/token/ERC721/ERC721.sol\":2298:2305  _owners */\n      0x02\n        /* \"@openzeppelin/contracts/token/ERC721/ERC721.sol\":2298:2314  _owners[tokenId] */\n      0x20\n      mstore\n      0x40\n      dup2\n      keccak256\n      sload\n      sub(shl(0xa0, 0x01), 0x01)\n      and\n        /* \"@openzeppelin/contracts/token/ERC721/ERC721.sol\":2332:2351  owner != address(0) */\n      dup1\n        /* \"@openzeppelin/contracts/token/ERC721/ERC721.sol\":2324:2397  require(owner != address(0), \"ERC721: owner query for nonexistent token\") */\n      tag_136\n      jumpi\n      mload(0x40)\n      shl(0xe5, 0x461bcd)\n      dup2\n      mstore\n        /* \"#utility.yul\":10835:10837   */\n      0x20\n        /* \"@openzeppelin/contracts/token/ERC721/ERC721.sol\":2324:2397  require(owner != address(0), \"ERC721: owner query for nonexistent token\") */\n      0x04\n      dup3\n      add\n        /* \"#utility.yul\":10817:10838   */\n      mstore\n        /* \"#utility.yul\":10874:10876   */\n      0x29\n        /* \"#utility.yul\":10854:10872   */\n      0x24\n      dup3\n      add\n        /* \"#utility.yul\":10847:10877   */\n      mstore\n        /* \"#utility.yul\":10913:10947   */\n      0x4552433732313a206f776e657220717565727920666f72206e6f6e6578697374\n        /* \"#utility.yul\":10893:10911   */\n      0x44\n      dup3\n      add\n        /* \"#utility.yul\":10886:10948   */\n      mstore\n      shl(0xb9, 0x32b73a103a37b5b2b7)\n        /* \"#utility.yul\":10964:10982   */\n      0x64\n      dup3\n      add\n        /* \"#utility.yul\":10957:10996   */\n      mstore\n        /* \"#utility.yul\":11013:11032   */\n      0x84\n      add\n        /* \"@openzeppelin/contracts/token/ERC721/ERC721.sol\":2324:2397  require(owner != address(0), \"ERC721: owner query for nonexistent token\") */\n      tag_149\n        /* \"#utility.yul\":10633:11038   */\n      jump\n        /* \"@openzeppelin/contracts/token/ERC721/ERC721.sol\":1929:2134  function balanceOf(address owner) public view virtual override returns (uint256) {... */\n    tag_91:\n        /* \"@openzeppelin/contracts/token/ERC721/ERC721.sol\":2001:2008  uint256 */\n      0x00\n      sub(shl(0xa0, 0x01), 0x01)\n        /* \"@openzeppelin/contracts/token/ERC721/ERC721.sol\":2028:2047  owner != address(0) */\n      dup3\n      and\n        /* \"@openzeppelin/contracts/token/ERC721/ERC721.sol\":2020:2094  require(owner != address(0), \"ERC721: balance query for the zero address\") */\n      tag_213\n      jumpi\n      mload(0x40)\n      shl(0xe5, 0x461bcd)\n      dup2\n      mstore\n        /* \"#utility.yul\":10424:10426   */\n      0x20\n        /* \"@openzeppelin/contracts/token/ERC721/ERC721.sol\":2020:2094  require(owner != address(0), \"ERC721: balance query for the zero address\") */\n      0x04\n      dup3\n      add\n        /* \"#utility.yul\":10406:10427   */\n      mstore\n        /* \"#utility.yul\":10463:10465   */\n      0x2a\n        /* \"#utility.yul\":10443:10461   */\n      0x24\n      dup3\n      add\n        /* \"#utility.yul\":10436:10466   */\n      mstore\n        /* \"#utility.yul\":10502:10536   */\n      0x4552433732313a2062616c616e636520717565727920666f7220746865207a65\n        /* \"#utility.yul\":10482:10500   */\n      0x44\n      dup3\n      add\n        /* \"#utility.yul\":10475:10537   */\n      mstore\n      shl(0xb0, 0x726f2061646472657373)\n        /* \"#utility.yul\":10553:10571   */\n      0x64\n      dup3\n      add\n        /* \"#utility.yul\":10546:10586   */\n      mstore\n        /* \"#utility.yul\":10603:10622   */\n      0x84\n      add\n        /* \"@openzeppelin/contracts/token/ERC721/ERC721.sol\":2020:2094  require(owner != address(0), \"ERC721: balance query for the zero address\") */\n      tag_149\n        /* \"#utility.yul\":10222:10628   */\n      jump\n        /* \"@openzeppelin/contracts/token/ERC721/ERC721.sol\":2020:2094  require(owner != address(0), \"ERC721: balance query for the zero address\") */\n    tag_213:\n      pop\n      sub(shl(0xa0, 0x01), 0x01)\n        /* \"@openzeppelin/contracts/token/ERC721/ERC721.sol\":2111:2127  _balances[owner] */\n      and\n      0x00\n      swap1\n      dup2\n      mstore\n        /* \"@openzeppelin/contracts/token/ERC721/ERC721.sol\":2111:2120  _balances */\n      0x03\n        /* \"@openzeppelin/contracts/token/ERC721/ERC721.sol\":2111:2127  _balances[owner] */\n      0x20\n      mstore\n      0x40\n      swap1\n      keccak256\n      sload\n      swap1\n        /* \"@openzeppelin/contracts/token/ERC721/ERC721.sol\":1929:2134  function balanceOf(address owner) public view virtual override returns (uint256) {... */\n      jump\t// out\n        /* \"@openzeppelin/contracts/access/Ownable.sol\":1668:1769  function renounceOwnership() public virtual onlyOwner {... */\n    tag_95:\n        /* \"@openzeppelin/contracts/access/Ownable.sol\":1108:1114  _owner */\n      and(sub(shl(0xa0, 0x01), 0x01), sload(0x06))\n        /* \"@openzeppelin/contracts/utils/Context.sol\":719:729  msg.sender */\n      caller\n        /* \"@openzeppelin/contracts/access/Ownable.sol\":1248:1271  owner() == _msgSender() */\n      eq\n        /* \"@openzeppelin/contracts/access/Ownable.sol\":1240:1308  require(owner() == _msgSender(), \"Ownable: caller is not the owner\") */\n      tag_219\n      jumpi\n      mload(0x40)\n      shl(0xe5, 0x461bcd)\n      dup2\n      mstore\n      0x04\n      add\n      tag_149\n      swap1\n      tag_204\n      jump\t// in\n    tag_219:\n        /* \"@openzeppelin/contracts/access/Ownable.sol\":1732:1762  _transferOwnership(address(0)) */\n      tag_222\n        /* \"@openzeppelin/contracts/access/Ownable.sol\":1759:1760  0 */\n      0x00\n        /* \"@openzeppelin/contracts/access/Ownable.sol\":1732:1750  _transferOwnership */\n      tag_223\n        /* \"@openzeppelin/contracts/access/Ownable.sol\":1732:1762  _transferOwnership(address(0)) */\n      jump\t// in\n    tag_222:\n        /* \"@openzeppelin/contracts/access/Ownable.sol\":1668:1769  function renounceOwnership() public virtual onlyOwner {... */\n      jump\t// out\n        /* \"@openzeppelin/contracts/token/ERC721/ERC721.sol\":2650:2752  function symbol() public view virtual override returns (string memory) {... */\n    tag_102:\n        /* \"@openzeppelin/contracts/token/ERC721/ERC721.sol\":2706:2719  string memory */\n      0x60\n        /* \"@openzeppelin/contracts/token/ERC721/ERC721.sol\":2738:2745  _symbol */\n      0x01\n        /* \"@openzeppelin/contracts/token/ERC721/ERC721.sol\":2731:2745  return _symbol */\n      dup1\n      sload\n      tag_139\n      swap1\n      tag_140\n      jump\t// in\n        /* \"@openzeppelin/contracts/token/ERC721/ERC721.sol\":4284:4437  function setApprovalForAll(address operator, bool approved) public virtual override {... */\n    tag_108:\n        /* \"@openzeppelin/contracts/token/ERC721/ERC721.sol\":4378:4430  _setApprovalForAll(_msgSender(), operator, approved) */\n      tag_206\n        /* \"@openzeppelin/contracts/utils/Context.sol\":719:729  msg.sender */\n      caller\n        /* \"@openzeppelin/contracts/token/ERC721/ERC721.sol\":4411:4419  operator */\n      dup4\n        /* \"@openzeppelin/contracts/token/ERC721/ERC721.sol\":4421:4429  approved */\n      dup4\n        /* \"@openzeppelin/contracts/token/ERC721/ERC721.sol\":4378:4396  _setApprovalForAll */\n      tag_234\n        /* \"@openzeppelin/contracts/token/ERC721/ERC721.sol\":4378:4430  _setApprovalForAll(_msgSender(), operator, approved) */\n      jump\t// in\n        /* \"@openzeppelin/contracts/token/ERC721/ERC721.sol\":5368:5688  function safeTransferFrom(... */\n    tag_113:\n        /* \"@openzeppelin/contracts/token/ERC721/ERC721.sol\":5537:5578  _isApprovedOrOwner(_msgSender(), tokenId) */\n      tag_236\n        /* \"@openzeppelin/contracts/utils/Context.sol\":719:729  msg.sender */\n      caller\n        /* \"@openzeppelin/contracts/token/ERC721/ERC721.sol\":5570:5577  tokenId */\n      dup4\n        /* \"@openzeppelin/contracts/token/ERC721/ERC721.sol\":5537:5555  _isApprovedOrOwner */\n      tag_169\n        /* \"@openzeppelin/contracts/token/ERC721/ERC721.sol\":5537:5578  _isApprovedOrOwner(_msgSender(), tokenId) */\n      jump\t// in\n    tag_236:\n        /* \"@openzeppelin/contracts/token/ERC721/ERC721.sol\":5529:5632  require(_isApprovedOrOwner(_msgSender(), tokenId), \"ERC721: transfer caller is not owner nor approved\") */\n      tag_238\n      jumpi\n      mload(0x40)\n      shl(0xe5, 0x461bcd)\n      dup2\n      mstore\n      0x04\n      add\n      tag_149\n      swap1\n      tag_172\n      jump\t// in\n    tag_238:\n        /* \"@openzeppelin/contracts/token/ERC721/ERC721.sol\":5642:5681  _safeTransfer(from, to, tokenId, _data) */\n      tag_240\n        /* \"@openzeppelin/contracts/token/ERC721/ERC721.sol\":5656:5660  from */\n      dup5\n        /* \"@openzeppelin/contracts/token/ERC721/ERC721.sol\":5662:5664  to */\n      dup5\n        /* \"@openzeppelin/contracts/token/ERC721/ERC721.sol\":5666:5673  tokenId */\n      dup5\n        /* \"@openzeppelin/contracts/token/ERC721/ERC721.sol\":5675:5680  _data */\n      dup5\n        /* \"@openzeppelin/contracts/token/ERC721/ERC721.sol\":5642:5655  _safeTransfer */\n      tag_241\n        /* \"@openzeppelin/contracts/token/ERC721/ERC721.sol\":5642:5681  _safeTransfer(from, to, tokenId, _data) */\n      jump\t// in\n    tag_240:\n        /* \"@openzeppelin/contracts/token/ERC721/ERC721.sol\":5368:5688  function safeTransferFrom(... */\n      pop\n      pop\n      pop\n      pop\n      jump\t// out\n        /* \"contracts/sequential.sol\":1472:1686  function tokenURI(uint256 tokenId)... */\n    tag_117:\n        /* \"contracts/sequential.sol\":1577:1590  string memory */\n      0x60\n        /* \"contracts/sequential.sol\":1638:1650  baseTokenURI */\n      0x09\n        /* \"contracts/sequential.sol\":1651:1669  tokenId.toString() */\n      tag_243\n        /* \"contracts/sequential.sol\":1651:1658  tokenId */\n      dup4\n        /* \"contracts/sequential.sol\":1651:1667  tokenId.toString */\n      tag_244\n        /* \"contracts/sequential.sol\":1651:1669  tokenId.toString() */\n      jump\t// in\n    tag_243:\n        /* \"contracts/sequential.sol\":1621:1678  abi.encodePacked(baseTokenURI,tokenId.toString(),\".json\") */\n      add(0x20, mload(0x40))\n      tag_245\n      swap3\n      swap2\n      swap1\n      tag_246\n      jump\t// in\n    tag_245:\n      mload(0x40)\n      0x20\n      dup2\n      dup4\n      sub\n      sub\n      dup2\n      mstore\n      swap1\n      0x40\n      mstore\n        /* \"contracts/sequential.sol\":1607:1679  return string(abi.encodePacked(baseTokenURI,tokenId.toString(),\".json\")) */\n      swap1\n      pop\n        /* \"contracts/sequential.sol\":1472:1686  function tokenURI(uint256 tokenId)... */\n      swap2\n      swap1\n      pop\n      jump\t// out\n        /* \"contracts/sequential.sol\":466:492  string public baseTokenURI */\n    tag_121:\n      0x09\n      dup1\n      sload\n      tag_247\n      swap1\n      tag_140\n      jump\t// in\n    tag_247:\n      dup1\n      0x1f\n      add\n      0x20\n      dup1\n      swap2\n      div\n      mul\n      0x20\n      add\n      mload(0x40)\n      swap1\n      dup2\n      add\n      0x40\n      mstore\n      dup1\n      swap3\n      swap2\n      swap1\n      dup2\n      dup2\n      mstore\n      0x20\n      add\n      dup3\n      dup1\n      sload\n      tag_248\n      swap1\n      tag_140\n      jump\t// in\n    tag_248:\n      dup1\n      iszero\n      tag_249\n      jumpi\n      dup1\n      0x1f\n      lt\n      tag_250\n      jumpi\n      0x0100\n      dup1\n      dup4\n      sload\n      div\n      mul\n      dup4\n      mstore\n      swap2\n      0x20\n      add\n      swap2\n      jump(tag_249)\n    tag_250:\n      dup3\n      add\n      swap2\n      swap1\n      0x00\n      mstore\n      keccak256(0x00, 0x20)\n      swap1\n    tag_251:\n      dup2\n      sload\n      dup2\n      mstore\n      swap1\n      0x01\n      add\n      swap1\n      0x20\n      add\n      dup1\n      dup4\n      gt\n      tag_251\n      jumpi\n      dup3\n      swap1\n      sub\n      0x1f\n      and\n      dup3\n      add\n      swap2\n    tag_249:\n      pop\n      pop\n      pop\n      pop\n      pop\n      dup2\n      jump\t// out\n        /* \"@openzeppelin/contracts/access/Ownable.sol\":1918:2116  function transferOwnership(address newOwner) public virtual onlyOwner {... */\n    tag_132:\n        /* \"@openzeppelin/contracts/access/Ownable.sol\":1108:1114  _owner */\n      and(sub(shl(0xa0, 0x01), 0x01), sload(0x06))\n        /* \"@openzeppelin/contracts/utils/Context.sol\":719:729  msg.sender */\n      caller\n        /* \"@openzeppelin/contracts/access/Ownable.sol\":1248:1271  owner() == _msgSender() */\n      eq\n        /* \"@openzeppelin/contracts/access/Ownable.sol\":1240:1308  require(owner() == _msgSender(), \"Ownable: caller is not the owner\") */\n      tag_256\n      jumpi\n      mload(0x40)\n      shl(0xe5, 0x461bcd)\n      dup2\n      mstore\n      0x04\n      add\n      tag_149\n      swap1\n      tag_204\n      jump\t// in\n    tag_256:\n      sub(shl(0xa0, 0x01), 0x01)\n        /* \"@openzeppelin/contracts/access/Ownable.sol\":2006:2028  newOwner != address(0) */\n      dup2\n      and\n        /* \"@openzeppelin/contracts/access/Ownable.sol\":1998:2071  require(newOwner != address(0), \"Ownable: new owner is the zero address\") */\n      tag_259\n      jumpi\n      mload(0x40)\n      shl(0xe5, 0x461bcd)\n      dup2\n      mstore\n        /* \"#utility.yul\":7657:7659   */\n      0x20\n        /* \"@openzeppelin/contracts/access/Ownable.sol\":1998:2071  require(newOwner != address(0), \"Ownable: new owner is the zero address\") */\n      0x04\n      dup3\n      add\n        /* \"#utility.yul\":7639:7660   */\n      mstore\n        /* \"#utility.yul\":7696:7698   */\n      0x26\n        /* \"#utility.yul\":7676:7694   */\n      0x24\n      dup3\n      add\n        /* \"#utility.yul\":7669:7699   */\n      mstore\n        /* \"#utility.yul\":7735:7769   */\n      0x4f776e61626c653a206e6577206f776e657220697320746865207a65726f2061\n        /* \"#utility.yul\":7715:7733   */\n      0x44\n      dup3\n      add\n        /* \"#utility.yul\":7708:7770   */\n      mstore\n      shl(0xd0, 0x646472657373)\n        /* \"#utility.yul\":7786:7804   */\n      0x64\n      dup3\n      add\n        /* \"#utility.yul\":7779:7815   */\n      mstore\n        /* \"#utility.yul\":7832:7851   */\n      0x84\n      add\n        /* \"@openzeppelin/contracts/access/Ownable.sol\":1998:2071  require(newOwner != address(0), \"Ownable: new owner is the zero address\") */\n      tag_149\n        /* \"#utility.yul\":7455:7857   */\n      jump\n        /* \"@openzeppelin/contracts/access/Ownable.sol\":1998:2071  require(newOwner != address(0), \"Ownable: new owner is the zero address\") */\n    tag_259:\n        /* \"@openzeppelin/contracts/access/Ownable.sol\":2081:2109  _transferOwnership(newOwner) */\n      tag_262\n        /* \"@openzeppelin/contracts/access/Ownable.sol\":2100:2108  newOwner */\n      dup2\n        /* \"@openzeppelin/contracts/access/Ownable.sol\":2081:2099  _transferOwnership */\n      tag_223\n        /* \"@openzeppelin/contracts/access/Ownable.sol\":2081:2109  _transferOwnership(newOwner) */\n      jump\t// in\n    tag_262:\n        /* \"@openzeppelin/contracts/access/Ownable.sol\":1918:2116  function transferOwnership(address newOwner) public virtual onlyOwner {... */\n      pop\n      jump\t// out\n        /* \"@openzeppelin/contracts/token/ERC721/ERC721.sol\":11169:11340  function _approve(address to, uint256 tokenId) internal virtual {... */\n    tag_165:\n        /* \"@openzeppelin/contracts/token/ERC721/ERC721.sol\":11243:11267  _tokenApprovals[tokenId] */\n      0x00\n      dup2\n      dup2\n      mstore\n        /* \"@openzeppelin/contracts/token/ERC721/ERC721.sol\":11243:11258  _tokenApprovals */\n      0x04\n        /* \"@openzeppelin/contracts/token/ERC721/ERC721.sol\":11243:11267  _tokenApprovals[tokenId] */\n      0x20\n      mstore\n      0x40\n      swap1\n      keccak256\n        /* \"@openzeppelin/contracts/token/ERC721/ERC721.sol\":11243:11272  _tokenApprovals[tokenId] = to */\n      dup1\n      sload\n      not(sub(shl(0xa0, 0x01), 0x01))\n      and\n      sub(shl(0xa0, 0x01), 0x01)\n      dup5\n      and\n      swap1\n      dup2\n      or\n      swap1\n      swap2\n      sstore\n        /* \"@openzeppelin/contracts/token/ERC721/ERC721.sol\":11243:11267  _tokenApprovals[tokenId] */\n      dup2\n      swap1\n        /* \"@openzeppelin/contracts/token/ERC721/ERC721.sol\":11296:11319  ERC721.ownerOf(tokenId) */\n      tag_267\n        /* \"@openzeppelin/contracts/token/ERC721/ERC721.sol\":11243:11267  _tokenApprovals[tokenId] */\n      dup3\n        /* \"@openzeppelin/contracts/token/ERC721/ERC721.sol\":11296:11310  ERC721.ownerOf */\n      tag_82\n        /* \"@openzeppelin/contracts/token/ERC721/ERC721.sol\":11296:11319  ERC721.ownerOf(tokenId) */\n      jump\t// in\n    tag_267:\n      sub(shl(0xa0, 0x01), 0x01)\n        /* \"@openzeppelin/contracts/token/ERC721/ERC721.sol\":11287:11333  Approval(ERC721.ownerOf(tokenId), to, tokenId) */\n      and\n      0x8c5be1e5ebec7d5bd14f71427d1e84f3dd0314c0f7b2291e5b200ac8c7c3b925\n      mload(0x40)\n      mload(0x40)\n      dup1\n      swap2\n      sub\n      swap1\n      log4\n        /* \"@openzeppelin/contracts/token/ERC721/ERC721.sol\":11169:11340  function _approve(address to, uint256 tokenId) internal virtual {... */\n      pop\n      pop\n      jump\t// out\n        /* \"@openzeppelin/contracts/token/ERC721/ERC721.sol\":7443:7787  function _isApprovedOrOwner(address spender, uint256 tokenId) internal view virtual returns (bool) {... */\n    tag_169:\n        /* \"@openzeppelin/contracts/token/ERC721/ERC721.sol\":7536:7540  bool */\n      0x00\n        /* \"@openzeppelin/contracts/token/ERC721/ERC721.sol\":7248:7264  _owners[tokenId] */\n      dup2\n      dup2\n      mstore\n        /* \"@openzeppelin/contracts/token/ERC721/ERC721.sol\":7248:7255  _owners */\n      0x02\n        /* \"@openzeppelin/contracts/token/ERC721/ERC721.sol\":7248:7264  _owners[tokenId] */\n      0x20\n      mstore\n      0x40\n      dup2\n      keccak256\n      sload\n      sub(shl(0xa0, 0x01), 0x01)\n      and\n        /* \"@openzeppelin/contracts/token/ERC721/ERC721.sol\":7552:7625  require(_exists(tokenId), \"ERC721: operator query for nonexistent token\") */\n      tag_270\n      jumpi\n      mload(0x40)\n      shl(0xe5, 0x461bcd)\n      dup2\n      mstore\n        /* \"#utility.yul\":9586:9588   */\n      0x20\n        /* \"@openzeppelin/contracts/token/ERC721/ERC721.sol\":7552:7625  require(_exists(tokenId), \"ERC721: operator query for nonexistent token\") */\n      0x04\n      dup3\n      add\n        /* \"#utility.yul\":9568:9589   */\n      mstore\n        /* \"#utility.yul\":9625:9627   */\n      0x2c\n        /* \"#utility.yul\":9605:9623   */\n      0x24\n      dup3\n      add\n        /* \"#utility.yul\":9598:9628   */\n      mstore\n        /* \"#utility.yul\":9664:9698   */\n      0x4552433732313a206f70657261746f7220717565727920666f72206e6f6e6578\n        /* \"#utility.yul\":9644:9662   */\n      0x44\n      dup3\n      add\n        /* \"#utility.yul\":9637:9699   */\n      mstore\n      shl(0xa1, 0x34b9ba32b73a103a37b5b2b7)\n        /* \"#utility.yul\":9715:9733   */\n      0x64\n      dup3\n      add\n        /* \"#utility.yul\":9708:9750   */\n      mstore\n        /* \"#utility.yul\":9767:9786   */\n      0x84\n      add\n        /* \"@openzeppelin/contracts/token/ERC721/ERC721.sol\":7552:7625  require(_exists(tokenId), \"ERC721: operator query for nonexistent token\") */\n      tag_149\n        /* \"#utility.yul\":9384:9792   */\n      jump\n        /* \"@openzeppelin/contracts/token/ERC721/ERC721.sol\":7552:7625  require(_exists(tokenId), \"ERC721: operator query for nonexistent token\") */\n    tag_270:\n        /* \"@openzeppelin/contracts/token/ERC721/ERC721.sol\":7635:7648  address owner */\n      0x00\n        /* \"@openzeppelin/contracts/token/ERC721/ERC721.sol\":7651:7674  ERC721.ownerOf(tokenId) */\n      tag_273\n        /* \"@openzeppelin/contracts/token/ERC721/ERC721.sol\":7666:7673  tokenId */\n      dup4\n        /* \"@openzeppelin/contracts/token/ERC721/ERC721.sol\":7651:7665  ERC721.ownerOf */\n      tag_82\n        /* \"@openzeppelin/contracts/token/ERC721/ERC721.sol\":7651:7674  ERC721.ownerOf(tokenId) */\n      jump\t// in\n    tag_273:\n        /* \"@openzeppelin/contracts/token/ERC721/ERC721.sol\":7635:7674  address owner = ERC721.ownerOf(tokenId) */\n      swap1\n      pop\n        /* \"@openzeppelin/contracts/token/ERC721/ERC721.sol\":7703:7708  owner */\n      dup1\n      sub(shl(0xa0, 0x01), 0x01)\n        /* \"@openzeppelin/contracts/token/ERC721/ERC721.sol\":7692:7708  spender == owner */\n      and\n        /* \"@openzeppelin/contracts/token/ERC721/ERC721.sol\":7692:7699  spender */\n      dup5\n      sub(shl(0xa0, 0x01), 0x01)\n        /* \"@openzeppelin/contracts/token/ERC721/ERC721.sol\":7692:7708  spender == owner */\n      and\n      eq\n        /* \"@openzeppelin/contracts/token/ERC721/ERC721.sol\":7692:7744  spender == owner || isApprovedForAll(owner, spender) */\n      dup1\n      tag_275\n      jumpi\n      pop\n      sub(shl(0xa0, 0x01), 0x01)\n        /* \"@openzeppelin/contracts/token/ERC721/ERC721.sol\":4623:4648  _operatorApprovals[owner] */\n      dup1\n      dup3\n      and\n        /* \"@openzeppelin/contracts/token/ERC721/ERC721.sol\":4600:4604  bool */\n      0x00\n        /* \"@openzeppelin/contracts/token/ERC721/ERC721.sol\":4623:4648  _operatorApprovals[owner] */\n      swap1\n      dup2\n      mstore\n        /* \"@openzeppelin/contracts/token/ERC721/ERC721.sol\":4623:4641  _operatorApprovals */\n      0x05\n        /* \"@openzeppelin/contracts/token/ERC721/ERC721.sol\":4623:4648  _operatorApprovals[owner] */\n      0x20\n      swap1\n      dup2\n      mstore\n      0x40\n      dup1\n      dup4\n      keccak256\n        /* \"@openzeppelin/contracts/token/ERC721/ERC721.sol\":4623:4658  _operatorApprovals[owner][operator] */\n      swap4\n      dup9\n      and\n      dup4\n      mstore\n      swap3\n      swap1\n      mstore\n      keccak256\n      sload\n      0xff\n      and\n        /* \"@openzeppelin/contracts/token/ERC721/ERC721.sol\":7712:7744  isApprovedForAll(owner, spender) */\n    tag_275:\n        /* \"@openzeppelin/contracts/token/ERC721/ERC721.sol\":7692:7779  spender == owner || isApprovedForAll(owner, spender) || getApproved(tokenId) == spender */\n      dup1\n      tag_276\n      jumpi\n      pop\n        /* \"@openzeppelin/contracts/token/ERC721/ERC721.sol\":7772:7779  spender */\n      dup4\n      sub(shl(0xa0, 0x01), 0x01)\n        /* \"@openzeppelin/contracts/token/ERC721/ERC721.sol\":7748:7779  getApproved(tokenId) == spender */\n      and\n        /* \"@openzeppelin/contracts/token/ERC721/ERC721.sol\":7748:7768  getApproved(tokenId) */\n      tag_277\n        /* \"@openzeppelin/contracts/token/ERC721/ERC721.sol\":7760:7767  tokenId */\n      dup5\n        /* \"@openzeppelin/contracts/token/ERC721/ERC721.sol\":7748:7759  getApproved */\n      tag_43\n        /* \"@openzeppelin/contracts/token/ERC721/ERC721.sol\":7748:7768  getApproved(tokenId) */\n      jump\t// in\n    tag_277:\n      sub(shl(0xa0, 0x01), 0x01)\n        /* \"@openzeppelin/contracts/token/ERC721/ERC721.sol\":7748:7779  getApproved(tokenId) == spender */\n      and\n      eq\n        /* \"@openzeppelin/contracts/token/ERC721/ERC721.sol\":7692:7779  spender == owner || isApprovedForAll(owner, spender) || getApproved(tokenId) == spender */\n    tag_276:\n        /* \"@openzeppelin/contracts/token/ERC721/ERC721.sol\":7684:7780  return (spender == owner || isApprovedForAll(owner, spender) || getApproved(tokenId) == spender) */\n      swap5\n        /* \"@openzeppelin/contracts/token/ERC721/ERC721.sol\":7443:7787  function _isApprovedOrOwner(address spender, uint256 tokenId) internal view virtual returns (bool) {... */\n      swap4\n      pop\n      pop\n      pop\n      pop\n      jump\t// out\n        /* \"@openzeppelin/contracts/token/ERC721/ERC721.sol\":10453:11058  function _transfer(... */\n    tag_174:\n        /* \"@openzeppelin/contracts/token/ERC721/ERC721.sol\":10607:10611  from */\n      dup3\n      sub(shl(0xa0, 0x01), 0x01)\n        /* \"@openzeppelin/contracts/token/ERC721/ERC721.sol\":10580:10611  ERC721.ownerOf(tokenId) == from */\n      and\n        /* \"@openzeppelin/contracts/token/ERC721/ERC721.sol\":10580:10603  ERC721.ownerOf(tokenId) */\n      tag_279\n        /* \"@openzeppelin/contracts/token/ERC721/ERC721.sol\":10595:10602  tokenId */\n      dup3\n        /* \"@openzeppelin/contracts/token/ERC721/ERC721.sol\":10580:10594  ERC721.ownerOf */\n      tag_82\n        /* \"@openzeppelin/contracts/token/ERC721/ERC721.sol\":10580:10603  ERC721.ownerOf(tokenId) */\n      jump\t// in\n    tag_279:\n      sub(shl(0xa0, 0x01), 0x01)\n        /* \"@openzeppelin/contracts/token/ERC721/ERC721.sol\":10580:10611  ERC721.ownerOf(tokenId) == from */\n      and\n      eq\n        /* \"@openzeppelin/contracts/token/ERC721/ERC721.sol\":10572:10653  require(ERC721.ownerOf(tokenId) == from, \"ERC721: transfer from incorrect owner\") */\n      tag_280\n      jumpi\n      mload(0x40)\n      shl(0xe5, 0x461bcd)\n      dup2\n      mstore\n        /* \"#utility.yul\":8064:8066   */\n      0x20\n        /* \"@openzeppelin/contracts/token/ERC721/ERC721.sol\":10572:10653  require(ERC721.ownerOf(tokenId) == from, \"ERC721: transfer from incorrect owner\") */\n      0x04\n      dup3\n      add\n        /* \"#utility.yul\":8046:8067   */\n      mstore\n        /* \"#utility.yul\":8103:8105   */\n      0x25\n        /* \"#utility.yul\":8083:8101   */\n      0x24\n      dup3\n      add\n        /* \"#utility.yul\":8076:8106   */\n      mstore\n        /* \"#utility.yul\":8142:8176   */\n      0x4552433732313a207472616e736665722066726f6d20696e636f727265637420\n        /* \"#utility.yul\":8122:8140   */\n      0x44\n      dup3\n      add\n        /* \"#utility.yul\":8115:8177   */\n      mstore\n      shl(0xd9, 0x37bbb732b9)\n        /* \"#utility.yul\":8193:8211   */\n      0x64\n      dup3\n      add\n        /* \"#utility.yul\":8186:8221   */\n      mstore\n        /* \"#utility.yul\":8238:8257   */\n      0x84\n      add\n        /* \"@openzeppelin/contracts/token/ERC721/ERC721.sol\":10572:10653  require(ERC721.ownerOf(tokenId) == from, \"ERC721: transfer from incorrect owner\") */\n      tag_149\n        /* \"#utility.yul\":7862:8263   */\n      jump\n        /* \"@openzeppelin/contracts/token/ERC721/ERC721.sol\":10572:10653  require(ERC721.ownerOf(tokenId) == from, \"ERC721: transfer from incorrect owner\") */\n    tag_280:\n      sub(shl(0xa0, 0x01), 0x01)\n        /* \"@openzeppelin/contracts/token/ERC721/ERC721.sol\":10671:10687  to != address(0) */\n      dup3\n      and\n        /* \"@openzeppelin/contracts/token/ERC721/ERC721.sol\":10663:10728  require(to != address(0), \"ERC721: transfer to the zero address\") */\n      tag_283\n      jumpi\n      mload(0x40)\n      shl(0xe5, 0x461bcd)\n      dup2\n      mstore\n        /* \"#utility.yul\":8827:8829   */\n      0x20\n        /* \"@openzeppelin/contracts/token/ERC721/ERC721.sol\":10663:10728  require(to != address(0), \"ERC721: transfer to the zero address\") */\n      0x04\n      dup3\n      add\n        /* \"#utility.yul\":8809:8830   */\n      mstore\n        /* \"#utility.yul\":8866:8868   */\n      0x24\n        /* \"#utility.yul\":8846:8864   */\n      dup1\n      dup3\n      add\n        /* \"#utility.yul\":8839:8869   */\n      mstore\n        /* \"#utility.yul\":8905:8939   */\n      0x4552433732313a207472616e7366657220746f20746865207a65726f20616464\n        /* \"#utility.yul\":8885:8903   */\n      0x44\n      dup3\n      add\n        /* \"#utility.yul\":8878:8940   */\n      mstore\n      shl(0xe0, 0x72657373)\n        /* \"#utility.yul\":8956:8974   */\n      0x64\n      dup3\n      add\n        /* \"#utility.yul\":8949:8983   */\n      mstore\n        /* \"#utility.yul\":9000:9019   */\n      0x84\n      add\n        /* \"@openzeppelin/contracts/token/ERC721/ERC721.sol\":10663:10728  require(to != address(0), \"ERC721: transfer to the zero address\") */\n      tag_149\n        /* \"#utility.yul\":8625:9025   */\n      jump\n        /* \"@openzeppelin/contracts/token/ERC721/ERC721.sol\":10663:10728  require(to != address(0), \"ERC721: transfer to the zero address\") */\n    tag_283:\n        /* \"@openzeppelin/contracts/token/ERC721/ERC721.sol\":10840:10869  _approve(address(0), tokenId) */\n      tag_288\n        /* \"@openzeppelin/contracts/token/ERC721/ERC721.sol\":10857:10858  0 */\n      0x00\n        /* \"@openzeppelin/contracts/token/ERC721/ERC721.sol\":10861:10868  tokenId */\n      dup3\n        /* \"@openzeppelin/contracts/token/ERC721/ERC721.sol\":10840:10848  _approve */\n      tag_165\n        /* \"@openzeppelin/contracts/token/ERC721/ERC721.sol\":10840:10869  _approve(address(0), tokenId) */\n      jump\t// in\n    tag_288:\n      sub(shl(0xa0, 0x01), 0x01)\n        /* \"@openzeppelin/contracts/token/ERC721/ERC721.sol\":10880:10895  _balances[from] */\n      dup4\n      and\n      0x00\n      swap1\n      dup2\n      mstore\n        /* \"@openzeppelin/contracts/token/ERC721/ERC721.sol\":10880:10889  _balances */\n      0x03\n        /* \"@openzeppelin/contracts/token/ERC721/ERC721.sol\":10880:10895  _balances[from] */\n      0x20\n      mstore\n      0x40\n      dup2\n      keccak256\n        /* \"@openzeppelin/contracts/token/ERC721/ERC721.sol\":10880:10900  _balances[from] -= 1 */\n      dup1\n      sload\n        /* \"@openzeppelin/contracts/token/ERC721/ERC721.sol\":10899:10900  1 */\n      0x01\n      swap3\n        /* \"@openzeppelin/contracts/token/ERC721/ERC721.sol\":10880:10895  _balances[from] */\n      swap1\n        /* \"@openzeppelin/contracts/token/ERC721/ERC721.sol\":10880:10900  _balances[from] -= 1 */\n      tag_289\n      swap1\n        /* \"@openzeppelin/contracts/token/ERC721/ERC721.sol\":10899:10900  1 */\n      dup5\n      swap1\n        /* \"@openzeppelin/contracts/token/ERC721/ERC721.sol\":10880:10900  _balances[from] -= 1 */\n      tag_290\n      jump\t// in\n    tag_289:\n      swap1\n      swap2\n      sstore\n      pop\n      pop\n      sub(shl(0xa0, 0x01), 0x01)\n        /* \"@openzeppelin/contracts/token/ERC721/ERC721.sol\":10910:10923  _balances[to] */\n      dup3\n      and\n      0x00\n      swap1\n      dup2\n      mstore\n        /* \"@openzeppelin/contracts/token/ERC721/ERC721.sol\":10910:10919  _balances */\n      0x03\n        /* \"@openzeppelin/contracts/token/ERC721/ERC721.sol\":10910:10923  _balances[to] */\n      0x20\n      mstore\n      0x40\n      dup2\n      keccak256\n        /* \"@openzeppelin/contracts/token/ERC721/ERC721.sol\":10910:10928  _balances[to] += 1 */\n      dup1\n      sload\n        /* \"@openzeppelin/contracts/token/ERC721/ERC721.sol\":10927:10928  1 */\n      0x01\n      swap3\n        /* \"@openzeppelin/contracts/token/ERC721/ERC721.sol\":10910:10923  _balances[to] */\n      swap1\n        /* \"@openzeppelin/contracts/token/ERC721/ERC721.sol\":10910:10928  _balances[to] += 1 */\n      tag_291\n      swap1\n        /* \"@openzeppelin/contracts/token/ERC721/ERC721.sol\":10927:10928  1 */\n      dup5\n      swap1\n        /* \"@openzeppelin/contracts/token/ERC721/ERC721.sol\":10910:10928  _balances[to] += 1 */\n      tag_292\n      jump\t// in\n    tag_291:\n      swap1\n      swap2\n      sstore\n      pop\n      pop\n        /* \"@openzeppelin/contracts/token/ERC721/ERC721.sol\":10938:10954  _owners[tokenId] */\n      0x00\n      dup2\n      dup2\n      mstore\n        /* \"@openzeppelin/contracts/token/ERC721/ERC721.sol\":10938:10945  _owners */\n      0x02\n        /* \"@openzeppelin/contracts/token/ERC721/ERC721.sol\":10938:10954  _owners[tokenId] */\n      0x20\n      mstore\n      0x40\n      dup1\n      dup3\n      keccak256\n        /* \"@openzeppelin/contracts/token/ERC721/ERC721.sol\":10938:10959  _owners[tokenId] = to */\n      dup1\n      sload\n      not(sub(shl(0xa0, 0x01), 0x01))\n      and\n      sub(shl(0xa0, 0x01), 0x01)\n      dup7\n      dup2\n      and\n      swap2\n      dup3\n      or\n      swap1\n      swap3\n      sstore\n        /* \"@openzeppelin/contracts/token/ERC721/ERC721.sol\":10975:11002  Transfer(from, to, tokenId) */\n      swap2\n      mload\n        /* \"@openzeppelin/contracts/token/ERC721/ERC721.sol\":10938:10954  _owners[tokenId] */\n      dup5\n      swap4\n        /* \"@openzeppelin/contracts/token/ERC721/ERC721.sol\":10975:11002  Transfer(from, to, tokenId) */\n      swap2\n      dup8\n      and\n      swap2\n      0xddf252ad1be2c89b69c2b068fc378daa952ba7f163c4a11628f55a4df523b3ef\n      swap2\n      log4\n        /* \"@openzeppelin/contracts/token/ERC721/ERC721.sol\":3608:3939  {... */\n      pop\n        /* \"@openzeppelin/contracts/token/ERC721/ERC721.sol\":3538:3939  function approve(address to, uint256 tokenId) public virtual override {... */\n      pop\n      pop\n      jump\t// out\n        /* \"@openzeppelin/contracts/token/ERC721/ERC721.sol\":8117:8225  function _safeMint(address to, uint256 tokenId) internal virtual {... */\n    tag_188:\n        /* \"@openzeppelin/contracts/token/ERC721/ERC721.sol\":8192:8218  _safeMint(to, tokenId, \"\") */\n      tag_206\n        /* \"@openzeppelin/contracts/token/ERC721/ERC721.sol\":8202:8204  to */\n      dup3\n        /* \"@openzeppelin/contracts/token/ERC721/ERC721.sol\":8206:8213  tokenId */\n      dup3\n        /* \"@openzeppelin/contracts/token/ERC721/ERC721.sol\":8192:8218  _safeMint(to, tokenId, \"\") */\n      mload(0x40)\n      dup1\n      0x20\n      add\n      0x40\n      mstore\n      dup1\n      0x00\n      dup2\n      mstore\n      pop\n        /* \"@openzeppelin/contracts/token/ERC721/ERC721.sol\":8192:8201  _safeMint */\n      tag_299\n        /* \"@openzeppelin/contracts/token/ERC721/ERC721.sol\":8192:8218  _safeMint(to, tokenId, \"\") */\n      jump\t// in\n        /* \"@openzeppelin/contracts/access/Ownable.sol\":2270:2457  function _transferOwnership(address newOwner) internal virtual {... */\n    tag_223:\n        /* \"@openzeppelin/contracts/access/Ownable.sol\":2362:2368  _owner */\n      0x06\n      dup1\n      sload\n      sub(shl(0xa0, 0x01), 0x01)\n        /* \"@openzeppelin/contracts/access/Ownable.sol\":2378:2395  _owner = newOwner */\n      dup4\n      dup2\n      and\n      not(sub(shl(0xa0, 0x01), 0x01))\n      dup4\n      and\n      dup2\n      or\n      swap1\n      swap4\n      sstore\n        /* \"@openzeppelin/contracts/access/Ownable.sol\":2410:2450  OwnershipTransferred(oldOwner, newOwner) */\n      mload(0x40)\n        /* \"@openzeppelin/contracts/access/Ownable.sol\":2362:2368  _owner */\n      swap2\n      and\n      swap2\n        /* \"@openzeppelin/contracts/access/Ownable.sol\":2378:2395  _owner = newOwner */\n      swap1\n        /* \"@openzeppelin/contracts/access/Ownable.sol\":2362:2368  _owner */\n      dup3\n      swap1\n        /* \"@openzeppelin/contracts/access/Ownable.sol\":2410:2450  OwnershipTransferred(oldOwner, newOwner) */\n      0x8be0079c531659141344cd1fd0a4f28419497f9722a3daafe3b4186f6b6457e0\n      swap1\n        /* \"@openzeppelin/contracts/access/Ownable.sol\":2343:2359  address oldOwner */\n      0x00\n      swap1\n        /* \"@openzeppelin/contracts/access/Ownable.sol\":2410:2450  OwnershipTransferred(oldOwner, newOwner) */\n      log3\n        /* \"@openzeppelin/contracts/access/Ownable.sol\":2333:2457  {... */\n      pop\n        /* \"@openzeppelin/contracts/access/Ownable.sol\":2270:2457  function _transferOwnership(address newOwner) internal virtual {... */\n      pop\n      jump\t// out\n        /* \"@openzeppelin/contracts/token/ERC721/ERC721.sol\":11475:11782  function _setApprovalForAll(... */\n    tag_234:\n        /* \"@openzeppelin/contracts/token/ERC721/ERC721.sol\":11625:11633  operator */\n      dup2\n      sub(shl(0xa0, 0x01), 0x01)\n        /* \"@openzeppelin/contracts/token/ERC721/ERC721.sol\":11616:11633  owner != operator */\n      and\n        /* \"@openzeppelin/contracts/token/ERC721/ERC721.sol\":11616:11621  owner */\n      dup4\n      sub(shl(0xa0, 0x01), 0x01)\n        /* \"@openzeppelin/contracts/token/ERC721/ERC721.sol\":11616:11633  owner != operator */\n      and\n      eq\n      iszero\n        /* \"@openzeppelin/contracts/token/ERC721/ERC721.sol\":11608:11663  require(owner != operator, \"ERC721: approve to caller\") */\n      tag_302\n      jumpi\n      mload(0x40)\n      shl(0xe5, 0x461bcd)\n      dup2\n      mstore\n        /* \"#utility.yul\":9232:9234   */\n      0x20\n        /* \"@openzeppelin/contracts/token/ERC721/ERC721.sol\":11608:11663  require(owner != operator, \"ERC721: approve to caller\") */\n      0x04\n      dup3\n      add\n        /* \"#utility.yul\":9214:9235   */\n      mstore\n        /* \"#utility.yul\":9271:9273   */\n      0x19\n        /* \"#utility.yul\":9251:9269   */\n      0x24\n      dup3\n      add\n        /* \"#utility.yul\":9244:9274   */\n      mstore\n        /* \"#utility.yul\":9310:9337   */\n      0x4552433732313a20617070726f766520746f2063616c6c657200000000000000\n        /* \"#utility.yul\":9290:9308   */\n      0x44\n      dup3\n      add\n        /* \"#utility.yul\":9283:9338   */\n      mstore\n        /* \"#utility.yul\":9355:9373   */\n      0x64\n      add\n        /* \"@openzeppelin/contracts/token/ERC721/ERC721.sol\":11608:11663  require(owner != operator, \"ERC721: approve to caller\") */\n      tag_149\n        /* \"#utility.yul\":9030:9379   */\n      jump\n        /* \"@openzeppelin/contracts/token/ERC721/ERC721.sol\":11608:11663  require(owner != operator, \"ERC721: approve to caller\") */\n    tag_302:\n      sub(shl(0xa0, 0x01), 0x01)\n        /* \"@openzeppelin/contracts/token/ERC721/ERC721.sol\":11673:11698  _operatorApprovals[owner] */\n      dup4\n      dup2\n      and\n      0x00\n      dup2\n      dup2\n      mstore\n        /* \"@openzeppelin/contracts/token/ERC721/ERC721.sol\":11673:11691  _operatorApprovals */\n      0x05\n        /* \"@openzeppelin/contracts/token/ERC721/ERC721.sol\":11673:11698  _operatorApprovals[owner] */\n      0x20\n      swap1\n      dup2\n      mstore\n      0x40\n      dup1\n      dup4\n      keccak256\n        /* \"@openzeppelin/contracts/token/ERC721/ERC721.sol\":11673:11708  _operatorApprovals[owner][operator] */\n      swap5\n      dup8\n      and\n      dup1\n      dup5\n      mstore\n      swap5\n      dup3\n      mstore\n      swap2\n      dup3\n      swap1\n      keccak256\n        /* \"@openzeppelin/contracts/token/ERC721/ERC721.sol\":11673:11719  _operatorApprovals[owner][operator] = approved */\n      dup1\n      sload\n      not(0xff)\n      and\n      dup7\n      iszero\n      iszero\n      swap1\n      dup2\n      or\n      swap1\n      swap2\n      sstore\n        /* \"@openzeppelin/contracts/token/ERC721/ERC721.sol\":11734:11775  ApprovalForAll(owner, operator, approved) */\n      swap2\n      mload\n        /* \"#utility.yul\":6760:6801   */\n      swap2\n      dup3\n      mstore\n        /* \"@openzeppelin/contracts/token/ERC721/ERC721.sol\":11734:11775  ApprovalForAll(owner, operator, approved) */\n      0x17307eab39ab6107e8899845ad3d59bd9653f200f220920489ca2b5937696c31\n      swap2\n        /* \"#utility.yul\":6733:6751   */\n      add\n        /* \"@openzeppelin/contracts/token/ERC721/ERC721.sol\":11734:11775  ApprovalForAll(owner, operator, approved) */\n      mload(0x40)\n      dup1\n      swap2\n      sub\n      swap1\n      log3\n        /* \"@openzeppelin/contracts/token/ERC721/ERC721.sol\":11475:11782  function _setApprovalForAll(... */\n      pop\n      pop\n      pop\n      jump\t// out\n        /* \"@openzeppelin/contracts/token/ERC721/ERC721.sol\":6550:6857  function _safeTransfer(... */\n    tag_241:\n        /* \"@openzeppelin/contracts/token/ERC721/ERC721.sol\":6701:6729  _transfer(from, to, tokenId) */\n      tag_307\n        /* \"@openzeppelin/contracts/token/ERC721/ERC721.sol\":6711:6715  from */\n      dup5\n        /* \"@openzeppelin/contracts/token/ERC721/ERC721.sol\":6717:6719  to */\n      dup5\n        /* \"@openzeppelin/contracts/token/ERC721/ERC721.sol\":6721:6728  tokenId */\n      dup5\n        /* \"@openzeppelin/contracts/token/ERC721/ERC721.sol\":6701:6710  _transfer */\n      tag_174\n        /* \"@openzeppelin/contracts/token/ERC721/ERC721.sol\":6701:6729  _transfer(from, to, tokenId) */\n      jump\t// in\n    tag_307:\n        /* \"@openzeppelin/contracts/token/ERC721/ERC721.sol\":6747:6795  _checkOnERC721Received(from, to, tokenId, _data) */\n      tag_308\n        /* \"@openzeppelin/contracts/token/ERC721/ERC721.sol\":6770:6774  from */\n      dup5\n        /* \"@openzeppelin/contracts/token/ERC721/ERC721.sol\":6776:6778  to */\n      dup5\n        /* \"@openzeppelin/contracts/token/ERC721/ERC721.sol\":6780:6787  tokenId */\n      dup5\n        /* \"@openzeppelin/contracts/token/ERC721/ERC721.sol\":6789:6794  _data */\n      dup5\n        /* \"@openzeppelin/contracts/token/ERC721/ERC721.sol\":6747:6769  _checkOnERC721Received */\n      tag_309\n        /* \"@openzeppelin/contracts/token/ERC721/ERC721.sol\":6747:6795  _checkOnERC721Received(from, to, tokenId, _data) */\n      jump\t// in\n    tag_308:\n        /* \"@openzeppelin/contracts/token/ERC721/ERC721.sol\":6739:6850  require(_checkOnERC721Received(from, to, tokenId, _data), \"ERC721: transfer to non ERC721Receiver implementer\") */\n      tag_240\n      jumpi\n      mload(0x40)\n      shl(0xe5, 0x461bcd)\n      dup2\n      mstore\n      0x04\n      add\n      tag_149\n      swap1\n      tag_312\n      jump\t// in\n        /* \"@openzeppelin/contracts/utils/Strings.sol\":328:1031  function toString(uint256 value) internal pure returns (string memory) {... */\n    tag_244:\n        /* \"@openzeppelin/contracts/utils/Strings.sol\":384:397  string memory */\n      0x60\n        /* \"@openzeppelin/contracts/utils/Strings.sol\":601:611  value == 0 */\n      dup2\n        /* \"@openzeppelin/contracts/utils/Strings.sol\":597:648  if (value == 0) {... */\n      tag_314\n      jumpi\n      pop\n      pop\n        /* \"@openzeppelin/contracts/utils/Strings.sol\":627:637  return \"0\" */\n      0x40\n      dup1\n      mload\n      dup1\n      dup3\n      add\n      swap1\n      swap2\n      mstore\n      0x01\n      dup2\n      mstore\n      shl(0xfc, 0x03)\n      0x20\n      dup3\n      add\n      mstore\n      swap1\n        /* \"@openzeppelin/contracts/utils/Strings.sol\":328:1031  function toString(uint256 value) internal pure returns (string memory) {... */\n      jump\t// out\n        /* \"@openzeppelin/contracts/utils/Strings.sol\":597:648  if (value == 0) {... */\n    tag_314:\n        /* \"@openzeppelin/contracts/utils/Strings.sol\":672:677  value */\n      dup2\n        /* \"@openzeppelin/contracts/utils/Strings.sol\":657:669  uint256 temp */\n      0x00\n        /* \"@openzeppelin/contracts/utils/Strings.sol\":711:786  while (temp != 0) {... */\n    tag_315:\n        /* \"@openzeppelin/contracts/utils/Strings.sol\":718:727  temp != 0 */\n      dup2\n      iszero\n        /* \"@openzeppelin/contracts/utils/Strings.sol\":711:786  while (temp != 0) {... */\n      tag_316\n      jumpi\n        /* \"@openzeppelin/contracts/utils/Strings.sol\":743:751  digits++ */\n      dup1\n      tag_317\n      dup2\n      tag_318\n      jump\t// in\n    tag_317:\n      swap2\n      pop\n        /* \"@openzeppelin/contracts/utils/Strings.sol\":765:775  temp /= 10 */\n      tag_319\n      swap1\n      pop\n        /* \"@openzeppelin/contracts/utils/Strings.sol\":773:775  10 */\n      0x0a\n        /* \"@openzeppelin/contracts/utils/Strings.sol\":765:775  temp /= 10 */\n      dup4\n      tag_196\n      jump\t// in\n    tag_319:\n      swap2\n      pop\n        /* \"@openzeppelin/contracts/utils/Strings.sol\":711:786  while (temp != 0) {... */\n      jump(tag_315)\n    tag_316:\n        /* \"@openzeppelin/contracts/utils/Strings.sol\":795:814  bytes memory buffer */\n      0x00\n        /* \"@openzeppelin/contracts/utils/Strings.sol\":827:833  digits */\n      dup2\n        /* \"@openzeppelin/contracts/utils/Strings.sol\":817:834  new bytes(digits) */\n      0xffffffffffffffff\n      dup2\n      gt\n      iszero\n      tag_321\n      jumpi\n      tag_321\n      tag_322\n      jump\t// in\n    tag_321:\n      mload(0x40)\n      swap1\n      dup1\n      dup3\n      mstore\n      dup1\n      0x1f\n      add\n      not(0x1f)\n      and\n      0x20\n      add\n      dup3\n      add\n      0x40\n      mstore\n      dup1\n      iszero\n      tag_323\n      jumpi\n      0x20\n      dup3\n      add\n      dup2\n      dup1\n      calldatasize\n      dup4\n      calldatacopy\n      add\n      swap1\n      pop\n    tag_323:\n      pop\n        /* \"@openzeppelin/contracts/utils/Strings.sol\":795:834  bytes memory buffer = new bytes(digits) */\n      swap1\n      pop\n        /* \"@openzeppelin/contracts/utils/Strings.sol\":844:994  while (value != 0) {... */\n    tag_324:\n        /* \"@openzeppelin/contracts/utils/Strings.sol\":851:861  value != 0 */\n      dup5\n      iszero\n        /* \"@openzeppelin/contracts/utils/Strings.sol\":844:994  while (value != 0) {... */\n      tag_276\n      jumpi\n        /* \"@openzeppelin/contracts/utils/Strings.sol\":877:888  digits -= 1 */\n      tag_326\n        /* \"@openzeppelin/contracts/utils/Strings.sol\":887:888  1 */\n      0x01\n        /* \"@openzeppelin/contracts/utils/Strings.sol\":877:888  digits -= 1 */\n      dup4\n      tag_290\n      jump\t// in\n    tag_326:\n      swap2\n      pop\n        /* \"@openzeppelin/contracts/utils/Strings.sol\":945:955  value % 10 */\n      tag_327\n        /* \"@openzeppelin/contracts/utils/Strings.sol\":953:955  10 */\n      0x0a\n        /* \"@openzeppelin/contracts/utils/Strings.sol\":945:950  value */\n      dup7\n        /* \"@openzeppelin/contracts/utils/Strings.sol\":945:955  value % 10 */\n      tag_328\n      jump\t// in\n    tag_327:\n        /* \"@openzeppelin/contracts/utils/Strings.sol\":932:956  48 + uint256(value % 10) */\n      tag_329\n      swap1\n        /* \"@openzeppelin/contracts/utils/Strings.sol\":932:934  48 */\n      0x30\n        /* \"@openzeppelin/contracts/utils/Strings.sol\":932:956  48 + uint256(value % 10) */\n      tag_292\n      jump\t// in\n    tag_329:\n        /* \"@openzeppelin/contracts/utils/Strings.sol\":919:958  bytes1(uint8(48 + uint256(value % 10))) */\n      0xf8\n      shl\n        /* \"@openzeppelin/contracts/utils/Strings.sol\":902:908  buffer */\n      dup2\n        /* \"@openzeppelin/contracts/utils/Strings.sol\":909:915  digits */\n      dup4\n        /* \"@openzeppelin/contracts/utils/Strings.sol\":902:916  buffer[digits] */\n      dup2\n      mload\n      dup2\n      lt\n      tag_331\n      jumpi\n      tag_331\n      tag_332\n      jump\t// in\n    tag_331:\n      0x20\n      add\n      add\n        /* \"@openzeppelin/contracts/utils/Strings.sol\":902:958  buffer[digits] = bytes1(uint8(48 + uint256(value % 10))) */\n      swap1\n      not(sub(shl(0xf8, 0x01), 0x01))\n      and\n      swap1\n      dup2\n      0x00\n      byte\n      swap1\n      mstore8\n      pop\n        /* \"@openzeppelin/contracts/utils/Strings.sol\":972:983  value /= 10 */\n      tag_333\n        /* \"@openzeppelin/contracts/utils/Strings.sol\":981:983  10 */\n      0x0a\n        /* \"@openzeppelin/contracts/utils/Strings.sol\":972:983  value /= 10 */\n      dup7\n      tag_196\n      jump\t// in\n    tag_333:\n      swap5\n      pop\n        /* \"@openzeppelin/contracts/utils/Strings.sol\":844:994  while (value != 0) {... */\n      jump(tag_324)\n        /* \"@openzeppelin/contracts/token/ERC721/ERC721.sol\":8446:8757  function _safeMint(... */\n    tag_299:\n        /* \"@openzeppelin/contracts/token/ERC721/ERC721.sol\":8571:8589  _mint(to, tokenId) */\n      tag_337\n        /* \"@openzeppelin/contracts/token/ERC721/ERC721.sol\":8577:8579  to */\n      dup4\n        /* \"@openzeppelin/contracts/token/ERC721/ERC721.sol\":8581:8588  tokenId */\n      dup4\n        /* \"@openzeppelin/contracts/token/ERC721/ERC721.sol\":8571:8576  _mint */\n      tag_338\n        /* \"@openzeppelin/contracts/token/ERC721/ERC721.sol\":8571:8589  _mint(to, tokenId) */\n      jump\t// in\n    tag_337:\n        /* \"@openzeppelin/contracts/token/ERC721/ERC721.sol\":8620:8674  _checkOnERC721Received(address(0), to, tokenId, _data) */\n      tag_339\n        /* \"@openzeppelin/contracts/token/ERC721/ERC721.sol\":8651:8652  0 */\n      0x00\n        /* \"@openzeppelin/contracts/token/ERC721/ERC721.sol\":8655:8657  to */\n      dup5\n        /* \"@openzeppelin/contracts/token/ERC721/ERC721.sol\":8659:8666  tokenId */\n      dup5\n        /* \"@openzeppelin/contracts/token/ERC721/ERC721.sol\":8668:8673  _data */\n      dup5\n        /* \"@openzeppelin/contracts/token/ERC721/ERC721.sol\":8620:8642  _checkOnERC721Received */\n      tag_309\n        /* \"@openzeppelin/contracts/token/ERC721/ERC721.sol\":8620:8674  _checkOnERC721Received(address(0), to, tokenId, _data) */\n      jump\t// in\n    tag_339:\n        /* \"@openzeppelin/contracts/token/ERC721/ERC721.sol\":8599:8750  require(... */\n      tag_164\n      jumpi\n      mload(0x40)\n      shl(0xe5, 0x461bcd)\n      dup2\n      mstore\n      0x04\n      add\n      tag_149\n      swap1\n      tag_312\n      jump\t// in\n        /* \"@openzeppelin/contracts/token/ERC721/ERC721.sol\":12335:13113  function _checkOnERC721Received(... */\n    tag_309:\n        /* \"@openzeppelin/contracts/token/ERC721/ERC721.sol\":12485:12489  bool */\n      0x00\n      sub(shl(0xa0, 0x01), 0x01)\n        /* \"@openzeppelin/contracts/token/ERC721/ERC721.sol\":12505:12518  to.isContract */\n      dup5\n      and\n        /* \"@openzeppelin/contracts/utils/Address.sol\":1465:1484  account.code.length */\n      extcodesize\n        /* \"@openzeppelin/contracts/utils/Address.sol\":1465:1488  account.code.length > 0 */\n      iszero\n        /* \"@openzeppelin/contracts/token/ERC721/ERC721.sol\":12501:13107  if (to.isContract()) {... */\n      tag_345\n      jumpi\n        /* \"@openzeppelin/contracts/token/ERC721/ERC721.sol\":12540:12612  IERC721Receiver(to).onERC721Received(_msgSender(), from, tokenId, _data) */\n      mload(0x40)\n      shl(0xe1, 0x0a85bd01)\n      dup2\n      mstore\n      sub(shl(0xa0, 0x01), 0x01)\n        /* \"@openzeppelin/contracts/token/ERC721/ERC721.sol\":12540:12576  IERC721Receiver(to).onERC721Received */\n      dup6\n      and\n      swap1\n      0x150b7a02\n      swap1\n        /* \"@openzeppelin/contracts/token/ERC721/ERC721.sol\":12540:12612  IERC721Receiver(to).onERC721Received(_msgSender(), from, tokenId, _data) */\n      tag_347\n      swap1\n        /* \"@openzeppelin/contracts/utils/Context.sol\":719:729  msg.sender */\n      caller\n      swap1\n        /* \"@openzeppelin/contracts/token/ERC721/ERC721.sol\":12591:12595  from */\n      dup10\n      swap1\n        /* \"@openzeppelin/contracts/token/ERC721/ERC721.sol\":12597:12604  tokenId */\n      dup9\n      swap1\n        /* \"@openzeppelin/contracts/token/ERC721/ERC721.sol\":12606:12611  _data */\n      dup9\n      swap1\n        /* \"@openzeppelin/contracts/token/ERC721/ERC721.sol\":12540:12612  IERC721Receiver(to).onERC721Received(_msgSender(), from, tokenId, _data) */\n      0x04\n      add\n      tag_348\n      jump\t// in\n    tag_347:\n      0x20\n      mload(0x40)\n      dup1\n      dup4\n      sub\n      dup2\n      0x00\n      dup8\n      dup1\n      extcodesize\n      iszero\n      dup1\n      iszero\n      tag_349\n      jumpi\n      0x00\n      dup1\n      revert\n    tag_349:\n      pop\n      gas\n      call\n      swap3\n      pop\n      pop\n      pop\n      dup1\n      iszero\n      tag_350\n      jumpi\n      pop\n      0x40\n      dup1\n      mload\n      0x1f\n      returndatasize\n      swap1\n      dup2\n      add\n      not(0x1f)\n      and\n      dup3\n      add\n      swap1\n      swap3\n      mstore\n      tag_351\n      swap2\n      dup2\n      add\n      swap1\n      tag_352\n      jump\t// in\n    tag_351:\n      0x01\n    tag_350:\n        /* \"@openzeppelin/contracts/token/ERC721/ERC721.sol\":12536:13055  try IERC721Receiver(to).onERC721Received(_msgSender(), from, tokenId, _data) returns (bytes4 retval) {... */\n      tag_353\n      jumpi\n      returndatasize\n      dup1\n      dup1\n      iszero\n      tag_358\n      jumpi\n      mload(0x40)\n      swap2\n      pop\n      and(add(returndatasize, 0x3f), not(0x1f))\n      dup3\n      add\n      0x40\n      mstore\n      returndatasize\n      dup3\n      mstore\n      returndatasize\n      0x00\n      0x20\n      dup5\n      add\n      returndatacopy\n      jump(tag_357)\n    tag_358:\n      0x60\n      swap2\n      pop\n    tag_357:\n      pop\n        /* \"@openzeppelin/contracts/token/ERC721/ERC721.sol\":12779:12792  reason.length */\n      dup1\n      mload\n        /* \"@openzeppelin/contracts/token/ERC721/ERC721.sol\":12775:13041  if (reason.length == 0) {... */\n      tag_359\n      jumpi\n        /* \"@openzeppelin/contracts/token/ERC721/ERC721.sol\":12821:12881  revert(\"ERC721: transfer to non ERC721Receiver implementer\") */\n      mload(0x40)\n      shl(0xe5, 0x461bcd)\n      dup2\n      mstore\n      0x04\n      add\n      tag_149\n      swap1\n      tag_312\n      jump\t// in\n        /* \"@openzeppelin/contracts/token/ERC721/ERC721.sol\":12775:13041  if (reason.length == 0) {... */\n    tag_359:\n        /* \"@openzeppelin/contracts/token/ERC721/ERC721.sol\":12993:12999  reason */\n      dup1\n        /* \"@openzeppelin/contracts/token/ERC721/ERC721.sol\":12987:13000  mload(reason) */\n      mload\n        /* \"@openzeppelin/contracts/token/ERC721/ERC721.sol\":12978:12984  reason */\n      dup2\n        /* \"@openzeppelin/contracts/token/ERC721/ERC721.sol\":12974:12976  32 */\n      0x20\n        /* \"@openzeppelin/contracts/token/ERC721/ERC721.sol\":12970:12985  add(32, reason) */\n      add\n        /* \"@openzeppelin/contracts/token/ERC721/ERC721.sol\":12963:13001  revert(add(32, reason), mload(reason)) */\n      revert\n        /* \"@openzeppelin/contracts/token/ERC721/ERC721.sol\":12536:13055  try IERC721Receiver(to).onERC721Received(_msgSender(), from, tokenId, _data) returns (bytes4 retval) {... */\n    tag_353:\n      not(sub(shl(0xe0, 0x01), 0x01))\n        /* \"@openzeppelin/contracts/token/ERC721/ERC721.sol\":12662:12713  retval == IERC721Receiver.onERC721Received.selector */\n      and\n      shl(0xe1, 0x0a85bd01)\n      eq\n      swap1\n      pop\n        /* \"@openzeppelin/contracts/token/ERC721/ERC721.sol\":12655:12713  return retval == IERC721Receiver.onERC721Received.selector */\n      jump(tag_276)\n        /* \"@openzeppelin/contracts/token/ERC721/ERC721.sol\":12501:13107  if (to.isContract()) {... */\n    tag_345:\n      pop\n        /* \"@openzeppelin/contracts/token/ERC721/ERC721.sol\":13092:13096  true */\n      0x01\n        /* \"@openzeppelin/contracts/token/ERC721/ERC721.sol\":12335:13113  function _checkOnERC721Received(... */\n      swap5\n      swap4\n      pop\n      pop\n      pop\n      pop\n      jump\t// out\n        /* \"@openzeppelin/contracts/token/ERC721/ERC721.sol\":9079:9506  function _mint(address to, uint256 tokenId) internal virtual {... */\n    tag_338:\n      sub(shl(0xa0, 0x01), 0x01)\n        /* \"@openzeppelin/contracts/token/ERC721/ERC721.sol\":9158:9174  to != address(0) */\n      dup3\n      and\n        /* \"@openzeppelin/contracts/token/ERC721/ERC721.sol\":9150:9211  require(to != address(0), \"ERC721: mint to the zero address\") */\n      tag_365\n      jumpi\n      mload(0x40)\n      shl(0xe5, 0x461bcd)\n      dup2\n      mstore\n        /* \"#utility.yul\":11585:11587   */\n      0x20\n        /* \"@openzeppelin/contracts/token/ERC721/ERC721.sol\":9150:9211  require(to != address(0), \"ERC721: mint to the zero address\") */\n      0x04\n      dup3\n      add\n        /* \"#utility.yul\":11567:11588   */\n      dup2\n      swap1\n      mstore\n        /* \"#utility.yul\":11604:11622   */\n      0x24\n      dup3\n      add\n        /* \"#utility.yul\":11597:11627   */\n      mstore\n        /* \"#utility.yul\":11663:11697   */\n      0x4552433732313a206d696e7420746f20746865207a65726f2061646472657373\n        /* \"#utility.yul\":11643:11661   */\n      0x44\n      dup3\n      add\n        /* \"#utility.yul\":11636:11698   */\n      mstore\n        /* \"#utility.yul\":11715:11733   */\n      0x64\n      add\n        /* \"@openzeppelin/contracts/token/ERC721/ERC721.sol\":9150:9211  require(to != address(0), \"ERC721: mint to the zero address\") */\n      tag_149\n        /* \"#utility.yul\":11383:11739   */\n      jump\n        /* \"@openzeppelin/contracts/token/ERC721/ERC721.sol\":9150:9211  require(to != address(0), \"ERC721: mint to the zero address\") */\n    tag_365:\n        /* \"@openzeppelin/contracts/token/ERC721/ERC721.sol\":7225:7229  bool */\n      0x00\n        /* \"@openzeppelin/contracts/token/ERC721/ERC721.sol\":7248:7264  _owners[tokenId] */\n      dup2\n      dup2\n      mstore\n        /* \"@openzeppelin/contracts/token/ERC721/ERC721.sol\":7248:7255  _owners */\n      0x02\n        /* \"@openzeppelin/contracts/token/ERC721/ERC721.sol\":7248:7264  _owners[tokenId] */\n      0x20\n      mstore\n      0x40\n      swap1\n      keccak256\n      sload\n      sub(shl(0xa0, 0x01), 0x01)\n      and\n        /* \"@openzeppelin/contracts/token/ERC721/ERC721.sol\":7248:7278  _owners[tokenId] != address(0) */\n      iszero\n        /* \"@openzeppelin/contracts/token/ERC721/ERC721.sol\":9221:9279  require(!_exists(tokenId), \"ERC721: token already minted\") */\n      tag_369\n      jumpi\n      mload(0x40)\n      shl(0xe5, 0x461bcd)\n      dup2\n      mstore\n        /* \"#utility.yul\":8470:8472   */\n      0x20\n        /* \"@openzeppelin/contracts/token/ERC721/ERC721.sol\":9221:9279  require(!_exists(tokenId), \"ERC721: token already minted\") */\n      0x04\n      dup3\n      add\n        /* \"#utility.yul\":8452:8473   */\n      mstore\n        /* \"#utility.yul\":8509:8511   */\n      0x1c\n        /* \"#utility.yul\":8489:8507   */\n      0x24\n      dup3\n      add\n        /* \"#utility.yul\":8482:8512   */\n      mstore\n        /* \"#utility.yul\":8548:8578   */\n      0x4552433732313a20746f6b656e20616c7265616479206d696e74656400000000\n        /* \"#utility.yul\":8528:8546   */\n      0x44\n      dup3\n      add\n        /* \"#utility.yul\":8521:8579   */\n      mstore\n        /* \"#utility.yul\":8596:8614   */\n      0x64\n      add\n        /* \"@openzeppelin/contracts/token/ERC721/ERC721.sol\":9221:9279  require(!_exists(tokenId), \"ERC721: token already minted\") */\n      tag_149\n        /* \"#utility.yul\":8268:8620   */\n      jump\n        /* \"@openzeppelin/contracts/token/ERC721/ERC721.sol\":9221:9279  require(!_exists(tokenId), \"ERC721: token already minted\") */\n    tag_369:\n      sub(shl(0xa0, 0x01), 0x01)\n        /* \"@openzeppelin/contracts/token/ERC721/ERC721.sol\":9346:9359  _balances[to] */\n      dup3\n      and\n      0x00\n      swap1\n      dup2\n      mstore\n        /* \"@openzeppelin/contracts/token/ERC721/ERC721.sol\":9346:9355  _balances */\n      0x03\n        /* \"@openzeppelin/contracts/token/ERC721/ERC721.sol\":9346:9359  _balances[to] */\n      0x20\n      mstore\n      0x40\n      dup2\n      keccak256\n        /* \"@openzeppelin/contracts/token/ERC721/ERC721.sol\":9346:9364  _balances[to] += 1 */\n      dup1\n      sload\n        /* \"@openzeppelin/contracts/token/ERC721/ERC721.sol\":9363:9364  1 */\n      0x01\n      swap3\n        /* \"@openzeppelin/contracts/token/ERC721/ERC721.sol\":9346:9359  _balances[to] */\n      swap1\n        /* \"@openzeppelin/contracts/token/ERC721/ERC721.sol\":9346:9364  _balances[to] += 1 */\n      tag_373\n      swap1\n        /* \"@openzeppelin/contracts/token/ERC721/ERC721.sol\":9363:9364  1 */\n      dup5\n      swap1\n        /* \"@openzeppelin/contracts/token/ERC721/ERC721.sol\":9346:9364  _balances[to] += 1 */\n      tag_292\n      jump\t// in\n    tag_373:\n      swap1\n      swap2\n      sstore\n      pop\n      pop\n        /* \"@openzeppelin/contracts/token/ERC721/ERC721.sol\":9374:9390  _owners[tokenId] */\n      0x00\n      dup2\n      dup2\n      mstore\n        /* \"@openzeppelin/contracts/token/ERC721/ERC721.sol\":9374:9381  _owners */\n      0x02\n        /* \"@openzeppelin/contracts/token/ERC721/ERC721.sol\":9374:9390  _owners[tokenId] */\n      0x20\n      mstore\n      0x40\n      dup1\n      dup3\n      keccak256\n        /* \"@openzeppelin/contracts/token/ERC721/ERC721.sol\":9374:9395  _owners[tokenId] = to */\n      dup1\n      sload\n      not(sub(shl(0xa0, 0x01), 0x01))\n      and\n      sub(shl(0xa0, 0x01), 0x01)\n      dup7\n      and\n      swap1\n      dup2\n      or\n      swap1\n      swap2\n      sstore\n        /* \"@openzeppelin/contracts/token/ERC721/ERC721.sol\":9411:9444  Transfer(address(0), to, tokenId) */\n      swap1\n      mload\n        /* \"@openzeppelin/contracts/token/ERC721/ERC721.sol\":9374:9390  _owners[tokenId] */\n      dup4\n      swap3\n      swap1\n        /* \"@openzeppelin/contracts/token/ERC721/ERC721.sol\":9411:9444  Transfer(address(0), to, tokenId) */\n      0xddf252ad1be2c89b69c2b068fc378daa952ba7f163c4a11628f55a4df523b3ef\n      swap1\n        /* \"@openzeppelin/contracts/token/ERC721/ERC721.sol\":9374:9390  _owners[tokenId] */\n      dup3\n      swap1\n        /* \"@openzeppelin/contracts/token/ERC721/ERC721.sol\":9411:9444  Transfer(address(0), to, tokenId) */\n      log4\n        /* \"contracts/sequential.sol\":1437:1459  baseTokenURI = baseURI */\n      pop\n        /* \"contracts/sequential.sol\":1367:1466  function setBaseURI(string memory baseURI) public onlyOwner {... */\n      pop\n      jump\t// out\n    tag_207:\n      dup3\n      dup1\n      sload\n      tag_376\n      swap1\n      tag_140\n      jump\t// in\n    tag_376:\n      swap1\n      0x00\n      mstore\n      keccak256(0x00, 0x20)\n      swap1\n      0x1f\n      add\n      0x20\n      swap1\n      div\n      dup2\n      add\n      swap3\n      dup3\n      tag_378\n      jumpi\n      0x00\n      dup6\n      sstore\n      jump(tag_381)\n    tag_378:\n      dup3\n      0x1f\n      lt\n      tag_379\n      jumpi\n      dup1\n      mload\n      not(0xff)\n      and\n      dup4\n      dup1\n      add\n      or\n      dup6\n      sstore\n      jump(tag_381)\n    tag_379:\n      dup3\n      dup1\n      add\n      0x01\n      add\n      dup6\n      sstore\n      dup3\n      iszero\n      tag_381\n      jumpi\n      swap2\n      dup3\n      add\n    tag_380:\n      dup3\n      dup2\n      gt\n      iszero\n      tag_381\n      jumpi\n      dup3\n      mload\n      dup3\n      sstore\n      swap2\n      0x20\n      add\n      swap2\n      swap1\n      0x01\n      add\n      swap1\n      jump(tag_380)\n    tag_381:\n      pop\n      tag_382\n      swap3\n      swap2\n      pop\n      tag_383\n      jump\t// in\n    tag_382:\n      pop\n      swap1\n      jump\t// out\n    tag_383:\n    tag_384:\n      dup1\n      dup3\n      gt\n      iszero\n      tag_382\n      jumpi\n      0x00\n      dup2\n      sstore\n      0x01\n      add\n      jump(tag_384)\n        /* \"#utility.yul\":14:645   */\n    tag_387:\n        /* \"#utility.yul\":78:83   */\n      0x00\n        /* \"#utility.yul\":108:126   */\n      0xffffffffffffffff\n        /* \"#utility.yul\":149:151   */\n      dup1\n        /* \"#utility.yul\":141:147   */\n      dup5\n        /* \"#utility.yul\":138:152   */\n      gt\n        /* \"#utility.yul\":135:175   */\n      iszero\n      tag_390\n      jumpi\n        /* \"#utility.yul\":155:173   */\n      tag_390\n      tag_322\n      jump\t// in\n    tag_390:\n        /* \"#utility.yul\":230:232   */\n      0x40\n        /* \"#utility.yul\":224:233   */\n      mload\n        /* \"#utility.yul\":198:200   */\n      0x1f\n        /* \"#utility.yul\":284:299   */\n      dup6\n      add\n      not(0x1f)\n        /* \"#utility.yul\":280:304   */\n      swap1\n      dup2\n      and\n        /* \"#utility.yul\":306:308   */\n      0x3f\n        /* \"#utility.yul\":276:309   */\n      add\n        /* \"#utility.yul\":272:314   */\n      and\n        /* \"#utility.yul\":260:315   */\n      dup2\n      add\n      swap1\n        /* \"#utility.yul\":330:348   */\n      dup3\n      dup3\n      gt\n        /* \"#utility.yul\":350:372   */\n      dup2\n      dup4\n      lt\n        /* \"#utility.yul\":327:373   */\n      or\n        /* \"#utility.yul\":324:396   */\n      iszero\n      tag_392\n      jumpi\n        /* \"#utility.yul\":376:394   */\n      tag_392\n      tag_322\n      jump\t// in\n    tag_392:\n        /* \"#utility.yul\":416:426   */\n      dup2\n        /* \"#utility.yul\":412:414   */\n      0x40\n        /* \"#utility.yul\":405:427   */\n      mstore\n        /* \"#utility.yul\":445:451   */\n      dup1\n        /* \"#utility.yul\":436:451   */\n      swap4\n      pop\n        /* \"#utility.yul\":475:481   */\n      dup6\n        /* \"#utility.yul\":467:473   */\n      dup2\n        /* \"#utility.yul\":460:482   */\n      mstore\n        /* \"#utility.yul\":515:518   */\n      dup7\n        /* \"#utility.yul\":506:512   */\n      dup7\n        /* \"#utility.yul\":501:504   */\n      dup7\n        /* \"#utility.yul\":497:513   */\n      add\n        /* \"#utility.yul\":494:519   */\n      gt\n        /* \"#utility.yul\":491:536   */\n      iszero\n      tag_393\n      jumpi\n        /* \"#utility.yul\":532:533   */\n      0x00\n        /* \"#utility.yul\":529:530   */\n      dup1\n        /* \"#utility.yul\":522:534   */\n      revert\n        /* \"#utility.yul\":491:536   */\n    tag_393:\n        /* \"#utility.yul\":582:588   */\n      dup6\n        /* \"#utility.yul\":577:580   */\n      dup6\n        /* \"#utility.yul\":570:574   */\n      0x20\n        /* \"#utility.yul\":562:568   */\n      dup4\n        /* \"#utility.yul\":558:575   */\n      add\n        /* \"#utility.yul\":545:589   */\n      calldatacopy\n        /* \"#utility.yul\":637:638   */\n      0x00\n        /* \"#utility.yul\":630:634   */\n      0x20\n        /* \"#utility.yul\":621:627   */\n      dup8\n        /* \"#utility.yul\":613:619   */\n      dup4\n        /* \"#utility.yul\":609:628   */\n      add\n        /* \"#utility.yul\":605:635   */\n      add\n        /* \"#utility.yul\":598:639   */\n      mstore\n      pop\n      pop\n      pop\n        /* \"#utility.yul\":14:645   */\n      swap4\n      swap3\n      pop\n      pop\n      pop\n      jump\t// out\n        /* \"#utility.yul\":650:823   */\n    tag_394:\n        /* \"#utility.yul\":718:738   */\n      dup1\n      calldataload\n      sub(shl(0xa0, 0x01), 0x01)\n        /* \"#utility.yul\":767:798   */\n      dup2\n      and\n        /* \"#utility.yul\":757:799   */\n      dup2\n      eq\n        /* \"#utility.yul\":747:817   */\n      tag_396\n      jumpi\n        /* \"#utility.yul\":813:814   */\n      0x00\n        /* \"#utility.yul\":810:811   */\n      dup1\n        /* \"#utility.yul\":803:815   */\n      revert\n        /* \"#utility.yul\":747:817   */\n    tag_396:\n        /* \"#utility.yul\":650:823   */\n      swap2\n      swap1\n      pop\n      jump\t// out\n        /* \"#utility.yul\":828:1014   */\n    tag_63:\n        /* \"#utility.yul\":887:893   */\n      0x00\n        /* \"#utility.yul\":940:942   */\n      0x20\n        /* \"#utility.yul\":928:937   */\n      dup3\n        /* \"#utility.yul\":919:926   */\n      dup5\n        /* \"#utility.yul\":915:938   */\n      sub\n        /* \"#utility.yul\":911:943   */\n      slt\n        /* \"#utility.yul\":908:960   */\n      iszero\n      tag_398\n      jumpi\n        /* \"#utility.yul\":956:957   */\n      0x00\n        /* \"#utility.yul\":953:954   */\n      dup1\n        /* \"#utility.yul\":946:958   */\n      revert\n        /* \"#utility.yul\":908:960   */\n    tag_398:\n        /* \"#utility.yul\":979:1008   */\n      tag_399\n        /* \"#utility.yul\":998:1007   */\n      dup3\n        /* \"#utility.yul\":979:1008   */\n      tag_394\n      jump\t// in\n    tag_399:\n        /* \"#utility.yul\":969:1008   */\n      swap4\n        /* \"#utility.yul\":828:1014   */\n      swap3\n      pop\n      pop\n      pop\n      jump\t// out\n        /* \"#utility.yul\":1019:1279   */\n    tag_126:\n        /* \"#utility.yul\":1087:1093   */\n      0x00\n        /* \"#utility.yul\":1095:1101   */\n      dup1\n        /* \"#utility.yul\":1148:1150   */\n      0x40\n        /* \"#utility.yul\":1136:1145   */\n      dup4\n        /* \"#utility.yul\":1127:1134   */\n      dup6\n        /* \"#utility.yul\":1123:1146   */\n      sub\n        /* \"#utility.yul\":1119:1151   */\n      slt\n        /* \"#utility.yul\":1116:1168   */\n      iszero\n      tag_401\n      jumpi\n        /* \"#utility.yul\":1164:1165   */\n      0x00\n        /* \"#utility.yul\":1161:1162   */\n      dup1\n        /* \"#utility.yul\":1154:1166   */\n      revert\n        /* \"#utility.yul\":1116:1168   */\n    tag_401:\n        /* \"#utility.yul\":1187:1216   */\n      tag_402\n        /* \"#utility.yul\":1206:1215   */\n      dup4\n        /* \"#utility.yul\":1187:1216   */\n      tag_394\n      jump\t// in\n    tag_402:\n        /* \"#utility.yul\":1177:1216   */\n      swap2\n      pop\n        /* \"#utility.yul\":1235:1273   */\n      tag_403\n        /* \"#utility.yul\":1269:1271   */\n      0x20\n        /* \"#utility.yul\":1258:1267   */\n      dup5\n        /* \"#utility.yul\":1254:1272   */\n      add\n        /* \"#utility.yul\":1235:1273   */\n      tag_394\n      jump\t// in\n    tag_403:\n        /* \"#utility.yul\":1225:1273   */\n      swap1\n      pop\n        /* \"#utility.yul\":1019:1279   */\n      swap3\n      pop\n      swap3\n      swap1\n      pop\n      jump\t// out\n        /* \"#utility.yul\":1284:1612   */\n    tag_59:\n        /* \"#utility.yul\":1361:1367   */\n      0x00\n        /* \"#utility.yul\":1369:1375   */\n      dup1\n        /* \"#utility.yul\":1377:1383   */\n      0x00\n        /* \"#utility.yul\":1430:1432   */\n      0x60\n        /* \"#utility.yul\":1418:1427   */\n      dup5\n        /* \"#utility.yul\":1409:1416   */\n      dup7\n        /* \"#utility.yul\":1405:1428   */\n      sub\n        /* \"#utility.yul\":1401:1433   */\n      slt\n        /* \"#utility.yul\":1398:1450   */\n      iszero\n      tag_405\n      jumpi\n        /* \"#utility.yul\":1446:1447   */\n      0x00\n        /* \"#utility.yul\":1443:1444   */\n      dup1\n        /* \"#utility.yul\":1436:1448   */\n      revert\n        /* \"#utility.yul\":1398:1450   */\n    tag_405:\n        /* \"#utility.yul\":1469:1498   */\n      tag_406\n        /* \"#utility.yul\":1488:1497   */\n      dup5\n        /* \"#utility.yul\":1469:1498   */\n      tag_394\n      jump\t// in\n    tag_406:\n        /* \"#utility.yul\":1459:1498   */\n      swap3\n      pop\n        /* \"#utility.yul\":1517:1555   */\n      tag_407\n        /* \"#utility.yul\":1551:1553   */\n      0x20\n        /* \"#utility.yul\":1540:1549   */\n      dup6\n        /* \"#utility.yul\":1536:1554   */\n      add\n        /* \"#utility.yul\":1517:1555   */\n      tag_394\n      jump\t// in\n    tag_407:\n        /* \"#utility.yul\":1507:1555   */\n      swap2\n      pop\n        /* \"#utility.yul\":1602:1604   */\n      0x40\n        /* \"#utility.yul\":1591:1600   */\n      dup5\n        /* \"#utility.yul\":1587:1605   */\n      add\n        /* \"#utility.yul\":1574:1606   */\n      calldataload\n        /* \"#utility.yul\":1564:1606   */\n      swap1\n      pop\n        /* \"#utility.yul\":1284:1612   */\n      swap3\n      pop\n      swap3\n      pop\n      swap3\n      jump\t// out\n        /* \"#utility.yul\":1617:2283   */\n    tag_112:\n        /* \"#utility.yul\":1712:1718   */\n      0x00\n        /* \"#utility.yul\":1720:1726   */\n      dup1\n        /* \"#utility.yul\":1728:1734   */\n      0x00\n        /* \"#utility.yul\":1736:1742   */\n      dup1\n        /* \"#utility.yul\":1789:1792   */\n      0x80\n        /* \"#utility.yul\":1777:1786   */\n      dup6\n        /* \"#utility.yul\":1768:1775   */\n      dup8\n        /* \"#utility.yul\":1764:1787   */\n      sub\n        /* \"#utility.yul\":1760:1793   */\n      slt\n        /* \"#utility.yul\":1757:1810   */\n      iszero\n      tag_409\n      jumpi\n        /* \"#utility.yul\":1806:1807   */\n      0x00\n        /* \"#utility.yul\":1803:1804   */\n      dup1\n        /* \"#utility.yul\":1796:1808   */\n      revert\n        /* \"#utility.yul\":1757:1810   */\n    tag_409:\n        /* \"#utility.yul\":1829:1858   */\n      tag_410\n        /* \"#utility.yul\":1848:1857   */\n      dup6\n        /* \"#utility.yul\":1829:1858   */\n      tag_394\n      jump\t// in\n    tag_410:\n        /* \"#utility.yul\":1819:1858   */\n      swap4\n      pop\n        /* \"#utility.yul\":1877:1915   */\n      tag_411\n        /* \"#utility.yul\":1911:1913   */\n      0x20\n        /* \"#utility.yul\":1900:1909   */\n      dup7\n        /* \"#utility.yul\":1896:1914   */\n      add\n        /* \"#utility.yul\":1877:1915   */\n      tag_394\n      jump\t// in\n    tag_411:\n        /* \"#utility.yul\":1867:1915   */\n      swap3\n      pop\n        /* \"#utility.yul\":1962:1964   */\n      0x40\n        /* \"#utility.yul\":1951:1960   */\n      dup6\n        /* \"#utility.yul\":1947:1965   */\n      add\n        /* \"#utility.yul\":1934:1966   */\n      calldataload\n        /* \"#utility.yul\":1924:1966   */\n      swap2\n      pop\n        /* \"#utility.yul\":2017:2019   */\n      0x60\n        /* \"#utility.yul\":2006:2015   */\n      dup6\n        /* \"#utility.yul\":2002:2020   */\n      add\n        /* \"#utility.yul\":1989:2021   */\n      calldataload\n        /* \"#utility.yul\":2044:2062   */\n      0xffffffffffffffff\n        /* \"#utility.yul\":2036:2042   */\n      dup2\n        /* \"#utility.yul\":2033:2063   */\n      gt\n        /* \"#utility.yul\":2030:2080   */\n      iszero\n      tag_412\n      jumpi\n        /* \"#utility.yul\":2076:2077   */\n      0x00\n        /* \"#utility.yul\":2073:2074   */\n      dup1\n        /* \"#utility.yul\":2066:2078   */\n      revert\n        /* \"#utility.yul\":2030:2080   */\n    tag_412:\n        /* \"#utility.yul\":2099:2121   */\n      dup6\n      add\n        /* \"#utility.yul\":2152:2156   */\n      0x1f\n        /* \"#utility.yul\":2144:2157   */\n      dup2\n      add\n        /* \"#utility.yul\":2140:2167   */\n      dup8\n      sgt\n        /* \"#utility.yul\":2130:2185   */\n      tag_413\n      jumpi\n        /* \"#utility.yul\":2181:2182   */\n      0x00\n        /* \"#utility.yul\":2178:2179   */\n      dup1\n        /* \"#utility.yul\":2171:2183   */\n      revert\n        /* \"#utility.yul\":2130:2185   */\n    tag_413:\n        /* \"#utility.yul\":2204:2277   */\n      tag_414\n        /* \"#utility.yul\":2269:2276   */\n      dup8\n        /* \"#utility.yul\":2264:2266   */\n      dup3\n        /* \"#utility.yul\":2251:2267   */\n      calldataload\n        /* \"#utility.yul\":2246:2248   */\n      0x20\n        /* \"#utility.yul\":2242:2244   */\n      dup5\n        /* \"#utility.yul\":2238:2249   */\n      add\n        /* \"#utility.yul\":2204:2277   */\n      tag_387\n      jump\t// in\n    tag_414:\n        /* \"#utility.yul\":2194:2277   */\n      swap2\n      pop\n      pop\n        /* \"#utility.yul\":1617:2283   */\n      swap3\n      swap6\n      swap2\n      swap5\n      pop\n      swap3\n      pop\n      jump\t// out\n        /* \"#utility.yul\":2288:2635   */\n    tag_107:\n        /* \"#utility.yul\":2353:2359   */\n      0x00\n        /* \"#utility.yul\":2361:2367   */\n      dup1\n        /* \"#utility.yul\":2414:2416   */\n      0x40\n        /* \"#utility.yul\":2402:2411   */\n      dup4\n        /* \"#utility.yul\":2393:2400   */\n      dup6\n        /* \"#utility.yul\":2389:2412   */\n      sub\n        /* \"#utility.yul\":2385:2417   */\n      slt\n        /* \"#utility.yul\":2382:2434   */\n      iszero\n      tag_416\n      jumpi\n        /* \"#utility.yul\":2430:2431   */\n      0x00\n        /* \"#utility.yul\":2427:2428   */\n      dup1\n        /* \"#utility.yul\":2420:2432   */\n      revert\n        /* \"#utility.yul\":2382:2434   */\n    tag_416:\n        /* \"#utility.yul\":2453:2482   */\n      tag_417\n        /* \"#utility.yul\":2472:2481   */\n      dup4\n        /* \"#utility.yul\":2453:2482   */\n      tag_394\n      jump\t// in\n    tag_417:\n        /* \"#utility.yul\":2443:2482   */\n      swap2\n      pop\n        /* \"#utility.yul\":2532:2534   */\n      0x20\n        /* \"#utility.yul\":2521:2530   */\n      dup4\n        /* \"#utility.yul\":2517:2535   */\n      add\n        /* \"#utility.yul\":2504:2536   */\n      calldataload\n        /* \"#utility.yul\":2579:2584   */\n      dup1\n        /* \"#utility.yul\":2572:2585   */\n      iszero\n        /* \"#utility.yul\":2565:2586   */\n      iszero\n        /* \"#utility.yul\":2558:2563   */\n      dup2\n        /* \"#utility.yul\":2555:2587   */\n      eq\n        /* \"#utility.yul\":2545:2605   */\n      tag_418\n      jumpi\n        /* \"#utility.yul\":2601:2602   */\n      0x00\n        /* \"#utility.yul\":2598:2599   */\n      dup1\n        /* \"#utility.yul\":2591:2603   */\n      revert\n        /* \"#utility.yul\":2545:2605   */\n    tag_418:\n        /* \"#utility.yul\":2624:2629   */\n      dup1\n        /* \"#utility.yul\":2614:2629   */\n      swap2\n      pop\n      pop\n        /* \"#utility.yul\":2288:2635   */\n      swap3\n      pop\n      swap3\n      swap1\n      pop\n      jump\t// out\n        /* \"#utility.yul\":2640:2894   */\n    tag_49:\n        /* \"#utility.yul\":2708:2714   */\n      0x00\n        /* \"#utility.yul\":2716:2722   */\n      dup1\n        /* \"#utility.yul\":2769:2771   */\n      0x40\n        /* \"#utility.yul\":2757:2766   */\n      dup4\n        /* \"#utility.yul\":2748:2755   */\n      dup6\n        /* \"#utility.yul\":2744:2767   */\n      sub\n        /* \"#utility.yul\":2740:2772   */\n      slt\n        /* \"#utility.yul\":2737:2789   */\n      iszero\n      tag_420\n      jumpi\n        /* \"#utility.yul\":2785:2786   */\n      0x00\n        /* \"#utility.yul\":2782:2783   */\n      dup1\n        /* \"#utility.yul\":2775:2787   */\n      revert\n        /* \"#utility.yul\":2737:2789   */\n    tag_420:\n        /* \"#utility.yul\":2808:2837   */\n      tag_421\n        /* \"#utility.yul\":2827:2836   */\n      dup4\n        /* \"#utility.yul\":2808:2837   */\n      tag_394\n      jump\t// in\n    tag_421:\n        /* \"#utility.yul\":2798:2837   */\n      swap5\n        /* \"#utility.yul\":2884:2886   */\n      0x20\n        /* \"#utility.yul\":2869:2887   */\n      swap4\n      swap1\n      swap4\n      add\n        /* \"#utility.yul\":2856:2888   */\n      calldataload\n      swap4\n      pop\n      pop\n      pop\n        /* \"#utility.yul\":2640:2894   */\n      jump\t// out\n        /* \"#utility.yul\":2899:3144   */\n    tag_30:\n        /* \"#utility.yul\":2957:2963   */\n      0x00\n        /* \"#utility.yul\":3010:3012   */\n      0x20\n        /* \"#utility.yul\":2998:3007   */\n      dup3\n        /* \"#utility.yul\":2989:2996   */\n      dup5\n        /* \"#utility.yul\":2985:3008   */\n      sub\n        /* \"#utility.yul\":2981:3013   */\n      slt\n        /* \"#utility.yul\":2978:3030   */\n      iszero\n      tag_423\n      jumpi\n        /* \"#utility.yul\":3026:3027   */\n      0x00\n        /* \"#utility.yul\":3023:3024   */\n      dup1\n        /* \"#utility.yul\":3016:3028   */\n      revert\n        /* \"#utility.yul\":2978:3030   */\n    tag_423:\n        /* \"#utility.yul\":3065:3074   */\n      dup2\n        /* \"#utility.yul\":3052:3075   */\n      calldataload\n        /* \"#utility.yul\":3084:3114   */\n      tag_399\n        /* \"#utility.yul\":3108:3113   */\n      dup2\n        /* \"#utility.yul\":3084:3114   */\n      tag_425\n      jump\t// in\n        /* \"#utility.yul\":3149:3398   */\n    tag_352:\n        /* \"#utility.yul\":3218:3224   */\n      0x00\n        /* \"#utility.yul\":3271:3273   */\n      0x20\n        /* \"#utility.yul\":3259:3268   */\n      dup3\n        /* \"#utility.yul\":3250:3257   */\n      dup5\n        /* \"#utility.yul\":3246:3269   */\n      sub\n        /* \"#utility.yul\":3242:3274   */\n      slt\n        /* \"#utility.yul\":3239:3291   */\n      iszero\n      tag_427\n      jumpi\n        /* \"#utility.yul\":3287:3288   */\n      0x00\n        /* \"#utility.yul\":3284:3285   */\n      dup1\n        /* \"#utility.yul\":3277:3289   */\n      revert\n        /* \"#utility.yul\":3239:3291   */\n    tag_427:\n        /* \"#utility.yul\":3319:3328   */\n      dup2\n        /* \"#utility.yul\":3313:3329   */\n      mload\n        /* \"#utility.yul\":3338:3368   */\n      tag_399\n        /* \"#utility.yul\":3362:3367   */\n      dup2\n        /* \"#utility.yul\":3338:3368   */\n      tag_425\n      jump\t// in\n        /* \"#utility.yul\":3403:3853   */\n    tag_77:\n        /* \"#utility.yul\":3472:3478   */\n      0x00\n        /* \"#utility.yul\":3525:3527   */\n      0x20\n        /* \"#utility.yul\":3513:3522   */\n      dup3\n        /* \"#utility.yul\":3504:3511   */\n      dup5\n        /* \"#utility.yul\":3500:3523   */\n      sub\n        /* \"#utility.yul\":3496:3528   */\n      slt\n        /* \"#utility.yul\":3493:3545   */\n      iszero\n      tag_430\n      jumpi\n        /* \"#utility.yul\":3541:3542   */\n      0x00\n        /* \"#utility.yul\":3538:3539   */\n      dup1\n        /* \"#utility.yul\":3531:3543   */\n      revert\n        /* \"#utility.yul\":3493:3545   */\n    tag_430:\n        /* \"#utility.yul\":3581:3590   */\n      dup2\n        /* \"#utility.yul\":3568:3591   */\n      calldataload\n        /* \"#utility.yul\":3614:3632   */\n      0xffffffffffffffff\n        /* \"#utility.yul\":3606:3612   */\n      dup2\n        /* \"#utility.yul\":3603:3633   */\n      gt\n        /* \"#utility.yul\":3600:3650   */\n      iszero\n      tag_431\n      jumpi\n        /* \"#utility.yul\":3646:3647   */\n      0x00\n        /* \"#utility.yul\":3643:3644   */\n      dup1\n        /* \"#utility.yul\":3636:3648   */\n      revert\n        /* \"#utility.yul\":3600:3650   */\n    tag_431:\n        /* \"#utility.yul\":3669:3691   */\n      dup3\n      add\n        /* \"#utility.yul\":3722:3726   */\n      0x1f\n        /* \"#utility.yul\":3714:3727   */\n      dup2\n      add\n        /* \"#utility.yul\":3710:3737   */\n      dup5\n      sgt\n        /* \"#utility.yul\":3700:3755   */\n      tag_432\n      jumpi\n        /* \"#utility.yul\":3751:3752   */\n      0x00\n        /* \"#utility.yul\":3748:3749   */\n      dup1\n        /* \"#utility.yul\":3741:3753   */\n      revert\n        /* \"#utility.yul\":3700:3755   */\n    tag_432:\n        /* \"#utility.yul\":3774:3847   */\n      tag_276\n        /* \"#utility.yul\":3839:3846   */\n      dup5\n        /* \"#utility.yul\":3834:3836   */\n      dup3\n        /* \"#utility.yul\":3821:3837   */\n      calldataload\n        /* \"#utility.yul\":3816:3818   */\n      0x20\n        /* \"#utility.yul\":3812:3814   */\n      dup5\n        /* \"#utility.yul\":3808:3819   */\n      add\n        /* \"#utility.yul\":3774:3847   */\n      tag_387\n      jump\t// in\n        /* \"#utility.yul\":3858:4038   */\n    tag_42:\n        /* \"#utility.yul\":3917:3923   */\n      0x00\n        /* \"#utility.yul\":3970:3972   */\n      0x20\n        /* \"#utility.yul\":3958:3967   */\n      dup3\n        /* \"#utility.yul\":3949:3956   */\n      dup5\n        /* \"#utility.yul\":3945:3968   */\n      sub\n        /* \"#utility.yul\":3941:3973   */\n      slt\n        /* \"#utility.yul\":3938:3990   */\n      iszero\n      tag_435\n      jumpi\n        /* \"#utility.yul\":3986:3987   */\n      0x00\n        /* \"#utility.yul\":3983:3984   */\n      dup1\n        /* \"#utility.yul\":3976:3988   */\n      revert\n        /* \"#utility.yul\":3938:3990   */\n    tag_435:\n      pop\n        /* \"#utility.yul\":4009:4032   */\n      calldataload\n      swap2\n        /* \"#utility.yul\":3858:4038   */\n      swap1\n      pop\n      jump\t// out\n        /* \"#utility.yul\":4043:4300   */\n    tag_436:\n        /* \"#utility.yul\":4084:4087   */\n      0x00\n        /* \"#utility.yul\":4122:4127   */\n      dup2\n        /* \"#utility.yul\":4116:4128   */\n      mload\n        /* \"#utility.yul\":4149:4155   */\n      dup1\n        /* \"#utility.yul\":4144:4147   */\n      dup5\n        /* \"#utility.yul\":4137:4156   */\n      mstore\n        /* \"#utility.yul\":4165:4228   */\n      tag_438\n        /* \"#utility.yul\":4221:4227   */\n      dup2\n        /* \"#utility.yul\":4214:4218   */\n      0x20\n        /* \"#utility.yul\":4209:4212   */\n      dup7\n        /* \"#utility.yul\":4205:4219   */\n      add\n        /* \"#utility.yul\":4198:4202   */\n      0x20\n        /* \"#utility.yul\":4191:4196   */\n      dup7\n        /* \"#utility.yul\":4187:4203   */\n      add\n        /* \"#utility.yul\":4165:4228   */\n      tag_439\n      jump\t// in\n    tag_438:\n        /* \"#utility.yul\":4282:4284   */\n      0x1f\n        /* \"#utility.yul\":4261:4276   */\n      add\n      not(0x1f)\n        /* \"#utility.yul\":4257:4286   */\n      and\n        /* \"#utility.yul\":4248:4287   */\n      swap3\n      swap1\n      swap3\n      add\n        /* \"#utility.yul\":4289:4293   */\n      0x20\n        /* \"#utility.yul\":4244:4294   */\n      add\n      swap3\n        /* \"#utility.yul\":4043:4300   */\n      swap2\n      pop\n      pop\n      jump\t// out\n        /* \"#utility.yul\":4305:4490   */\n    tag_440:\n        /* \"#utility.yul\":4347:4350   */\n      0x00\n        /* \"#utility.yul\":4385:4390   */\n      dup2\n        /* \"#utility.yul\":4379:4391   */\n      mload\n        /* \"#utility.yul\":4400:4452   */\n      tag_442\n        /* \"#utility.yul\":4445:4451   */\n      dup2\n        /* \"#utility.yul\":4440:4443   */\n      dup6\n        /* \"#utility.yul\":4433:4437   */\n      0x20\n        /* \"#utility.yul\":4426:4431   */\n      dup7\n        /* \"#utility.yul\":4422:4438   */\n      add\n        /* \"#utility.yul\":4400:4452   */\n      tag_439\n      jump\t// in\n    tag_442:\n        /* \"#utility.yul\":4468:4484   */\n      swap3\n      swap1\n      swap3\n      add\n      swap3\n        /* \"#utility.yul\":4305:4490   */\n      swap2\n      pop\n      pop\n      jump\t// out\n        /* \"#utility.yul\":4613:5914   */\n    tag_246:\n        /* \"#utility.yul\":4890:4893   */\n      0x00\n        /* \"#utility.yul\":4919:4920   */\n      dup1\n        /* \"#utility.yul\":4952:4958   */\n      dup5\n        /* \"#utility.yul\":4946:4959   */\n      sload\n        /* \"#utility.yul\":4982:4985   */\n      dup2\n        /* \"#utility.yul\":5004:5005   */\n      0x01\n        /* \"#utility.yul\":5032:5041   */\n      dup3\n        /* \"#utility.yul\":5028:5030   */\n      dup2\n        /* \"#utility.yul\":5024:5042   */\n      shr\n        /* \"#utility.yul\":5014:5042   */\n      swap2\n      pop\n        /* \"#utility.yul\":5092:5094   */\n      dup1\n        /* \"#utility.yul\":5081:5090   */\n      dup4\n        /* \"#utility.yul\":5077:5095   */\n      and\n        /* \"#utility.yul\":5114:5132   */\n      dup1\n        /* \"#utility.yul\":5104:5165   */\n      tag_446\n      jumpi\n        /* \"#utility.yul\":5158:5162   */\n      0x7f\n        /* \"#utility.yul\":5150:5156   */\n      dup4\n        /* \"#utility.yul\":5146:5163   */\n      and\n        /* \"#utility.yul\":5136:5163   */\n      swap3\n      pop\n        /* \"#utility.yul\":5104:5165   */\n    tag_446:\n        /* \"#utility.yul\":5184:5186   */\n      0x20\n        /* \"#utility.yul\":5232:5234   */\n      dup1\n        /* \"#utility.yul\":5224:5230   */\n      dup5\n        /* \"#utility.yul\":5221:5235   */\n      lt\n        /* \"#utility.yul\":5201:5219   */\n      dup3\n        /* \"#utility.yul\":5198:5236   */\n      eq\n        /* \"#utility.yul\":5195:5360   */\n      iszero\n      tag_447\n      jumpi\n      shl(0xe0, 0x4e487b71)\n        /* \"#utility.yul\":5259:5292   */\n      dup7\n      mstore\n        /* \"#utility.yul\":5315:5319   */\n      0x22\n        /* \"#utility.yul\":5312:5313   */\n      0x04\n        /* \"#utility.yul\":5305:5320   */\n      mstore\n        /* \"#utility.yul\":5345:5349   */\n      0x24\n        /* \"#utility.yul\":5266:5269   */\n      dup7\n        /* \"#utility.yul\":5333:5350   */\n      revert\n        /* \"#utility.yul\":5195:5360   */\n    tag_447:\n        /* \"#utility.yul\":5376:5394   */\n      dup2\n        /* \"#utility.yul\":5403:5507   */\n      dup1\n      iszero\n      tag_449\n      jumpi\n        /* \"#utility.yul\":5521:5522   */\n      0x01\n        /* \"#utility.yul\":5516:5836   */\n      dup2\n      eq\n      tag_450\n      jumpi\n        /* \"#utility.yul\":5369:5836   */\n      jump(tag_448)\n        /* \"#utility.yul\":5403:5507   */\n    tag_449:\n      not(0xff)\n        /* \"#utility.yul\":5436:5460   */\n      dup7\n      and\n        /* \"#utility.yul\":5424:5461   */\n      dup10\n      mstore\n        /* \"#utility.yul\":5481:5497   */\n      dup5\n      dup10\n      add\n      swap7\n      pop\n        /* \"#utility.yul\":5403:5507   */\n      jump(tag_448)\n        /* \"#utility.yul\":5516:5836   */\n    tag_450:\n        /* \"#utility.yul\":13937:13938   */\n      0x00\n        /* \"#utility.yul\":13930:13944   */\n      dup12\n      dup2\n      mstore\n        /* \"#utility.yul\":13974:13978   */\n      0x20\n        /* \"#utility.yul\":13961:13979   */\n      swap1\n      keccak256\n        /* \"#utility.yul\":5611:5612   */\n      0x00\n        /* \"#utility.yul\":5625:5790   */\n    tag_453:\n        /* \"#utility.yul\":5639:5645   */\n      dup7\n        /* \"#utility.yul\":5636:5637   */\n      dup2\n        /* \"#utility.yul\":5633:5646   */\n      lt\n        /* \"#utility.yul\":5625:5790   */\n      iszero\n      tag_455\n      jumpi\n        /* \"#utility.yul\":5717:5731   */\n      dup2\n      sload\n        /* \"#utility.yul\":5704:5715   */\n      dup12\n      dup3\n      add\n        /* \"#utility.yul\":5697:5732   */\n      mstore\n        /* \"#utility.yul\":5760:5776   */\n      swap1\n      dup6\n      add\n      swap1\n        /* \"#utility.yul\":5654:5664   */\n      dup4\n      add\n        /* \"#utility.yul\":5625:5790   */\n      jump(tag_453)\n    tag_455:\n        /* \"#utility.yul\":5629:5632   */\n      pop\n      pop\n        /* \"#utility.yul\":5819:5825   */\n      dup5\n        /* \"#utility.yul\":5814:5817   */\n      dup10\n        /* \"#utility.yul\":5810:5826   */\n      add\n        /* \"#utility.yul\":5803:5826   */\n      swap7\n      pop\n        /* \"#utility.yul\":5369:5836   */\n    tag_448:\n      pop\n      pop\n      pop\n      pop\n      pop\n      pop\n        /* \"#utility.yul\":5852:5908   */\n      tag_456\n        /* \"#utility.yul\":5877:5907   */\n      tag_457\n        /* \"#utility.yul\":5903:5906   */\n      dup3\n        /* \"#utility.yul\":5895:5901   */\n      dup7\n        /* \"#utility.yul\":5877:5907   */\n      tag_440\n      jump\t// in\n    tag_457:\n      shl(0xd9, 0x173539b7b7)\n        /* \"#utility.yul\":4555:4575   */\n      dup2\n      mstore\n        /* \"#utility.yul\":4600:4601   */\n      0x05\n        /* \"#utility.yul\":4591:4602   */\n      add\n      swap1\n        /* \"#utility.yul\":4495:4608   */\n      jump\n        /* \"#utility.yul\":5852:5908   */\n    tag_456:\n        /* \"#utility.yul\":5845:5908   */\n      swap6\n        /* \"#utility.yul\":4613:5914   */\n      swap5\n      pop\n      pop\n      pop\n      pop\n      pop\n      jump\t// out\n        /* \"#utility.yul\":6127:6615   */\n    tag_348:\n      sub(shl(0xa0, 0x01), 0x01)\n        /* \"#utility.yul\":6396:6411   */\n      dup6\n      dup2\n      and\n        /* \"#utility.yul\":6378:6412   */\n      dup3\n      mstore\n        /* \"#utility.yul\":6448:6463   */\n      dup5\n      and\n        /* \"#utility.yul\":6443:6445   */\n      0x20\n        /* \"#utility.yul\":6428:6446   */\n      dup3\n      add\n        /* \"#utility.yul\":6421:6464   */\n      mstore\n        /* \"#utility.yul\":6495:6497   */\n      0x40\n        /* \"#utility.yul\":6480:6498   */\n      dup2\n      add\n        /* \"#utility.yul\":6473:6507   */\n      dup4\n      swap1\n      mstore\n        /* \"#utility.yul\":6543:6546   */\n      0x80\n        /* \"#utility.yul\":6538:6540   */\n      0x60\n        /* \"#utility.yul\":6523:6541   */\n      dup3\n      add\n        /* \"#utility.yul\":6516:6547   */\n      dup2\n      swap1\n      mstore\n        /* \"#utility.yul\":6321:6325   */\n      0x00\n      swap1\n        /* \"#utility.yul\":6564:6609   */\n      tag_460\n      swap1\n        /* \"#utility.yul\":6589:6608   */\n      dup4\n      add\n        /* \"#utility.yul\":6581:6587   */\n      dup5\n        /* \"#utility.yul\":6564:6609   */\n      tag_436\n      jump\t// in\n    tag_460:\n        /* \"#utility.yul\":6556:6609   */\n      swap7\n        /* \"#utility.yul\":6127:6615   */\n      swap6\n      pop\n      pop\n      pop\n      pop\n      pop\n      pop\n      jump\t// out\n        /* \"#utility.yul\":6812:7031   */\n    tag_38:\n        /* \"#utility.yul\":6961:6963   */\n      0x20\n        /* \"#utility.yul\":6950:6959   */\n      dup2\n        /* \"#utility.yul\":6943:6964   */\n      mstore\n        /* \"#utility.yul\":6924:6928   */\n      0x00\n        /* \"#utility.yul\":6981:7025   */\n      tag_399\n        /* \"#utility.yul\":7021:7023   */\n      0x20\n        /* \"#utility.yul\":7010:7019   */\n      dup4\n        /* \"#utility.yul\":7006:7024   */\n      add\n        /* \"#utility.yul\":6998:7004   */\n      dup5\n        /* \"#utility.yul\":6981:7025   */\n      tag_436\n      jump\t// in\n        /* \"#utility.yul\":7036:7450   */\n    tag_312:\n        /* \"#utility.yul\":7238:7240   */\n      0x20\n        /* \"#utility.yul\":7220:7241   */\n      dup1\n      dup3\n      mstore\n        /* \"#utility.yul\":7277:7279   */\n      0x32\n        /* \"#utility.yul\":7257:7275   */\n      swap1\n      dup3\n      add\n        /* \"#utility.yul\":7250:7280   */\n      mstore\n        /* \"#utility.yul\":7316:7350   */\n      0x4552433732313a207472616e7366657220746f206e6f6e204552433732315265\n        /* \"#utility.yul\":7311:7313   */\n      0x40\n        /* \"#utility.yul\":7296:7314   */\n      dup3\n      add\n        /* \"#utility.yul\":7289:7351   */\n      mstore\n      shl(0x71, 0x31b2b4bb32b91034b6b83632b6b2b73a32b9)\n        /* \"#utility.yul\":7382:7384   */\n      0x60\n        /* \"#utility.yul\":7367:7385   */\n      dup3\n      add\n        /* \"#utility.yul\":7360:7408   */\n      mstore\n        /* \"#utility.yul\":7440:7443   */\n      0x80\n        /* \"#utility.yul\":7425:7444   */\n      add\n      swap1\n        /* \"#utility.yul\":7036:7450   */\n      jump\t// out\n        /* \"#utility.yul\":12157:12513   */\n    tag_204:\n        /* \"#utility.yul\":12359:12361   */\n      0x20\n        /* \"#utility.yul\":12341:12362   */\n      dup1\n      dup3\n      mstore\n        /* \"#utility.yul\":12378:12396   */\n      dup2\n      dup2\n      add\n        /* \"#utility.yul\":12371:12401   */\n      mstore\n        /* \"#utility.yul\":12437:12471   */\n      0x4f776e61626c653a2063616c6c6572206973206e6f7420746865206f776e6572\n        /* \"#utility.yul\":12432:12434   */\n      0x40\n        /* \"#utility.yul\":12417:12435   */\n      dup3\n      add\n        /* \"#utility.yul\":12410:12472   */\n      mstore\n        /* \"#utility.yul\":12504:12506   */\n      0x60\n        /* \"#utility.yul\":12489:12507   */\n      add\n      swap1\n        /* \"#utility.yul\":12157:12513   */\n      jump\t// out\n        /* \"#utility.yul\":12920:13333   */\n    tag_172:\n        /* \"#utility.yul\":13122:13124   */\n      0x20\n        /* \"#utility.yul\":13104:13125   */\n      dup1\n      dup3\n      mstore\n        /* \"#utility.yul\":13161:13163   */\n      0x31\n        /* \"#utility.yul\":13141:13159   */\n      swap1\n      dup3\n      add\n        /* \"#utility.yul\":13134:13164   */\n      mstore\n        /* \"#utility.yul\":13200:13234   */\n      0x4552433732313a207472616e736665722063616c6c6572206973206e6f74206f\n        /* \"#utility.yul\":13195:13197   */\n      0x40\n        /* \"#utility.yul\":13180:13198   */\n      dup3\n      add\n        /* \"#utility.yul\":13173:13235   */\n      mstore\n      shl(0x7a, 0x1ddb995c881b9bdc88185c1c1c9bdd9959)\n        /* \"#utility.yul\":13266:13268   */\n      0x60\n        /* \"#utility.yul\":13251:13269   */\n      dup3\n      add\n        /* \"#utility.yul\":13244:13291   */\n      mstore\n        /* \"#utility.yul\":13323:13326   */\n      0x80\n        /* \"#utility.yul\":13308:13327   */\n      add\n      swap1\n        /* \"#utility.yul\":12920:13333   */\n      jump\t// out\n        /* \"#utility.yul\":13990:14118   */\n    tag_292:\n        /* \"#utility.yul\":14030:14033   */\n      0x00\n        /* \"#utility.yul\":14061:14062   */\n      dup3\n        /* \"#utility.yul\":14057:14063   */\n      not\n        /* \"#utility.yul\":14054:14055   */\n      dup3\n        /* \"#utility.yul\":14051:14064   */\n      gt\n        /* \"#utility.yul\":14048:14087   */\n      iszero\n      tag_485\n      jumpi\n        /* \"#utility.yul\":14067:14085   */\n      tag_485\n      tag_486\n      jump\t// in\n    tag_485:\n      pop\n        /* \"#utility.yul\":14103:14112   */\n      add\n      swap1\n        /* \"#utility.yul\":13990:14118   */\n      jump\t// out\n        /* \"#utility.yul\":14123:14243   */\n    tag_196:\n        /* \"#utility.yul\":14163:14164   */\n      0x00\n        /* \"#utility.yul\":14189:14190   */\n      dup3\n        /* \"#utility.yul\":14179:14214   */\n      tag_489\n      jumpi\n        /* \"#utility.yul\":14194:14212   */\n      tag_489\n      tag_490\n      jump\t// in\n    tag_489:\n      pop\n        /* \"#utility.yul\":14228:14237   */\n      div\n      swap1\n        /* \"#utility.yul\":14123:14243   */\n      jump\t// out\n        /* \"#utility.yul\":14248:14416   */\n    tag_198:\n        /* \"#utility.yul\":14288:14295   */\n      0x00\n        /* \"#utility.yul\":14354:14355   */\n      dup2\n        /* \"#utility.yul\":14350:14351   */\n      0x00\n        /* \"#utility.yul\":14346:14352   */\n      not\n        /* \"#utility.yul\":14342:14356   */\n      div\n        /* \"#utility.yul\":14339:14340   */\n      dup4\n        /* \"#utility.yul\":14336:14357   */\n      gt\n        /* \"#utility.yul\":14331:14332   */\n      dup3\n        /* \"#utility.yul\":14324:14333   */\n      iszero\n        /* \"#utility.yul\":14317:14334   */\n      iszero\n        /* \"#utility.yul\":14313:14358   */\n      and\n        /* \"#utility.yul\":14310:14381   */\n      iszero\n      tag_493\n      jumpi\n        /* \"#utility.yul\":14361:14379   */\n      tag_493\n      tag_486\n      jump\t// in\n    tag_493:\n      pop\n        /* \"#utility.yul\":14401:14410   */\n      mul\n      swap1\n        /* \"#utility.yul\":14248:14416   */\n      jump\t// out\n        /* \"#utility.yul\":14421:14546   */\n    tag_290:\n        /* \"#utility.yul\":14461:14465   */\n      0x00\n        /* \"#utility.yul\":14489:14490   */\n      dup3\n        /* \"#utility.yul\":14486:14487   */\n      dup3\n        /* \"#utility.yul\":14483:14491   */\n      lt\n        /* \"#utility.yul\":14480:14514   */\n      iszero\n      tag_496\n      jumpi\n        /* \"#utility.yul\":14494:14512   */\n      tag_496\n      tag_486\n      jump\t// in\n    tag_496:\n      pop\n        /* \"#utility.yul\":14531:14540   */\n      sub\n      swap1\n        /* \"#utility.yul\":14421:14546   */\n      jump\t// out\n        /* \"#utility.yul\":14551:14809   */\n    tag_439:\n        /* \"#utility.yul\":14623:14624   */\n      0x00\n        /* \"#utility.yul\":14633:14746   */\n    tag_498:\n        /* \"#utility.yul\":14647:14653   */\n      dup4\n        /* \"#utility.yul\":14644:14645   */\n      dup2\n        /* \"#utility.yul\":14641:14654   */\n      lt\n        /* \"#utility.yul\":14633:14746   */\n      iszero\n      tag_500\n      jumpi\n        /* \"#utility.yul\":14723:14734   */\n      dup2\n      dup2\n      add\n        /* \"#utility.yul\":14717:14735   */\n      mload\n        /* \"#utility.yul\":14704:14715   */\n      dup4\n      dup3\n      add\n        /* \"#utility.yul\":14697:14736   */\n      mstore\n        /* \"#utility.yul\":14669:14671   */\n      0x20\n        /* \"#utility.yul\":14662:14672   */\n      add\n        /* \"#utility.yul\":14633:14746   */\n      jump(tag_498)\n    tag_500:\n        /* \"#utility.yul\":14764:14770   */\n      dup4\n        /* \"#utility.yul\":14761:14762   */\n      dup2\n        /* \"#utility.yul\":14758:14771   */\n      gt\n        /* \"#utility.yul\":14755:14803   */\n      iszero\n      tag_240\n      jumpi\n      pop\n      pop\n        /* \"#utility.yul\":14799:14800   */\n      0x00\n        /* \"#utility.yul\":14781:14797   */\n      swap2\n      add\n        /* \"#utility.yul\":14774:14801   */\n      mstore\n        /* \"#utility.yul\":14551:14809   */\n      jump\t// out\n        /* \"#utility.yul\":14814:15194   */\n    tag_140:\n        /* \"#utility.yul\":14893:14894   */\n      0x01\n        /* \"#utility.yul\":14889:14901   */\n      dup2\n      dup2\n      shr\n      swap1\n        /* \"#utility.yul\":14936:14948   */\n      dup3\n      and\n      dup1\n        /* \"#utility.yul\":14957:15018   */\n      tag_503\n      jumpi\n        /* \"#utility.yul\":15011:15015   */\n      0x7f\n        /* \"#utility.yul\":15003:15009   */\n      dup3\n        /* \"#utility.yul\":14999:15016   */\n      and\n        /* \"#utility.yul\":14989:15016   */\n      swap2\n      pop\n        /* \"#utility.yul\":14957:15018   */\n    tag_503:\n        /* \"#utility.yul\":15064:15066   */\n      0x20\n        /* \"#utility.yul\":15056:15062   */\n      dup3\n        /* \"#utility.yul\":15053:15067   */\n      lt\n        /* \"#utility.yul\":15033:15051   */\n      dup2\n        /* \"#utility.yul\":15030:15068   */\n      eq\n        /* \"#utility.yul\":15027:15188   */\n      iszero\n      tag_504\n      jumpi\n        /* \"#utility.yul\":15110:15120   */\n      0x4e487b71\n        /* \"#utility.yul\":15105:15108   */\n      0xe0\n        /* \"#utility.yul\":15101:15121   */\n      shl\n        /* \"#utility.yul\":15098:15099   */\n      0x00\n        /* \"#utility.yul\":15091:15122   */\n      mstore\n        /* \"#utility.yul\":15145:15149   */\n      0x22\n        /* \"#utility.yul\":15142:15143   */\n      0x04\n        /* \"#utility.yul\":15135:15150   */\n      mstore\n        /* \"#utility.yul\":15173:15177   */\n      0x24\n        /* \"#utility.yul\":15170:15171   */\n      0x00\n        /* \"#utility.yul\":15163:15178   */\n      revert\n        /* \"#utility.yul\":15027:15188   */\n    tag_504:\n      pop\n        /* \"#utility.yul\":14814:15194   */\n      swap2\n      swap1\n      pop\n      jump\t// out\n        /* \"#utility.yul\":15199:15334   */\n    tag_318:\n        /* \"#utility.yul\":15238:15241   */\n      0x00\n      not(0x00)\n        /* \"#utility.yul\":15259:15276   */\n      dup3\n      eq\n        /* \"#utility.yul\":15256:15299   */\n      iszero\n      tag_507\n      jumpi\n        /* \"#utility.yul\":15279:15297   */\n      tag_507\n      tag_486\n      jump\t// in\n    tag_507:\n      pop\n        /* \"#utility.yul\":15326:15327   */\n      0x01\n        /* \"#utility.yul\":15315:15328   */\n      add\n      swap1\n        /* \"#utility.yul\":15199:15334   */\n      jump\t// out\n        /* \"#utility.yul\":15339:15451   */\n    tag_328:\n        /* \"#utility.yul\":15371:15372   */\n      0x00\n        /* \"#utility.yul\":15397:15398   */\n      dup3\n        /* \"#utility.yul\":15387:15422   */\n      tag_510\n      jumpi\n        /* \"#utility.yul\":15402:15420   */\n      tag_510\n      tag_490\n      jump\t// in\n    tag_510:\n      pop\n        /* \"#utility.yul\":15436:15445   */\n      mod\n      swap1\n        /* \"#utility.yul\":15339:15451   */\n      jump\t// out\n        /* \"#utility.yul\":15456:15583   */\n    tag_486:\n        /* \"#utility.yul\":15517:15527   */\n      0x4e487b71\n        /* \"#utility.yul\":15512:15515   */\n      0xe0\n        /* \"#utility.yul\":15508:15528   */\n      shl\n        /* \"#utility.yul\":15505:15506   */\n      0x00\n        /* \"#utility.yul\":15498:15529   */\n      mstore\n        /* \"#utility.yul\":15548:15552   */\n      0x11\n        /* \"#utility.yul\":15545:15546   */\n      0x04\n        /* \"#utility.yul\":15538:15553   */\n      mstore\n        /* \"#utility.yul\":15572:15576   */\n      0x24\n        /* \"#utility.yul\":15569:15570   */\n      0x00\n        /* \"#utility.yul\":15562:15577   */\n      revert\n        /* \"#utility.yul\":15588:15715   */\n    tag_490:\n        /* \"#utility.yul\":15649:15659   */\n      0x4e487b71\n        /* \"#utility.yul\":15644:15647   */\n      0xe0\n        /* \"#utility.yul\":15640:15660   */\n      shl\n        /* \"#utility.yul\":15637:15638   */\n      0x00\n        /* \"#utility.yul\":15630:15661   */\n      mstore\n        /* \"#utility.yul\":15680:15684   */\n      0x12\n        /* \"#utility.yul\":15677:15678   */\n      0x04\n        /* \"#utility.yul\":15670:15685   */\n      mstore\n        /* \"#utility.yul\":15704:15708   */\n      0x24\n        /* \"#utility.yul\":15701:15702   */\n      0x00\n        /* \"#utility.yul\":15694:15709   */\n      revert\n        /* \"#utility.yul\":15720:15847   */\n    tag_332:\n        /* \"#utility.yul\":15781:15791   */\n      0x4e487b71\n        /* \"#utility.yul\":15776:15779   */\n      0xe0\n        /* \"#utility.yul\":15772:15792   */\n      shl\n        /* \"#utility.yul\":15769:15770   */\n      0x00\n        /* \"#utility.yul\":15762:15793   */\n      mstore\n        /* \"#utility.yul\":15812:15816   */\n      0x32\n        /* \"#utility.yul\":15809:15810   */\n      0x04\n        /* \"#utility.yul\":15802:15817   */\n      mstore\n        /* \"#utility.yul\":15836:15840   */\n      0x24\n        /* \"#utility.yul\":15833:15834   */\n      0x00\n        /* \"#utility.yul\":15826:15841   */\n      revert\n        /* \"#utility.yul\":15852:15979   */\n    tag_322:\n        /* \"#utility.yul\":15913:15923   */\n      0x4e487b71\n        /* \"#utility.yul\":15908:15911   */\n      0xe0\n        /* \"#utility.yul\":15904:15924   */\n      shl\n        /* \"#utility.yul\":15901:15902   */\n      0x00\n        /* \"#utility.yul\":15894:15925   */\n      mstore\n        /* \"#utility.yul\":15944:15948   */\n      0x41\n        /* \"#utility.yul\":15941:15942   */\n      0x04\n        /* \"#utility.yul\":15934:15949   */\n      mstore\n        /* \"#utility.yul\":15968:15972   */\n      0x24\n        /* \"#utility.yul\":15965:15966   */\n      0x00\n        /* \"#utility.yul\":15958:15973   */\n      revert\n        /* \"#utility.yul\":15984:16115   */\n    tag_425:\n      not(sub(shl(0xe0, 0x01), 0x01))\n        /* \"#utility.yul\":16058:16090   */\n      dup2\n      and\n        /* \"#utility.yul\":16048:16091   */\n      dup2\n      eq\n        /* \"#utility.yul\":16038:16109   */\n      tag_262\n      jumpi\n        /* \"#utility.yul\":16105:16106   */\n      0x00\n        /* \"#utility.yul\":16102:16103   */\n      dup1\n        /* \"#utility.yul\":16095:16107   */\n      revert\n\n    auxdata: 0xa26469706673582212205bc5f73e65d2c1bdc3766c097738b9bbf9f63e1565f25fcc156a4bd7c281944764736f6c63430008070033\n}\n",
				"bytecode": {
					"linkReferences": {},
					"object": "60a06040527fdd870fa1b7c4700f2bd7f44238821c26f73921480000000000000000000000006080523480156200003557600080fd5b5060405162001d8638038062001d86833981016040819052620000589162000266565b8351849084906200007190600090602085019062000109565b5080516200008790600190602084019062000109565b505050620000a46200009e620000b360201b60201c565b620000b7565b600855600a5550620003339050565b3390565b600680546001600160a01b038381166001600160a01b0319831681179093556040519116919082907f8be0079c531659141344cd1fd0a4f28419497f9722a3daafe3b4186f6b6457e090600090a35050565b8280546200011790620002e0565b90600052602060002090601f0160209004810192826200013b576000855562000186565b82601f106200015657805160ff191683800117855562000186565b8280016001018555821562000186579182015b828111156200018657825182559160200191906001019062000169565b506200019492915062000198565b5090565b5b8082111562000194576000815560010162000199565b600082601f830112620001c157600080fd5b81516001600160401b0380821115620001de57620001de6200031d565b604051601f8301601f19908116603f011681019082821181831017156200020957620002096200031d565b816040528381526020925086838588010111156200022657600080fd5b600091505b838210156200024a57858201830151818301840152908201906200022b565b838211156200025c5760008385830101525b9695505050505050565b600080600080608085870312156200027d57600080fd5b84516001600160401b03808211156200029557600080fd5b620002a388838901620001af565b95506020870151915080821115620002ba57600080fd5b50620002c987828801620001af565b604087015160609097015195989097509350505050565b600181811c90821680620002f557607f821691505b602082108114156200031757634e487b7160e01b600052602260045260246000fd5b50919050565b634e487b7160e01b600052604160045260246000fd5b60805160601c611a3462000352600039600061078f0152611a346000f3fe6080604052600436106101355760003560e01c80636817c76c116100ab578063a22cb4651161006f578063a22cb46514610340578063b88d4fde14610360578063c87b56dd14610380578063d547cfb7146103a0578063e985e9c5146103b5578063f2fde38b146103fe57600080fd5b80636817c76c146102c257806370a08231146102d8578063715018a6146102f85780638da5cb5b1461030d57806395d89b411461032b57600080fd5b806323b872dd116100fd57806323b872dd1461020f57806340d097c31461022f57806342842e0e14610242578063483a93101461026257806355f804b3146102825780636352211e146102a257600080fd5b806301ffc9a71461013a57806306fdde031461016f578063081812fc14610191578063095ea7b3146101c957806318160ddd146101eb575b600080fd5b34801561014657600080fd5b5061015a6101553660046115d1565b61041e565b60405190151581526020015b60405180910390f35b34801561017b57600080fd5b50610184610470565b60405161016691906117ad565b34801561019d57600080fd5b506101b16101ac366004611654565b610502565b6040516001600160a01b039091168152602001610166565b3480156101d557600080fd5b506101e96101e43660046115a7565b61059c565b005b3480156101f757600080fd5b5061020160085481565b604051908152602001610166565b34801561021b57600080fd5b506101e961022a3660046114b3565b6106b2565b6101e961023d36600461145e565b6106e3565b34801561024e57600080fd5b506101e961025d3660046114b3565b6107eb565b34801561026e57600080fd5b5061020161027d366004611654565b610806565b34801561028e57600080fd5b506101e961029d36600461160b565b610820565b3480156102ae57600080fd5b506101b16102bd366004611654565b610861565b3480156102ce57600080fd5b50610201600a5481565b3480156102e457600080fd5b506102016102f336600461145e565b6108d8565b34801561030457600080fd5b506101e961095f565b34801561031957600080fd5b506006546001600160a01b03166101b1565b34801561033757600080fd5b50610184610995565b34801561034c57600080fd5b506101e961035b36600461156b565b6109a4565b34801561036c57600080fd5b506101e961037b3660046114ef565b6109af565b34801561038c57600080fd5b5061018461039b366004611654565b6109e7565b3480156103ac57600080fd5b50610184610a1b565b3480156103c157600080fd5b5061015a6103d0366004611480565b6001600160a01b03918216600090815260056020908152604080832093909416825291909152205460ff1690565b34801561040a57600080fd5b506101e961041936600461145e565b610aa9565b60006001600160e01b031982166380ac58cd60e01b148061044f57506001600160e01b03198216635b5e139f60e01b145b8061046a57506301ffc9a760e01b6001600160e01b03198316145b92915050565b60606000805461047f90611926565b80601f01602080910402602001604051908101604052809291908181526020018280546104ab90611926565b80156104f85780601f106104cd576101008083540402835291602001916104f8565b820191906000526020600020905b8154815290600101906020018083116104db57829003601f168201915b5050505050905090565b6000818152600260205260408120546001600160a01b03166105805760405162461bcd60e51b815260206004820152602c60248201527f4552433732313a20617070726f76656420717565727920666f72206e6f6e657860448201526b34b9ba32b73a103a37b5b2b760a11b60648201526084015b60405180910390fd5b506000908152600460205260409020546001600160a01b031690565b60006105a782610861565b9050806001600160a01b0316836001600160a01b031614156106155760405162461bcd60e51b815260206004820152602160248201527f4552433732313a20617070726f76616c20746f2063757272656e74206f776e656044820152603960f91b6064820152608401610577565b336001600160a01b0382161480610631575061063181336103d0565b6106a35760405162461bcd60e51b815260206004820152603860248201527f4552433732313a20617070726f76652063616c6c6572206973206e6f74206f7760448201527f6e6572206e6f7220617070726f76656420666f7220616c6c00000000000000006064820152608401610577565b6106ad8383610b44565b505050565b6106bc3382610bb2565b6106d85760405162461bcd60e51b815260040161057790611847565b6106ad838383610ca9565b60085460075411156107295760405162461bcd60e51b815260206004820152600f60248201526e1b1a5b5a5d0818dbdb5c1b195d1959608a1b6044820152606401610577565b600a5434146107685760405162461bcd60e51b815260206004820152600b60248201526a1b195cdcc8185b5bdd5b9d60aa1b6044820152606401610577565b600061077360075490565b9050610783600780546001019055565b61078d8282610e45565b7f00000000000000000000000000000000000000000000000000000000000000006001600160a01b03166108fc6107c334610806565b6040518115909202916000818181858888f193505050501580156106ad573d6000803e3d6000fd5b6106ad838383604051806020016040528060008152506109af565b6000610814612710836118b0565b61046a9061039f6118c4565b6006546001600160a01b0316331461084a5760405162461bcd60e51b815260040161057790611812565b805161085d906009906020840190611333565b5050565b6000818152600260205260408120546001600160a01b03168061046a5760405162461bcd60e51b815260206004820152602960248201527f4552433732313a206f776e657220717565727920666f72206e6f6e657869737460448201526832b73a103a37b5b2b760b91b6064820152608401610577565b60006001600160a01b0382166109435760405162461bcd60e51b815260206004820152602a60248201527f4552433732313a2062616c616e636520717565727920666f7220746865207a65604482015269726f206164647265737360b01b6064820152608401610577565b506001600160a01b031660009081526003602052604090205490565b6006546001600160a01b031633146109895760405162461bcd60e51b815260040161057790611812565b6109936000610e5f565b565b60606001805461047f90611926565b61085d338383610eb1565b6109b93383610bb2565b6109d55760405162461bcd60e51b815260040161057790611847565b6109e184848484610f80565b50505050565b606060096109f483610fb3565b604051602001610a059291906116b5565b6040516020818303038152906040529050919050565b60098054610a2890611926565b80601f0160208091040260200160405190810160405280929190818152602001828054610a5490611926565b8015610aa15780601f10610a7657610100808354040283529160200191610aa1565b820191906000526020600020905b815481529060010190602001808311610a8457829003601f168201915b505050505081565b6006546001600160a01b03163314610ad35760405162461bcd60e51b815260040161057790611812565b6001600160a01b038116610b385760405162461bcd60e51b815260206004820152602660248201527f4f776e61626c653a206e6577206f776e657220697320746865207a65726f206160448201526564647265737360d01b6064820152608401610577565b610b4181610e5f565b50565b600081815260046020526040902080546001600160a01b0319166001600160a01b0384169081179091558190610b7982610861565b6001600160a01b03167f8c5be1e5ebec7d5bd14f71427d1e84f3dd0314c0f7b2291e5b200ac8c7c3b92560405160405180910390a45050565b6000818152600260205260408120546001600160a01b0316610c2b5760405162461bcd60e51b815260206004820152602c60248201527f4552433732313a206f70657261746f7220717565727920666f72206e6f6e657860448201526b34b9ba32b73a103a37b5b2b760a11b6064820152608401610577565b6000610c3683610861565b9050806001600160a01b0316846001600160a01b03161480610c7d57506001600160a01b0380821660009081526005602090815260408083209388168352929052205460ff165b80610ca15750836001600160a01b0316610c9684610502565b6001600160a01b0316145b949350505050565b826001600160a01b0316610cbc82610861565b6001600160a01b031614610d205760405162461bcd60e51b815260206004820152602560248201527f4552433732313a207472616e736665722066726f6d20696e636f72726563742060448201526437bbb732b960d91b6064820152608401610577565b6001600160a01b038216610d825760405162461bcd60e51b8152602060048201526024808201527f4552433732313a207472616e7366657220746f20746865207a65726f206164646044820152637265737360e01b6064820152608401610577565b610d8d600082610b44565b6001600160a01b0383166000908152600360205260408120805460019290610db69084906118e3565b90915550506001600160a01b0382166000908152600360205260408120805460019290610de4908490611898565b909155505060008181526002602052604080822080546001600160a01b0319166001600160a01b0386811691821790925591518493918716917fddf252ad1be2c89b69c2b068fc378daa952ba7f163c4a11628f55a4df523b3ef91a4505050565b61085d8282604051806020016040528060008152506110b1565b600680546001600160a01b038381166001600160a01b0319831681179093556040519116919082907f8be0079c531659141344cd1fd0a4f28419497f9722a3daafe3b4186f6b6457e090600090a35050565b816001600160a01b0316836001600160a01b03161415610f135760405162461bcd60e51b815260206004820152601960248201527f4552433732313a20617070726f766520746f2063616c6c6572000000000000006044820152606401610577565b6001600160a01b03838116600081815260056020908152604080832094871680845294825291829020805460ff191686151590811790915591519182527f17307eab39ab6107e8899845ad3d59bd9653f200f220920489ca2b5937696c31910160405180910390a3505050565b610f8b848484610ca9565b610f97848484846110e4565b6109e15760405162461bcd60e51b8152600401610577906117c0565b606081610fd75750506040805180820190915260018152600360fc1b602082015290565b8160005b81156110015780610feb81611961565b9150610ffa9050600a836118b0565b9150610fdb565b60008167ffffffffffffffff81111561101c5761101c6119d2565b6040519080825280601f01601f191660200182016040528015611046576020820181803683370190505b5090505b8415610ca15761105b6001836118e3565b9150611068600a8661197c565b611073906030611898565b60f81b818381518110611088576110886119bc565b60200101906001600160f81b031916908160001a9053506110aa600a866118b0565b945061104a565b6110bb83836111f1565b6110c860008484846110e4565b6106ad5760405162461bcd60e51b8152600401610577906117c0565b60006001600160a01b0384163b156111e657604051630a85bd0160e11b81526001600160a01b0385169063150b7a0290611128903390899088908890600401611770565b602060405180830381600087803b15801561114257600080fd5b505af1925050508015611172575060408051601f3d908101601f1916820190925261116f918101906115ee565b60015b6111cc573d8080156111a0576040519150601f19603f3d011682016040523d82523d6000602084013e6111a5565b606091505b5080516111c45760405162461bcd60e51b8152600401610577906117c0565b805181602001fd5b6001600160e01b031916630a85bd0160e11b149050610ca1565b506001949350505050565b6001600160a01b0382166112475760405162461bcd60e51b815260206004820181905260248201527f4552433732313a206d696e7420746f20746865207a65726f20616464726573736044820152606401610577565b6000818152600260205260409020546001600160a01b0316156112ac5760405162461bcd60e51b815260206004820152601c60248201527f4552433732313a20746f6b656e20616c7265616479206d696e746564000000006044820152606401610577565b6001600160a01b03821660009081526003602052604081208054600192906112d5908490611898565b909155505060008181526002602052604080822080546001600160a01b0319166001600160a01b03861690811790915590518392907fddf252ad1be2c89b69c2b068fc378daa952ba7f163c4a11628f55a4df523b3ef908290a45050565b82805461133f90611926565b90600052602060002090601f01602090048101928261136157600085556113a7565b82601f1061137a57805160ff19168380011785556113a7565b828001600101855582156113a7579182015b828111156113a757825182559160200191906001019061138c565b506113b39291506113b7565b5090565b5b808211156113b357600081556001016113b8565b600067ffffffffffffffff808411156113e7576113e76119d2565b604051601f8501601f19908116603f0116810190828211818310171561140f5761140f6119d2565b8160405280935085815286868601111561142857600080fd5b858560208301376000602087830101525050509392505050565b80356001600160a01b038116811461145957600080fd5b919050565b60006020828403121561147057600080fd5b61147982611442565b9392505050565b6000806040838503121561149357600080fd5b61149c83611442565b91506114aa60208401611442565b90509250929050565b6000806000606084860312156114c857600080fd5b6114d184611442565b92506114df60208501611442565b9150604084013590509250925092565b6000806000806080858703121561150557600080fd5b61150e85611442565b935061151c60208601611442565b925060408501359150606085013567ffffffffffffffff81111561153f57600080fd5b8501601f8101871361155057600080fd5b61155f878235602084016113cc565b91505092959194509250565b6000806040838503121561157e57600080fd5b61158783611442565b91506020830135801515811461159c57600080fd5b809150509250929050565b600080604083850312156115ba57600080fd5b6115c383611442565b946020939093013593505050565b6000602082840312156115e357600080fd5b8135611479816119e8565b60006020828403121561160057600080fd5b8151611479816119e8565b60006020828403121561161d57600080fd5b813567ffffffffffffffff81111561163457600080fd5b8201601f8101841361164557600080fd5b610ca1848235602084016113cc565b60006020828403121561166657600080fd5b5035919050565b600081518084526116858160208601602086016118fa565b601f01601f19169290920160200192915050565b600081516116ab8185602086016118fa565b9290920192915050565b600080845481600182811c9150808316806116d157607f831692505b60208084108214156116f157634e487b7160e01b86526022600452602486fd5b818015611705576001811461171657611743565b60ff19861689528489019650611743565b60008b81526020902060005b8681101561173b5781548b820152908501908301611722565b505084890196505b5050505050506117676117568286611699565b64173539b7b760d91b815260050190565b95945050505050565b6001600160a01b03858116825284166020820152604081018390526080606082018190526000906117a39083018461166d565b9695505050505050565b602081526000611479602083018461166d565b60208082526032908201527f4552433732313a207472616e7366657220746f206e6f6e20455243373231526560408201527131b2b4bb32b91034b6b83632b6b2b73a32b960711b606082015260800190565b6020808252818101527f4f776e61626c653a2063616c6c6572206973206e6f7420746865206f776e6572604082015260600190565b60208082526031908201527f4552433732313a207472616e736665722063616c6c6572206973206e6f74206f6040820152701ddb995c881b9bdc88185c1c1c9bdd9959607a1b606082015260800190565b600082198211156118ab576118ab611990565b500190565b6000826118bf576118bf6119a6565b500490565b60008160001904831182151516156118de576118de611990565b500290565b6000828210156118f5576118f5611990565b500390565b60005b838110156119155781810151838201526020016118fd565b838111156109e15750506000910152565b600181811c9082168061193a57607f821691505b6020821081141561195b57634e487b7160e01b600052602260045260246000fd5b50919050565b600060001982141561197557611975611990565b5060010190565b60008261198b5761198b6119a6565b500690565b634e487b7160e01b600052601160045260246000fd5b634e487b7160e01b600052601260045260246000fd5b634e487b7160e01b600052603260045260246000fd5b634e487b7160e01b600052604160045260246000fd5b6001600160e01b031981168114610b4157600080fdfea26469706673582212205bc5f73e65d2c1bdc3766c097738b9bbf9f63e1565f25fcc156a4bd7c281944764736f6c63430008070033",
					"opcodes": "PUSH1 0xA0 PUSH1 0x40 MSTORE PUSH32 0xDD870FA1B7C4700F2BD7F44238821C26F7392148000000000000000000000000 PUSH1 0x80 MSTORE CALLVALUE DUP1 ISZERO PUSH3 0x35 JUMPI PUSH1 0x0 DUP1 REVERT JUMPDEST POP PUSH1 0x40 MLOAD PUSH3 0x1D86 CODESIZE SUB DUP1 PUSH3 0x1D86 DUP4 CODECOPY DUP2 ADD PUSH1 0x40 DUP2 SWAP1 MSTORE PUSH3 0x58 SWAP2 PUSH3 0x266 JUMP JUMPDEST DUP4 MLOAD DUP5 SWAP1 DUP5 SWAP1 PUSH3 0x71 SWAP1 PUSH1 0x0 SWAP1 PUSH1 0x20 DUP6 ADD SWAP1 PUSH3 0x109 JUMP JUMPDEST POP DUP1 MLOAD PUSH3 0x87 SWAP1 PUSH1 0x1 SWAP1 PUSH1 0x20 DUP5 ADD SWAP1 PUSH3 0x109 JUMP JUMPDEST POP POP POP PUSH3 0xA4 PUSH3 0x9E PUSH3 0xB3 PUSH1 0x20 SHL PUSH1 0x20 SHR JUMP JUMPDEST PUSH3 0xB7 JUMP JUMPDEST PUSH1 0x8 SSTORE PUSH1 0xA SSTORE POP PUSH3 0x333 SWAP1 POP JUMP JUMPDEST CALLER SWAP1 JUMP JUMPDEST PUSH1 0x6 DUP1 SLOAD PUSH1 0x1 PUSH1 0x1 PUSH1 0xA0 SHL SUB DUP4 DUP2 AND PUSH1 0x1 PUSH1 0x1 PUSH1 0xA0 SHL SUB NOT DUP4 AND DUP2 OR SWAP1 SWAP4 SSTORE PUSH1 0x40 MLOAD SWAP2 AND SWAP2 SWAP1 DUP3 SWAP1 PUSH32 0x8BE0079C531659141344CD1FD0A4F28419497F9722A3DAAFE3B4186F6B6457E0 SWAP1 PUSH1 0x0 SWAP1 LOG3 POP POP JUMP JUMPDEST DUP3 DUP1 SLOAD PUSH3 0x117 SWAP1 PUSH3 0x2E0 JUMP JUMPDEST SWAP1 PUSH1 0x0 MSTORE PUSH1 0x20 PUSH1 0x0 KECCAK256 SWAP1 PUSH1 0x1F ADD PUSH1 0x20 SWAP1 DIV DUP2 ADD SWAP3 DUP3 PUSH3 0x13B JUMPI PUSH1 0x0 DUP6 SSTORE PUSH3 0x186 JUMP JUMPDEST DUP3 PUSH1 0x1F LT PUSH3 0x156 JUMPI DUP1 MLOAD PUSH1 0xFF NOT AND DUP4 DUP1 ADD OR DUP6 SSTORE PUSH3 0x186 JUMP JUMPDEST DUP3 DUP1 ADD PUSH1 0x1 ADD DUP6 SSTORE DUP3 ISZERO PUSH3 0x186 JUMPI SWAP2 DUP3 ADD JUMPDEST DUP3 DUP2 GT ISZERO PUSH3 0x186 JUMPI DUP3 MLOAD DUP3 SSTORE SWAP2 PUSH1 0x20 ADD SWAP2 SWAP1 PUSH1 0x1 ADD SWAP1 PUSH3 0x169 JUMP JUMPDEST POP PUSH3 0x194 SWAP3 SWAP2 POP PUSH3 0x198 JUMP JUMPDEST POP SWAP1 JUMP JUMPDEST JUMPDEST DUP1 DUP3 GT ISZERO PUSH3 0x194 JUMPI PUSH1 0x0 DUP2 SSTORE PUSH1 0x1 ADD PUSH3 0x199 JUMP JUMPDEST PUSH1 0x0 DUP3 PUSH1 0x1F DUP4 ADD SLT PUSH3 0x1C1 JUMPI PUSH1 0x0 DUP1 REVERT JUMPDEST DUP2 MLOAD PUSH1 0x1 PUSH1 0x1 PUSH1 0x40 SHL SUB DUP1 DUP3 GT ISZERO PUSH3 0x1DE JUMPI PUSH3 0x1DE PUSH3 0x31D JUMP JUMPDEST PUSH1 0x40 MLOAD PUSH1 0x1F DUP4 ADD PUSH1 0x1F NOT SWAP1 DUP2 AND PUSH1 0x3F ADD AND DUP2 ADD SWAP1 DUP3 DUP3 GT DUP2 DUP4 LT OR ISZERO PUSH3 0x209 JUMPI PUSH3 0x209 PUSH3 0x31D JUMP JUMPDEST DUP2 PUSH1 0x40 MSTORE DUP4 DUP2 MSTORE PUSH1 0x20 SWAP3 POP DUP7 DUP4 DUP6 DUP9 ADD ADD GT ISZERO PUSH3 0x226 JUMPI PUSH1 0x0 DUP1 REVERT JUMPDEST PUSH1 0x0 SWAP2 POP JUMPDEST DUP4 DUP3 LT ISZERO PUSH3 0x24A JUMPI DUP6 DUP3 ADD DUP4 ADD MLOAD DUP2 DUP4 ADD DUP5 ADD MSTORE SWAP1 DUP3 ADD SWAP1 PUSH3 0x22B JUMP JUMPDEST DUP4 DUP3 GT ISZERO PUSH3 0x25C JUMPI PUSH1 0x0 DUP4 DUP6 DUP4 ADD ADD MSTORE JUMPDEST SWAP7 SWAP6 POP POP POP POP POP POP JUMP JUMPDEST PUSH1 0x0 DUP1 PUSH1 0x0 DUP1 PUSH1 0x80 DUP6 DUP8 SUB SLT ISZERO PUSH3 0x27D JUMPI PUSH1 0x0 DUP1 REVERT JUMPDEST DUP5 MLOAD PUSH1 0x1 PUSH1 0x1 PUSH1 0x40 SHL SUB DUP1 DUP3 GT ISZERO PUSH3 0x295 JUMPI PUSH1 0x0 DUP1 REVERT JUMPDEST PUSH3 0x2A3 DUP9 DUP4 DUP10 ADD PUSH3 0x1AF JUMP JUMPDEST SWAP6 POP PUSH1 0x20 DUP8 ADD MLOAD SWAP2 POP DUP1 DUP3 GT ISZERO PUSH3 0x2BA JUMPI PUSH1 0x0 DUP1 REVERT JUMPDEST POP PUSH3 0x2C9 DUP8 DUP3 DUP9 ADD PUSH3 0x1AF JUMP JUMPDEST PUSH1 0x40 DUP8 ADD MLOAD PUSH1 0x60 SWAP1 SWAP8 ADD MLOAD SWAP6 SWAP9 SWAP1 SWAP8 POP SWAP4 POP POP POP POP JUMP JUMPDEST PUSH1 0x1 DUP2 DUP2 SHR SWAP1 DUP3 AND DUP1 PUSH3 0x2F5 JUMPI PUSH1 0x7F DUP3 AND SWAP2 POP JUMPDEST PUSH1 0x20 DUP3 LT DUP2 EQ ISZERO PUSH3 0x317 JUMPI PUSH4 0x4E487B71 PUSH1 0xE0 SHL PUSH1 0x0 MSTORE PUSH1 0x22 PUSH1 0x4 MSTORE PUSH1 0x24 PUSH1 0x0 REVERT JUMPDEST POP SWAP2 SWAP1 POP JUMP JUMPDEST PUSH4 0x4E487B71 PUSH1 0xE0 SHL PUSH1 0x0 MSTORE PUSH1 0x41 PUSH1 0x4 MSTORE PUSH1 0x24 PUSH1 0x0 REVERT JUMPDEST PUSH1 0x80 MLOAD PUSH1 0x60 SHR PUSH2 0x1A34 PUSH3 0x352 PUSH1 0x0 CODECOPY PUSH1 0x0 PUSH2 0x78F ADD MSTORE PUSH2 0x1A34 PUSH1 0x0 RETURN INVALID PUSH1 0x80 PUSH1 0x40 MSTORE PUSH1 0x4 CALLDATASIZE LT PUSH2 0x135 JUMPI PUSH1 0x0 CALLDATALOAD PUSH1 0xE0 SHR DUP1 PUSH4 0x6817C76C GT PUSH2 0xAB JUMPI DUP1 PUSH4 0xA22CB465 GT PUSH2 0x6F JUMPI DUP1 PUSH4 0xA22CB465 EQ PUSH2 0x340 JUMPI DUP1 PUSH4 0xB88D4FDE EQ PUSH2 0x360 JUMPI DUP1 PUSH4 0xC87B56DD EQ PUSH2 0x380 JUMPI DUP1 PUSH4 0xD547CFB7 EQ PUSH2 0x3A0 JUMPI DUP1 PUSH4 0xE985E9C5 EQ PUSH2 0x3B5 JUMPI DUP1 PUSH4 0xF2FDE38B EQ PUSH2 0x3FE JUMPI PUSH1 0x0 DUP1 REVERT JUMPDEST DUP1 PUSH4 0x6817C76C EQ PUSH2 0x2C2 JUMPI DUP1 PUSH4 0x70A08231 EQ PUSH2 0x2D8 JUMPI DUP1 PUSH4 0x715018A6 EQ PUSH2 0x2F8 JUMPI DUP1 PUSH4 0x8DA5CB5B EQ PUSH2 0x30D JUMPI DUP1 PUSH4 0x95D89B41 EQ PUSH2 0x32B JUMPI PUSH1 0x0 DUP1 REVERT JUMPDEST DUP1 PUSH4 0x23B872DD GT PUSH2 0xFD JUMPI DUP1 PUSH4 0x23B872DD EQ PUSH2 0x20F JUMPI DUP1 PUSH4 0x40D097C3 EQ PUSH2 0x22F JUMPI DUP1 PUSH4 0x42842E0E EQ PUSH2 0x242 JUMPI DUP1 PUSH4 0x483A9310 EQ PUSH2 0x262 JUMPI DUP1 PUSH4 0x55F804B3 EQ PUSH2 0x282 JUMPI DUP1 PUSH4 0x6352211E EQ PUSH2 0x2A2 JUMPI PUSH1 0x0 DUP1 REVERT JUMPDEST DUP1 PUSH4 0x1FFC9A7 EQ PUSH2 0x13A JUMPI DUP1 PUSH4 0x6FDDE03 EQ PUSH2 0x16F JUMPI DUP1 PUSH4 0x81812FC EQ PUSH2 0x191 JUMPI DUP1 PUSH4 0x95EA7B3 EQ PUSH2 0x1C9 JUMPI DUP1 PUSH4 0x18160DDD EQ PUSH2 0x1EB JUMPI JUMPDEST PUSH1 0x0 DUP1 REVERT JUMPDEST CALLVALUE DUP1 ISZERO PUSH2 0x146 JUMPI PUSH1 0x0 DUP1 REVERT JUMPDEST POP PUSH2 0x15A PUSH2 0x155 CALLDATASIZE PUSH1 0x4 PUSH2 0x15D1 JUMP JUMPDEST PUSH2 0x41E JUMP JUMPDEST PUSH1 0x40 MLOAD SWAP1 ISZERO ISZERO DUP2 MSTORE PUSH1 0x20 ADD JUMPDEST PUSH1 0x40 MLOAD DUP1 SWAP2 SUB SWAP1 RETURN JUMPDEST CALLVALUE DUP1 ISZERO PUSH2 0x17B JUMPI PUSH1 0x0 DUP1 REVERT JUMPDEST POP PUSH2 0x184 PUSH2 0x470 JUMP JUMPDEST PUSH1 0x40 MLOAD PUSH2 0x166 SWAP2 SWAP1 PUSH2 0x17AD JUMP JUMPDEST CALLVALUE DUP1 ISZERO PUSH2 0x19D JUMPI PUSH1 0x0 DUP1 REVERT JUMPDEST POP PUSH2 0x1B1 PUSH2 0x1AC CALLDATASIZE PUSH1 0x4 PUSH2 0x1654 JUMP JUMPDEST PUSH2 0x502 JUMP JUMPDEST PUSH1 0x40 MLOAD PUSH1 0x1 PUSH1 0x1 PUSH1 0xA0 SHL SUB SWAP1 SWAP2 AND DUP2 MSTORE PUSH1 0x20 ADD PUSH2 0x166 JUMP JUMPDEST CALLVALUE DUP1 ISZERO PUSH2 0x1D5 JUMPI PUSH1 0x0 DUP1 REVERT JUMPDEST POP PUSH2 0x1E9 PUSH2 0x1E4 CALLDATASIZE PUSH1 0x4 PUSH2 0x15A7 JUMP JUMPDEST PUSH2 0x59C JUMP JUMPDEST STOP JUMPDEST CALLVALUE DUP1 ISZERO PUSH2 0x1F7 JUMPI PUSH1 0x0 DUP1 REVERT JUMPDEST POP PUSH2 0x201 PUSH1 0x8 SLOAD DUP2 JUMP JUMPDEST PUSH1 0x40 MLOAD SWAP1 DUP2 MSTORE PUSH1 0x20 ADD PUSH2 0x166 JUMP JUMPDEST CALLVALUE DUP1 ISZERO PUSH2 0x21B JUMPI PUSH1 0x0 DUP1 REVERT JUMPDEST POP PUSH2 0x1E9 PUSH2 0x22A CALLDATASIZE PUSH1 0x4 PUSH2 0x14B3 JUMP JUMPDEST PUSH2 0x6B2 JUMP JUMPDEST PUSH2 0x1E9 PUSH2 0x23D CALLDATASIZE PUSH1 0x4 PUSH2 0x145E JUMP JUMPDEST PUSH2 0x6E3 JUMP JUMPDEST CALLVALUE DUP1 ISZERO PUSH2 0x24E JUMPI PUSH1 0x0 DUP1 REVERT JUMPDEST POP PUSH2 0x1E9 PUSH2 0x25D CALLDATASIZE PUSH1 0x4 PUSH2 0x14B3 JUMP JUMPDEST PUSH2 0x7EB JUMP JUMPDEST CALLVALUE DUP1 ISZERO PUSH2 0x26E JUMPI PUSH1 0x0 DUP1 REVERT JUMPDEST POP PUSH2 0x201 PUSH2 0x27D CALLDATASIZE PUSH1 0x4 PUSH2 0x1654 JUMP JUMPDEST PUSH2 0x806 JUMP JUMPDEST CALLVALUE DUP1 ISZERO PUSH2 0x28E JUMPI PUSH1 0x0 DUP1 REVERT JUMPDEST POP PUSH2 0x1E9 PUSH2 0x29D CALLDATASIZE PUSH1 0x4 PUSH2 0x160B JUMP JUMPDEST PUSH2 0x820 JUMP JUMPDEST CALLVALUE DUP1 ISZERO PUSH2 0x2AE JUMPI PUSH1 0x0 DUP1 REVERT JUMPDEST POP PUSH2 0x1B1 PUSH2 0x2BD CALLDATASIZE PUSH1 0x4 PUSH2 0x1654 JUMP JUMPDEST PUSH2 0x861 JUMP JUMPDEST CALLVALUE DUP1 ISZERO PUSH2 0x2CE JUMPI PUSH1 0x0 DUP1 REVERT JUMPDEST POP PUSH2 0x201 PUSH1 0xA SLOAD DUP2 JUMP JUMPDEST CALLVALUE DUP1 ISZERO PUSH2 0x2E4 JUMPI PUSH1 0x0 DUP1 REVERT JUMPDEST POP PUSH2 0x201 PUSH2 0x2F3 CALLDATASIZE PUSH1 0x4 PUSH2 0x145E JUMP JUMPDEST PUSH2 0x8D8 JUMP JUMPDEST CALLVALUE DUP1 ISZERO PUSH2 0x304 JUMPI PUSH1 0x0 DUP1 REVERT JUMPDEST POP PUSH2 0x1E9 PUSH2 0x95F JUMP JUMPDEST CALLVALUE DUP1 ISZERO PUSH2 0x319 JUMPI PUSH1 0x0 DUP1 REVERT JUMPDEST POP PUSH1 0x6 SLOAD PUSH1 0x1 PUSH1 0x1 PUSH1 0xA0 SHL SUB AND PUSH2 0x1B1 JUMP JUMPDEST CALLVALUE DUP1 ISZERO PUSH2 0x337 JUMPI PUSH1 0x0 DUP1 REVERT JUMPDEST POP PUSH2 0x184 PUSH2 0x995 JUMP JUMPDEST CALLVALUE DUP1 ISZERO PUSH2 0x34C JUMPI PUSH1 0x0 DUP1 REVERT JUMPDEST POP PUSH2 0x1E9 PUSH2 0x35B CALLDATASIZE PUSH1 0x4 PUSH2 0x156B JUMP JUMPDEST PUSH2 0x9A4 JUMP JUMPDEST CALLVALUE DUP1 ISZERO PUSH2 0x36C JUMPI PUSH1 0x0 DUP1 REVERT JUMPDEST POP PUSH2 0x1E9 PUSH2 0x37B CALLDATASIZE PUSH1 0x4 PUSH2 0x14EF JUMP JUMPDEST PUSH2 0x9AF JUMP JUMPDEST CALLVALUE DUP1 ISZERO PUSH2 0x38C JUMPI PUSH1 0x0 DUP1 REVERT JUMPDEST POP PUSH2 0x184 PUSH2 0x39B CALLDATASIZE PUSH1 0x4 PUSH2 0x1654 JUMP JUMPDEST PUSH2 0x9E7 JUMP JUMPDEST CALLVALUE DUP1 ISZERO PUSH2 0x3AC JUMPI PUSH1 0x0 DUP1 REVERT JUMPDEST POP PUSH2 0x184 PUSH2 0xA1B JUMP JUMPDEST CALLVALUE DUP1 ISZERO PUSH2 0x3C1 JUMPI PUSH1 0x0 DUP1 REVERT JUMPDEST POP PUSH2 0x15A PUSH2 0x3D0 CALLDATASIZE PUSH1 0x4 PUSH2 0x1480 JUMP JUMPDEST PUSH1 0x1 PUSH1 0x1 PUSH1 0xA0 SHL SUB SWAP2 DUP3 AND PUSH1 0x0 SWAP1 DUP2 MSTORE PUSH1 0x5 PUSH1 0x20 SWAP1 DUP2 MSTORE PUSH1 0x40 DUP1 DUP4 KECCAK256 SWAP4 SWAP1 SWAP5 AND DUP3 MSTORE SWAP2 SWAP1 SWAP2 MSTORE KECCAK256 SLOAD PUSH1 0xFF AND SWAP1 JUMP JUMPDEST CALLVALUE DUP1 ISZERO PUSH2 0x40A JUMPI PUSH1 0x0 DUP1 REVERT JUMPDEST POP PUSH2 0x1E9 PUSH2 0x419 CALLDATASIZE PUSH1 0x4 PUSH2 0x145E JUMP JUMPDEST PUSH2 0xAA9 JUMP JUMPDEST PUSH1 0x0 PUSH1 0x1 PUSH1 0x1 PUSH1 0xE0 SHL SUB NOT DUP3 AND PUSH4 0x80AC58CD PUSH1 0xE0 SHL EQ DUP1 PUSH2 0x44F JUMPI POP PUSH1 0x1 PUSH1 0x1 PUSH1 0xE0 SHL SUB NOT DUP3 AND PUSH4 0x5B5E139F PUSH1 0xE0 SHL EQ JUMPDEST DUP1 PUSH2 0x46A JUMPI POP PUSH4 0x1FFC9A7 PUSH1 0xE0 SHL PUSH1 0x1 PUSH1 0x1 PUSH1 0xE0 SHL SUB NOT DUP4 AND EQ JUMPDEST SWAP3 SWAP2 POP POP JUMP JUMPDEST PUSH1 0x60 PUSH1 0x0 DUP1 SLOAD PUSH2 0x47F SWAP1 PUSH2 0x1926 JUMP JUMPDEST DUP1 PUSH1 0x1F ADD PUSH1 0x20 DUP1 SWAP2 DIV MUL PUSH1 0x20 ADD PUSH1 0x40 MLOAD SWAP1 DUP2 ADD PUSH1 0x40 MSTORE DUP1 SWAP3 SWAP2 SWAP1 DUP2 DUP2 MSTORE PUSH1 0x20 ADD DUP3 DUP1 SLOAD PUSH2 0x4AB SWAP1 PUSH2 0x1926 JUMP JUMPDEST DUP1 ISZERO PUSH2 0x4F8 JUMPI DUP1 PUSH1 0x1F LT PUSH2 0x4CD JUMPI PUSH2 0x100 DUP1 DUP4 SLOAD DIV MUL DUP4 MSTORE SWAP2 PUSH1 0x20 ADD SWAP2 PUSH2 0x4F8 JUMP JUMPDEST DUP3 ADD SWAP2 SWAP1 PUSH1 0x0 MSTORE PUSH1 0x20 PUSH1 0x0 KECCAK256 SWAP1 JUMPDEST DUP2 SLOAD DUP2 MSTORE SWAP1 PUSH1 0x1 ADD SWAP1 PUSH1 0x20 ADD DUP1 DUP4 GT PUSH2 0x4DB JUMPI DUP3 SWAP1 SUB PUSH1 0x1F AND DUP3 ADD SWAP2 JUMPDEST POP POP POP POP POP SWAP1 POP SWAP1 JUMP JUMPDEST PUSH1 0x0 DUP2 DUP2 MSTORE PUSH1 0x2 PUSH1 0x20 MSTORE PUSH1 0x40 DUP2 KECCAK256 SLOAD PUSH1 0x1 PUSH1 0x1 PUSH1 0xA0 SHL SUB AND PUSH2 0x580 JUMPI PUSH1 0x40 MLOAD PUSH3 0x461BCD PUSH1 0xE5 SHL DUP2 MSTORE PUSH1 0x20 PUSH1 0x4 DUP3 ADD MSTORE PUSH1 0x2C PUSH1 0x24 DUP3 ADD MSTORE PUSH32 0x4552433732313A20617070726F76656420717565727920666F72206E6F6E6578 PUSH1 0x44 DUP3 ADD MSTORE PUSH12 0x34B9BA32B73A103A37B5B2B7 PUSH1 0xA1 SHL PUSH1 0x64 DUP3 ADD MSTORE PUSH1 0x84 ADD JUMPDEST PUSH1 0x40 MLOAD DUP1 SWAP2 SUB SWAP1 REVERT JUMPDEST POP PUSH1 0x0 SWAP1 DUP2 MSTORE PUSH1 0x4 PUSH1 0x20 MSTORE PUSH1 0x40 SWAP1 KECCAK256 SLOAD PUSH1 0x1 PUSH1 0x1 PUSH1 0xA0 SHL SUB AND SWAP1 JUMP JUMPDEST PUSH1 0x0 PUSH2 0x5A7 DUP3 PUSH2 0x861 JUMP JUMPDEST SWAP1 POP DUP1 PUSH1 0x1 PUSH1 0x1 PUSH1 0xA0 SHL SUB AND DUP4 PUSH1 0x1 PUSH1 0x1 PUSH1 0xA0 SHL SUB AND EQ ISZERO PUSH2 0x615 JUMPI PUSH1 0x40 MLOAD PUSH3 0x461BCD PUSH1 0xE5 SHL DUP2 MSTORE PUSH1 0x20 PUSH1 0x4 DUP3 ADD MSTORE PUSH1 0x21 PUSH1 0x24 DUP3 ADD MSTORE PUSH32 0x4552433732313A20617070726F76616C20746F2063757272656E74206F776E65 PUSH1 0x44 DUP3 ADD MSTORE PUSH1 0x39 PUSH1 0xF9 SHL PUSH1 0x64 DUP3 ADD MSTORE PUSH1 0x84 ADD PUSH2 0x577 JUMP JUMPDEST CALLER PUSH1 0x1 PUSH1 0x1 PUSH1 0xA0 SHL SUB DUP3 AND EQ DUP1 PUSH2 0x631 JUMPI POP PUSH2 0x631 DUP2 CALLER PUSH2 0x3D0 JUMP JUMPDEST PUSH2 0x6A3 JUMPI PUSH1 0x40 MLOAD PUSH3 0x461BCD PUSH1 0xE5 SHL DUP2 MSTORE PUSH1 0x20 PUSH1 0x4 DUP3 ADD MSTORE PUSH1 0x38 PUSH1 0x24 DUP3 ADD MSTORE PUSH32 0x4552433732313A20617070726F76652063616C6C6572206973206E6F74206F77 PUSH1 0x44 DUP3 ADD MSTORE PUSH32 0x6E6572206E6F7220617070726F76656420666F7220616C6C0000000000000000 PUSH1 0x64 DUP3 ADD MSTORE PUSH1 0x84 ADD PUSH2 0x577 JUMP JUMPDEST PUSH2 0x6AD DUP4 DUP4 PUSH2 0xB44 JUMP JUMPDEST POP POP POP JUMP JUMPDEST PUSH2 0x6BC CALLER DUP3 PUSH2 0xBB2 JUMP JUMPDEST PUSH2 0x6D8 JUMPI PUSH1 0x40 MLOAD PUSH3 0x461BCD PUSH1 0xE5 SHL DUP2 MSTORE PUSH1 0x4 ADD PUSH2 0x577 SWAP1 PUSH2 0x1847 JUMP JUMPDEST PUSH2 0x6AD DUP4 DUP4 DUP4 PUSH2 0xCA9 JUMP JUMPDEST PUSH1 0x8 SLOAD PUSH1 0x7 SLOAD GT ISZERO PUSH2 0x729 JUMPI PUSH1 0x40 MLOAD PUSH3 0x461BCD PUSH1 0xE5 SHL DUP2 MSTORE PUSH1 0x20 PUSH1 0x4 DUP3 ADD MSTORE PUSH1 0xF PUSH1 0x24 DUP3 ADD MSTORE PUSH15 0x1B1A5B5A5D0818DBDB5C1B195D1959 PUSH1 0x8A SHL PUSH1 0x44 DUP3 ADD MSTORE PUSH1 0x64 ADD PUSH2 0x577 JUMP JUMPDEST PUSH1 0xA SLOAD CALLVALUE EQ PUSH2 0x768 JUMPI PUSH1 0x40 MLOAD PUSH3 0x461BCD PUSH1 0xE5 SHL DUP2 MSTORE PUSH1 0x20 PUSH1 0x4 DUP3 ADD MSTORE PUSH1 0xB PUSH1 0x24 DUP3 ADD MSTORE PUSH11 0x1B195CDCC8185B5BDD5B9D PUSH1 0xAA SHL PUSH1 0x44 DUP3 ADD MSTORE PUSH1 0x64 ADD PUSH2 0x577 JUMP JUMPDEST PUSH1 0x0 PUSH2 0x773 PUSH1 0x7 SLOAD SWAP1 JUMP JUMPDEST SWAP1 POP PUSH2 0x783 PUSH1 0x7 DUP1 SLOAD PUSH1 0x1 ADD SWAP1 SSTORE JUMP JUMPDEST PUSH2 0x78D DUP3 DUP3 PUSH2 0xE45 JUMP JUMPDEST PUSH32 0x0 PUSH1 0x1 PUSH1 0x1 PUSH1 0xA0 SHL SUB AND PUSH2 0x8FC PUSH2 0x7C3 CALLVALUE PUSH2 0x806 JUMP JUMPDEST PUSH1 0x40 MLOAD DUP2 ISZERO SWAP1 SWAP3 MUL SWAP2 PUSH1 0x0 DUP2 DUP2 DUP2 DUP6 DUP9 DUP9 CALL SWAP4 POP POP POP POP ISZERO DUP1 ISZERO PUSH2 0x6AD JUMPI RETURNDATASIZE PUSH1 0x0 DUP1 RETURNDATACOPY RETURNDATASIZE PUSH1 0x0 REVERT JUMPDEST PUSH2 0x6AD DUP4 DUP4 DUP4 PUSH1 0x40 MLOAD DUP1 PUSH1 0x20 ADD PUSH1 0x40 MSTORE DUP1 PUSH1 0x0 DUP2 MSTORE POP PUSH2 0x9AF JUMP JUMPDEST PUSH1 0x0 PUSH2 0x814 PUSH2 0x2710 DUP4 PUSH2 0x18B0 JUMP JUMPDEST PUSH2 0x46A SWAP1 PUSH2 0x39F PUSH2 0x18C4 JUMP JUMPDEST PUSH1 0x6 SLOAD PUSH1 0x1 PUSH1 0x1 PUSH1 0xA0 SHL SUB AND CALLER EQ PUSH2 0x84A JUMPI PUSH1 0x40 MLOAD PUSH3 0x461BCD PUSH1 0xE5 SHL DUP2 MSTORE PUSH1 0x4 ADD PUSH2 0x577 SWAP1 PUSH2 0x1812 JUMP JUMPDEST DUP1 MLOAD PUSH2 0x85D SWAP1 PUSH1 0x9 SWAP1 PUSH1 0x20 DUP5 ADD SWAP1 PUSH2 0x1333 JUMP JUMPDEST POP POP JUMP JUMPDEST PUSH1 0x0 DUP2 DUP2 MSTORE PUSH1 0x2 PUSH1 0x20 MSTORE PUSH1 0x40 DUP2 KECCAK256 SLOAD PUSH1 0x1 PUSH1 0x1 PUSH1 0xA0 SHL SUB AND DUP1 PUSH2 0x46A JUMPI PUSH1 0x40 MLOAD PUSH3 0x461BCD PUSH1 0xE5 SHL DUP2 MSTORE PUSH1 0x20 PUSH1 0x4 DUP3 ADD MSTORE PUSH1 0x29 PUSH1 0x24 DUP3 ADD MSTORE PUSH32 0x4552433732313A206F776E657220717565727920666F72206E6F6E6578697374 PUSH1 0x44 DUP3 ADD MSTORE PUSH9 0x32B73A103A37B5B2B7 PUSH1 0xB9 SHL PUSH1 0x64 DUP3 ADD MSTORE PUSH1 0x84 ADD PUSH2 0x577 JUMP JUMPDEST PUSH1 0x0 PUSH1 0x1 PUSH1 0x1 PUSH1 0xA0 SHL SUB DUP3 AND PUSH2 0x943 JUMPI PUSH1 0x40 MLOAD PUSH3 0x461BCD PUSH1 0xE5 SHL DUP2 MSTORE PUSH1 0x20 PUSH1 0x4 DUP3 ADD MSTORE PUSH1 0x2A PUSH1 0x24 DUP3 ADD MSTORE PUSH32 0x4552433732313A2062616C616E636520717565727920666F7220746865207A65 PUSH1 0x44 DUP3 ADD MSTORE PUSH10 0x726F2061646472657373 PUSH1 0xB0 SHL PUSH1 0x64 DUP3 ADD MSTORE PUSH1 0x84 ADD PUSH2 0x577 JUMP JUMPDEST POP PUSH1 0x1 PUSH1 0x1 PUSH1 0xA0 SHL SUB AND PUSH1 0x0 SWAP1 DUP2 MSTORE PUSH1 0x3 PUSH1 0x20 MSTORE PUSH1 0x40 SWAP1 KECCAK256 SLOAD SWAP1 JUMP JUMPDEST PUSH1 0x6 SLOAD PUSH1 0x1 PUSH1 0x1 PUSH1 0xA0 SHL SUB AND CALLER EQ PUSH2 0x989 JUMPI PUSH1 0x40 MLOAD PUSH3 0x461BCD PUSH1 0xE5 SHL DUP2 MSTORE PUSH1 0x4 ADD PUSH2 0x577 SWAP1 PUSH2 0x1812 JUMP JUMPDEST PUSH2 0x993 PUSH1 0x0 PUSH2 0xE5F JUMP JUMPDEST JUMP JUMPDEST PUSH1 0x60 PUSH1 0x1 DUP1 SLOAD PUSH2 0x47F SWAP1 PUSH2 0x1926 JUMP JUMPDEST PUSH2 0x85D CALLER DUP4 DUP4 PUSH2 0xEB1 JUMP JUMPDEST PUSH2 0x9B9 CALLER DUP4 PUSH2 0xBB2 JUMP JUMPDEST PUSH2 0x9D5 JUMPI PUSH1 0x40 MLOAD PUSH3 0x461BCD PUSH1 0xE5 SHL DUP2 MSTORE PUSH1 0x4 ADD PUSH2 0x577 SWAP1 PUSH2 0x1847 JUMP JUMPDEST PUSH2 0x9E1 DUP5 DUP5 DUP5 DUP5 PUSH2 0xF80 JUMP JUMPDEST POP POP POP POP JUMP JUMPDEST PUSH1 0x60 PUSH1 0x9 PUSH2 0x9F4 DUP4 PUSH2 0xFB3 JUMP JUMPDEST PUSH1 0x40 MLOAD PUSH1 0x20 ADD PUSH2 0xA05 SWAP3 SWAP2 SWAP1 PUSH2 0x16B5 JUMP JUMPDEST PUSH1 0x40 MLOAD PUSH1 0x20 DUP2 DUP4 SUB SUB DUP2 MSTORE SWAP1 PUSH1 0x40 MSTORE SWAP1 POP SWAP2 SWAP1 POP JUMP JUMPDEST PUSH1 0x9 DUP1 SLOAD PUSH2 0xA28 SWAP1 PUSH2 0x1926 JUMP JUMPDEST DUP1 PUSH1 0x1F ADD PUSH1 0x20 DUP1 SWAP2 DIV MUL PUSH1 0x20 ADD PUSH1 0x40 MLOAD SWAP1 DUP2 ADD PUSH1 0x40 MSTORE DUP1 SWAP3 SWAP2 SWAP1 DUP2 DUP2 MSTORE PUSH1 0x20 ADD DUP3 DUP1 SLOAD PUSH2 0xA54 SWAP1 PUSH2 0x1926 JUMP JUMPDEST DUP1 ISZERO PUSH2 0xAA1 JUMPI DUP1 PUSH1 0x1F LT PUSH2 0xA76 JUMPI PUSH2 0x100 DUP1 DUP4 SLOAD DIV MUL DUP4 MSTORE SWAP2 PUSH1 0x20 ADD SWAP2 PUSH2 0xAA1 JUMP JUMPDEST DUP3 ADD SWAP2 SWAP1 PUSH1 0x0 MSTORE PUSH1 0x20 PUSH1 0x0 KECCAK256 SWAP1 JUMPDEST DUP2 SLOAD DUP2 MSTORE SWAP1 PUSH1 0x1 ADD SWAP1 PUSH1 0x20 ADD DUP1 DUP4 GT PUSH2 0xA84 JUMPI DUP3 SWAP1 SUB PUSH1 0x1F AND DUP3 ADD SWAP2 JUMPDEST POP POP POP POP POP DUP2 JUMP JUMPDEST PUSH1 0x6 SLOAD PUSH1 0x1 PUSH1 0x1 PUSH1 0xA0 SHL SUB AND CALLER EQ PUSH2 0xAD3 JUMPI PUSH1 0x40 MLOAD PUSH3 0x461BCD PUSH1 0xE5 SHL DUP2 MSTORE PUSH1 0x4 ADD PUSH2 0x577 SWAP1 PUSH2 0x1812 JUMP JUMPDEST PUSH1 0x1 PUSH1 0x1 PUSH1 0xA0 SHL SUB DUP2 AND PUSH2 0xB38 JUMPI PUSH1 0x40 MLOAD PUSH3 0x461BCD PUSH1 0xE5 SHL DUP2 MSTORE PUSH1 0x20 PUSH1 0x4 DUP3 ADD MSTORE PUSH1 0x26 PUSH1 0x24 DUP3 ADD MSTORE PUSH32 0x4F776E61626C653A206E6577206F776E657220697320746865207A65726F2061 PUSH1 0x44 DUP3 ADD MSTORE PUSH6 0x646472657373 PUSH1 0xD0 SHL PUSH1 0x64 DUP3 ADD MSTORE PUSH1 0x84 ADD PUSH2 0x577 JUMP JUMPDEST PUSH2 0xB41 DUP2 PUSH2 0xE5F JUMP JUMPDEST POP JUMP JUMPDEST PUSH1 0x0 DUP2 DUP2 MSTORE PUSH1 0x4 PUSH1 0x20 MSTORE PUSH1 0x40 SWAP1 KECCAK256 DUP1 SLOAD PUSH1 0x1 PUSH1 0x1 PUSH1 0xA0 SHL SUB NOT AND PUSH1 0x1 PUSH1 0x1 PUSH1 0xA0 SHL SUB DUP5 AND SWAP1 DUP2 OR SWAP1 SWAP2 SSTORE DUP2 SWAP1 PUSH2 0xB79 DUP3 PUSH2 0x861 JUMP JUMPDEST PUSH1 0x1 PUSH1 0x1 PUSH1 0xA0 SHL SUB AND PUSH32 0x8C5BE1E5EBEC7D5BD14F71427D1E84F3DD0314C0F7B2291E5B200AC8C7C3B925 PUSH1 0x40 MLOAD PUSH1 0x40 MLOAD DUP1 SWAP2 SUB SWAP1 LOG4 POP POP JUMP JUMPDEST PUSH1 0x0 DUP2 DUP2 MSTORE PUSH1 0x2 PUSH1 0x20 MSTORE PUSH1 0x40 DUP2 KECCAK256 SLOAD PUSH1 0x1 PUSH1 0x1 PUSH1 0xA0 SHL SUB AND PUSH2 0xC2B JUMPI PUSH1 0x40 MLOAD PUSH3 0x461BCD PUSH1 0xE5 SHL DUP2 MSTORE PUSH1 0x20 PUSH1 0x4 DUP3 ADD MSTORE PUSH1 0x2C PUSH1 0x24 DUP3 ADD MSTORE PUSH32 0x4552433732313A206F70657261746F7220717565727920666F72206E6F6E6578 PUSH1 0x44 DUP3 ADD MSTORE PUSH12 0x34B9BA32B73A103A37B5B2B7 PUSH1 0xA1 SHL PUSH1 0x64 DUP3 ADD MSTORE PUSH1 0x84 ADD PUSH2 0x577 JUMP JUMPDEST PUSH1 0x0 PUSH2 0xC36 DUP4 PUSH2 0x861 JUMP JUMPDEST SWAP1 POP DUP1 PUSH1 0x1 PUSH1 0x1 PUSH1 0xA0 SHL SUB AND DUP5 PUSH1 0x1 PUSH1 0x1 PUSH1 0xA0 SHL SUB AND EQ DUP1 PUSH2 0xC7D JUMPI POP PUSH1 0x1 PUSH1 0x1 PUSH1 0xA0 SHL SUB DUP1 DUP3 AND PUSH1 0x0 SWAP1 DUP2 MSTORE PUSH1 0x5 PUSH1 0x20 SWAP1 DUP2 MSTORE PUSH1 0x40 DUP1 DUP4 KECCAK256 SWAP4 DUP9 AND DUP4 MSTORE SWAP3 SWAP1 MSTORE KECCAK256 SLOAD PUSH1 0xFF AND JUMPDEST DUP1 PUSH2 0xCA1 JUMPI POP DUP4 PUSH1 0x1 PUSH1 0x1 PUSH1 0xA0 SHL SUB AND PUSH2 0xC96 DUP5 PUSH2 0x502 JUMP JUMPDEST PUSH1 0x1 PUSH1 0x1 PUSH1 0xA0 SHL SUB AND EQ JUMPDEST SWAP5 SWAP4 POP POP POP POP JUMP JUMPDEST DUP3 PUSH1 0x1 PUSH1 0x1 PUSH1 0xA0 SHL SUB AND PUSH2 0xCBC DUP3 PUSH2 0x861 JUMP JUMPDEST PUSH1 0x1 PUSH1 0x1 PUSH1 0xA0 SHL SUB AND EQ PUSH2 0xD20 JUMPI PUSH1 0x40 MLOAD PUSH3 0x461BCD PUSH1 0xE5 SHL DUP2 MSTORE PUSH1 0x20 PUSH1 0x4 DUP3 ADD MSTORE PUSH1 0x25 PUSH1 0x24 DUP3 ADD MSTORE PUSH32 0x4552433732313A207472616E736665722066726F6D20696E636F727265637420 PUSH1 0x44 DUP3 ADD MSTORE PUSH5 0x37BBB732B9 PUSH1 0xD9 SHL PUSH1 0x64 DUP3 ADD MSTORE PUSH1 0x84 ADD PUSH2 0x577 JUMP JUMPDEST PUSH1 0x1 PUSH1 0x1 PUSH1 0xA0 SHL SUB DUP3 AND PUSH2 0xD82 JUMPI PUSH1 0x40 MLOAD PUSH3 0x461BCD PUSH1 0xE5 SHL DUP2 MSTORE PUSH1 0x20 PUSH1 0x4 DUP3 ADD MSTORE PUSH1 0x24 DUP1 DUP3 ADD MSTORE PUSH32 0x4552433732313A207472616E7366657220746F20746865207A65726F20616464 PUSH1 0x44 DUP3 ADD MSTORE PUSH4 0x72657373 PUSH1 0xE0 SHL PUSH1 0x64 DUP3 ADD MSTORE PUSH1 0x84 ADD PUSH2 0x577 JUMP JUMPDEST PUSH2 0xD8D PUSH1 0x0 DUP3 PUSH2 0xB44 JUMP JUMPDEST PUSH1 0x1 PUSH1 0x1 PUSH1 0xA0 SHL SUB DUP4 AND PUSH1 0x0 SWAP1 DUP2 MSTORE PUSH1 0x3 PUSH1 0x20 MSTORE PUSH1 0x40 DUP2 KECCAK256 DUP1 SLOAD PUSH1 0x1 SWAP3 SWAP1 PUSH2 0xDB6 SWAP1 DUP5 SWAP1 PUSH2 0x18E3 JUMP JUMPDEST SWAP1 SWAP2 SSTORE POP POP PUSH1 0x1 PUSH1 0x1 PUSH1 0xA0 SHL SUB DUP3 AND PUSH1 0x0 SWAP1 DUP2 MSTORE PUSH1 0x3 PUSH1 0x20 MSTORE PUSH1 0x40 DUP2 KECCAK256 DUP1 SLOAD PUSH1 0x1 SWAP3 SWAP1 PUSH2 0xDE4 SWAP1 DUP5 SWAP1 PUSH2 0x1898 JUMP JUMPDEST SWAP1 SWAP2 SSTORE POP POP PUSH1 0x0 DUP2 DUP2 MSTORE PUSH1 0x2 PUSH1 0x20 MSTORE PUSH1 0x40 DUP1 DUP3 KECCAK256 DUP1 SLOAD PUSH1 0x1 PUSH1 0x1 PUSH1 0xA0 SHL SUB NOT AND PUSH1 0x1 PUSH1 0x1 PUSH1 0xA0 SHL SUB DUP7 DUP2 AND SWAP2 DUP3 OR SWAP1 SWAP3 SSTORE SWAP2 MLOAD DUP5 SWAP4 SWAP2 DUP8 AND SWAP2 PUSH32 0xDDF252AD1BE2C89B69C2B068FC378DAA952BA7F163C4A11628F55A4DF523B3EF SWAP2 LOG4 POP POP POP JUMP JUMPDEST PUSH2 0x85D DUP3 DUP3 PUSH1 0x40 MLOAD DUP1 PUSH1 0x20 ADD PUSH1 0x40 MSTORE DUP1 PUSH1 0x0 DUP2 MSTORE POP PUSH2 0x10B1 JUMP JUMPDEST PUSH1 0x6 DUP1 SLOAD PUSH1 0x1 PUSH1 0x1 PUSH1 0xA0 SHL SUB DUP4 DUP2 AND PUSH1 0x1 PUSH1 0x1 PUSH1 0xA0 SHL SUB NOT DUP4 AND DUP2 OR SWAP1 SWAP4 SSTORE PUSH1 0x40 MLOAD SWAP2 AND SWAP2 SWAP1 DUP3 SWAP1 PUSH32 0x8BE0079C531659141344CD1FD0A4F28419497F9722A3DAAFE3B4186F6B6457E0 SWAP1 PUSH1 0x0 SWAP1 LOG3 POP POP JUMP JUMPDEST DUP2 PUSH1 0x1 PUSH1 0x1 PUSH1 0xA0 SHL SUB AND DUP4 PUSH1 0x1 PUSH1 0x1 PUSH1 0xA0 SHL SUB AND EQ ISZERO PUSH2 0xF13 JUMPI PUSH1 0x40 MLOAD PUSH3 0x461BCD PUSH1 0xE5 SHL DUP2 MSTORE PUSH1 0x20 PUSH1 0x4 DUP3 ADD MSTORE PUSH1 0x19 PUSH1 0x24 DUP3 ADD MSTORE PUSH32 0x4552433732313A20617070726F766520746F2063616C6C657200000000000000 PUSH1 0x44 DUP3 ADD MSTORE PUSH1 0x64 ADD PUSH2 0x577 JUMP JUMPDEST PUSH1 0x1 PUSH1 0x1 PUSH1 0xA0 SHL SUB DUP4 DUP2 AND PUSH1 0x0 DUP2 DUP2 MSTORE PUSH1 0x5 PUSH1 0x20 SWAP1 DUP2 MSTORE PUSH1 0x40 DUP1 DUP4 KECCAK256 SWAP5 DUP8 AND DUP1 DUP5 MSTORE SWAP5 DUP3 MSTORE SWAP2 DUP3 SWAP1 KECCAK256 DUP1 SLOAD PUSH1 0xFF NOT AND DUP7 ISZERO ISZERO SWAP1 DUP2 OR SWAP1 SWAP2 SSTORE SWAP2 MLOAD SWAP2 DUP3 MSTORE PUSH32 0x17307EAB39AB6107E8899845AD3D59BD9653F200F220920489CA2B5937696C31 SWAP2 ADD PUSH1 0x40 MLOAD DUP1 SWAP2 SUB SWAP1 LOG3 POP POP POP JUMP JUMPDEST PUSH2 0xF8B DUP5 DUP5 DUP5 PUSH2 0xCA9 JUMP JUMPDEST PUSH2 0xF97 DUP5 DUP5 DUP5 DUP5 PUSH2 0x10E4 JUMP JUMPDEST PUSH2 0x9E1 JUMPI PUSH1 0x40 MLOAD PUSH3 0x461BCD PUSH1 0xE5 SHL DUP2 MSTORE PUSH1 0x4 ADD PUSH2 0x577 SWAP1 PUSH2 0x17C0 JUMP JUMPDEST PUSH1 0x60 DUP2 PUSH2 0xFD7 JUMPI POP POP PUSH1 0x40 DUP1 MLOAD DUP1 DUP3 ADD SWAP1 SWAP2 MSTORE PUSH1 0x1 DUP2 MSTORE PUSH1 0x3 PUSH1 0xFC SHL PUSH1 0x20 DUP3 ADD MSTORE SWAP1 JUMP JUMPDEST DUP2 PUSH1 0x0 JUMPDEST DUP2 ISZERO PUSH2 0x1001 JUMPI DUP1 PUSH2 0xFEB DUP2 PUSH2 0x1961 JUMP JUMPDEST SWAP2 POP PUSH2 0xFFA SWAP1 POP PUSH1 0xA DUP4 PUSH2 0x18B0 JUMP JUMPDEST SWAP2 POP PUSH2 0xFDB JUMP JUMPDEST PUSH1 0x0 DUP2 PUSH8 0xFFFFFFFFFFFFFFFF DUP2 GT ISZERO PUSH2 0x101C JUMPI PUSH2 0x101C PUSH2 0x19D2 JUMP JUMPDEST PUSH1 0x40 MLOAD SWAP1 DUP1 DUP3 MSTORE DUP1 PUSH1 0x1F ADD PUSH1 0x1F NOT AND PUSH1 0x20 ADD DUP3 ADD PUSH1 0x40 MSTORE DUP1 ISZERO PUSH2 0x1046 JUMPI PUSH1 0x20 DUP3 ADD DUP2 DUP1 CALLDATASIZE DUP4 CALLDATACOPY ADD SWAP1 POP JUMPDEST POP SWAP1 POP JUMPDEST DUP5 ISZERO PUSH2 0xCA1 JUMPI PUSH2 0x105B PUSH1 0x1 DUP4 PUSH2 0x18E3 JUMP JUMPDEST SWAP2 POP PUSH2 0x1068 PUSH1 0xA DUP7 PUSH2 0x197C JUMP JUMPDEST PUSH2 0x1073 SWAP1 PUSH1 0x30 PUSH2 0x1898 JUMP JUMPDEST PUSH1 0xF8 SHL DUP2 DUP4 DUP2 MLOAD DUP2 LT PUSH2 0x1088 JUMPI PUSH2 0x1088 PUSH2 0x19BC JUMP JUMPDEST PUSH1 0x20 ADD ADD SWAP1 PUSH1 0x1 PUSH1 0x1 PUSH1 0xF8 SHL SUB NOT AND SWAP1 DUP2 PUSH1 0x0 BYTE SWAP1 MSTORE8 POP PUSH2 0x10AA PUSH1 0xA DUP7 PUSH2 0x18B0 JUMP JUMPDEST SWAP5 POP PUSH2 0x104A JUMP JUMPDEST PUSH2 0x10BB DUP4 DUP4 PUSH2 0x11F1 JUMP JUMPDEST PUSH2 0x10C8 PUSH1 0x0 DUP5 DUP5 DUP5 PUSH2 0x10E4 JUMP JUMPDEST PUSH2 0x6AD JUMPI PUSH1 0x40 MLOAD PUSH3 0x461BCD PUSH1 0xE5 SHL DUP2 MSTORE PUSH1 0x4 ADD PUSH2 0x577 SWAP1 PUSH2 0x17C0 JUMP JUMPDEST PUSH1 0x0 PUSH1 0x1 PUSH1 0x1 PUSH1 0xA0 SHL SUB DUP5 AND EXTCODESIZE ISZERO PUSH2 0x11E6 JUMPI PUSH1 0x40 MLOAD PUSH4 0xA85BD01 PUSH1 0xE1 SHL DUP2 MSTORE PUSH1 0x1 PUSH1 0x1 PUSH1 0xA0 SHL SUB DUP6 AND SWAP1 PUSH4 0x150B7A02 SWAP1 PUSH2 0x1128 SWAP1 CALLER SWAP1 DUP10 SWAP1 DUP9 SWAP1 DUP9 SWAP1 PUSH1 0x4 ADD PUSH2 0x1770 JUMP JUMPDEST PUSH1 0x20 PUSH1 0x40 MLOAD DUP1 DUP4 SUB DUP2 PUSH1 0x0 DUP8 DUP1 EXTCODESIZE ISZERO DUP1 ISZERO PUSH2 0x1142 JUMPI PUSH1 0x0 DUP1 REVERT JUMPDEST POP GAS CALL SWAP3 POP POP POP DUP1 ISZERO PUSH2 0x1172 JUMPI POP PUSH1 0x40 DUP1 MLOAD PUSH1 0x1F RETURNDATASIZE SWAP1 DUP2 ADD PUSH1 0x1F NOT AND DUP3 ADD SWAP1 SWAP3 MSTORE PUSH2 0x116F SWAP2 DUP2 ADD SWAP1 PUSH2 0x15EE JUMP JUMPDEST PUSH1 0x1 JUMPDEST PUSH2 0x11CC JUMPI RETURNDATASIZE DUP1 DUP1 ISZERO PUSH2 0x11A0 JUMPI PUSH1 0x40 MLOAD SWAP2 POP PUSH1 0x1F NOT PUSH1 0x3F RETURNDATASIZE ADD AND DUP3 ADD PUSH1 0x40 MSTORE RETURNDATASIZE DUP3 MSTORE RETURNDATASIZE PUSH1 0x0 PUSH1 0x20 DUP5 ADD RETURNDATACOPY PUSH2 0x11A5 JUMP JUMPDEST PUSH1 0x60 SWAP2 POP JUMPDEST POP DUP1 MLOAD PUSH2 0x11C4 JUMPI PUSH1 0x40 MLOAD PUSH3 0x461BCD PUSH1 0xE5 SHL DUP2 MSTORE PUSH1 0x4 ADD PUSH2 0x577 SWAP1 PUSH2 0x17C0 JUMP JUMPDEST DUP1 MLOAD DUP2 PUSH1 0x20 ADD REVERT JUMPDEST PUSH1 0x1 PUSH1 0x1 PUSH1 0xE0 SHL SUB NOT AND PUSH4 0xA85BD01 PUSH1 0xE1 SHL EQ SWAP1 POP PUSH2 0xCA1 JUMP JUMPDEST POP PUSH1 0x1 SWAP5 SWAP4 POP POP POP POP JUMP JUMPDEST PUSH1 0x1 PUSH1 0x1 PUSH1 0xA0 SHL SUB DUP3 AND PUSH2 0x1247 JUMPI PUSH1 0x40 MLOAD PUSH3 0x461BCD PUSH1 0xE5 SHL DUP2 MSTORE PUSH1 0x20 PUSH1 0x4 DUP3 ADD DUP2 SWAP1 MSTORE PUSH1 0x24 DUP3 ADD MSTORE PUSH32 0x4552433732313A206D696E7420746F20746865207A65726F2061646472657373 PUSH1 0x44 DUP3 ADD MSTORE PUSH1 0x64 ADD PUSH2 0x577 JUMP JUMPDEST PUSH1 0x0 DUP2 DUP2 MSTORE PUSH1 0x2 PUSH1 0x20 MSTORE PUSH1 0x40 SWAP1 KECCAK256 SLOAD PUSH1 0x1 PUSH1 0x1 PUSH1 0xA0 SHL SUB AND ISZERO PUSH2 0x12AC JUMPI PUSH1 0x40 MLOAD PUSH3 0x461BCD PUSH1 0xE5 SHL DUP2 MSTORE PUSH1 0x20 PUSH1 0x4 DUP3 ADD MSTORE PUSH1 0x1C PUSH1 0x24 DUP3 ADD MSTORE PUSH32 0x4552433732313A20746F6B656E20616C7265616479206D696E74656400000000 PUSH1 0x44 DUP3 ADD MSTORE PUSH1 0x64 ADD PUSH2 0x577 JUMP JUMPDEST PUSH1 0x1 PUSH1 0x1 PUSH1 0xA0 SHL SUB DUP3 AND PUSH1 0x0 SWAP1 DUP2 MSTORE PUSH1 0x3 PUSH1 0x20 MSTORE PUSH1 0x40 DUP2 KECCAK256 DUP1 SLOAD PUSH1 0x1 SWAP3 SWAP1 PUSH2 0x12D5 SWAP1 DUP5 SWAP1 PUSH2 0x1898 JUMP JUMPDEST SWAP1 SWAP2 SSTORE POP POP PUSH1 0x0 DUP2 DUP2 MSTORE PUSH1 0x2 PUSH1 0x20 MSTORE PUSH1 0x40 DUP1 DUP3 KECCAK256 DUP1 SLOAD PUSH1 0x1 PUSH1 0x1 PUSH1 0xA0 SHL SUB NOT AND PUSH1 0x1 PUSH1 0x1 PUSH1 0xA0 SHL SUB DUP7 AND SWAP1 DUP2 OR SWAP1 SWAP2 SSTORE SWAP1 MLOAD DUP4 SWAP3 SWAP1 PUSH32 0xDDF252AD1BE2C89B69C2B068FC378DAA952BA7F163C4A11628F55A4DF523B3EF SWAP1 DUP3 SWAP1 LOG4 POP POP JUMP JUMPDEST DUP3 DUP1 SLOAD PUSH2 0x133F SWAP1 PUSH2 0x1926 JUMP JUMPDEST SWAP1 PUSH1 0x0 MSTORE PUSH1 0x20 PUSH1 0x0 KECCAK256 SWAP1 PUSH1 0x1F ADD PUSH1 0x20 SWAP1 DIV DUP2 ADD SWAP3 DUP3 PUSH2 0x1361 JUMPI PUSH1 0x0 DUP6 SSTORE PUSH2 0x13A7 JUMP JUMPDEST DUP3 PUSH1 0x1F LT PUSH2 0x137A JUMPI DUP1 MLOAD PUSH1 0xFF NOT AND DUP4 DUP1 ADD OR DUP6 SSTORE PUSH2 0x13A7 JUMP JUMPDEST DUP3 DUP1 ADD PUSH1 0x1 ADD DUP6 SSTORE DUP3 ISZERO PUSH2 0x13A7 JUMPI SWAP2 DUP3 ADD JUMPDEST DUP3 DUP2 GT ISZERO PUSH2 0x13A7 JUMPI DUP3 MLOAD DUP3 SSTORE SWAP2 PUSH1 0x20 ADD SWAP2 SWAP1 PUSH1 0x1 ADD SWAP1 PUSH2 0x138C JUMP JUMPDEST POP PUSH2 0x13B3 SWAP3 SWAP2 POP PUSH2 0x13B7 JUMP JUMPDEST POP SWAP1 JUMP JUMPDEST JUMPDEST DUP1 DUP3 GT ISZERO PUSH2 0x13B3 JUMPI PUSH1 0x0 DUP2 SSTORE PUSH1 0x1 ADD PUSH2 0x13B8 JUMP JUMPDEST PUSH1 0x0 PUSH8 0xFFFFFFFFFFFFFFFF DUP1 DUP5 GT ISZERO PUSH2 0x13E7 JUMPI PUSH2 0x13E7 PUSH2 0x19D2 JUMP JUMPDEST PUSH1 0x40 MLOAD PUSH1 0x1F DUP6 ADD PUSH1 0x1F NOT SWAP1 DUP2 AND PUSH1 0x3F ADD AND DUP2 ADD SWAP1 DUP3 DUP3 GT DUP2 DUP4 LT OR ISZERO PUSH2 0x140F JUMPI PUSH2 0x140F PUSH2 0x19D2 JUMP JUMPDEST DUP2 PUSH1 0x40 MSTORE DUP1 SWAP4 POP DUP6 DUP2 MSTORE DUP7 DUP7 DUP7 ADD GT ISZERO PUSH2 0x1428 JUMPI PUSH1 0x0 DUP1 REVERT JUMPDEST DUP6 DUP6 PUSH1 0x20 DUP4 ADD CALLDATACOPY PUSH1 0x0 PUSH1 0x20 DUP8 DUP4 ADD ADD MSTORE POP POP POP SWAP4 SWAP3 POP POP POP JUMP JUMPDEST DUP1 CALLDATALOAD PUSH1 0x1 PUSH1 0x1 PUSH1 0xA0 SHL SUB DUP2 AND DUP2 EQ PUSH2 0x1459 JUMPI PUSH1 0x0 DUP1 REVERT JUMPDEST SWAP2 SWAP1 POP JUMP JUMPDEST PUSH1 0x0 PUSH1 0x20 DUP3 DUP5 SUB SLT ISZERO PUSH2 0x1470 JUMPI PUSH1 0x0 DUP1 REVERT JUMPDEST PUSH2 0x1479 DUP3 PUSH2 0x1442 JUMP JUMPDEST SWAP4 SWAP3 POP POP POP JUMP JUMPDEST PUSH1 0x0 DUP1 PUSH1 0x40 DUP4 DUP6 SUB SLT ISZERO PUSH2 0x1493 JUMPI PUSH1 0x0 DUP1 REVERT JUMPDEST PUSH2 0x149C DUP4 PUSH2 0x1442 JUMP JUMPDEST SWAP2 POP PUSH2 0x14AA PUSH1 0x20 DUP5 ADD PUSH2 0x1442 JUMP JUMPDEST SWAP1 POP SWAP3 POP SWAP3 SWAP1 POP JUMP JUMPDEST PUSH1 0x0 DUP1 PUSH1 0x0 PUSH1 0x60 DUP5 DUP7 SUB SLT ISZERO PUSH2 0x14C8 JUMPI PUSH1 0x0 DUP1 REVERT JUMPDEST PUSH2 0x14D1 DUP5 PUSH2 0x1442 JUMP JUMPDEST SWAP3 POP PUSH2 0x14DF PUSH1 0x20 DUP6 ADD PUSH2 0x1442 JUMP JUMPDEST SWAP2 POP PUSH1 0x40 DUP5 ADD CALLDATALOAD SWAP1 POP SWAP3 POP SWAP3 POP SWAP3 JUMP JUMPDEST PUSH1 0x0 DUP1 PUSH1 0x0 DUP1 PUSH1 0x80 DUP6 DUP8 SUB SLT ISZERO PUSH2 0x1505 JUMPI PUSH1 0x0 DUP1 REVERT JUMPDEST PUSH2 0x150E DUP6 PUSH2 0x1442 JUMP JUMPDEST SWAP4 POP PUSH2 0x151C PUSH1 0x20 DUP7 ADD PUSH2 0x1442 JUMP JUMPDEST SWAP3 POP PUSH1 0x40 DUP6 ADD CALLDATALOAD SWAP2 POP PUSH1 0x60 DUP6 ADD CALLDATALOAD PUSH8 0xFFFFFFFFFFFFFFFF DUP2 GT ISZERO PUSH2 0x153F JUMPI PUSH1 0x0 DUP1 REVERT JUMPDEST DUP6 ADD PUSH1 0x1F DUP2 ADD DUP8 SGT PUSH2 0x1550 JUMPI PUSH1 0x0 DUP1 REVERT JUMPDEST PUSH2 0x155F DUP8 DUP3 CALLDATALOAD PUSH1 0x20 DUP5 ADD PUSH2 0x13CC JUMP JUMPDEST SWAP2 POP POP SWAP3 SWAP6 SWAP2 SWAP5 POP SWAP3 POP JUMP JUMPDEST PUSH1 0x0 DUP1 PUSH1 0x40 DUP4 DUP6 SUB SLT ISZERO PUSH2 0x157E JUMPI PUSH1 0x0 DUP1 REVERT JUMPDEST PUSH2 0x1587 DUP4 PUSH2 0x1442 JUMP JUMPDEST SWAP2 POP PUSH1 0x20 DUP4 ADD CALLDATALOAD DUP1 ISZERO ISZERO DUP2 EQ PUSH2 0x159C JUMPI PUSH1 0x0 DUP1 REVERT JUMPDEST DUP1 SWAP2 POP POP SWAP3 POP SWAP3 SWAP1 POP JUMP JUMPDEST PUSH1 0x0 DUP1 PUSH1 0x40 DUP4 DUP6 SUB SLT ISZERO PUSH2 0x15BA JUMPI PUSH1 0x0 DUP1 REVERT JUMPDEST PUSH2 0x15C3 DUP4 PUSH2 0x1442 JUMP JUMPDEST SWAP5 PUSH1 0x20 SWAP4 SWAP1 SWAP4 ADD CALLDATALOAD SWAP4 POP POP POP JUMP JUMPDEST PUSH1 0x0 PUSH1 0x20 DUP3 DUP5 SUB SLT ISZERO PUSH2 0x15E3 JUMPI PUSH1 0x0 DUP1 REVERT JUMPDEST DUP2 CALLDATALOAD PUSH2 0x1479 DUP2 PUSH2 0x19E8 JUMP JUMPDEST PUSH1 0x0 PUSH1 0x20 DUP3 DUP5 SUB SLT ISZERO PUSH2 0x1600 JUMPI PUSH1 0x0 DUP1 REVERT JUMPDEST DUP2 MLOAD PUSH2 0x1479 DUP2 PUSH2 0x19E8 JUMP JUMPDEST PUSH1 0x0 PUSH1 0x20 DUP3 DUP5 SUB SLT ISZERO PUSH2 0x161D JUMPI PUSH1 0x0 DUP1 REVERT JUMPDEST DUP2 CALLDATALOAD PUSH8 0xFFFFFFFFFFFFFFFF DUP2 GT ISZERO PUSH2 0x1634 JUMPI PUSH1 0x0 DUP1 REVERT JUMPDEST DUP3 ADD PUSH1 0x1F DUP2 ADD DUP5 SGT PUSH2 0x1645 JUMPI PUSH1 0x0 DUP1 REVERT JUMPDEST PUSH2 0xCA1 DUP5 DUP3 CALLDATALOAD PUSH1 0x20 DUP5 ADD PUSH2 0x13CC JUMP JUMPDEST PUSH1 0x0 PUSH1 0x20 DUP3 DUP5 SUB SLT ISZERO PUSH2 0x1666 JUMPI PUSH1 0x0 DUP1 REVERT JUMPDEST POP CALLDATALOAD SWAP2 SWAP1 POP JUMP JUMPDEST PUSH1 0x0 DUP2 MLOAD DUP1 DUP5 MSTORE PUSH2 0x1685 DUP2 PUSH1 0x20 DUP7 ADD PUSH1 0x20 DUP7 ADD PUSH2 0x18FA JUMP JUMPDEST PUSH1 0x1F ADD PUSH1 0x1F NOT AND SWAP3 SWAP1 SWAP3 ADD PUSH1 0x20 ADD SWAP3 SWAP2 POP POP JUMP JUMPDEST PUSH1 0x0 DUP2 MLOAD PUSH2 0x16AB DUP2 DUP6 PUSH1 0x20 DUP7 ADD PUSH2 0x18FA JUMP JUMPDEST SWAP3 SWAP1 SWAP3 ADD SWAP3 SWAP2 POP POP JUMP JUMPDEST PUSH1 0x0 DUP1 DUP5 SLOAD DUP2 PUSH1 0x1 DUP3 DUP2 SHR SWAP2 POP DUP1 DUP4 AND DUP1 PUSH2 0x16D1 JUMPI PUSH1 0x7F DUP4 AND SWAP3 POP JUMPDEST PUSH1 0x20 DUP1 DUP5 LT DUP3 EQ ISZERO PUSH2 0x16F1 JUMPI PUSH4 0x4E487B71 PUSH1 0xE0 SHL DUP7 MSTORE PUSH1 0x22 PUSH1 0x4 MSTORE PUSH1 0x24 DUP7 REVERT JUMPDEST DUP2 DUP1 ISZERO PUSH2 0x1705 JUMPI PUSH1 0x1 DUP2 EQ PUSH2 0x1716 JUMPI PUSH2 0x1743 JUMP JUMPDEST PUSH1 0xFF NOT DUP7 AND DUP10 MSTORE DUP5 DUP10 ADD SWAP7 POP PUSH2 0x1743 JUMP JUMPDEST PUSH1 0x0 DUP12 DUP2 MSTORE PUSH1 0x20 SWAP1 KECCAK256 PUSH1 0x0 JUMPDEST DUP7 DUP2 LT ISZERO PUSH2 0x173B JUMPI DUP2 SLOAD DUP12 DUP3 ADD MSTORE SWAP1 DUP6 ADD SWAP1 DUP4 ADD PUSH2 0x1722 JUMP JUMPDEST POP POP DUP5 DUP10 ADD SWAP7 POP JUMPDEST POP POP POP POP POP POP PUSH2 0x1767 PUSH2 0x1756 DUP3 DUP7 PUSH2 0x1699 JUMP JUMPDEST PUSH5 0x173539B7B7 PUSH1 0xD9 SHL DUP2 MSTORE PUSH1 0x5 ADD SWAP1 JUMP JUMPDEST SWAP6 SWAP5 POP POP POP POP POP JUMP JUMPDEST PUSH1 0x1 PUSH1 0x1 PUSH1 0xA0 SHL SUB DUP6 DUP2 AND DUP3 MSTORE DUP5 AND PUSH1 0x20 DUP3 ADD MSTORE PUSH1 0x40 DUP2 ADD DUP4 SWAP1 MSTORE PUSH1 0x80 PUSH1 0x60 DUP3 ADD DUP2 SWAP1 MSTORE PUSH1 0x0 SWAP1 PUSH2 0x17A3 SWAP1 DUP4 ADD DUP5 PUSH2 0x166D JUMP JUMPDEST SWAP7 SWAP6 POP POP POP POP POP POP JUMP JUMPDEST PUSH1 0x20 DUP2 MSTORE PUSH1 0x0 PUSH2 0x1479 PUSH1 0x20 DUP4 ADD DUP5 PUSH2 0x166D JUMP JUMPDEST PUSH1 0x20 DUP1 DUP3 MSTORE PUSH1 0x32 SWAP1 DUP3 ADD MSTORE PUSH32 0x4552433732313A207472616E7366657220746F206E6F6E204552433732315265 PUSH1 0x40 DUP3 ADD MSTORE PUSH18 0x31B2B4BB32B91034B6B83632B6B2B73A32B9 PUSH1 0x71 SHL PUSH1 0x60 DUP3 ADD MSTORE PUSH1 0x80 ADD SWAP1 JUMP JUMPDEST PUSH1 0x20 DUP1 DUP3 MSTORE DUP2 DUP2 ADD MSTORE PUSH32 0x4F776E61626C653A2063616C6C6572206973206E6F7420746865206F776E6572 PUSH1 0x40 DUP3 ADD MSTORE PUSH1 0x60 ADD SWAP1 JUMP JUMPDEST PUSH1 0x20 DUP1 DUP3 MSTORE PUSH1 0x31 SWAP1 DUP3 ADD MSTORE PUSH32 0x4552433732313A207472616E736665722063616C6C6572206973206E6F74206F PUSH1 0x40 DUP3 ADD MSTORE PUSH17 0x1DDB995C881B9BDC88185C1C1C9BDD9959 PUSH1 0x7A SHL PUSH1 0x60 DUP3 ADD MSTORE PUSH1 0x80 ADD SWAP1 JUMP JUMPDEST PUSH1 0x0 DUP3 NOT DUP3 GT ISZERO PUSH2 0x18AB JUMPI PUSH2 0x18AB PUSH2 0x1990 JUMP JUMPDEST POP ADD SWAP1 JUMP JUMPDEST PUSH1 0x0 DUP3 PUSH2 0x18BF JUMPI PUSH2 0x18BF PUSH2 0x19A6 JUMP JUMPDEST POP DIV SWAP1 JUMP JUMPDEST PUSH1 0x0 DUP2 PUSH1 0x0 NOT DIV DUP4 GT DUP3 ISZERO ISZERO AND ISZERO PUSH2 0x18DE JUMPI PUSH2 0x18DE PUSH2 0x1990 JUMP JUMPDEST POP MUL SWAP1 JUMP JUMPDEST PUSH1 0x0 DUP3 DUP3 LT ISZERO PUSH2 0x18F5 JUMPI PUSH2 0x18F5 PUSH2 0x1990 JUMP JUMPDEST POP SUB SWAP1 JUMP JUMPDEST PUSH1 0x0 JUMPDEST DUP4 DUP2 LT ISZERO PUSH2 0x1915 JUMPI DUP2 DUP2 ADD MLOAD DUP4 DUP3 ADD MSTORE PUSH1 0x20 ADD PUSH2 0x18FD JUMP JUMPDEST DUP4 DUP2 GT ISZERO PUSH2 0x9E1 JUMPI POP POP PUSH1 0x0 SWAP2 ADD MSTORE JUMP JUMPDEST PUSH1 0x1 DUP2 DUP2 SHR SWAP1 DUP3 AND DUP1 PUSH2 0x193A JUMPI PUSH1 0x7F DUP3 AND SWAP2 POP JUMPDEST PUSH1 0x20 DUP3 LT DUP2 EQ ISZERO PUSH2 0x195B JUMPI PUSH4 0x4E487B71 PUSH1 0xE0 SHL PUSH1 0x0 MSTORE PUSH1 0x22 PUSH1 0x4 MSTORE PUSH1 0x24 PUSH1 0x0 REVERT JUMPDEST POP SWAP2 SWAP1 POP JUMP JUMPDEST PUSH1 0x0 PUSH1 0x0 NOT DUP3 EQ ISZERO PUSH2 0x1975 JUMPI PUSH2 0x1975 PUSH2 0x1990 JUMP JUMPDEST POP PUSH1 0x1 ADD SWAP1 JUMP JUMPDEST PUSH1 0x0 DUP3 PUSH2 0x198B JUMPI PUSH2 0x198B PUSH2 0x19A6 JUMP JUMPDEST POP MOD SWAP1 JUMP JUMPDEST PUSH4 0x4E487B71 PUSH1 0xE0 SHL PUSH1 0x0 MSTORE PUSH1 0x11 PUSH1 0x4 MSTORE PUSH1 0x24 PUSH1 0x0 REVERT JUMPDEST PUSH4 0x4E487B71 PUSH1 0xE0 SHL PUSH1 0x0 MSTORE PUSH1 0x12 PUSH1 0x4 MSTORE PUSH1 0x24 PUSH1 0x0 REVERT JUMPDEST PUSH4 0x4E487B71 PUSH1 0xE0 SHL PUSH1 0x0 MSTORE PUSH1 0x32 PUSH1 0x4 MSTORE PUSH1 0x24 PUSH1 0x0 REVERT JUMPDEST PUSH4 0x4E487B71 PUSH1 0xE0 SHL PUSH1 0x0 MSTORE PUSH1 0x41 PUSH1 0x4 MSTORE PUSH1 0x24 PUSH1 0x0 REVERT JUMPDEST PUSH1 0x1 PUSH1 0x1 PUSH1 0xE0 SHL SUB NOT DUP2 AND DUP2 EQ PUSH2 0xB41 JUMPI PUSH1 0x0 DUP1 REVERT INVALID LOG2 PUSH5 0x6970667358 0x22 SLT KECCAK256 JUMPDEST 0xC5 0xF7 RETURNDATACOPY PUSH6 0xD2C1BDC3766C MULMOD PUSH24 0x38B9BBF9F63E1565F25FCC156A4BD7C281944764736F6C63 NUMBER STOP ADDMOD SMOD STOP CALLER "
				},
				"gasEstimates": {
					"creation": {
						"codeDepositCost": "1341600",
						"executionCost": "infinite",
						"totalCost": "infinite"
					},
					"external": {
						"approve(address,uint256)": "infinite",
						"balanceOf(address)": "2634",
						"baseTokenURI()": "infinite",
						"calculateTax(uint256)": "532",
						"getApproved(uint256)": "4760",
						"isApprovedForAll(address,address)": "infinite",
						"mintPrice()": "2318",
						"name()": "infinite",
						"owner()": "2420",
						"ownerOf(uint256)": "2689",
						"renounceOwnership()": "28184",
						"safeMint(address)": "infinite",
						"safeTransferFrom(address,address,uint256)": "infinite",
						"safeTransferFrom(address,address,uint256,bytes)": "infinite",
						"setApprovalForAll(address,bool)": "26708",
						"setBaseURI(string)": "infinite",
						"supportsInterface(bytes4)": "534",
						"symbol()": "infinite",
						"tokenURI(uint256)": "infinite",
						"totalSupply()": "2407",
						"transferFrom(address,address,uint256)": "infinite",
						"transferOwnership(address)": "28444"
					},
					"internal": {
						"_burn(uint256)": "infinite"
					}
				},
				"methodIdentifiers": {
					"approve(address,uint256)": "095ea7b3",
					"balanceOf(address)": "70a08231",
					"baseTokenURI()": "d547cfb7",
					"calculateTax(uint256)": "483a9310",
					"getApproved(uint256)": "081812fc",
					"isApprovedForAll(address,address)": "e985e9c5",
					"mintPrice()": "6817c76c",
					"name()": "06fdde03",
					"owner()": "8da5cb5b",
					"ownerOf(uint256)": "6352211e",
					"renounceOwnership()": "715018a6",
					"safeMint(address)": "40d097c3",
					"safeTransferFrom(address,address,uint256)": "42842e0e",
					"safeTransferFrom(address,address,uint256,bytes)": "b88d4fde",
					"setApprovalForAll(address,bool)": "a22cb465",
					"setBaseURI(string)": "55f804b3",
					"supportsInterface(bytes4)": "01ffc9a7",
					"symbol()": "95d89b41",
					"tokenURI(uint256)": "c87b56dd",
					"totalSupply()": "18160ddd",
					"transferFrom(address,address,uint256)": "23b872dd",
					"transferOwnership(address)": "f2fde38b"
				}
			},
			"storageLayout": {
				"storage": [
					{
						"astId": 130,
						"contract": "contracts/sequential.sol:MyToken",
						"label": "_name",
						"offset": 0,
						"slot": "0",
						"type": "t_string_storage"
					},
					{
						"astId": 132,
						"contract": "contracts/sequential.sol:MyToken",
						"label": "_symbol",
						"offset": 0,
						"slot": "1",
						"type": "t_string_storage"
					},
					{
						"astId": 136,
						"contract": "contracts/sequential.sol:MyToken",
						"label": "_owners",
						"offset": 0,
						"slot": "2",
						"type": "t_mapping(t_uint256,t_address)"
					},
					{
						"astId": 140,
						"contract": "contracts/sequential.sol:MyToken",
						"label": "_balances",
						"offset": 0,
						"slot": "3",
						"type": "t_mapping(t_address,t_uint256)"
					},
					{
						"astId": 144,
						"contract": "contracts/sequential.sol:MyToken",
						"label": "_tokenApprovals",
						"offset": 0,
						"slot": "4",
						"type": "t_mapping(t_uint256,t_address)"
					},
					{
						"astId": 150,
						"contract": "contracts/sequential.sol:MyToken",
						"label": "_operatorApprovals",
						"offset": 0,
						"slot": "5",
						"type": "t_mapping(t_address,t_mapping(t_address,t_bool))"
					},
					{
						"astId": 7,
						"contract": "contracts/sequential.sol:MyToken",
						"label": "_owner",
						"offset": 0,
						"slot": "6",
						"type": "t_address"
					},
					{
						"astId": 1781,
						"contract": "contracts/sequential.sol:MyToken",
						"label": "_tokenIdCounter",
						"offset": 0,
						"slot": "7",
						"type": "t_struct(Counter)1454_storage"
					},
					{
						"astId": 1783,
						"contract": "contracts/sequential.sol:MyToken",
						"label": "totalSupply",
						"offset": 0,
						"slot": "8",
						"type": "t_uint256"
					},
					{
						"astId": 1785,
						"contract": "contracts/sequential.sol:MyToken",
						"label": "baseTokenURI",
						"offset": 0,
						"slot": "9",
						"type": "t_string_storage"
					},
					{
						"astId": 1787,
						"contract": "contracts/sequential.sol:MyToken",
						"label": "mintPrice",
						"offset": 0,
						"slot": "10",
						"type": "t_uint256"
					}
				],
				"types": {
					"t_address": {
						"encoding": "inplace",
						"label": "address",
						"numberOfBytes": "20"
					},
					"t_bool": {
						"encoding": "inplace",
						"label": "bool",
						"numberOfBytes": "1"
					},
					"t_mapping(t_address,t_bool)": {
						"encoding": "mapping",
						"key": "t_address",
						"label": "mapping(address => bool)",
						"numberOfBytes": "32",
						"value": "t_bool"
					},
					"t_mapping(t_address,t_mapping(t_address,t_bool))": {
						"encoding": "mapping",
						"key": "t_address",
						"label": "mapping(address => mapping(address => bool))",
						"numberOfBytes": "32",
						"value": "t_mapping(t_address,t_bool)"
					},
					"t_mapping(t_address,t_uint256)": {
						"encoding": "mapping",
						"key": "t_address",
						"label": "mapping(address => uint256)",
						"numberOfBytes": "32",
						"value": "t_uint256"
					},
					"t_mapping(t_uint256,t_address)": {
						"encoding": "mapping",
						"key": "t_uint256",
						"label": "mapping(uint256 => address)",
						"numberOfBytes": "32",
						"value": "t_address"
					},
					"t_string_storage": {
						"encoding": "bytes",
						"label": "string",
						"numberOfBytes": "32"
					},
					"t_struct(Counter)1454_storage": {
						"encoding": "inplace",
						"label": "struct Counters.Counter",
						"members": [
							{
								"astId": 1453,
								"contract": "contracts/sequential.sol:MyToken",
								"label": "_value",
								"offset": 0,
								"slot": "0",
								"type": "t_uint256"
							}
						],
						"numberOfBytes": "32"
					},
					"t_uint256": {
						"encoding": "inplace",
						"label": "uint256",
						"numberOfBytes": "32"
					}
				}
			},
			"userdoc": {
				"kind": "user",
				"methods": {},
				"version": 1
			}
		}
	}
}