{
	"contracts/sequential.sol": {
		"MyToken": {
			"abi": [
				{
					"inputs": [],
					"stateMutability": "nonpayable",
					"type": "constructor"
				},
				{
					"anonymous": false,
					"inputs": [
						{
							"indexed": true,
							"internalType": "address",
							"name": "owner",
							"type": "address"
						},
						{
							"indexed": true,
							"internalType": "address",
							"name": "approved",
							"type": "address"
						},
						{
							"indexed": true,
							"internalType": "uint256",
							"name": "tokenId",
							"type": "uint256"
						}
					],
					"name": "Approval",
					"type": "event"
				},
				{
					"anonymous": false,
					"inputs": [
						{
							"indexed": true,
							"internalType": "address",
							"name": "owner",
							"type": "address"
						},
						{
							"indexed": true,
							"internalType": "address",
							"name": "operator",
							"type": "address"
						},
						{
							"indexed": false,
							"internalType": "bool",
							"name": "approved",
							"type": "bool"
						}
					],
					"name": "ApprovalForAll",
					"type": "event"
				},
				{
					"anonymous": false,
					"inputs": [
						{
							"indexed": true,
							"internalType": "address",
							"name": "previousOwner",
							"type": "address"
						},
						{
							"indexed": true,
							"internalType": "address",
							"name": "newOwner",
							"type": "address"
						}
					],
					"name": "OwnershipTransferred",
					"type": "event"
				},
				{
					"anonymous": false,
					"inputs": [
						{
							"indexed": true,
							"internalType": "address",
							"name": "from",
							"type": "address"
						},
						{
							"indexed": true,
							"internalType": "address",
							"name": "to",
							"type": "address"
						},
						{
							"indexed": true,
							"internalType": "uint256",
							"name": "tokenId",
							"type": "uint256"
						}
					],
					"name": "Transfer",
					"type": "event"
				},
				{
					"inputs": [
						{
							"internalType": "address",
							"name": "to",
							"type": "address"
						},
						{
							"internalType": "uint256",
							"name": "tokenId",
							"type": "uint256"
						}
					],
					"name": "approve",
					"outputs": [],
					"stateMutability": "nonpayable",
					"type": "function"
				},
				{
					"inputs": [
						{
							"internalType": "address",
							"name": "owner",
							"type": "address"
						}
					],
					"name": "balanceOf",
					"outputs": [
						{
							"internalType": "uint256",
							"name": "",
							"type": "uint256"
						}
					],
					"stateMutability": "view",
					"type": "function"
				},
				{
					"inputs": [],
					"name": "baseTokenURI",
					"outputs": [
						{
							"internalType": "string",
							"name": "",
							"type": "string"
						}
					],
					"stateMutability": "view",
					"type": "function"
				},
				{
					"inputs": [
						{
							"internalType": "uint256",
							"name": "tokenId",
							"type": "uint256"
						}
					],
					"name": "burn",
					"outputs": [],
					"stateMutability": "nonpayable",
					"type": "function"
				},
				{
					"inputs": [
						{
							"internalType": "uint256",
							"name": "tokenId",
							"type": "uint256"
						}
					],
					"name": "getApproved",
					"outputs": [
						{
							"internalType": "address",
							"name": "",
							"type": "address"
						}
					],
					"stateMutability": "view",
					"type": "function"
				},
				{
					"inputs": [
						{
							"internalType": "address",
							"name": "owner",
							"type": "address"
						},
						{
							"internalType": "address",
							"name": "operator",
							"type": "address"
						}
					],
					"name": "isApprovedForAll",
					"outputs": [
						{
							"internalType": "bool",
							"name": "",
							"type": "bool"
						}
					],
					"stateMutability": "view",
					"type": "function"
				},
				{
					"inputs": [],
					"name": "name",
					"outputs": [
						{
							"internalType": "string",
							"name": "",
							"type": "string"
						}
					],
					"stateMutability": "view",
					"type": "function"
				},
				{
					"inputs": [],
					"name": "owner",
					"outputs": [
						{
							"internalType": "address",
							"name": "",
							"type": "address"
						}
					],
					"stateMutability": "view",
					"type": "function"
				},
				{
					"inputs": [
						{
							"internalType": "uint256",
							"name": "tokenId",
							"type": "uint256"
						}
					],
					"name": "ownerOf",
					"outputs": [
						{
							"internalType": "address",
							"name": "",
							"type": "address"
						}
					],
					"stateMutability": "view",
					"type": "function"
				},
				{
					"inputs": [],
					"name": "renounceOwnership",
					"outputs": [],
					"stateMutability": "nonpayable",
					"type": "function"
				},
				{
					"inputs": [
						{
							"internalType": "address",
							"name": "to",
							"type": "address"
						},
						{
							"internalType": "string",
							"name": "uri",
							"type": "string"
						}
					],
					"name": "safeMint",
					"outputs": [],
					"stateMutability": "nonpayable",
					"type": "function"
				},
				{
					"inputs": [
						{
							"internalType": "address",
							"name": "from",
							"type": "address"
						},
						{
							"internalType": "address",
							"name": "to",
							"type": "address"
						},
						{
							"internalType": "uint256",
							"name": "tokenId",
							"type": "uint256"
						}
					],
					"name": "safeTransferFrom",
					"outputs": [],
					"stateMutability": "nonpayable",
					"type": "function"
				},
				{
					"inputs": [
						{
							"internalType": "address",
							"name": "from",
							"type": "address"
						},
						{
							"internalType": "address",
							"name": "to",
							"type": "address"
						},
						{
							"internalType": "uint256",
							"name": "tokenId",
							"type": "uint256"
						},
						{
							"internalType": "bytes",
							"name": "_data",
							"type": "bytes"
						}
					],
					"name": "safeTransferFrom",
					"outputs": [],
					"stateMutability": "nonpayable",
					"type": "function"
				},
				{
					"inputs": [
						{
							"internalType": "address",
							"name": "operator",
							"type": "address"
						},
						{
							"internalType": "bool",
							"name": "approved",
							"type": "bool"
						}
					],
					"name": "setApprovalForAll",
					"outputs": [],
					"stateMutability": "nonpayable",
					"type": "function"
				},
				{
					"inputs": [
						{
							"internalType": "string",
							"name": "baseURI",
							"type": "string"
						}
					],
					"name": "setBaseURI",
					"outputs": [],
					"stateMutability": "nonpayable",
					"type": "function"
				},
				{
					"inputs": [
						{
							"internalType": "bytes4",
							"name": "interfaceId",
							"type": "bytes4"
						}
					],
					"name": "supportsInterface",
					"outputs": [
						{
							"internalType": "bool",
							"name": "",
							"type": "bool"
						}
					],
					"stateMutability": "view",
					"type": "function"
				},
				{
					"inputs": [],
					"name": "symbol",
					"outputs": [
						{
							"internalType": "string",
							"name": "",
							"type": "string"
						}
					],
					"stateMutability": "view",
					"type": "function"
				},
				{
					"inputs": [
						{
							"internalType": "uint256",
							"name": "tokenId",
							"type": "uint256"
						}
					],
					"name": "tokenURI",
					"outputs": [
						{
							"internalType": "string",
							"name": "",
							"type": "string"
						}
					],
					"stateMutability": "view",
					"type": "function"
				},
				{
					"inputs": [
						{
							"internalType": "address",
							"name": "from",
							"type": "address"
						},
						{
							"internalType": "address",
							"name": "to",
							"type": "address"
						},
						{
							"internalType": "uint256",
							"name": "tokenId",
							"type": "uint256"
						}
					],
					"name": "transferFrom",
					"outputs": [],
					"stateMutability": "nonpayable",
					"type": "function"
				},
				{
					"inputs": [
						{
							"internalType": "address",
							"name": "newOwner",
							"type": "address"
						}
					],
					"name": "transferOwnership",
					"outputs": [],
					"stateMutability": "nonpayable",
					"type": "function"
				}
			],
			"devdoc": {
				"kind": "dev",
				"methods": {
					"approve(address,uint256)": {
						"details": "See {IERC721-approve}."
					},
					"balanceOf(address)": {
						"details": "See {IERC721-balanceOf}."
					},
					"burn(uint256)": {
						"details": "Burns `tokenId`. See {ERC721-_burn}. Requirements: - The caller must own `tokenId` or be an approved operator."
					},
					"getApproved(uint256)": {
						"details": "See {IERC721-getApproved}."
					},
					"isApprovedForAll(address,address)": {
						"details": "See {IERC721-isApprovedForAll}."
					},
					"name()": {
						"details": "See {IERC721Metadata-name}."
					},
					"owner()": {
						"details": "Returns the address of the current owner."
					},
					"ownerOf(uint256)": {
						"details": "See {IERC721-ownerOf}."
					},
					"renounceOwnership()": {
						"details": "Leaves the contract without owner. It will not be possible to call `onlyOwner` functions anymore. Can only be called by the current owner. NOTE: Renouncing ownership will leave the contract without an owner, thereby removing any functionality that is only available to the owner."
					},
					"safeTransferFrom(address,address,uint256)": {
						"details": "See {IERC721-safeTransferFrom}."
					},
					"safeTransferFrom(address,address,uint256,bytes)": {
						"details": "See {IERC721-safeTransferFrom}."
					},
					"setApprovalForAll(address,bool)": {
						"details": "See {IERC721-setApprovalForAll}."
					},
					"supportsInterface(bytes4)": {
						"details": "See {IERC165-supportsInterface}."
					},
					"symbol()": {
						"details": "See {IERC721Metadata-symbol}."
					},
					"transferFrom(address,address,uint256)": {
						"details": "See {IERC721-transferFrom}."
					},
					"transferOwnership(address)": {
						"details": "Transfers ownership of the contract to a new account (`newOwner`). Can only be called by the current owner."
					}
				},
				"version": 1
			},
			"evm": {
				"assembly": "    /* \"contracts/sequential.sol\":378:1373  contract MyToken is ERC721, ERC721URIStorage, ERC721Burnable, Ownable {... */\n  mstore(0x40, 0x80)\n    /* \"contracts/sequential.sol\":581:622  constructor() ERC721(\"MyToken\", \"MTK\") {} */\n  callvalue\n  dup1\n  iszero\n  tag_1\n  jumpi\n  0x00\n  dup1\n  revert\ntag_1:\n  pop\n    /* \"@openzeppelin/contracts/token/ERC721/ERC721.sol\":1390:1503  constructor(string memory name_, string memory symbol_) {... */\n  0x40\n  dup1\n  mload\n  dup1\n  dup3\n  add\n  dup3\n  mstore\n  0x07\n  dup2\n  mstore\n  shl(0xc9, 0x26bcaa37b5b2b7)\n  0x20\n  dup1\n  dup4\n  add\n  swap2\n  dup3\n  mstore\n  dup4\n  mload\n  dup1\n  dup6\n  add\n  swap1\n  swap5\n  mstore\n  0x03\n  dup5\n  mstore\n  shl(0xe8, 0x4d544b)\n  swap1\n  dup5\n  add\n  mstore\n    /* \"@openzeppelin/contracts/token/ERC721/ERC721.sol\":1456:1469  _name = name_ */\n  dup2\n  mload\n    /* \"@openzeppelin/contracts/token/ERC721/ERC721.sol\":1390:1503  constructor(string memory name_, string memory symbol_) {... */\n  swap2\n  swap3\n  swap2\n    /* \"@openzeppelin/contracts/token/ERC721/ERC721.sol\":1456:1469  _name = name_ */\n  tag_6\n  swap2\n  0x00\n  swap2\n  tag_7\n  jump\t// in\ntag_6:\n  pop\n    /* \"@openzeppelin/contracts/token/ERC721/ERC721.sol\":1479:1496  _symbol = symbol_ */\n  dup1\n  mload\n  tag_8\n  swap1\n    /* \"@openzeppelin/contracts/token/ERC721/ERC721.sol\":1479:1486  _symbol */\n  0x01\n  swap1\n    /* \"@openzeppelin/contracts/token/ERC721/ERC721.sol\":1479:1496  _symbol = symbol_ */\n  0x20\n  dup5\n  add\n  swap1\n  tag_7\n  jump\t// in\ntag_8:\n  pop\n    /* \"@openzeppelin/contracts/token/ERC721/ERC721.sol\":1390:1503  constructor(string memory name_, string memory symbol_) {... */\n  pop\n  pop\n    /* \"@openzeppelin/contracts/access/Ownable.sol\":921:953  _transferOwnership(_msgSender()) */\n  tag_10\n    /* \"@openzeppelin/contracts/access/Ownable.sol\":940:952  _msgSender() */\n  tag_11\n    /* \"@openzeppelin/contracts/access/Ownable.sol\":940:950  _msgSender */\n  shl(0x20, tag_12)\n    /* \"@openzeppelin/contracts/access/Ownable.sol\":940:952  _msgSender() */\n  0x20\n  shr\n  jump\t// in\ntag_11:\n    /* \"@openzeppelin/contracts/access/Ownable.sol\":921:939  _transferOwnership */\n  tag_13\n    /* \"@openzeppelin/contracts/access/Ownable.sol\":921:953  _transferOwnership(_msgSender()) */\n  jump\t// in\ntag_10:\n    /* \"contracts/sequential.sol\":378:1373  contract MyToken is ERC721, ERC721URIStorage, ERC721Burnable, Ownable {... */\n  jump(tag_29)\n    /* \"@openzeppelin/contracts/utils/Context.sol\":640:736  function _msgSender() internal view virtual returns (address) {... */\ntag_12:\n    /* \"@openzeppelin/contracts/utils/Context.sol\":719:729  msg.sender */\n  caller\n  swap1\n    /* \"@openzeppelin/contracts/utils/Context.sol\":640:736  function _msgSender() internal view virtual returns (address) {... */\n  jump\t// out\n    /* \"@openzeppelin/contracts/access/Ownable.sol\":2270:2457  function _transferOwnership(address newOwner) internal virtual {... */\ntag_13:\n    /* \"@openzeppelin/contracts/access/Ownable.sol\":2362:2368  _owner */\n  0x07\n  dup1\n  sload\n  sub(shl(0xa0, 0x01), 0x01)\n    /* \"@openzeppelin/contracts/access/Ownable.sol\":2378:2395  _owner = newOwner */\n  dup4\n  dup2\n  and\n  not(sub(shl(0xa0, 0x01), 0x01))\n  dup4\n  and\n  dup2\n  or\n  swap1\n  swap4\n  sstore\n    /* \"@openzeppelin/contracts/access/Ownable.sol\":2410:2450  OwnershipTransferred(oldOwner, newOwner) */\n  mload(0x40)\n    /* \"@openzeppelin/contracts/access/Ownable.sol\":2362:2368  _owner */\n  swap2\n  and\n  swap2\n    /* \"@openzeppelin/contracts/access/Ownable.sol\":2378:2395  _owner = newOwner */\n  swap1\n    /* \"@openzeppelin/contracts/access/Ownable.sol\":2362:2368  _owner */\n  dup3\n  swap1\n    /* \"@openzeppelin/contracts/access/Ownable.sol\":2410:2450  OwnershipTransferred(oldOwner, newOwner) */\n  0x8be0079c531659141344cd1fd0a4f28419497f9722a3daafe3b4186f6b6457e0\n  swap1\n    /* \"@openzeppelin/contracts/access/Ownable.sol\":2343:2359  address oldOwner */\n  0x00\n  swap1\n    /* \"@openzeppelin/contracts/access/Ownable.sol\":2410:2450  OwnershipTransferred(oldOwner, newOwner) */\n  log3\n    /* \"@openzeppelin/contracts/access/Ownable.sol\":2333:2457  {... */\n  pop\n    /* \"@openzeppelin/contracts/access/Ownable.sol\":2270:2457  function _transferOwnership(address newOwner) internal virtual {... */\n  pop\n  jump\t// out\n    /* \"contracts/sequential.sol\":378:1373  contract MyToken is ERC721, ERC721URIStorage, ERC721Burnable, Ownable {... */\ntag_7:\n  dup3\n  dup1\n  sload\n  tag_18\n  swap1\n  tag_19\n  jump\t// in\ntag_18:\n  swap1\n  0x00\n  mstore\n  keccak256(0x00, 0x20)\n  swap1\n  0x1f\n  add\n  0x20\n  swap1\n  div\n  dup2\n  add\n  swap3\n  dup3\n  tag_21\n  jumpi\n  0x00\n  dup6\n  sstore\n  jump(tag_24)\ntag_21:\n  dup3\n  0x1f\n  lt\n  tag_22\n  jumpi\n  dup1\n  mload\n  not(0xff)\n  and\n  dup4\n  dup1\n  add\n  or\n  dup6\n  sstore\n  jump(tag_24)\ntag_22:\n  dup3\n  dup1\n  add\n  0x01\n  add\n  dup6\n  sstore\n  dup3\n  iszero\n  tag_24\n  jumpi\n  swap2\n  dup3\n  add\ntag_23:\n  dup3\n  dup2\n  gt\n  iszero\n  tag_24\n  jumpi\n  dup3\n  mload\n  dup3\n  sstore\n  swap2\n  0x20\n  add\n  swap2\n  swap1\n  0x01\n  add\n  swap1\n  jump(tag_23)\ntag_24:\n  pop\n  tag_25\n  swap3\n  swap2\n  pop\n  tag_26\n  jump\t// in\ntag_25:\n  pop\n  swap1\n  jump\t// out\ntag_26:\ntag_27:\n  dup1\n  dup3\n  gt\n  iszero\n  tag_25\n  jumpi\n  0x00\n  dup2\n  sstore\n  0x01\n  add\n  jump(tag_27)\n    /* \"#utility.yul\":14:394   */\ntag_19:\n    /* \"#utility.yul\":93:94   */\n  0x01\n    /* \"#utility.yul\":89:101   */\n  dup2\n  dup2\n  shr\n  swap1\n    /* \"#utility.yul\":136:148   */\n  dup3\n  and\n  dup1\n    /* \"#utility.yul\":157:218   */\n  tag_31\n  jumpi\n    /* \"#utility.yul\":211:215   */\n  0x7f\n    /* \"#utility.yul\":203:209   */\n  dup3\n    /* \"#utility.yul\":199:216   */\n  and\n    /* \"#utility.yul\":189:216   */\n  swap2\n  pop\n    /* \"#utility.yul\":157:218   */\ntag_31:\n    /* \"#utility.yul\":264:266   */\n  0x20\n    /* \"#utility.yul\":256:262   */\n  dup3\n    /* \"#utility.yul\":253:267   */\n  lt\n    /* \"#utility.yul\":233:251   */\n  dup2\n    /* \"#utility.yul\":230:268   */\n  eq\n    /* \"#utility.yul\":227:388   */\n  iszero\n  tag_32\n  jumpi\n    /* \"#utility.yul\":310:320   */\n  0x4e487b71\n    /* \"#utility.yul\":305:308   */\n  0xe0\n    /* \"#utility.yul\":301:321   */\n  shl\n    /* \"#utility.yul\":298:299   */\n  0x00\n    /* \"#utility.yul\":291:322   */\n  mstore\n    /* \"#utility.yul\":345:349   */\n  0x22\n    /* \"#utility.yul\":342:343   */\n  0x04\n    /* \"#utility.yul\":335:350   */\n  mstore\n    /* \"#utility.yul\":373:377   */\n  0x24\n    /* \"#utility.yul\":370:371   */\n  0x00\n    /* \"#utility.yul\":363:378   */\n  revert\n    /* \"#utility.yul\":227:388   */\ntag_32:\n  pop\n    /* \"#utility.yul\":14:394   */\n  swap2\n  swap1\n  pop\n  jump\t// out\ntag_29:\n    /* \"contracts/sequential.sol\":378:1373  contract MyToken is ERC721, ERC721URIStorage, ERC721Burnable, Ownable {... */\n  dataSize(sub_0)\n  dup1\n  dataOffset(sub_0)\n  0x00\n  codecopy\n  0x00\n  return\nstop\n\nsub_0: assembly {\n        /* \"contracts/sequential.sol\":378:1373  contract MyToken is ERC721, ERC721URIStorage, ERC721Burnable, Ownable {... */\n      mstore(0x40, 0x80)\n      callvalue\n      dup1\n      iszero\n      tag_1\n      jumpi\n      0x00\n      dup1\n      revert\n    tag_1:\n      pop\n      jumpi(tag_2, lt(calldatasize, 0x04))\n      shr(0xe0, calldataload(0x00))\n      dup1\n      0x715018a6\n      gt\n      tag_23\n      jumpi\n      dup1\n      0xc87b56dd\n      gt\n      tag_24\n      jumpi\n      dup1\n      0xc87b56dd\n      eq\n      tag_18\n      jumpi\n      dup1\n      0xd204c45e\n      eq\n      tag_19\n      jumpi\n      dup1\n      0xd547cfb7\n      eq\n      tag_20\n      jumpi\n      dup1\n      0xe985e9c5\n      eq\n      tag_21\n      jumpi\n      dup1\n      0xf2fde38b\n      eq\n      tag_22\n      jumpi\n      0x00\n      dup1\n      revert\n    tag_24:\n      dup1\n      0x715018a6\n      eq\n      tag_13\n      jumpi\n      dup1\n      0x8da5cb5b\n      eq\n      tag_14\n      jumpi\n      dup1\n      0x95d89b41\n      eq\n      tag_15\n      jumpi\n      dup1\n      0xa22cb465\n      eq\n      tag_16\n      jumpi\n      dup1\n      0xb88d4fde\n      eq\n      tag_17\n      jumpi\n      0x00\n      dup1\n      revert\n    tag_23:\n      dup1\n      0x42842e0e\n      gt\n      tag_25\n      jumpi\n      dup1\n      0x42842e0e\n      eq\n      tag_8\n      jumpi\n      dup1\n      0x42966c68\n      eq\n      tag_9\n      jumpi\n      dup1\n      0x55f804b3\n      eq\n      tag_10\n      jumpi\n      dup1\n      0x6352211e\n      eq\n      tag_11\n      jumpi\n      dup1\n      0x70a08231\n      eq\n      tag_12\n      jumpi\n      0x00\n      dup1\n      revert\n    tag_25:\n      dup1\n      0x01ffc9a7\n      eq\n      tag_3\n      jumpi\n      dup1\n      0x06fdde03\n      eq\n      tag_4\n      jumpi\n      dup1\n      0x081812fc\n      eq\n      tag_5\n      jumpi\n      dup1\n      0x095ea7b3\n      eq\n      tag_6\n      jumpi\n      dup1\n      0x23b872dd\n      eq\n      tag_7\n      jumpi\n    tag_2:\n      0x00\n      dup1\n      revert\n        /* \"@openzeppelin/contracts/token/ERC721/ERC721.sol\":1570:1870  function supportsInterface(bytes4 interfaceId) public view virtual override(ERC165, IERC165) returns (bool) {... */\n    tag_3:\n      tag_26\n      tag_27\n      calldatasize\n      0x04\n      tag_28\n      jump\t// in\n    tag_27:\n      tag_29\n      jump\t// in\n    tag_26:\n      mload(0x40)\n        /* \"#utility.yul\":6145:6159   */\n      swap1\n      iszero\n        /* \"#utility.yul\":6138:6160   */\n      iszero\n        /* \"#utility.yul\":6120:6161   */\n      dup2\n      mstore\n        /* \"#utility.yul\":6108:6110   */\n      0x20\n        /* \"#utility.yul\":6093:6111   */\n      add\n        /* \"@openzeppelin/contracts/token/ERC721/ERC721.sol\":1570:1870  function supportsInterface(bytes4 interfaceId) public view virtual override(ERC165, IERC165) returns (bool) {... */\n    tag_30:\n      mload(0x40)\n      dup1\n      swap2\n      sub\n      swap1\n      return\n        /* \"@openzeppelin/contracts/token/ERC721/ERC721.sol\":2488:2586  function name() public view virtual override returns (string memory) {... */\n    tag_4:\n      tag_32\n      tag_33\n      jump\t// in\n    tag_32:\n      mload(0x40)\n      tag_30\n      swap2\n      swap1\n      tag_35\n      jump\t// in\n        /* \"@openzeppelin/contracts/token/ERC721/ERC721.sol\":4000:4217  function getApproved(uint256 tokenId) public view virtual override returns (address) {... */\n    tag_5:\n      tag_36\n      tag_37\n      calldatasize\n      0x04\n      tag_38\n      jump\t// in\n    tag_37:\n      tag_39\n      jump\t// in\n    tag_36:\n      mload(0x40)\n      sub(shl(0xa0, 0x01), 0x01)\n        /* \"#utility.yul\":5443:5475   */\n      swap1\n      swap2\n      and\n        /* \"#utility.yul\":5425:5476   */\n      dup2\n      mstore\n        /* \"#utility.yul\":5413:5415   */\n      0x20\n        /* \"#utility.yul\":5398:5416   */\n      add\n        /* \"@openzeppelin/contracts/token/ERC721/ERC721.sol\":4000:4217  function getApproved(uint256 tokenId) public view virtual override returns (address) {... */\n      tag_30\n        /* \"#utility.yul\":5279:5482   */\n      jump\n        /* \"@openzeppelin/contracts/token/ERC721/ERC721.sol\":3538:3939  function approve(address to, uint256 tokenId) public virtual override {... */\n    tag_6:\n      tag_42\n      tag_43\n      calldatasize\n      0x04\n      tag_44\n      jump\t// in\n    tag_43:\n      tag_45\n      jump\t// in\n    tag_42:\n      stop\n        /* \"@openzeppelin/contracts/token/ERC721/ERC721.sol\":4727:5057  function transferFrom(... */\n    tag_7:\n      tag_42\n      tag_47\n      calldatasize\n      0x04\n      tag_48\n      jump\t// in\n    tag_47:\n      tag_49\n      jump\t// in\n        /* \"@openzeppelin/contracts/token/ERC721/ERC721.sol\":5123:5302  function safeTransferFrom(... */\n    tag_8:\n      tag_42\n      tag_51\n      calldatasize\n      0x04\n      tag_48\n      jump\t// in\n    tag_51:\n      tag_52\n      jump\t// in\n        /* \"@openzeppelin/contracts/token/ERC721/extensions/ERC721Burnable.sol\":529:770  function burn(uint256 tokenId) public virtual {... */\n    tag_9:\n      tag_42\n      tag_54\n      calldatasize\n      0x04\n      tag_38\n      jump\t// in\n    tag_54:\n      tag_55\n      jump\t// in\n        /* \"contracts/sequential.sol\":1077:1176  function setBaseURI(string memory baseURI) public onlyOwner {... */\n    tag_10:\n      tag_42\n      tag_57\n      calldatasize\n      0x04\n      tag_58\n      jump\t// in\n    tag_57:\n      tag_59\n      jump\t// in\n        /* \"@openzeppelin/contracts/token/ERC721/ERC721.sol\":2191:2426  function ownerOf(uint256 tokenId) public view virtual override returns (address) {... */\n    tag_11:\n      tag_36\n      tag_61\n      calldatasize\n      0x04\n      tag_38\n      jump\t// in\n    tag_61:\n      tag_62\n      jump\t// in\n        /* \"@openzeppelin/contracts/token/ERC721/ERC721.sol\":1929:2134  function balanceOf(address owner) public view virtual override returns (uint256) {... */\n    tag_12:\n      tag_64\n      tag_65\n      calldatasize\n      0x04\n      tag_66\n      jump\t// in\n    tag_65:\n      tag_67\n      jump\t// in\n    tag_64:\n      mload(0x40)\n        /* \"#utility.yul\":14170:14195   */\n      swap1\n      dup2\n      mstore\n        /* \"#utility.yul\":14158:14160   */\n      0x20\n        /* \"#utility.yul\":14143:14161   */\n      add\n        /* \"@openzeppelin/contracts/token/ERC721/ERC721.sol\":1929:2134  function balanceOf(address owner) public view virtual override returns (uint256) {... */\n      tag_30\n        /* \"#utility.yul\":14024:14201   */\n      jump\n        /* \"@openzeppelin/contracts/access/Ownable.sol\":1668:1769  function renounceOwnership() public virtual onlyOwner {... */\n    tag_13:\n      tag_42\n      tag_71\n      jump\t// in\n        /* \"@openzeppelin/contracts/access/Ownable.sol\":1036:1121  function owner() public view virtual returns (address) {... */\n    tag_14:\n        /* \"@openzeppelin/contracts/access/Ownable.sol\":1108:1114  _owner */\n      and(sub(shl(0xa0, 0x01), 0x01), sload(0x07))\n        /* \"@openzeppelin/contracts/access/Ownable.sol\":1036:1121  function owner() public view virtual returns (address) {... */\n      jump(tag_36)\n        /* \"@openzeppelin/contracts/token/ERC721/ERC721.sol\":2650:2752  function symbol() public view virtual override returns (string memory) {... */\n    tag_15:\n      tag_32\n      tag_76\n      jump\t// in\n        /* \"@openzeppelin/contracts/token/ERC721/ERC721.sol\":4284:4437  function setApprovalForAll(address operator, bool approved) public virtual override {... */\n    tag_16:\n      tag_42\n      tag_79\n      calldatasize\n      0x04\n      tag_80\n      jump\t// in\n    tag_79:\n      tag_81\n      jump\t// in\n        /* \"@openzeppelin/contracts/token/ERC721/ERC721.sol\":5368:5688  function safeTransferFrom(... */\n    tag_17:\n      tag_42\n      tag_83\n      calldatasize\n      0x04\n      tag_84\n      jump\t// in\n    tag_83:\n      tag_85\n      jump\t// in\n        /* \"contracts/sequential.sol\":1182:1371  function tokenURI(uint256 tokenId)... */\n    tag_18:\n      tag_32\n      tag_87\n      calldatasize\n      0x04\n      tag_38\n      jump\t// in\n    tag_87:\n      tag_88\n      jump\t// in\n        /* \"contracts/sequential.sol\":628:859  function safeMint(address to, string memory uri) public onlyOwner {... */\n    tag_19:\n      tag_42\n      tag_91\n      calldatasize\n      0x04\n      tag_92\n      jump\t// in\n    tag_91:\n      tag_93\n      jump\t// in\n        /* \"contracts/sequential.sol\":547:573  string public baseTokenURI */\n    tag_20:\n      tag_32\n      tag_95\n      jump\t// in\n        /* \"@openzeppelin/contracts/token/ERC721/ERC721.sol\":4503:4665  function isApprovedForAll(address owner, address operator) public view virtual override returns (bool) {... */\n    tag_21:\n      tag_26\n      tag_98\n      calldatasize\n      0x04\n      tag_99\n      jump\t// in\n    tag_98:\n      sub(shl(0xa0, 0x01), 0x01)\n        /* \"@openzeppelin/contracts/token/ERC721/ERC721.sol\":4623:4648  _operatorApprovals[owner] */\n      swap2\n      dup3\n      and\n        /* \"@openzeppelin/contracts/token/ERC721/ERC721.sol\":4600:4604  bool */\n      0x00\n        /* \"@openzeppelin/contracts/token/ERC721/ERC721.sol\":4623:4648  _operatorApprovals[owner] */\n      swap1\n      dup2\n      mstore\n        /* \"@openzeppelin/contracts/token/ERC721/ERC721.sol\":4623:4641  _operatorApprovals */\n      0x05\n        /* \"@openzeppelin/contracts/token/ERC721/ERC721.sol\":4623:4648  _operatorApprovals[owner] */\n      0x20\n      swap1\n      dup2\n      mstore\n      0x40\n      dup1\n      dup4\n      keccak256\n        /* \"@openzeppelin/contracts/token/ERC721/ERC721.sol\":4623:4658  _operatorApprovals[owner][operator] */\n      swap4\n      swap1\n      swap5\n      and\n      dup3\n      mstore\n      swap2\n      swap1\n      swap2\n      mstore\n      keccak256\n      sload\n      0xff\n      and\n      swap1\n        /* \"@openzeppelin/contracts/token/ERC721/ERC721.sol\":4503:4665  function isApprovedForAll(address owner, address operator) public view virtual override returns (bool) {... */\n      jump\n        /* \"@openzeppelin/contracts/access/Ownable.sol\":1918:2116  function transferOwnership(address newOwner) public virtual onlyOwner {... */\n    tag_22:\n      tag_42\n      tag_103\n      calldatasize\n      0x04\n      tag_66\n      jump\t// in\n    tag_103:\n      tag_104\n      jump\t// in\n        /* \"@openzeppelin/contracts/token/ERC721/ERC721.sol\":1570:1870  function supportsInterface(bytes4 interfaceId) public view virtual override(ERC165, IERC165) returns (bool) {... */\n    tag_29:\n        /* \"@openzeppelin/contracts/token/ERC721/ERC721.sol\":1672:1676  bool */\n      0x00\n      not(sub(shl(0xe0, 0x01), 0x01))\n        /* \"@openzeppelin/contracts/token/ERC721/ERC721.sol\":1707:1747  interfaceId == type(IERC721).interfaceId */\n      dup3\n      and\n      shl(0xe0, 0x80ac58cd)\n      eq\n      dup1\n        /* \"@openzeppelin/contracts/token/ERC721/ERC721.sol\":1707:1811  interfaceId == type(IERC721).interfaceId ||... */\n      tag_106\n      jumpi\n      pop\n      not(sub(shl(0xe0, 0x01), 0x01))\n        /* \"@openzeppelin/contracts/token/ERC721/ERC721.sol\":1763:1811  interfaceId == type(IERC721Metadata).interfaceId */\n      dup3\n      and\n      shl(0xe0, 0x5b5e139f)\n      eq\n        /* \"@openzeppelin/contracts/token/ERC721/ERC721.sol\":1707:1811  interfaceId == type(IERC721).interfaceId ||... */\n    tag_106:\n        /* \"@openzeppelin/contracts/token/ERC721/ERC721.sol\":1707:1863  interfaceId == type(IERC721).interfaceId ||... */\n      dup1\n      tag_108\n      jumpi\n      pop\n      shl(0xe0, 0x01ffc9a7)\n      not(sub(shl(0xe0, 0x01), 0x01))\n        /* \"@openzeppelin/contracts/utils/introspection/ERC165.sol\":937:977  interfaceId == type(IERC165).interfaceId */\n      dup4\n      and\n      eq\n        /* \"@openzeppelin/contracts/token/ERC721/ERC721.sol\":1827:1863  super.supportsInterface(interfaceId) */\n    tag_108:\n        /* \"@openzeppelin/contracts/token/ERC721/ERC721.sol\":1688:1863  return... */\n      swap3\n        /* \"@openzeppelin/contracts/token/ERC721/ERC721.sol\":1570:1870  function supportsInterface(bytes4 interfaceId) public view virtual override(ERC165, IERC165) returns (bool) {... */\n      swap2\n      pop\n      pop\n      jump\t// out\n        /* \"@openzeppelin/contracts/token/ERC721/ERC721.sol\":2488:2586  function name() public view virtual override returns (string memory) {... */\n    tag_33:\n        /* \"@openzeppelin/contracts/token/ERC721/ERC721.sol\":2542:2555  string memory */\n      0x60\n        /* \"@openzeppelin/contracts/token/ERC721/ERC721.sol\":2574:2579  _name */\n      0x00\n        /* \"@openzeppelin/contracts/token/ERC721/ERC721.sol\":2567:2579  return _name */\n      dup1\n      sload\n      tag_111\n      swap1\n      tag_112\n      jump\t// in\n    tag_111:\n      dup1\n      0x1f\n      add\n      0x20\n      dup1\n      swap2\n      div\n      mul\n      0x20\n      add\n      mload(0x40)\n      swap1\n      dup2\n      add\n      0x40\n      mstore\n      dup1\n      swap3\n      swap2\n      swap1\n      dup2\n      dup2\n      mstore\n      0x20\n      add\n      dup3\n      dup1\n      sload\n      tag_113\n      swap1\n      tag_112\n      jump\t// in\n    tag_113:\n      dup1\n      iszero\n      tag_114\n      jumpi\n      dup1\n      0x1f\n      lt\n      tag_115\n      jumpi\n      0x0100\n      dup1\n      dup4\n      sload\n      div\n      mul\n      dup4\n      mstore\n      swap2\n      0x20\n      add\n      swap2\n      jump(tag_114)\n    tag_115:\n      dup3\n      add\n      swap2\n      swap1\n      0x00\n      mstore\n      keccak256(0x00, 0x20)\n      swap1\n    tag_116:\n      dup2\n      sload\n      dup2\n      mstore\n      swap1\n      0x01\n      add\n      swap1\n      0x20\n      add\n      dup1\n      dup4\n      gt\n      tag_116\n      jumpi\n      dup3\n      swap1\n      sub\n      0x1f\n      and\n      dup3\n      add\n      swap2\n    tag_114:\n      pop\n      pop\n      pop\n      pop\n      pop\n      swap1\n      pop\n        /* \"@openzeppelin/contracts/token/ERC721/ERC721.sol\":2488:2586  function name() public view virtual override returns (string memory) {... */\n      swap1\n      jump\t// out\n        /* \"@openzeppelin/contracts/token/ERC721/ERC721.sol\":4000:4217  function getApproved(uint256 tokenId) public view virtual override returns (address) {... */\n    tag_39:\n        /* \"@openzeppelin/contracts/token/ERC721/ERC721.sol\":4076:4083  address */\n      0x00\n        /* \"@openzeppelin/contracts/token/ERC721/ERC721.sol\":4103:4119  _exists(tokenId) */\n      tag_118\n        /* \"@openzeppelin/contracts/token/ERC721/ERC721.sol\":4111:4118  tokenId */\n      dup3\n        /* \"@openzeppelin/contracts/token/ERC721/ERC721.sol\":4103:4110  _exists */\n      tag_119\n        /* \"@openzeppelin/contracts/token/ERC721/ERC721.sol\":4103:4119  _exists(tokenId) */\n      jump\t// in\n    tag_118:\n        /* \"@openzeppelin/contracts/token/ERC721/ERC721.sol\":4095:4168  require(_exists(tokenId), \"ERC721: approved query for nonexistent token\") */\n      tag_120\n      jumpi\n      mload(0x40)\n      shl(0xe5, 0x461bcd)\n      dup2\n      mstore\n        /* \"#utility.yul\":11799:11801   */\n      0x20\n        /* \"@openzeppelin/contracts/token/ERC721/ERC721.sol\":4095:4168  require(_exists(tokenId), \"ERC721: approved query for nonexistent token\") */\n      0x04\n      dup3\n      add\n        /* \"#utility.yul\":11781:11802   */\n      mstore\n        /* \"#utility.yul\":11838:11840   */\n      0x2c\n        /* \"#utility.yul\":11818:11836   */\n      0x24\n      dup3\n      add\n        /* \"#utility.yul\":11811:11841   */\n      mstore\n        /* \"#utility.yul\":11877:11911   */\n      0x4552433732313a20617070726f76656420717565727920666f72206e6f6e6578\n        /* \"#utility.yul\":11857:11875   */\n      0x44\n      dup3\n      add\n        /* \"#utility.yul\":11850:11912   */\n      mstore\n      shl(0xa1, 0x34b9ba32b73a103a37b5b2b7)\n        /* \"#utility.yul\":11928:11946   */\n      0x64\n      dup3\n      add\n        /* \"#utility.yul\":11921:11963   */\n      mstore\n        /* \"#utility.yul\":11980:11999   */\n      0x84\n      add\n        /* \"@openzeppelin/contracts/token/ERC721/ERC721.sol\":4095:4168  require(_exists(tokenId), \"ERC721: approved query for nonexistent token\") */\n    tag_121:\n      mload(0x40)\n      dup1\n      swap2\n      sub\n      swap1\n      revert\n    tag_120:\n      pop\n        /* \"@openzeppelin/contracts/token/ERC721/ERC721.sol\":4186:4210  _tokenApprovals[tokenId] */\n      0x00\n      swap1\n      dup2\n      mstore\n        /* \"@openzeppelin/contracts/token/ERC721/ERC721.sol\":4186:4201  _tokenApprovals */\n      0x04\n        /* \"@openzeppelin/contracts/token/ERC721/ERC721.sol\":4186:4210  _tokenApprovals[tokenId] */\n      0x20\n      mstore\n      0x40\n      swap1\n      keccak256\n      sload\n      sub(shl(0xa0, 0x01), 0x01)\n      and\n      swap1\n        /* \"@openzeppelin/contracts/token/ERC721/ERC721.sol\":4000:4217  function getApproved(uint256 tokenId) public view virtual override returns (address) {... */\n      jump\t// out\n        /* \"@openzeppelin/contracts/token/ERC721/ERC721.sol\":3538:3939  function approve(address to, uint256 tokenId) public virtual override {... */\n    tag_45:\n        /* \"@openzeppelin/contracts/token/ERC721/ERC721.sol\":3618:3631  address owner */\n      0x00\n        /* \"@openzeppelin/contracts/token/ERC721/ERC721.sol\":3634:3657  ERC721.ownerOf(tokenId) */\n      tag_124\n        /* \"@openzeppelin/contracts/token/ERC721/ERC721.sol\":3649:3656  tokenId */\n      dup3\n        /* \"@openzeppelin/contracts/token/ERC721/ERC721.sol\":3634:3648  ERC721.ownerOf */\n      tag_62\n        /* \"@openzeppelin/contracts/token/ERC721/ERC721.sol\":3634:3657  ERC721.ownerOf(tokenId) */\n      jump\t// in\n    tag_124:\n        /* \"@openzeppelin/contracts/token/ERC721/ERC721.sol\":3618:3657  address owner = ERC721.ownerOf(tokenId) */\n      swap1\n      pop\n        /* \"@openzeppelin/contracts/token/ERC721/ERC721.sol\":3681:3686  owner */\n      dup1\n      sub(shl(0xa0, 0x01), 0x01)\n        /* \"@openzeppelin/contracts/token/ERC721/ERC721.sol\":3675:3686  to != owner */\n      and\n        /* \"@openzeppelin/contracts/token/ERC721/ERC721.sol\":3675:3677  to */\n      dup4\n      sub(shl(0xa0, 0x01), 0x01)\n        /* \"@openzeppelin/contracts/token/ERC721/ERC721.sol\":3675:3686  to != owner */\n      and\n      eq\n      iszero\n        /* \"@openzeppelin/contracts/token/ERC721/ERC721.sol\":3667:3724  require(to != owner, \"ERC721: approval to current owner\") */\n      tag_125\n      jumpi\n      mload(0x40)\n      shl(0xe5, 0x461bcd)\n      dup2\n      mstore\n        /* \"#utility.yul\":12989:12991   */\n      0x20\n        /* \"@openzeppelin/contracts/token/ERC721/ERC721.sol\":3667:3724  require(to != owner, \"ERC721: approval to current owner\") */\n      0x04\n      dup3\n      add\n        /* \"#utility.yul\":12971:12992   */\n      mstore\n        /* \"#utility.yul\":13028:13030   */\n      0x21\n        /* \"#utility.yul\":13008:13026   */\n      0x24\n      dup3\n      add\n        /* \"#utility.yul\":13001:13031   */\n      mstore\n        /* \"#utility.yul\":13067:13101   */\n      0x4552433732313a20617070726f76616c20746f2063757272656e74206f776e65\n        /* \"#utility.yul\":13047:13065   */\n      0x44\n      dup3\n      add\n        /* \"#utility.yul\":13040:13102   */\n      mstore\n      shl(0xf9, 0x39)\n        /* \"#utility.yul\":13118:13136   */\n      0x64\n      dup3\n      add\n        /* \"#utility.yul\":13111:13142   */\n      mstore\n        /* \"#utility.yul\":13159:13178   */\n      0x84\n      add\n        /* \"@openzeppelin/contracts/token/ERC721/ERC721.sol\":3667:3724  require(to != owner, \"ERC721: approval to current owner\") */\n      tag_121\n        /* \"#utility.yul\":12787:13184   */\n      jump\n        /* \"@openzeppelin/contracts/token/ERC721/ERC721.sol\":3667:3724  require(to != owner, \"ERC721: approval to current owner\") */\n    tag_125:\n        /* \"@openzeppelin/contracts/utils/Context.sol\":719:729  msg.sender */\n      caller\n      sub(shl(0xa0, 0x01), 0x01)\n        /* \"@openzeppelin/contracts/token/ERC721/ERC721.sol\":3756:3777  _msgSender() == owner */\n      dup3\n      and\n      eq\n      dup1\n        /* \"@openzeppelin/contracts/token/ERC721/ERC721.sol\":3756:3818  _msgSender() == owner || isApprovedForAll(owner, _msgSender()) */\n      tag_131\n      jumpi\n      pop\n        /* \"@openzeppelin/contracts/token/ERC721/ERC721.sol\":3781:3818  isApprovedForAll(owner, _msgSender()) */\n      tag_131\n        /* \"@openzeppelin/contracts/token/ERC721/ERC721.sol\":3798:3803  owner */\n      dup2\n        /* \"@openzeppelin/contracts/utils/Context.sol\":719:729  msg.sender */\n      caller\n        /* \"@openzeppelin/contracts/token/ERC721/ERC721.sol\":4503:4665  function isApprovedForAll(address owner, address operator) public view virtual override returns (bool) {... */\n      tag_98\n      jump\t// in\n        /* \"@openzeppelin/contracts/token/ERC721/ERC721.sol\":3781:3818  isApprovedForAll(owner, _msgSender()) */\n    tag_131:\n        /* \"@openzeppelin/contracts/token/ERC721/ERC721.sol\":3735:3900  require(... */\n      tag_133\n      jumpi\n      mload(0x40)\n      shl(0xe5, 0x461bcd)\n      dup2\n      mstore\n        /* \"#utility.yul\":9359:9361   */\n      0x20\n        /* \"@openzeppelin/contracts/token/ERC721/ERC721.sol\":3735:3900  require(... */\n      0x04\n      dup3\n      add\n        /* \"#utility.yul\":9341:9362   */\n      mstore\n        /* \"#utility.yul\":9398:9400   */\n      0x38\n        /* \"#utility.yul\":9378:9396   */\n      0x24\n      dup3\n      add\n        /* \"#utility.yul\":9371:9401   */\n      mstore\n        /* \"#utility.yul\":9437:9471   */\n      0x4552433732313a20617070726f76652063616c6c6572206973206e6f74206f77\n        /* \"#utility.yul\":9417:9435   */\n      0x44\n      dup3\n      add\n        /* \"#utility.yul\":9410:9472   */\n      mstore\n        /* \"#utility.yul\":9508:9534   */\n      0x6e6572206e6f7220617070726f76656420666f7220616c6c0000000000000000\n        /* \"#utility.yul\":9488:9506   */\n      0x64\n      dup3\n      add\n        /* \"#utility.yul\":9481:9535   */\n      mstore\n        /* \"#utility.yul\":9552:9571   */\n      0x84\n      add\n        /* \"@openzeppelin/contracts/token/ERC721/ERC721.sol\":3735:3900  require(... */\n      tag_121\n        /* \"#utility.yul\":9157:9577   */\n      jump\n        /* \"@openzeppelin/contracts/token/ERC721/ERC721.sol\":3735:3900  require(... */\n    tag_133:\n        /* \"@openzeppelin/contracts/token/ERC721/ERC721.sol\":3911:3932  _approve(to, tokenId) */\n      tag_136\n        /* \"@openzeppelin/contracts/token/ERC721/ERC721.sol\":3920:3922  to */\n      dup4\n        /* \"@openzeppelin/contracts/token/ERC721/ERC721.sol\":3924:3931  tokenId */\n      dup4\n        /* \"@openzeppelin/contracts/token/ERC721/ERC721.sol\":3911:3919  _approve */\n      tag_137\n        /* \"@openzeppelin/contracts/token/ERC721/ERC721.sol\":3911:3932  _approve(to, tokenId) */\n      jump\t// in\n    tag_136:\n        /* \"@openzeppelin/contracts/token/ERC721/ERC721.sol\":3608:3939  {... */\n      pop\n        /* \"@openzeppelin/contracts/token/ERC721/ERC721.sol\":3538:3939  function approve(address to, uint256 tokenId) public virtual override {... */\n      pop\n      pop\n      jump\t// out\n        /* \"@openzeppelin/contracts/token/ERC721/ERC721.sol\":4727:5057  function transferFrom(... */\n    tag_49:\n        /* \"@openzeppelin/contracts/token/ERC721/ERC721.sol\":4916:4957  _isApprovedOrOwner(_msgSender(), tokenId) */\n      tag_139\n        /* \"@openzeppelin/contracts/utils/Context.sol\":719:729  msg.sender */\n      caller\n        /* \"@openzeppelin/contracts/token/ERC721/ERC721.sol\":4935:4947  _msgSender() */\n    tag_140:\n        /* \"@openzeppelin/contracts/token/ERC721/ERC721.sol\":4949:4956  tokenId */\n      dup3\n        /* \"@openzeppelin/contracts/token/ERC721/ERC721.sol\":4916:4934  _isApprovedOrOwner */\n      tag_141\n        /* \"@openzeppelin/contracts/token/ERC721/ERC721.sol\":4916:4957  _isApprovedOrOwner(_msgSender(), tokenId) */\n      jump\t// in\n    tag_139:\n        /* \"@openzeppelin/contracts/token/ERC721/ERC721.sol\":4908:5011  require(_isApprovedOrOwner(_msgSender(), tokenId), \"ERC721: transfer caller is not owner nor approved\") */\n      tag_142\n      jumpi\n      mload(0x40)\n      shl(0xe5, 0x461bcd)\n      dup2\n      mstore\n      0x04\n      add\n      tag_121\n      swap1\n      tag_144\n      jump\t// in\n    tag_142:\n        /* \"@openzeppelin/contracts/token/ERC721/ERC721.sol\":5022:5050  _transfer(from, to, tokenId) */\n      tag_136\n        /* \"@openzeppelin/contracts/token/ERC721/ERC721.sol\":5032:5036  from */\n      dup4\n        /* \"@openzeppelin/contracts/token/ERC721/ERC721.sol\":5038:5040  to */\n      dup4\n        /* \"@openzeppelin/contracts/token/ERC721/ERC721.sol\":5042:5049  tokenId */\n      dup4\n        /* \"@openzeppelin/contracts/token/ERC721/ERC721.sol\":5022:5031  _transfer */\n      tag_146\n        /* \"@openzeppelin/contracts/token/ERC721/ERC721.sol\":5022:5050  _transfer(from, to, tokenId) */\n      jump\t// in\n        /* \"@openzeppelin/contracts/token/ERC721/ERC721.sol\":5123:5302  function safeTransferFrom(... */\n    tag_52:\n        /* \"@openzeppelin/contracts/token/ERC721/ERC721.sol\":5256:5295  safeTransferFrom(from, to, tokenId, \"\") */\n      tag_136\n        /* \"@openzeppelin/contracts/token/ERC721/ERC721.sol\":5273:5277  from */\n      dup4\n        /* \"@openzeppelin/contracts/token/ERC721/ERC721.sol\":5279:5281  to */\n      dup4\n        /* \"@openzeppelin/contracts/token/ERC721/ERC721.sol\":5283:5290  tokenId */\n      dup4\n        /* \"@openzeppelin/contracts/token/ERC721/ERC721.sol\":5256:5295  safeTransferFrom(from, to, tokenId, \"\") */\n      mload(0x40)\n      dup1\n      0x20\n      add\n      0x40\n      mstore\n      dup1\n      0x00\n      dup2\n      mstore\n      pop\n        /* \"@openzeppelin/contracts/token/ERC721/ERC721.sol\":5256:5272  safeTransferFrom */\n      tag_85\n        /* \"@openzeppelin/contracts/token/ERC721/ERC721.sol\":5256:5295  safeTransferFrom(from, to, tokenId, \"\") */\n      jump\t// in\n        /* \"@openzeppelin/contracts/token/ERC721/extensions/ERC721Burnable.sol\":529:770  function burn(uint256 tokenId) public virtual {... */\n    tag_55:\n        /* \"@openzeppelin/contracts/token/ERC721/extensions/ERC721Burnable.sol\":645:686  _isApprovedOrOwner(_msgSender(), tokenId) */\n      tag_150\n        /* \"@openzeppelin/contracts/utils/Context.sol\":719:729  msg.sender */\n      caller\n        /* \"@openzeppelin/contracts/token/ERC721/extensions/ERC721Burnable.sol\":664:676  _msgSender() */\n      tag_140\n        /* \"@openzeppelin/contracts/utils/Context.sol\":640:736  function _msgSender() internal view virtual returns (address) {... */\n      jump\n        /* \"@openzeppelin/contracts/token/ERC721/extensions/ERC721Burnable.sol\":645:686  _isApprovedOrOwner(_msgSender(), tokenId) */\n    tag_150:\n        /* \"@openzeppelin/contracts/token/ERC721/extensions/ERC721Burnable.sol\":637:739  require(_isApprovedOrOwner(_msgSender(), tokenId), \"ERC721Burnable: caller is not owner nor approved\") */\n      tag_152\n      jumpi\n      mload(0x40)\n      shl(0xe5, 0x461bcd)\n      dup2\n      mstore\n        /* \"#utility.yul\":13809:13811   */\n      0x20\n        /* \"@openzeppelin/contracts/token/ERC721/extensions/ERC721Burnable.sol\":637:739  require(_isApprovedOrOwner(_msgSender(), tokenId), \"ERC721Burnable: caller is not owner nor approved\") */\n      0x04\n      dup3\n      add\n        /* \"#utility.yul\":13791:13812   */\n      mstore\n        /* \"#utility.yul\":13848:13850   */\n      0x30\n        /* \"#utility.yul\":13828:13846   */\n      0x24\n      dup3\n      add\n        /* \"#utility.yul\":13821:13851   */\n      mstore\n        /* \"#utility.yul\":13887:13921   */\n      0x4552433732314275726e61626c653a2063616c6c6572206973206e6f74206f77\n        /* \"#utility.yul\":13867:13885   */\n      0x44\n      dup3\n      add\n        /* \"#utility.yul\":13860:13922   */\n      mstore\n      shl(0x82, 0x1b995c881b9bdc88185c1c1c9bdd9959)\n        /* \"#utility.yul\":13938:13956   */\n      0x64\n      dup3\n      add\n        /* \"#utility.yul\":13931:13977   */\n      mstore\n        /* \"#utility.yul\":13994:14013   */\n      0x84\n      add\n        /* \"@openzeppelin/contracts/token/ERC721/extensions/ERC721Burnable.sol\":637:739  require(_isApprovedOrOwner(_msgSender(), tokenId), \"ERC721Burnable: caller is not owner nor approved\") */\n      tag_121\n        /* \"#utility.yul\":13607:14019   */\n      jump\n        /* \"@openzeppelin/contracts/token/ERC721/extensions/ERC721Burnable.sol\":637:739  require(_isApprovedOrOwner(_msgSender(), tokenId), \"ERC721Burnable: caller is not owner nor approved\") */\n    tag_152:\n        /* \"@openzeppelin/contracts/token/ERC721/extensions/ERC721Burnable.sol\":749:763  _burn(tokenId) */\n      tag_155\n        /* \"@openzeppelin/contracts/token/ERC721/extensions/ERC721Burnable.sol\":755:762  tokenId */\n      dup2\n        /* \"@openzeppelin/contracts/token/ERC721/extensions/ERC721Burnable.sol\":749:754  _burn */\n      tag_156\n        /* \"@openzeppelin/contracts/token/ERC721/extensions/ERC721Burnable.sol\":749:763  _burn(tokenId) */\n      jump\t// in\n    tag_155:\n        /* \"@openzeppelin/contracts/token/ERC721/extensions/ERC721Burnable.sol\":529:770  function burn(uint256 tokenId) public virtual {... */\n      pop\n      jump\t// out\n        /* \"contracts/sequential.sol\":1077:1176  function setBaseURI(string memory baseURI) public onlyOwner {... */\n    tag_59:\n        /* \"@openzeppelin/contracts/access/Ownable.sol\":1108:1114  _owner */\n      and(sub(shl(0xa0, 0x01), 0x01), sload(0x07))\n        /* \"@openzeppelin/contracts/utils/Context.sol\":719:729  msg.sender */\n      caller\n        /* \"@openzeppelin/contracts/access/Ownable.sol\":1248:1271  owner() == _msgSender() */\n      eq\n        /* \"@openzeppelin/contracts/access/Ownable.sol\":1240:1308  require(owner() == _msgSender(), \"Ownable: caller is not the owner\") */\n      tag_160\n      jumpi\n      mload(0x40)\n      shl(0xe5, 0x461bcd)\n      dup2\n      mstore\n      0x04\n      add\n      tag_121\n      swap1\n      tag_162\n      jump\t// in\n    tag_160:\n        /* \"contracts/sequential.sol\":1147:1169  baseTokenURI = baseURI */\n      dup1\n      mload\n      tag_164\n      swap1\n        /* \"contracts/sequential.sol\":1147:1159  baseTokenURI */\n      0x09\n      swap1\n        /* \"contracts/sequential.sol\":1147:1169  baseTokenURI = baseURI */\n      0x20\n      dup5\n      add\n      swap1\n      tag_165\n      jump\t// in\n    tag_164:\n      pop\n        /* \"contracts/sequential.sol\":1077:1176  function setBaseURI(string memory baseURI) public onlyOwner {... */\n      pop\n      jump\t// out\n        /* \"@openzeppelin/contracts/token/ERC721/ERC721.sol\":2191:2426  function ownerOf(uint256 tokenId) public view virtual override returns (address) {... */\n    tag_62:\n        /* \"@openzeppelin/contracts/token/ERC721/ERC721.sol\":2263:2270  address */\n      0x00\n        /* \"@openzeppelin/contracts/token/ERC721/ERC721.sol\":2298:2314  _owners[tokenId] */\n      dup2\n      dup2\n      mstore\n        /* \"@openzeppelin/contracts/token/ERC721/ERC721.sol\":2298:2305  _owners */\n      0x02\n        /* \"@openzeppelin/contracts/token/ERC721/ERC721.sol\":2298:2314  _owners[tokenId] */\n      0x20\n      mstore\n      0x40\n      dup2\n      keccak256\n      sload\n      sub(shl(0xa0, 0x01), 0x01)\n      and\n        /* \"@openzeppelin/contracts/token/ERC721/ERC721.sol\":2332:2351  owner != address(0) */\n      dup1\n        /* \"@openzeppelin/contracts/token/ERC721/ERC721.sol\":2324:2397  require(owner != address(0), \"ERC721: owner query for nonexistent token\") */\n      tag_108\n      jumpi\n      mload(0x40)\n      shl(0xe5, 0x461bcd)\n      dup2\n      mstore\n        /* \"#utility.yul\":10195:10197   */\n      0x20\n        /* \"@openzeppelin/contracts/token/ERC721/ERC721.sol\":2324:2397  require(owner != address(0), \"ERC721: owner query for nonexistent token\") */\n      0x04\n      dup3\n      add\n        /* \"#utility.yul\":10177:10198   */\n      mstore\n        /* \"#utility.yul\":10234:10236   */\n      0x29\n        /* \"#utility.yul\":10214:10232   */\n      0x24\n      dup3\n      add\n        /* \"#utility.yul\":10207:10237   */\n      mstore\n        /* \"#utility.yul\":10273:10307   */\n      0x4552433732313a206f776e657220717565727920666f72206e6f6e6578697374\n        /* \"#utility.yul\":10253:10271   */\n      0x44\n      dup3\n      add\n        /* \"#utility.yul\":10246:10308   */\n      mstore\n      shl(0xb9, 0x32b73a103a37b5b2b7)\n        /* \"#utility.yul\":10324:10342   */\n      0x64\n      dup3\n      add\n        /* \"#utility.yul\":10317:10356   */\n      mstore\n        /* \"#utility.yul\":10373:10392   */\n      0x84\n      add\n        /* \"@openzeppelin/contracts/token/ERC721/ERC721.sol\":2324:2397  require(owner != address(0), \"ERC721: owner query for nonexistent token\") */\n      tag_121\n        /* \"#utility.yul\":9993:10398   */\n      jump\n        /* \"@openzeppelin/contracts/token/ERC721/ERC721.sol\":1929:2134  function balanceOf(address owner) public view virtual override returns (uint256) {... */\n    tag_67:\n        /* \"@openzeppelin/contracts/token/ERC721/ERC721.sol\":2001:2008  uint256 */\n      0x00\n      sub(shl(0xa0, 0x01), 0x01)\n        /* \"@openzeppelin/contracts/token/ERC721/ERC721.sol\":2028:2047  owner != address(0) */\n      dup3\n      and\n        /* \"@openzeppelin/contracts/token/ERC721/ERC721.sol\":2020:2094  require(owner != address(0), \"ERC721: balance query for the zero address\") */\n      tag_171\n      jumpi\n      mload(0x40)\n      shl(0xe5, 0x461bcd)\n      dup2\n      mstore\n        /* \"#utility.yul\":9784:9786   */\n      0x20\n        /* \"@openzeppelin/contracts/token/ERC721/ERC721.sol\":2020:2094  require(owner != address(0), \"ERC721: balance query for the zero address\") */\n      0x04\n      dup3\n      add\n        /* \"#utility.yul\":9766:9787   */\n      mstore\n        /* \"#utility.yul\":9823:9825   */\n      0x2a\n        /* \"#utility.yul\":9803:9821   */\n      0x24\n      dup3\n      add\n        /* \"#utility.yul\":9796:9826   */\n      mstore\n        /* \"#utility.yul\":9862:9896   */\n      0x4552433732313a2062616c616e636520717565727920666f7220746865207a65\n        /* \"#utility.yul\":9842:9860   */\n      0x44\n      dup3\n      add\n        /* \"#utility.yul\":9835:9897   */\n      mstore\n      shl(0xb0, 0x726f2061646472657373)\n        /* \"#utility.yul\":9913:9931   */\n      0x64\n      dup3\n      add\n        /* \"#utility.yul\":9906:9946   */\n      mstore\n        /* \"#utility.yul\":9963:9982   */\n      0x84\n      add\n        /* \"@openzeppelin/contracts/token/ERC721/ERC721.sol\":2020:2094  require(owner != address(0), \"ERC721: balance query for the zero address\") */\n      tag_121\n        /* \"#utility.yul\":9582:9988   */\n      jump\n        /* \"@openzeppelin/contracts/token/ERC721/ERC721.sol\":2020:2094  require(owner != address(0), \"ERC721: balance query for the zero address\") */\n    tag_171:\n      pop\n      sub(shl(0xa0, 0x01), 0x01)\n        /* \"@openzeppelin/contracts/token/ERC721/ERC721.sol\":2111:2127  _balances[owner] */\n      and\n      0x00\n      swap1\n      dup2\n      mstore\n        /* \"@openzeppelin/contracts/token/ERC721/ERC721.sol\":2111:2120  _balances */\n      0x03\n        /* \"@openzeppelin/contracts/token/ERC721/ERC721.sol\":2111:2127  _balances[owner] */\n      0x20\n      mstore\n      0x40\n      swap1\n      keccak256\n      sload\n      swap1\n        /* \"@openzeppelin/contracts/token/ERC721/ERC721.sol\":1929:2134  function balanceOf(address owner) public view virtual override returns (uint256) {... */\n      jump\t// out\n        /* \"@openzeppelin/contracts/access/Ownable.sol\":1668:1769  function renounceOwnership() public virtual onlyOwner {... */\n    tag_71:\n        /* \"@openzeppelin/contracts/access/Ownable.sol\":1108:1114  _owner */\n      and(sub(shl(0xa0, 0x01), 0x01), sload(0x07))\n        /* \"@openzeppelin/contracts/utils/Context.sol\":719:729  msg.sender */\n      caller\n        /* \"@openzeppelin/contracts/access/Ownable.sol\":1248:1271  owner() == _msgSender() */\n      eq\n        /* \"@openzeppelin/contracts/access/Ownable.sol\":1240:1308  require(owner() == _msgSender(), \"Ownable: caller is not the owner\") */\n      tag_177\n      jumpi\n      mload(0x40)\n      shl(0xe5, 0x461bcd)\n      dup2\n      mstore\n      0x04\n      add\n      tag_121\n      swap1\n      tag_162\n      jump\t// in\n    tag_177:\n        /* \"@openzeppelin/contracts/access/Ownable.sol\":1732:1762  _transferOwnership(address(0)) */\n      tag_180\n        /* \"@openzeppelin/contracts/access/Ownable.sol\":1759:1760  0 */\n      0x00\n        /* \"@openzeppelin/contracts/access/Ownable.sol\":1732:1750  _transferOwnership */\n      tag_181\n        /* \"@openzeppelin/contracts/access/Ownable.sol\":1732:1762  _transferOwnership(address(0)) */\n      jump\t// in\n    tag_180:\n        /* \"@openzeppelin/contracts/access/Ownable.sol\":1668:1769  function renounceOwnership() public virtual onlyOwner {... */\n      jump\t// out\n        /* \"@openzeppelin/contracts/token/ERC721/ERC721.sol\":2650:2752  function symbol() public view virtual override returns (string memory) {... */\n    tag_76:\n        /* \"@openzeppelin/contracts/token/ERC721/ERC721.sol\":2706:2719  string memory */\n      0x60\n        /* \"@openzeppelin/contracts/token/ERC721/ERC721.sol\":2738:2745  _symbol */\n      0x01\n        /* \"@openzeppelin/contracts/token/ERC721/ERC721.sol\":2731:2745  return _symbol */\n      dup1\n      sload\n      tag_111\n      swap1\n      tag_112\n      jump\t// in\n        /* \"@openzeppelin/contracts/token/ERC721/ERC721.sol\":4284:4437  function setApprovalForAll(address operator, bool approved) public virtual override {... */\n    tag_81:\n        /* \"@openzeppelin/contracts/token/ERC721/ERC721.sol\":4378:4430  _setApprovalForAll(_msgSender(), operator, approved) */\n      tag_164\n        /* \"@openzeppelin/contracts/utils/Context.sol\":719:729  msg.sender */\n      caller\n        /* \"@openzeppelin/contracts/token/ERC721/ERC721.sol\":4411:4419  operator */\n      dup4\n        /* \"@openzeppelin/contracts/token/ERC721/ERC721.sol\":4421:4429  approved */\n      dup4\n        /* \"@openzeppelin/contracts/token/ERC721/ERC721.sol\":4378:4396  _setApprovalForAll */\n      tag_192\n        /* \"@openzeppelin/contracts/token/ERC721/ERC721.sol\":4378:4430  _setApprovalForAll(_msgSender(), operator, approved) */\n      jump\t// in\n        /* \"@openzeppelin/contracts/token/ERC721/ERC721.sol\":5368:5688  function safeTransferFrom(... */\n    tag_85:\n        /* \"@openzeppelin/contracts/token/ERC721/ERC721.sol\":5537:5578  _isApprovedOrOwner(_msgSender(), tokenId) */\n      tag_194\n        /* \"@openzeppelin/contracts/utils/Context.sol\":719:729  msg.sender */\n      caller\n        /* \"@openzeppelin/contracts/token/ERC721/ERC721.sol\":5570:5577  tokenId */\n      dup4\n        /* \"@openzeppelin/contracts/token/ERC721/ERC721.sol\":5537:5555  _isApprovedOrOwner */\n      tag_141\n        /* \"@openzeppelin/contracts/token/ERC721/ERC721.sol\":5537:5578  _isApprovedOrOwner(_msgSender(), tokenId) */\n      jump\t// in\n    tag_194:\n        /* \"@openzeppelin/contracts/token/ERC721/ERC721.sol\":5529:5632  require(_isApprovedOrOwner(_msgSender(), tokenId), \"ERC721: transfer caller is not owner nor approved\") */\n      tag_196\n      jumpi\n      mload(0x40)\n      shl(0xe5, 0x461bcd)\n      dup2\n      mstore\n      0x04\n      add\n      tag_121\n      swap1\n      tag_144\n      jump\t// in\n    tag_196:\n        /* \"@openzeppelin/contracts/token/ERC721/ERC721.sol\":5642:5681  _safeTransfer(from, to, tokenId, _data) */\n      tag_198\n        /* \"@openzeppelin/contracts/token/ERC721/ERC721.sol\":5656:5660  from */\n      dup5\n        /* \"@openzeppelin/contracts/token/ERC721/ERC721.sol\":5662:5664  to */\n      dup5\n        /* \"@openzeppelin/contracts/token/ERC721/ERC721.sol\":5666:5673  tokenId */\n      dup5\n        /* \"@openzeppelin/contracts/token/ERC721/ERC721.sol\":5675:5680  _data */\n      dup5\n        /* \"@openzeppelin/contracts/token/ERC721/ERC721.sol\":5642:5655  _safeTransfer */\n      tag_199\n        /* \"@openzeppelin/contracts/token/ERC721/ERC721.sol\":5642:5681  _safeTransfer(from, to, tokenId, _data) */\n      jump\t// in\n    tag_198:\n        /* \"@openzeppelin/contracts/token/ERC721/ERC721.sol\":5368:5688  function safeTransferFrom(... */\n      pop\n      pop\n      pop\n      pop\n      jump\t// out\n        /* \"contracts/sequential.sol\":1182:1371  function tokenURI(uint256 tokenId)... */\n    tag_88:\n        /* \"contracts/sequential.sol\":1305:1318  string memory */\n      0x60\n        /* \"contracts/sequential.sol\":1341:1364  super.tokenURI(tokenId) */\n      tag_108\n        /* \"contracts/sequential.sol\":1356:1363  tokenId */\n      dup3\n        /* \"contracts/sequential.sol\":1341:1355  super.tokenURI */\n      tag_202\n        /* \"contracts/sequential.sol\":1341:1364  super.tokenURI(tokenId) */\n      jump\t// in\n        /* \"contracts/sequential.sol\":628:859  function safeMint(address to, string memory uri) public onlyOwner {... */\n    tag_93:\n        /* \"@openzeppelin/contracts/access/Ownable.sol\":1108:1114  _owner */\n      and(sub(shl(0xa0, 0x01), 0x01), sload(0x07))\n        /* \"@openzeppelin/contracts/utils/Context.sol\":719:729  msg.sender */\n      caller\n        /* \"@openzeppelin/contracts/access/Ownable.sol\":1248:1271  owner() == _msgSender() */\n      eq\n        /* \"@openzeppelin/contracts/access/Ownable.sol\":1240:1308  require(owner() == _msgSender(), \"Ownable: caller is not the owner\") */\n      tag_206\n      jumpi\n      mload(0x40)\n      shl(0xe5, 0x461bcd)\n      dup2\n      mstore\n      0x04\n      add\n      tag_121\n      swap1\n      tag_162\n      jump\t// in\n    tag_206:\n        /* \"contracts/sequential.sol\":704:719  uint256 tokenId */\n      0x00\n        /* \"contracts/sequential.sol\":722:747  _tokenIdCounter.current() */\n      tag_209\n        /* \"contracts/sequential.sol\":722:737  _tokenIdCounter */\n      0x08\n        /* \"@openzeppelin/contracts/utils/Counters.sol\":918:932  counter._value */\n      sload\n      swap1\n        /* \"@openzeppelin/contracts/utils/Counters.sol\":827:939  function current(Counter storage counter) internal view returns (uint256) {... */\n      jump\n        /* \"contracts/sequential.sol\":722:747  _tokenIdCounter.current() */\n    tag_209:\n        /* \"contracts/sequential.sol\":704:747  uint256 tokenId = _tokenIdCounter.current() */\n      swap1\n      pop\n        /* \"contracts/sequential.sol\":757:784  _tokenIdCounter.increment() */\n      tag_211\n        /* \"contracts/sequential.sol\":757:772  _tokenIdCounter */\n      0x08\n        /* \"@openzeppelin/contracts/utils/Counters.sol\":1032:1051  counter._value += 1 */\n      dup1\n      sload\n        /* \"@openzeppelin/contracts/utils/Counters.sol\":1050:1051  1 */\n      0x01\n        /* \"@openzeppelin/contracts/utils/Counters.sol\":1032:1051  counter._value += 1 */\n      add\n      swap1\n      sstore\n        /* \"@openzeppelin/contracts/utils/Counters.sol\":945:1068  function increment(Counter storage counter) internal {... */\n      jump\n        /* \"contracts/sequential.sol\":757:784  _tokenIdCounter.increment() */\n    tag_211:\n        /* \"contracts/sequential.sol\":794:816  _safeMint(to, tokenId) */\n      tag_213\n        /* \"contracts/sequential.sol\":804:806  to */\n      dup4\n        /* \"contracts/sequential.sol\":808:815  tokenId */\n      dup3\n        /* \"contracts/sequential.sol\":794:803  _safeMint */\n      tag_214\n        /* \"contracts/sequential.sol\":794:816  _safeMint(to, tokenId) */\n      jump\t// in\n    tag_213:\n        /* \"contracts/sequential.sol\":826:852  _setTokenURI(tokenId, uri) */\n      tag_136\n        /* \"contracts/sequential.sol\":839:846  tokenId */\n      dup2\n        /* \"contracts/sequential.sol\":848:851  uri */\n      dup4\n        /* \"contracts/sequential.sol\":826:838  _setTokenURI */\n      tag_216\n        /* \"contracts/sequential.sol\":826:852  _setTokenURI(tokenId, uri) */\n      jump\t// in\n        /* \"contracts/sequential.sol\":547:573  string public baseTokenURI */\n    tag_95:\n      0x09\n      dup1\n      sload\n      tag_217\n      swap1\n      tag_112\n      jump\t// in\n    tag_217:\n      dup1\n      0x1f\n      add\n      0x20\n      dup1\n      swap2\n      div\n      mul\n      0x20\n      add\n      mload(0x40)\n      swap1\n      dup2\n      add\n      0x40\n      mstore\n      dup1\n      swap3\n      swap2\n      swap1\n      dup2\n      dup2\n      mstore\n      0x20\n      add\n      dup3\n      dup1\n      sload\n      tag_218\n      swap1\n      tag_112\n      jump\t// in\n    tag_218:\n      dup1\n      iszero\n      tag_219\n      jumpi\n      dup1\n      0x1f\n      lt\n      tag_220\n      jumpi\n      0x0100\n      dup1\n      dup4\n      sload\n      div\n      mul\n      dup4\n      mstore\n      swap2\n      0x20\n      add\n      swap2\n      jump(tag_219)\n    tag_220:\n      dup3\n      add\n      swap2\n      swap1\n      0x00\n      mstore\n      keccak256(0x00, 0x20)\n      swap1\n    tag_221:\n      dup2\n      sload\n      dup2\n      mstore\n      swap1\n      0x01\n      add\n      swap1\n      0x20\n      add\n      dup1\n      dup4\n      gt\n      tag_221\n      jumpi\n      dup3\n      swap1\n      sub\n      0x1f\n      and\n      dup3\n      add\n      swap2\n    tag_219:\n      pop\n      pop\n      pop\n      pop\n      pop\n      dup2\n      jump\t// out\n        /* \"@openzeppelin/contracts/access/Ownable.sol\":1918:2116  function transferOwnership(address newOwner) public virtual onlyOwner {... */\n    tag_104:\n        /* \"@openzeppelin/contracts/access/Ownable.sol\":1108:1114  _owner */\n      and(sub(shl(0xa0, 0x01), 0x01), sload(0x07))\n        /* \"@openzeppelin/contracts/utils/Context.sol\":719:729  msg.sender */\n      caller\n        /* \"@openzeppelin/contracts/access/Ownable.sol\":1248:1271  owner() == _msgSender() */\n      eq\n        /* \"@openzeppelin/contracts/access/Ownable.sol\":1240:1308  require(owner() == _msgSender(), \"Ownable: caller is not the owner\") */\n      tag_226\n      jumpi\n      mload(0x40)\n      shl(0xe5, 0x461bcd)\n      dup2\n      mstore\n      0x04\n      add\n      tag_121\n      swap1\n      tag_162\n      jump\t// in\n    tag_226:\n      sub(shl(0xa0, 0x01), 0x01)\n        /* \"@openzeppelin/contracts/access/Ownable.sol\":2006:2028  newOwner != address(0) */\n      dup2\n      and\n        /* \"@openzeppelin/contracts/access/Ownable.sol\":1998:2071  require(newOwner != address(0), \"Ownable: new owner is the zero address\") */\n      tag_229\n      jumpi\n      mload(0x40)\n      shl(0xe5, 0x461bcd)\n      dup2\n      mstore\n        /* \"#utility.yul\":7017:7019   */\n      0x20\n        /* \"@openzeppelin/contracts/access/Ownable.sol\":1998:2071  require(newOwner != address(0), \"Ownable: new owner is the zero address\") */\n      0x04\n      dup3\n      add\n        /* \"#utility.yul\":6999:7020   */\n      mstore\n        /* \"#utility.yul\":7056:7058   */\n      0x26\n        /* \"#utility.yul\":7036:7054   */\n      0x24\n      dup3\n      add\n        /* \"#utility.yul\":7029:7059   */\n      mstore\n        /* \"#utility.yul\":7095:7129   */\n      0x4f776e61626c653a206e6577206f776e657220697320746865207a65726f2061\n        /* \"#utility.yul\":7075:7093   */\n      0x44\n      dup3\n      add\n        /* \"#utility.yul\":7068:7130   */\n      mstore\n      shl(0xd0, 0x646472657373)\n        /* \"#utility.yul\":7146:7164   */\n      0x64\n      dup3\n      add\n        /* \"#utility.yul\":7139:7175   */\n      mstore\n        /* \"#utility.yul\":7192:7211   */\n      0x84\n      add\n        /* \"@openzeppelin/contracts/access/Ownable.sol\":1998:2071  require(newOwner != address(0), \"Ownable: new owner is the zero address\") */\n      tag_121\n        /* \"#utility.yul\":6815:7217   */\n      jump\n        /* \"@openzeppelin/contracts/access/Ownable.sol\":1998:2071  require(newOwner != address(0), \"Ownable: new owner is the zero address\") */\n    tag_229:\n        /* \"@openzeppelin/contracts/access/Ownable.sol\":2081:2109  _transferOwnership(newOwner) */\n      tag_155\n        /* \"@openzeppelin/contracts/access/Ownable.sol\":2100:2108  newOwner */\n      dup2\n        /* \"@openzeppelin/contracts/access/Ownable.sol\":2081:2099  _transferOwnership */\n      tag_181\n        /* \"@openzeppelin/contracts/access/Ownable.sol\":2081:2109  _transferOwnership(newOwner) */\n      jump\t// in\n        /* \"@openzeppelin/contracts/token/ERC721/ERC721.sol\":7160:7285  function _exists(uint256 tokenId) internal view virtual returns (bool) {... */\n    tag_119:\n        /* \"@openzeppelin/contracts/token/ERC721/ERC721.sol\":7225:7229  bool */\n      0x00\n        /* \"@openzeppelin/contracts/token/ERC721/ERC721.sol\":7248:7264  _owners[tokenId] */\n      swap1\n      dup2\n      mstore\n        /* \"@openzeppelin/contracts/token/ERC721/ERC721.sol\":7248:7255  _owners */\n      0x02\n        /* \"@openzeppelin/contracts/token/ERC721/ERC721.sol\":7248:7264  _owners[tokenId] */\n      0x20\n      mstore\n      0x40\n      swap1\n      keccak256\n      sload\n      sub(shl(0xa0, 0x01), 0x01)\n      and\n        /* \"@openzeppelin/contracts/token/ERC721/ERC721.sol\":7248:7278  _owners[tokenId] != address(0) */\n      iszero\n      iszero\n      swap1\n        /* \"@openzeppelin/contracts/token/ERC721/ERC721.sol\":7160:7285  function _exists(uint256 tokenId) internal view virtual returns (bool) {... */\n      jump\t// out\n        /* \"@openzeppelin/contracts/token/ERC721/ERC721.sol\":11169:11340  function _approve(address to, uint256 tokenId) internal virtual {... */\n    tag_137:\n        /* \"@openzeppelin/contracts/token/ERC721/ERC721.sol\":11243:11267  _tokenApprovals[tokenId] */\n      0x00\n      dup2\n      dup2\n      mstore\n        /* \"@openzeppelin/contracts/token/ERC721/ERC721.sol\":11243:11258  _tokenApprovals */\n      0x04\n        /* \"@openzeppelin/contracts/token/ERC721/ERC721.sol\":11243:11267  _tokenApprovals[tokenId] */\n      0x20\n      mstore\n      0x40\n      swap1\n      keccak256\n        /* \"@openzeppelin/contracts/token/ERC721/ERC721.sol\":11243:11272  _tokenApprovals[tokenId] = to */\n      dup1\n      sload\n      not(sub(shl(0xa0, 0x01), 0x01))\n      and\n      sub(shl(0xa0, 0x01), 0x01)\n      dup5\n      and\n      swap1\n      dup2\n      or\n      swap1\n      swap2\n      sstore\n        /* \"@openzeppelin/contracts/token/ERC721/ERC721.sol\":11243:11267  _tokenApprovals[tokenId] */\n      dup2\n      swap1\n        /* \"@openzeppelin/contracts/token/ERC721/ERC721.sol\":11296:11319  ERC721.ownerOf(tokenId) */\n      tag_237\n        /* \"@openzeppelin/contracts/token/ERC721/ERC721.sol\":11243:11267  _tokenApprovals[tokenId] */\n      dup3\n        /* \"@openzeppelin/contracts/token/ERC721/ERC721.sol\":11296:11310  ERC721.ownerOf */\n      tag_62\n        /* \"@openzeppelin/contracts/token/ERC721/ERC721.sol\":11296:11319  ERC721.ownerOf(tokenId) */\n      jump\t// in\n    tag_237:\n      sub(shl(0xa0, 0x01), 0x01)\n        /* \"@openzeppelin/contracts/token/ERC721/ERC721.sol\":11287:11333  Approval(ERC721.ownerOf(tokenId), to, tokenId) */\n      and\n      0x8c5be1e5ebec7d5bd14f71427d1e84f3dd0314c0f7b2291e5b200ac8c7c3b925\n      mload(0x40)\n      mload(0x40)\n      dup1\n      swap2\n      sub\n      swap1\n      log4\n        /* \"@openzeppelin/contracts/token/ERC721/ERC721.sol\":11169:11340  function _approve(address to, uint256 tokenId) internal virtual {... */\n      pop\n      pop\n      jump\t// out\n        /* \"@openzeppelin/contracts/token/ERC721/ERC721.sol\":7443:7787  function _isApprovedOrOwner(address spender, uint256 tokenId) internal view virtual returns (bool) {... */\n    tag_141:\n        /* \"@openzeppelin/contracts/token/ERC721/ERC721.sol\":7536:7540  bool */\n      0x00\n        /* \"@openzeppelin/contracts/token/ERC721/ERC721.sol\":7560:7576  _exists(tokenId) */\n      tag_239\n        /* \"@openzeppelin/contracts/token/ERC721/ERC721.sol\":7568:7575  tokenId */\n      dup3\n        /* \"@openzeppelin/contracts/token/ERC721/ERC721.sol\":7560:7567  _exists */\n      tag_119\n        /* \"@openzeppelin/contracts/token/ERC721/ERC721.sol\":7560:7576  _exists(tokenId) */\n      jump\t// in\n    tag_239:\n        /* \"@openzeppelin/contracts/token/ERC721/ERC721.sol\":7552:7625  require(_exists(tokenId), \"ERC721: operator query for nonexistent token\") */\n      tag_240\n      jumpi\n      mload(0x40)\n      shl(0xe5, 0x461bcd)\n      dup2\n      mstore\n        /* \"#utility.yul\":8946:8948   */\n      0x20\n        /* \"@openzeppelin/contracts/token/ERC721/ERC721.sol\":7552:7625  require(_exists(tokenId), \"ERC721: operator query for nonexistent token\") */\n      0x04\n      dup3\n      add\n        /* \"#utility.yul\":8928:8949   */\n      mstore\n        /* \"#utility.yul\":8985:8987   */\n      0x2c\n        /* \"#utility.yul\":8965:8983   */\n      0x24\n      dup3\n      add\n        /* \"#utility.yul\":8958:8988   */\n      mstore\n        /* \"#utility.yul\":9024:9058   */\n      0x4552433732313a206f70657261746f7220717565727920666f72206e6f6e6578\n        /* \"#utility.yul\":9004:9022   */\n      0x44\n      dup3\n      add\n        /* \"#utility.yul\":8997:9059   */\n      mstore\n      shl(0xa1, 0x34b9ba32b73a103a37b5b2b7)\n        /* \"#utility.yul\":9075:9093   */\n      0x64\n      dup3\n      add\n        /* \"#utility.yul\":9068:9110   */\n      mstore\n        /* \"#utility.yul\":9127:9146   */\n      0x84\n      add\n        /* \"@openzeppelin/contracts/token/ERC721/ERC721.sol\":7552:7625  require(_exists(tokenId), \"ERC721: operator query for nonexistent token\") */\n      tag_121\n        /* \"#utility.yul\":8744:9152   */\n      jump\n        /* \"@openzeppelin/contracts/token/ERC721/ERC721.sol\":7552:7625  require(_exists(tokenId), \"ERC721: operator query for nonexistent token\") */\n    tag_240:\n        /* \"@openzeppelin/contracts/token/ERC721/ERC721.sol\":7635:7648  address owner */\n      0x00\n        /* \"@openzeppelin/contracts/token/ERC721/ERC721.sol\":7651:7674  ERC721.ownerOf(tokenId) */\n      tag_243\n        /* \"@openzeppelin/contracts/token/ERC721/ERC721.sol\":7666:7673  tokenId */\n      dup4\n        /* \"@openzeppelin/contracts/token/ERC721/ERC721.sol\":7651:7665  ERC721.ownerOf */\n      tag_62\n        /* \"@openzeppelin/contracts/token/ERC721/ERC721.sol\":7651:7674  ERC721.ownerOf(tokenId) */\n      jump\t// in\n    tag_243:\n        /* \"@openzeppelin/contracts/token/ERC721/ERC721.sol\":7635:7674  address owner = ERC721.ownerOf(tokenId) */\n      swap1\n      pop\n        /* \"@openzeppelin/contracts/token/ERC721/ERC721.sol\":7703:7708  owner */\n      dup1\n      sub(shl(0xa0, 0x01), 0x01)\n        /* \"@openzeppelin/contracts/token/ERC721/ERC721.sol\":7692:7708  spender == owner */\n      and\n        /* \"@openzeppelin/contracts/token/ERC721/ERC721.sol\":7692:7699  spender */\n      dup5\n      sub(shl(0xa0, 0x01), 0x01)\n        /* \"@openzeppelin/contracts/token/ERC721/ERC721.sol\":7692:7708  spender == owner */\n      and\n      eq\n        /* \"@openzeppelin/contracts/token/ERC721/ERC721.sol\":7692:7744  spender == owner || isApprovedForAll(owner, spender) */\n      dup1\n      tag_245\n      jumpi\n      pop\n      sub(shl(0xa0, 0x01), 0x01)\n        /* \"@openzeppelin/contracts/token/ERC721/ERC721.sol\":4623:4648  _operatorApprovals[owner] */\n      dup1\n      dup3\n      and\n        /* \"@openzeppelin/contracts/token/ERC721/ERC721.sol\":4600:4604  bool */\n      0x00\n        /* \"@openzeppelin/contracts/token/ERC721/ERC721.sol\":4623:4648  _operatorApprovals[owner] */\n      swap1\n      dup2\n      mstore\n        /* \"@openzeppelin/contracts/token/ERC721/ERC721.sol\":4623:4641  _operatorApprovals */\n      0x05\n        /* \"@openzeppelin/contracts/token/ERC721/ERC721.sol\":4623:4648  _operatorApprovals[owner] */\n      0x20\n      swap1\n      dup2\n      mstore\n      0x40\n      dup1\n      dup4\n      keccak256\n        /* \"@openzeppelin/contracts/token/ERC721/ERC721.sol\":4623:4658  _operatorApprovals[owner][operator] */\n      swap4\n      dup9\n      and\n      dup4\n      mstore\n      swap3\n      swap1\n      mstore\n      keccak256\n      sload\n      0xff\n      and\n        /* \"@openzeppelin/contracts/token/ERC721/ERC721.sol\":7712:7744  isApprovedForAll(owner, spender) */\n    tag_245:\n        /* \"@openzeppelin/contracts/token/ERC721/ERC721.sol\":7692:7779  spender == owner || isApprovedForAll(owner, spender) || getApproved(tokenId) == spender */\n      dup1\n      tag_246\n      jumpi\n      pop\n        /* \"@openzeppelin/contracts/token/ERC721/ERC721.sol\":7772:7779  spender */\n      dup4\n      sub(shl(0xa0, 0x01), 0x01)\n        /* \"@openzeppelin/contracts/token/ERC721/ERC721.sol\":7748:7779  getApproved(tokenId) == spender */\n      and\n        /* \"@openzeppelin/contracts/token/ERC721/ERC721.sol\":7748:7768  getApproved(tokenId) */\n      tag_247\n        /* \"@openzeppelin/contracts/token/ERC721/ERC721.sol\":7760:7767  tokenId */\n      dup5\n        /* \"@openzeppelin/contracts/token/ERC721/ERC721.sol\":7748:7759  getApproved */\n      tag_39\n        /* \"@openzeppelin/contracts/token/ERC721/ERC721.sol\":7748:7768  getApproved(tokenId) */\n      jump\t// in\n    tag_247:\n      sub(shl(0xa0, 0x01), 0x01)\n        /* \"@openzeppelin/contracts/token/ERC721/ERC721.sol\":7748:7779  getApproved(tokenId) == spender */\n      and\n      eq\n        /* \"@openzeppelin/contracts/token/ERC721/ERC721.sol\":7692:7779  spender == owner || isApprovedForAll(owner, spender) || getApproved(tokenId) == spender */\n    tag_246:\n        /* \"@openzeppelin/contracts/token/ERC721/ERC721.sol\":7684:7780  return (spender == owner || isApprovedForAll(owner, spender) || getApproved(tokenId) == spender) */\n      swap5\n        /* \"@openzeppelin/contracts/token/ERC721/ERC721.sol\":7443:7787  function _isApprovedOrOwner(address spender, uint256 tokenId) internal view virtual returns (bool) {... */\n      swap4\n      pop\n      pop\n      pop\n      pop\n      jump\t// out\n        /* \"@openzeppelin/contracts/token/ERC721/ERC721.sol\":10453:11058  function _transfer(... */\n    tag_146:\n        /* \"@openzeppelin/contracts/token/ERC721/ERC721.sol\":10607:10611  from */\n      dup3\n      sub(shl(0xa0, 0x01), 0x01)\n        /* \"@openzeppelin/contracts/token/ERC721/ERC721.sol\":10580:10611  ERC721.ownerOf(tokenId) == from */\n      and\n        /* \"@openzeppelin/contracts/token/ERC721/ERC721.sol\":10580:10603  ERC721.ownerOf(tokenId) */\n      tag_249\n        /* \"@openzeppelin/contracts/token/ERC721/ERC721.sol\":10595:10602  tokenId */\n      dup3\n        /* \"@openzeppelin/contracts/token/ERC721/ERC721.sol\":10580:10594  ERC721.ownerOf */\n      tag_62\n        /* \"@openzeppelin/contracts/token/ERC721/ERC721.sol\":10580:10603  ERC721.ownerOf(tokenId) */\n      jump\t// in\n    tag_249:\n      sub(shl(0xa0, 0x01), 0x01)\n        /* \"@openzeppelin/contracts/token/ERC721/ERC721.sol\":10580:10611  ERC721.ownerOf(tokenId) == from */\n      and\n      eq\n        /* \"@openzeppelin/contracts/token/ERC721/ERC721.sol\":10572:10653  require(ERC721.ownerOf(tokenId) == from, \"ERC721: transfer from incorrect owner\") */\n      tag_250\n      jumpi\n      mload(0x40)\n      shl(0xe5, 0x461bcd)\n      dup2\n      mstore\n        /* \"#utility.yul\":7424:7426   */\n      0x20\n        /* \"@openzeppelin/contracts/token/ERC721/ERC721.sol\":10572:10653  require(ERC721.ownerOf(tokenId) == from, \"ERC721: transfer from incorrect owner\") */\n      0x04\n      dup3\n      add\n        /* \"#utility.yul\":7406:7427   */\n      mstore\n        /* \"#utility.yul\":7463:7465   */\n      0x25\n        /* \"#utility.yul\":7443:7461   */\n      0x24\n      dup3\n      add\n        /* \"#utility.yul\":7436:7466   */\n      mstore\n        /* \"#utility.yul\":7502:7536   */\n      0x4552433732313a207472616e736665722066726f6d20696e636f727265637420\n        /* \"#utility.yul\":7482:7500   */\n      0x44\n      dup3\n      add\n        /* \"#utility.yul\":7475:7537   */\n      mstore\n      shl(0xd9, 0x37bbb732b9)\n        /* \"#utility.yul\":7553:7571   */\n      0x64\n      dup3\n      add\n        /* \"#utility.yul\":7546:7581   */\n      mstore\n        /* \"#utility.yul\":7598:7617   */\n      0x84\n      add\n        /* \"@openzeppelin/contracts/token/ERC721/ERC721.sol\":10572:10653  require(ERC721.ownerOf(tokenId) == from, \"ERC721: transfer from incorrect owner\") */\n      tag_121\n        /* \"#utility.yul\":7222:7623   */\n      jump\n        /* \"@openzeppelin/contracts/token/ERC721/ERC721.sol\":10572:10653  require(ERC721.ownerOf(tokenId) == from, \"ERC721: transfer from incorrect owner\") */\n    tag_250:\n      sub(shl(0xa0, 0x01), 0x01)\n        /* \"@openzeppelin/contracts/token/ERC721/ERC721.sol\":10671:10687  to != address(0) */\n      dup3\n      and\n        /* \"@openzeppelin/contracts/token/ERC721/ERC721.sol\":10663:10728  require(to != address(0), \"ERC721: transfer to the zero address\") */\n      tag_253\n      jumpi\n      mload(0x40)\n      shl(0xe5, 0x461bcd)\n      dup2\n      mstore\n        /* \"#utility.yul\":8187:8189   */\n      0x20\n        /* \"@openzeppelin/contracts/token/ERC721/ERC721.sol\":10663:10728  require(to != address(0), \"ERC721: transfer to the zero address\") */\n      0x04\n      dup3\n      add\n        /* \"#utility.yul\":8169:8190   */\n      mstore\n        /* \"#utility.yul\":8226:8228   */\n      0x24\n        /* \"#utility.yul\":8206:8224   */\n      dup1\n      dup3\n      add\n        /* \"#utility.yul\":8199:8229   */\n      mstore\n        /* \"#utility.yul\":8265:8299   */\n      0x4552433732313a207472616e7366657220746f20746865207a65726f20616464\n        /* \"#utility.yul\":8245:8263   */\n      0x44\n      dup3\n      add\n        /* \"#utility.yul\":8238:8300   */\n      mstore\n      shl(0xe0, 0x72657373)\n        /* \"#utility.yul\":8316:8334   */\n      0x64\n      dup3\n      add\n        /* \"#utility.yul\":8309:8343   */\n      mstore\n        /* \"#utility.yul\":8360:8379   */\n      0x84\n      add\n        /* \"@openzeppelin/contracts/token/ERC721/ERC721.sol\":10663:10728  require(to != address(0), \"ERC721: transfer to the zero address\") */\n      tag_121\n        /* \"#utility.yul\":7985:8385   */\n      jump\n        /* \"@openzeppelin/contracts/token/ERC721/ERC721.sol\":10663:10728  require(to != address(0), \"ERC721: transfer to the zero address\") */\n    tag_253:\n        /* \"@openzeppelin/contracts/token/ERC721/ERC721.sol\":10840:10869  _approve(address(0), tokenId) */\n      tag_258\n        /* \"@openzeppelin/contracts/token/ERC721/ERC721.sol\":10857:10858  0 */\n      0x00\n        /* \"@openzeppelin/contracts/token/ERC721/ERC721.sol\":10861:10868  tokenId */\n      dup3\n        /* \"@openzeppelin/contracts/token/ERC721/ERC721.sol\":10840:10848  _approve */\n      tag_137\n        /* \"@openzeppelin/contracts/token/ERC721/ERC721.sol\":10840:10869  _approve(address(0), tokenId) */\n      jump\t// in\n    tag_258:\n      sub(shl(0xa0, 0x01), 0x01)\n        /* \"@openzeppelin/contracts/token/ERC721/ERC721.sol\":10880:10895  _balances[from] */\n      dup4\n      and\n      0x00\n      swap1\n      dup2\n      mstore\n        /* \"@openzeppelin/contracts/token/ERC721/ERC721.sol\":10880:10889  _balances */\n      0x03\n        /* \"@openzeppelin/contracts/token/ERC721/ERC721.sol\":10880:10895  _balances[from] */\n      0x20\n      mstore\n      0x40\n      dup2\n      keccak256\n        /* \"@openzeppelin/contracts/token/ERC721/ERC721.sol\":10880:10900  _balances[from] -= 1 */\n      dup1\n      sload\n        /* \"@openzeppelin/contracts/token/ERC721/ERC721.sol\":10899:10900  1 */\n      0x01\n      swap3\n        /* \"@openzeppelin/contracts/token/ERC721/ERC721.sol\":10880:10895  _balances[from] */\n      swap1\n        /* \"@openzeppelin/contracts/token/ERC721/ERC721.sol\":10880:10900  _balances[from] -= 1 */\n      tag_259\n      swap1\n        /* \"@openzeppelin/contracts/token/ERC721/ERC721.sol\":10899:10900  1 */\n      dup5\n      swap1\n        /* \"@openzeppelin/contracts/token/ERC721/ERC721.sol\":10880:10900  _balances[from] -= 1 */\n      tag_260\n      jump\t// in\n    tag_259:\n      swap1\n      swap2\n      sstore\n      pop\n      pop\n      sub(shl(0xa0, 0x01), 0x01)\n        /* \"@openzeppelin/contracts/token/ERC721/ERC721.sol\":10910:10923  _balances[to] */\n      dup3\n      and\n      0x00\n      swap1\n      dup2\n      mstore\n        /* \"@openzeppelin/contracts/token/ERC721/ERC721.sol\":10910:10919  _balances */\n      0x03\n        /* \"@openzeppelin/contracts/token/ERC721/ERC721.sol\":10910:10923  _balances[to] */\n      0x20\n      mstore\n      0x40\n      dup2\n      keccak256\n        /* \"@openzeppelin/contracts/token/ERC721/ERC721.sol\":10910:10928  _balances[to] += 1 */\n      dup1\n      sload\n        /* \"@openzeppelin/contracts/token/ERC721/ERC721.sol\":10927:10928  1 */\n      0x01\n      swap3\n        /* \"@openzeppelin/contracts/token/ERC721/ERC721.sol\":10910:10923  _balances[to] */\n      swap1\n        /* \"@openzeppelin/contracts/token/ERC721/ERC721.sol\":10910:10928  _balances[to] += 1 */\n      tag_261\n      swap1\n        /* \"@openzeppelin/contracts/token/ERC721/ERC721.sol\":10927:10928  1 */\n      dup5\n      swap1\n        /* \"@openzeppelin/contracts/token/ERC721/ERC721.sol\":10910:10928  _balances[to] += 1 */\n      tag_262\n      jump\t// in\n    tag_261:\n      swap1\n      swap2\n      sstore\n      pop\n      pop\n        /* \"@openzeppelin/contracts/token/ERC721/ERC721.sol\":10938:10954  _owners[tokenId] */\n      0x00\n      dup2\n      dup2\n      mstore\n        /* \"@openzeppelin/contracts/token/ERC721/ERC721.sol\":10938:10945  _owners */\n      0x02\n        /* \"@openzeppelin/contracts/token/ERC721/ERC721.sol\":10938:10954  _owners[tokenId] */\n      0x20\n      mstore\n      0x40\n      dup1\n      dup3\n      keccak256\n        /* \"@openzeppelin/contracts/token/ERC721/ERC721.sol\":10938:10959  _owners[tokenId] = to */\n      dup1\n      sload\n      not(sub(shl(0xa0, 0x01), 0x01))\n      and\n      sub(shl(0xa0, 0x01), 0x01)\n      dup7\n      dup2\n      and\n      swap2\n      dup3\n      or\n      swap1\n      swap3\n      sstore\n        /* \"@openzeppelin/contracts/token/ERC721/ERC721.sol\":10975:11002  Transfer(from, to, tokenId) */\n      swap2\n      mload\n        /* \"@openzeppelin/contracts/token/ERC721/ERC721.sol\":10938:10954  _owners[tokenId] */\n      dup5\n      swap4\n        /* \"@openzeppelin/contracts/token/ERC721/ERC721.sol\":10975:11002  Transfer(from, to, tokenId) */\n      swap2\n      dup8\n      and\n      swap2\n      0xddf252ad1be2c89b69c2b068fc378daa952ba7f163c4a11628f55a4df523b3ef\n      swap2\n      log4\n        /* \"@openzeppelin/contracts/token/ERC721/ERC721.sol\":3608:3939  {... */\n      pop\n        /* \"@openzeppelin/contracts/token/ERC721/ERC721.sol\":3538:3939  function approve(address to, uint256 tokenId) public virtual override {... */\n      pop\n      pop\n      jump\t// out\n        /* \"contracts/sequential.sol\":933:1046  function _burn(uint256 tokenId) internal override(ERC721, ERC721URIStorage) {... */\n    tag_156:\n        /* \"contracts/sequential.sol\":1019:1039  super._burn(tokenId) */\n      tag_155\n        /* \"contracts/sequential.sol\":1031:1038  tokenId */\n      dup2\n        /* \"contracts/sequential.sol\":1019:1030  super._burn */\n      tag_267\n        /* \"contracts/sequential.sol\":1019:1039  super._burn(tokenId) */\n      jump\t// in\n        /* \"@openzeppelin/contracts/access/Ownable.sol\":2270:2457  function _transferOwnership(address newOwner) internal virtual {... */\n    tag_181:\n        /* \"@openzeppelin/contracts/access/Ownable.sol\":2362:2368  _owner */\n      0x07\n      dup1\n      sload\n      sub(shl(0xa0, 0x01), 0x01)\n        /* \"@openzeppelin/contracts/access/Ownable.sol\":2378:2395  _owner = newOwner */\n      dup4\n      dup2\n      and\n      not(sub(shl(0xa0, 0x01), 0x01))\n      dup4\n      and\n      dup2\n      or\n      swap1\n      swap4\n      sstore\n        /* \"@openzeppelin/contracts/access/Ownable.sol\":2410:2450  OwnershipTransferred(oldOwner, newOwner) */\n      mload(0x40)\n        /* \"@openzeppelin/contracts/access/Ownable.sol\":2362:2368  _owner */\n      swap2\n      and\n      swap2\n        /* \"@openzeppelin/contracts/access/Ownable.sol\":2378:2395  _owner = newOwner */\n      swap1\n        /* \"@openzeppelin/contracts/access/Ownable.sol\":2362:2368  _owner */\n      dup3\n      swap1\n        /* \"@openzeppelin/contracts/access/Ownable.sol\":2410:2450  OwnershipTransferred(oldOwner, newOwner) */\n      0x8be0079c531659141344cd1fd0a4f28419497f9722a3daafe3b4186f6b6457e0\n      swap1\n        /* \"@openzeppelin/contracts/access/Ownable.sol\":2343:2359  address oldOwner */\n      0x00\n      swap1\n        /* \"@openzeppelin/contracts/access/Ownable.sol\":2410:2450  OwnershipTransferred(oldOwner, newOwner) */\n      log3\n        /* \"@openzeppelin/contracts/access/Ownable.sol\":2333:2457  {... */\n      pop\n        /* \"@openzeppelin/contracts/access/Ownable.sol\":2270:2457  function _transferOwnership(address newOwner) internal virtual {... */\n      pop\n      jump\t// out\n        /* \"@openzeppelin/contracts/token/ERC721/ERC721.sol\":11475:11782  function _setApprovalForAll(... */\n    tag_192:\n        /* \"@openzeppelin/contracts/token/ERC721/ERC721.sol\":11625:11633  operator */\n      dup2\n      sub(shl(0xa0, 0x01), 0x01)\n        /* \"@openzeppelin/contracts/token/ERC721/ERC721.sol\":11616:11633  owner != operator */\n      and\n        /* \"@openzeppelin/contracts/token/ERC721/ERC721.sol\":11616:11621  owner */\n      dup4\n      sub(shl(0xa0, 0x01), 0x01)\n        /* \"@openzeppelin/contracts/token/ERC721/ERC721.sol\":11616:11633  owner != operator */\n      and\n      eq\n      iszero\n        /* \"@openzeppelin/contracts/token/ERC721/ERC721.sol\":11608:11663  require(owner != operator, \"ERC721: approve to caller\") */\n      tag_270\n      jumpi\n      mload(0x40)\n      shl(0xe5, 0x461bcd)\n      dup2\n      mstore\n        /* \"#utility.yul\":8592:8594   */\n      0x20\n        /* \"@openzeppelin/contracts/token/ERC721/ERC721.sol\":11608:11663  require(owner != operator, \"ERC721: approve to caller\") */\n      0x04\n      dup3\n      add\n        /* \"#utility.yul\":8574:8595   */\n      mstore\n        /* \"#utility.yul\":8631:8633   */\n      0x19\n        /* \"#utility.yul\":8611:8629   */\n      0x24\n      dup3\n      add\n        /* \"#utility.yul\":8604:8634   */\n      mstore\n        /* \"#utility.yul\":8670:8697   */\n      0x4552433732313a20617070726f766520746f2063616c6c657200000000000000\n        /* \"#utility.yul\":8650:8668   */\n      0x44\n      dup3\n      add\n        /* \"#utility.yul\":8643:8698   */\n      mstore\n        /* \"#utility.yul\":8715:8733   */\n      0x64\n      add\n        /* \"@openzeppelin/contracts/token/ERC721/ERC721.sol\":11608:11663  require(owner != operator, \"ERC721: approve to caller\") */\n      tag_121\n        /* \"#utility.yul\":8390:8739   */\n      jump\n        /* \"@openzeppelin/contracts/token/ERC721/ERC721.sol\":11608:11663  require(owner != operator, \"ERC721: approve to caller\") */\n    tag_270:\n      sub(shl(0xa0, 0x01), 0x01)\n        /* \"@openzeppelin/contracts/token/ERC721/ERC721.sol\":11673:11698  _operatorApprovals[owner] */\n      dup4\n      dup2\n      and\n      0x00\n      dup2\n      dup2\n      mstore\n        /* \"@openzeppelin/contracts/token/ERC721/ERC721.sol\":11673:11691  _operatorApprovals */\n      0x05\n        /* \"@openzeppelin/contracts/token/ERC721/ERC721.sol\":11673:11698  _operatorApprovals[owner] */\n      0x20\n      swap1\n      dup2\n      mstore\n      0x40\n      dup1\n      dup4\n      keccak256\n        /* \"@openzeppelin/contracts/token/ERC721/ERC721.sol\":11673:11708  _operatorApprovals[owner][operator] */\n      swap5\n      dup8\n      and\n      dup1\n      dup5\n      mstore\n      swap5\n      dup3\n      mstore\n      swap2\n      dup3\n      swap1\n      keccak256\n        /* \"@openzeppelin/contracts/token/ERC721/ERC721.sol\":11673:11719  _operatorApprovals[owner][operator] = approved */\n      dup1\n      sload\n      not(0xff)\n      and\n      dup7\n      iszero\n      iszero\n      swap1\n      dup2\n      or\n      swap1\n      swap2\n      sstore\n        /* \"@openzeppelin/contracts/token/ERC721/ERC721.sol\":11734:11775  ApprovalForAll(owner, operator, approved) */\n      swap2\n      mload\n        /* \"#utility.yul\":6120:6161   */\n      swap2\n      dup3\n      mstore\n        /* \"@openzeppelin/contracts/token/ERC721/ERC721.sol\":11734:11775  ApprovalForAll(owner, operator, approved) */\n      0x17307eab39ab6107e8899845ad3d59bd9653f200f220920489ca2b5937696c31\n      swap2\n        /* \"#utility.yul\":6093:6111   */\n      add\n        /* \"@openzeppelin/contracts/token/ERC721/ERC721.sol\":11734:11775  ApprovalForAll(owner, operator, approved) */\n      mload(0x40)\n      dup1\n      swap2\n      sub\n      swap1\n      log3\n        /* \"@openzeppelin/contracts/token/ERC721/ERC721.sol\":11475:11782  function _setApprovalForAll(... */\n      pop\n      pop\n      pop\n      jump\t// out\n        /* \"@openzeppelin/contracts/token/ERC721/ERC721.sol\":6550:6857  function _safeTransfer(... */\n    tag_199:\n        /* \"@openzeppelin/contracts/token/ERC721/ERC721.sol\":6701:6729  _transfer(from, to, tokenId) */\n      tag_275\n        /* \"@openzeppelin/contracts/token/ERC721/ERC721.sol\":6711:6715  from */\n      dup5\n        /* \"@openzeppelin/contracts/token/ERC721/ERC721.sol\":6717:6719  to */\n      dup5\n        /* \"@openzeppelin/contracts/token/ERC721/ERC721.sol\":6721:6728  tokenId */\n      dup5\n        /* \"@openzeppelin/contracts/token/ERC721/ERC721.sol\":6701:6710  _transfer */\n      tag_146\n        /* \"@openzeppelin/contracts/token/ERC721/ERC721.sol\":6701:6729  _transfer(from, to, tokenId) */\n      jump\t// in\n    tag_275:\n        /* \"@openzeppelin/contracts/token/ERC721/ERC721.sol\":6747:6795  _checkOnERC721Received(from, to, tokenId, _data) */\n      tag_276\n        /* \"@openzeppelin/contracts/token/ERC721/ERC721.sol\":6770:6774  from */\n      dup5\n        /* \"@openzeppelin/contracts/token/ERC721/ERC721.sol\":6776:6778  to */\n      dup5\n        /* \"@openzeppelin/contracts/token/ERC721/ERC721.sol\":6780:6787  tokenId */\n      dup5\n        /* \"@openzeppelin/contracts/token/ERC721/ERC721.sol\":6789:6794  _data */\n      dup5\n        /* \"@openzeppelin/contracts/token/ERC721/ERC721.sol\":6747:6769  _checkOnERC721Received */\n      tag_277\n        /* \"@openzeppelin/contracts/token/ERC721/ERC721.sol\":6747:6795  _checkOnERC721Received(from, to, tokenId, _data) */\n      jump\t// in\n    tag_276:\n        /* \"@openzeppelin/contracts/token/ERC721/ERC721.sol\":6739:6850  require(_checkOnERC721Received(from, to, tokenId, _data), \"ERC721: transfer to non ERC721Receiver implementer\") */\n      tag_198\n      jumpi\n      mload(0x40)\n      shl(0xe5, 0x461bcd)\n      dup2\n      mstore\n      0x04\n      add\n      tag_121\n      swap1\n      tag_280\n      jump\t// in\n        /* \"@openzeppelin/contracts/token/ERC721/extensions/ERC721URIStorage.sol\":467:1130  function tokenURI(uint256 tokenId) public view virtual override returns (string memory) {... */\n    tag_202:\n        /* \"@openzeppelin/contracts/token/ERC721/extensions/ERC721URIStorage.sol\":540:553  string memory */\n      0x60\n        /* \"@openzeppelin/contracts/token/ERC721/extensions/ERC721URIStorage.sol\":573:589  _exists(tokenId) */\n      tag_282\n        /* \"@openzeppelin/contracts/token/ERC721/extensions/ERC721URIStorage.sol\":581:588  tokenId */\n      dup3\n        /* \"@openzeppelin/contracts/token/ERC721/extensions/ERC721URIStorage.sol\":573:580  _exists */\n      tag_119\n        /* \"@openzeppelin/contracts/token/ERC721/extensions/ERC721URIStorage.sol\":573:589  _exists(tokenId) */\n      jump\t// in\n    tag_282:\n        /* \"@openzeppelin/contracts/token/ERC721/extensions/ERC721URIStorage.sol\":565:643  require(_exists(tokenId), \"ERC721URIStorage: URI query for nonexistent token\") */\n      tag_283\n      jumpi\n      mload(0x40)\n      shl(0xe5, 0x461bcd)\n      dup2\n      mstore\n        /* \"#utility.yul\":11381:11383   */\n      0x20\n        /* \"@openzeppelin/contracts/token/ERC721/extensions/ERC721URIStorage.sol\":565:643  require(_exists(tokenId), \"ERC721URIStorage: URI query for nonexistent token\") */\n      0x04\n      dup3\n      add\n        /* \"#utility.yul\":11363:11384   */\n      mstore\n        /* \"#utility.yul\":11420:11422   */\n      0x31\n        /* \"#utility.yul\":11400:11418   */\n      0x24\n      dup3\n      add\n        /* \"#utility.yul\":11393:11423   */\n      mstore\n        /* \"#utility.yul\":11459:11493   */\n      0x45524337323155524953746f726167653a2055524920717565727920666f7220\n        /* \"#utility.yul\":11439:11457   */\n      0x44\n      dup3\n      add\n        /* \"#utility.yul\":11432:11494   */\n      mstore\n      shl(0x79, 0x3737b732bc34b9ba32b73a103a37b5b2b7)\n        /* \"#utility.yul\":11510:11528   */\n      0x64\n      dup3\n      add\n        /* \"#utility.yul\":11503:11550   */\n      mstore\n        /* \"#utility.yul\":11567:11586   */\n      0x84\n      add\n        /* \"@openzeppelin/contracts/token/ERC721/extensions/ERC721URIStorage.sol\":565:643  require(_exists(tokenId), \"ERC721URIStorage: URI query for nonexistent token\") */\n      tag_121\n        /* \"#utility.yul\":11179:11592   */\n      jump\n        /* \"@openzeppelin/contracts/token/ERC721/extensions/ERC721URIStorage.sol\":565:643  require(_exists(tokenId), \"ERC721URIStorage: URI query for nonexistent token\") */\n    tag_283:\n        /* \"@openzeppelin/contracts/token/ERC721/extensions/ERC721URIStorage.sol\":654:677  string memory _tokenURI */\n      0x00\n        /* \"@openzeppelin/contracts/token/ERC721/extensions/ERC721URIStorage.sol\":680:699  _tokenURIs[tokenId] */\n      dup3\n      dup2\n      mstore\n        /* \"@openzeppelin/contracts/token/ERC721/extensions/ERC721URIStorage.sol\":680:690  _tokenURIs */\n      0x06\n        /* \"@openzeppelin/contracts/token/ERC721/extensions/ERC721URIStorage.sol\":680:699  _tokenURIs[tokenId] */\n      0x20\n      mstore\n      0x40\n      dup2\n      keccak256\n        /* \"@openzeppelin/contracts/token/ERC721/extensions/ERC721URIStorage.sol\":654:699  string memory _tokenURI = _tokenURIs[tokenId] */\n      dup1\n      sload\n      tag_286\n      swap1\n      tag_112\n      jump\t// in\n    tag_286:\n      dup1\n      0x1f\n      add\n      0x20\n      dup1\n      swap2\n      div\n      mul\n      0x20\n      add\n      mload(0x40)\n      swap1\n      dup2\n      add\n      0x40\n      mstore\n      dup1\n      swap3\n      swap2\n      swap1\n      dup2\n      dup2\n      mstore\n      0x20\n      add\n      dup3\n      dup1\n      sload\n      tag_287\n      swap1\n      tag_112\n      jump\t// in\n    tag_287:\n      dup1\n      iszero\n      tag_288\n      jumpi\n      dup1\n      0x1f\n      lt\n      tag_289\n      jumpi\n      0x0100\n      dup1\n      dup4\n      sload\n      div\n      mul\n      dup4\n      mstore\n      swap2\n      0x20\n      add\n      swap2\n      jump(tag_288)\n    tag_289:\n      dup3\n      add\n      swap2\n      swap1\n      0x00\n      mstore\n      keccak256(0x00, 0x20)\n      swap1\n    tag_290:\n      dup2\n      sload\n      dup2\n      mstore\n      swap1\n      0x01\n      add\n      swap1\n      0x20\n      add\n      dup1\n      dup4\n      gt\n      tag_290\n      jumpi\n      dup3\n      swap1\n      sub\n      0x1f\n      and\n      dup3\n      add\n      swap2\n    tag_288:\n      pop\n      pop\n      pop\n      pop\n      pop\n      swap1\n      pop\n        /* \"@openzeppelin/contracts/token/ERC721/extensions/ERC721URIStorage.sol\":709:727  string memory base */\n      0x00\n        /* \"@openzeppelin/contracts/token/ERC721/extensions/ERC721URIStorage.sol\":730:740  _baseURI() */\n      tag_291\n        /* \"@openzeppelin/contracts/token/ERC721/ERC721.sol\":3465:3474  return \"\" */\n      0x40\n      dup1\n      mload\n      0x20\n      dup2\n      add\n      swap1\n      swap2\n      mstore\n      0x00\n      dup2\n      mstore\n      swap1\n        /* \"@openzeppelin/contracts/token/ERC721/ERC721.sol\":3389:3481  function _baseURI() internal view virtual returns (string memory) {... */\n      jump\n        /* \"@openzeppelin/contracts/token/ERC721/extensions/ERC721URIStorage.sol\":730:740  _baseURI() */\n    tag_291:\n        /* \"@openzeppelin/contracts/token/ERC721/extensions/ERC721URIStorage.sol\":709:740  string memory base = _baseURI() */\n      swap1\n      pop\n        /* \"@openzeppelin/contracts/token/ERC721/extensions/ERC721URIStorage.sol\":819:823  base */\n      dup1\n        /* \"@openzeppelin/contracts/token/ERC721/extensions/ERC721URIStorage.sol\":813:831  bytes(base).length */\n      mload\n        /* \"@openzeppelin/contracts/token/ERC721/extensions/ERC721URIStorage.sol\":835:836  0 */\n      0x00\n        /* \"@openzeppelin/contracts/token/ERC721/extensions/ERC721URIStorage.sol\":813:836  bytes(base).length == 0 */\n      eq\n        /* \"@openzeppelin/contracts/token/ERC721/extensions/ERC721URIStorage.sol\":809:879  if (bytes(base).length == 0) {... */\n      iszero\n      tag_293\n      jumpi\n      pop\n        /* \"@openzeppelin/contracts/token/ERC721/extensions/ERC721URIStorage.sol\":859:868  _tokenURI */\n      swap3\n        /* \"@openzeppelin/contracts/token/ERC721/extensions/ERC721URIStorage.sol\":467:1130  function tokenURI(uint256 tokenId) public view virtual override returns (string memory) {... */\n      swap2\n      pop\n      pop\n      jump\t// out\n        /* \"@openzeppelin/contracts/token/ERC721/extensions/ERC721URIStorage.sol\":809:879  if (bytes(base).length == 0) {... */\n    tag_293:\n        /* \"@openzeppelin/contracts/token/ERC721/extensions/ERC721URIStorage.sol\":981:1004  bytes(_tokenURI).length */\n      dup2\n      mload\n        /* \"@openzeppelin/contracts/token/ERC721/extensions/ERC721URIStorage.sol\":981:1008  bytes(_tokenURI).length > 0 */\n      iszero\n        /* \"@openzeppelin/contracts/token/ERC721/extensions/ERC721URIStorage.sol\":977:1083  if (bytes(_tokenURI).length > 0) {... */\n      tag_294\n      jumpi\n        /* \"@openzeppelin/contracts/token/ERC721/extensions/ERC721URIStorage.sol\":1055:1059  base */\n      dup1\n        /* \"@openzeppelin/contracts/token/ERC721/extensions/ERC721URIStorage.sol\":1061:1070  _tokenURI */\n      dup3\n        /* \"@openzeppelin/contracts/token/ERC721/extensions/ERC721URIStorage.sol\":1038:1071  abi.encodePacked(base, _tokenURI) */\n      add(0x20, mload(0x40))\n      tag_295\n      swap3\n      swap2\n      swap1\n      tag_296\n      jump\t// in\n    tag_295:\n      mload(0x40)\n      0x20\n      dup2\n      dup4\n      sub\n      sub\n      dup2\n      mstore\n      swap1\n      0x40\n      mstore\n        /* \"@openzeppelin/contracts/token/ERC721/extensions/ERC721URIStorage.sol\":1024:1072  return string(abi.encodePacked(base, _tokenURI)) */\n      swap3\n      pop\n      pop\n      pop\n        /* \"@openzeppelin/contracts/token/ERC721/extensions/ERC721URIStorage.sol\":467:1130  function tokenURI(uint256 tokenId) public view virtual override returns (string memory) {... */\n      swap2\n      swap1\n      pop\n      jump\t// out\n        /* \"@openzeppelin/contracts/token/ERC721/extensions/ERC721URIStorage.sol\":977:1083  if (bytes(_tokenURI).length > 0) {... */\n    tag_294:\n        /* \"@openzeppelin/contracts/token/ERC721/extensions/ERC721URIStorage.sol\":1100:1123  super.tokenURI(tokenId) */\n      tag_246\n        /* \"@openzeppelin/contracts/token/ERC721/extensions/ERC721URIStorage.sol\":1115:1122  tokenId */\n      dup5\n        /* \"@openzeppelin/contracts/token/ERC721/extensions/ERC721URIStorage.sol\":1100:1114  super.tokenURI */\n      tag_298\n        /* \"@openzeppelin/contracts/token/ERC721/extensions/ERC721URIStorage.sol\":1100:1123  super.tokenURI(tokenId) */\n      jump\t// in\n        /* \"@openzeppelin/contracts/token/ERC721/ERC721.sol\":8117:8225  function _safeMint(address to, uint256 tokenId) internal virtual {... */\n    tag_214:\n        /* \"@openzeppelin/contracts/token/ERC721/ERC721.sol\":8192:8218  _safeMint(to, tokenId, \"\") */\n      tag_164\n        /* \"@openzeppelin/contracts/token/ERC721/ERC721.sol\":8202:8204  to */\n      dup3\n        /* \"@openzeppelin/contracts/token/ERC721/ERC721.sol\":8206:8213  tokenId */\n      dup3\n        /* \"@openzeppelin/contracts/token/ERC721/ERC721.sol\":8192:8218  _safeMint(to, tokenId, \"\") */\n      mload(0x40)\n      dup1\n      0x20\n      add\n      0x40\n      mstore\n      dup1\n      0x00\n      dup2\n      mstore\n      pop\n        /* \"@openzeppelin/contracts/token/ERC721/ERC721.sol\":8192:8201  _safeMint */\n      tag_303\n        /* \"@openzeppelin/contracts/token/ERC721/ERC721.sol\":8192:8218  _safeMint(to, tokenId, \"\") */\n      jump\t// in\n        /* \"@openzeppelin/contracts/token/ERC721/extensions/ERC721URIStorage.sol\":1277:1491  function _setTokenURI(uint256 tokenId, string memory _tokenURI) internal virtual {... */\n    tag_216:\n        /* \"@openzeppelin/contracts/token/ERC721/extensions/ERC721URIStorage.sol\":1376:1392  _exists(tokenId) */\n      tag_305\n        /* \"@openzeppelin/contracts/token/ERC721/extensions/ERC721URIStorage.sol\":1384:1391  tokenId */\n      dup3\n        /* \"@openzeppelin/contracts/token/ERC721/extensions/ERC721URIStorage.sol\":1376:1383  _exists */\n      tag_119\n        /* \"@openzeppelin/contracts/token/ERC721/extensions/ERC721URIStorage.sol\":1376:1392  _exists(tokenId) */\n      jump\t// in\n    tag_305:\n        /* \"@openzeppelin/contracts/token/ERC721/extensions/ERC721URIStorage.sol\":1368:1443  require(_exists(tokenId), \"ERC721URIStorage: URI set of nonexistent token\") */\n      tag_306\n      jumpi\n      mload(0x40)\n      shl(0xe5, 0x461bcd)\n      dup2\n      mstore\n        /* \"#utility.yul\":10605:10607   */\n      0x20\n        /* \"@openzeppelin/contracts/token/ERC721/extensions/ERC721URIStorage.sol\":1368:1443  require(_exists(tokenId), \"ERC721URIStorage: URI set of nonexistent token\") */\n      0x04\n      dup3\n      add\n        /* \"#utility.yul\":10587:10608   */\n      mstore\n        /* \"#utility.yul\":10644:10646   */\n      0x2e\n        /* \"#utility.yul\":10624:10642   */\n      0x24\n      dup3\n      add\n        /* \"#utility.yul\":10617:10647   */\n      mstore\n        /* \"#utility.yul\":10683:10717   */\n      0x45524337323155524953746f726167653a2055524920736574206f66206e6f6e\n        /* \"#utility.yul\":10663:10681   */\n      0x44\n      dup3\n      add\n        /* \"#utility.yul\":10656:10718   */\n      mstore\n      shl(0x91, 0x32bc34b9ba32b73a103a37b5b2b7)\n        /* \"#utility.yul\":10734:10752   */\n      0x64\n      dup3\n      add\n        /* \"#utility.yul\":10727:10771   */\n      mstore\n        /* \"#utility.yul\":10788:10807   */\n      0x84\n      add\n        /* \"@openzeppelin/contracts/token/ERC721/extensions/ERC721URIStorage.sol\":1368:1443  require(_exists(tokenId), \"ERC721URIStorage: URI set of nonexistent token\") */\n      tag_121\n        /* \"#utility.yul\":10403:10813   */\n      jump\n        /* \"@openzeppelin/contracts/token/ERC721/extensions/ERC721URIStorage.sol\":1368:1443  require(_exists(tokenId), \"ERC721URIStorage: URI set of nonexistent token\") */\n    tag_306:\n        /* \"@openzeppelin/contracts/token/ERC721/extensions/ERC721URIStorage.sol\":1453:1472  _tokenURIs[tokenId] */\n      0x00\n      dup3\n      dup2\n      mstore\n        /* \"@openzeppelin/contracts/token/ERC721/extensions/ERC721URIStorage.sol\":1453:1463  _tokenURIs */\n      0x06\n        /* \"@openzeppelin/contracts/token/ERC721/extensions/ERC721URIStorage.sol\":1453:1472  _tokenURIs[tokenId] */\n      0x20\n      swap1\n      dup2\n      mstore\n      0x40\n      swap1\n      swap2\n      keccak256\n        /* \"@openzeppelin/contracts/token/ERC721/extensions/ERC721URIStorage.sol\":1453:1484  _tokenURIs[tokenId] = _tokenURI */\n      dup3\n      mload\n      tag_136\n      swap3\n      dup5\n      add\n      swap1\n      tag_165\n      jump\t// in\n        /* \"@openzeppelin/contracts/token/ERC721/extensions/ERC721URIStorage.sol\":1708:1908  function _burn(uint256 tokenId) internal virtual override {... */\n    tag_267:\n        /* \"@openzeppelin/contracts/token/ERC721/extensions/ERC721URIStorage.sol\":1776:1796  super._burn(tokenId) */\n      tag_313\n        /* \"@openzeppelin/contracts/token/ERC721/extensions/ERC721URIStorage.sol\":1788:1795  tokenId */\n      dup2\n        /* \"@openzeppelin/contracts/token/ERC721/extensions/ERC721URIStorage.sol\":1776:1787  super._burn */\n      tag_314\n        /* \"@openzeppelin/contracts/token/ERC721/extensions/ERC721URIStorage.sol\":1776:1796  super._burn(tokenId) */\n      jump\t// in\n    tag_313:\n        /* \"@openzeppelin/contracts/token/ERC721/extensions/ERC721URIStorage.sol\":1817:1836  _tokenURIs[tokenId] */\n      0x00\n      dup2\n      dup2\n      mstore\n        /* \"@openzeppelin/contracts/token/ERC721/extensions/ERC721URIStorage.sol\":1817:1827  _tokenURIs */\n      0x06\n        /* \"@openzeppelin/contracts/token/ERC721/extensions/ERC721URIStorage.sol\":1817:1836  _tokenURIs[tokenId] */\n      0x20\n      mstore\n      0x40\n      swap1\n      keccak256\n        /* \"@openzeppelin/contracts/token/ERC721/extensions/ERC721URIStorage.sol\":1811:1844  bytes(_tokenURIs[tokenId]).length */\n      dup1\n      sload\n      tag_315\n      swap1\n      tag_112\n      jump\t// in\n    tag_315:\n        /* \"@openzeppelin/contracts/token/ERC721/extensions/ERC721URIStorage.sol\":1811:1849  bytes(_tokenURIs[tokenId]).length != 0 */\n      iszero\n      swap1\n      pop\n        /* \"@openzeppelin/contracts/token/ERC721/extensions/ERC721URIStorage.sol\":1807:1902  if (bytes(_tokenURIs[tokenId]).length != 0) {... */\n      tag_155\n      jumpi\n        /* \"@openzeppelin/contracts/token/ERC721/extensions/ERC721URIStorage.sol\":1872:1891  _tokenURIs[tokenId] */\n      0x00\n      dup2\n      dup2\n      mstore\n        /* \"@openzeppelin/contracts/token/ERC721/extensions/ERC721URIStorage.sol\":1872:1882  _tokenURIs */\n      0x06\n        /* \"@openzeppelin/contracts/token/ERC721/extensions/ERC721URIStorage.sol\":1872:1891  _tokenURIs[tokenId] */\n      0x20\n      mstore\n      0x40\n      dup2\n      keccak256\n        /* \"@openzeppelin/contracts/token/ERC721/extensions/ERC721URIStorage.sol\":1865:1891  delete _tokenURIs[tokenId] */\n      tag_155\n      swap2\n      tag_318\n      jump\t// in\n        /* \"@openzeppelin/contracts/token/ERC721/ERC721.sol\":12335:13113  function _checkOnERC721Received(... */\n    tag_277:\n        /* \"@openzeppelin/contracts/token/ERC721/ERC721.sol\":12485:12489  bool */\n      0x00\n      sub(shl(0xa0, 0x01), 0x01)\n        /* \"@openzeppelin/contracts/token/ERC721/ERC721.sol\":12505:12518  to.isContract */\n      dup5\n      and\n        /* \"@openzeppelin/contracts/utils/Address.sol\":1465:1484  account.code.length */\n      extcodesize\n        /* \"@openzeppelin/contracts/utils/Address.sol\":1465:1488  account.code.length > 0 */\n      iszero\n        /* \"@openzeppelin/contracts/token/ERC721/ERC721.sol\":12501:13107  if (to.isContract()) {... */\n      tag_322\n      jumpi\n        /* \"@openzeppelin/contracts/token/ERC721/ERC721.sol\":12540:12612  IERC721Receiver(to).onERC721Received(_msgSender(), from, tokenId, _data) */\n      mload(0x40)\n      shl(0xe1, 0x0a85bd01)\n      dup2\n      mstore\n      sub(shl(0xa0, 0x01), 0x01)\n        /* \"@openzeppelin/contracts/token/ERC721/ERC721.sol\":12540:12576  IERC721Receiver(to).onERC721Received */\n      dup6\n      and\n      swap1\n      0x150b7a02\n      swap1\n        /* \"@openzeppelin/contracts/token/ERC721/ERC721.sol\":12540:12612  IERC721Receiver(to).onERC721Received(_msgSender(), from, tokenId, _data) */\n      tag_324\n      swap1\n        /* \"@openzeppelin/contracts/utils/Context.sol\":719:729  msg.sender */\n      caller\n      swap1\n        /* \"@openzeppelin/contracts/token/ERC721/ERC721.sol\":12591:12595  from */\n      dup10\n      swap1\n        /* \"@openzeppelin/contracts/token/ERC721/ERC721.sol\":12597:12604  tokenId */\n      dup9\n      swap1\n        /* \"@openzeppelin/contracts/token/ERC721/ERC721.sol\":12606:12611  _data */\n      dup9\n      swap1\n        /* \"@openzeppelin/contracts/token/ERC721/ERC721.sol\":12540:12612  IERC721Receiver(to).onERC721Received(_msgSender(), from, tokenId, _data) */\n      0x04\n      add\n      tag_325\n      jump\t// in\n    tag_324:\n      0x20\n      mload(0x40)\n      dup1\n      dup4\n      sub\n      dup2\n      0x00\n      dup8\n      dup1\n      extcodesize\n      iszero\n      dup1\n      iszero\n      tag_326\n      jumpi\n      0x00\n      dup1\n      revert\n    tag_326:\n      pop\n      gas\n      call\n      swap3\n      pop\n      pop\n      pop\n      dup1\n      iszero\n      tag_327\n      jumpi\n      pop\n      0x40\n      dup1\n      mload\n      0x1f\n      returndatasize\n      swap1\n      dup2\n      add\n      not(0x1f)\n      and\n      dup3\n      add\n      swap1\n      swap3\n      mstore\n      tag_328\n      swap2\n      dup2\n      add\n      swap1\n      tag_329\n      jump\t// in\n    tag_328:\n      0x01\n    tag_327:\n        /* \"@openzeppelin/contracts/token/ERC721/ERC721.sol\":12536:13055  try IERC721Receiver(to).onERC721Received(_msgSender(), from, tokenId, _data) returns (bytes4 retval) {... */\n      tag_330\n      jumpi\n      returndatasize\n      dup1\n      dup1\n      iszero\n      tag_335\n      jumpi\n      mload(0x40)\n      swap2\n      pop\n      and(add(returndatasize, 0x3f), not(0x1f))\n      dup3\n      add\n      0x40\n      mstore\n      returndatasize\n      dup3\n      mstore\n      returndatasize\n      0x00\n      0x20\n      dup5\n      add\n      returndatacopy\n      jump(tag_334)\n    tag_335:\n      0x60\n      swap2\n      pop\n    tag_334:\n      pop\n        /* \"@openzeppelin/contracts/token/ERC721/ERC721.sol\":12779:12792  reason.length */\n      dup1\n      mload\n        /* \"@openzeppelin/contracts/token/ERC721/ERC721.sol\":12775:13041  if (reason.length == 0) {... */\n      tag_336\n      jumpi\n        /* \"@openzeppelin/contracts/token/ERC721/ERC721.sol\":12821:12881  revert(\"ERC721: transfer to non ERC721Receiver implementer\") */\n      mload(0x40)\n      shl(0xe5, 0x461bcd)\n      dup2\n      mstore\n      0x04\n      add\n      tag_121\n      swap1\n      tag_280\n      jump\t// in\n        /* \"@openzeppelin/contracts/token/ERC721/ERC721.sol\":12775:13041  if (reason.length == 0) {... */\n    tag_336:\n        /* \"@openzeppelin/contracts/token/ERC721/ERC721.sol\":12993:12999  reason */\n      dup1\n        /* \"@openzeppelin/contracts/token/ERC721/ERC721.sol\":12987:13000  mload(reason) */\n      mload\n        /* \"@openzeppelin/contracts/token/ERC721/ERC721.sol\":12978:12984  reason */\n      dup2\n        /* \"@openzeppelin/contracts/token/ERC721/ERC721.sol\":12974:12976  32 */\n      0x20\n        /* \"@openzeppelin/contracts/token/ERC721/ERC721.sol\":12970:12985  add(32, reason) */\n      add\n        /* \"@openzeppelin/contracts/token/ERC721/ERC721.sol\":12963:13001  revert(add(32, reason), mload(reason)) */\n      revert\n        /* \"@openzeppelin/contracts/token/ERC721/ERC721.sol\":12536:13055  try IERC721Receiver(to).onERC721Received(_msgSender(), from, tokenId, _data) returns (bytes4 retval) {... */\n    tag_330:\n      not(sub(shl(0xe0, 0x01), 0x01))\n        /* \"@openzeppelin/contracts/token/ERC721/ERC721.sol\":12662:12713  retval == IERC721Receiver.onERC721Received.selector */\n      and\n      shl(0xe1, 0x0a85bd01)\n      eq\n      swap1\n      pop\n        /* \"@openzeppelin/contracts/token/ERC721/ERC721.sol\":12655:12713  return retval == IERC721Receiver.onERC721Received.selector */\n      jump(tag_246)\n        /* \"@openzeppelin/contracts/token/ERC721/ERC721.sol\":12501:13107  if (to.isContract()) {... */\n    tag_322:\n      pop\n        /* \"@openzeppelin/contracts/token/ERC721/ERC721.sol\":13092:13096  true */\n      0x01\n        /* \"@openzeppelin/contracts/token/ERC721/ERC721.sol\":12335:13113  function _checkOnERC721Received(... */\n      swap5\n      swap4\n      pop\n      pop\n      pop\n      pop\n      jump\t// out\n        /* \"@openzeppelin/contracts/token/ERC721/ERC721.sol\":2818:3147  function tokenURI(uint256 tokenId) public view virtual override returns (string memory) {... */\n    tag_298:\n        /* \"@openzeppelin/contracts/token/ERC721/ERC721.sol\":2891:2904  string memory */\n      0x60\n        /* \"@openzeppelin/contracts/token/ERC721/ERC721.sol\":2924:2940  _exists(tokenId) */\n      tag_343\n        /* \"@openzeppelin/contracts/token/ERC721/ERC721.sol\":2932:2939  tokenId */\n      dup3\n        /* \"@openzeppelin/contracts/token/ERC721/ERC721.sol\":2924:2931  _exists */\n      tag_119\n        /* \"@openzeppelin/contracts/token/ERC721/ERC721.sol\":2924:2940  _exists(tokenId) */\n      jump\t// in\n    tag_343:\n        /* \"@openzeppelin/contracts/token/ERC721/ERC721.sol\":2916:2992  require(_exists(tokenId), \"ERC721Metadata: URI query for nonexistent token\") */\n      tag_344\n      jumpi\n      mload(0x40)\n      shl(0xe5, 0x461bcd)\n      dup2\n      mstore\n        /* \"#utility.yul\":12573:12575   */\n      0x20\n        /* \"@openzeppelin/contracts/token/ERC721/ERC721.sol\":2916:2992  require(_exists(tokenId), \"ERC721Metadata: URI query for nonexistent token\") */\n      0x04\n      dup3\n      add\n        /* \"#utility.yul\":12555:12576   */\n      mstore\n        /* \"#utility.yul\":12612:12614   */\n      0x2f\n        /* \"#utility.yul\":12592:12610   */\n      0x24\n      dup3\n      add\n        /* \"#utility.yul\":12585:12615   */\n      mstore\n        /* \"#utility.yul\":12651:12685   */\n      0x4552433732314d657461646174613a2055524920717565727920666f72206e6f\n        /* \"#utility.yul\":12631:12649   */\n      0x44\n      dup3\n      add\n        /* \"#utility.yul\":12624:12686   */\n      mstore\n      shl(0x89, 0x3732bc34b9ba32b73a103a37b5b2b7)\n        /* \"#utility.yul\":12702:12720   */\n      0x64\n      dup3\n      add\n        /* \"#utility.yul\":12695:12740   */\n      mstore\n        /* \"#utility.yul\":12757:12776   */\n      0x84\n      add\n        /* \"@openzeppelin/contracts/token/ERC721/ERC721.sol\":2916:2992  require(_exists(tokenId), \"ERC721Metadata: URI query for nonexistent token\") */\n      tag_121\n        /* \"#utility.yul\":12371:12782   */\n      jump\n        /* \"@openzeppelin/contracts/token/ERC721/ERC721.sol\":2916:2992  require(_exists(tokenId), \"ERC721Metadata: URI query for nonexistent token\") */\n    tag_344:\n        /* \"@openzeppelin/contracts/token/ERC721/ERC721.sol\":3003:3024  string memory baseURI */\n      0x00\n        /* \"@openzeppelin/contracts/token/ERC721/ERC721.sol\":3027:3037  _baseURI() */\n      tag_347\n        /* \"@openzeppelin/contracts/token/ERC721/ERC721.sol\":3465:3474  return \"\" */\n      0x40\n      dup1\n      mload\n      0x20\n      dup2\n      add\n      swap1\n      swap2\n      mstore\n      0x00\n      dup2\n      mstore\n      swap1\n        /* \"@openzeppelin/contracts/token/ERC721/ERC721.sol\":3389:3481  function _baseURI() internal view virtual returns (string memory) {... */\n      jump\n        /* \"@openzeppelin/contracts/token/ERC721/ERC721.sol\":3027:3037  _baseURI() */\n    tag_347:\n        /* \"@openzeppelin/contracts/token/ERC721/ERC721.sol\":3003:3037  string memory baseURI = _baseURI() */\n      swap1\n      pop\n        /* \"@openzeppelin/contracts/token/ERC721/ERC721.sol\":3078:3079  0 */\n      0x00\n        /* \"@openzeppelin/contracts/token/ERC721/ERC721.sol\":3060:3067  baseURI */\n      dup2\n        /* \"@openzeppelin/contracts/token/ERC721/ERC721.sol\":3054:3075  bytes(baseURI).length */\n      mload\n        /* \"@openzeppelin/contracts/token/ERC721/ERC721.sol\":3054:3079  bytes(baseURI).length > 0 */\n      gt\n        /* \"@openzeppelin/contracts/token/ERC721/ERC721.sol\":3054:3140  bytes(baseURI).length > 0 ? string(abi.encodePacked(baseURI, tokenId.toString())) : \"\" */\n      tag_348\n      jumpi\n      mload(0x40)\n      dup1\n      0x20\n      add\n      0x40\n      mstore\n      dup1\n      0x00\n      dup2\n      mstore\n      pop\n      jump(tag_349)\n    tag_348:\n        /* \"@openzeppelin/contracts/token/ERC721/ERC721.sol\":3106:3113  baseURI */\n      dup1\n        /* \"@openzeppelin/contracts/token/ERC721/ERC721.sol\":3115:3133  tokenId.toString() */\n      tag_350\n        /* \"@openzeppelin/contracts/token/ERC721/ERC721.sol\":3115:3122  tokenId */\n      dup5\n        /* \"@openzeppelin/contracts/token/ERC721/ERC721.sol\":3115:3131  tokenId.toString */\n      tag_351\n        /* \"@openzeppelin/contracts/token/ERC721/ERC721.sol\":3115:3133  tokenId.toString() */\n      jump\t// in\n    tag_350:\n        /* \"@openzeppelin/contracts/token/ERC721/ERC721.sol\":3089:3134  abi.encodePacked(baseURI, tokenId.toString()) */\n      add(0x20, mload(0x40))\n      tag_352\n      swap3\n      swap2\n      swap1\n      tag_296\n      jump\t// in\n    tag_352:\n      mload(0x40)\n      0x20\n      dup2\n      dup4\n      sub\n      sub\n      dup2\n      mstore\n      swap1\n      0x40\n      mstore\n        /* \"@openzeppelin/contracts/token/ERC721/ERC721.sol\":3054:3140  bytes(baseURI).length > 0 ? string(abi.encodePacked(baseURI, tokenId.toString())) : \"\" */\n    tag_349:\n        /* \"@openzeppelin/contracts/token/ERC721/ERC721.sol\":3047:3140  return bytes(baseURI).length > 0 ? string(abi.encodePacked(baseURI, tokenId.toString())) : \"\" */\n      swap4\n        /* \"@openzeppelin/contracts/token/ERC721/ERC721.sol\":2818:3147  function tokenURI(uint256 tokenId) public view virtual override returns (string memory) {... */\n      swap3\n      pop\n      pop\n      pop\n      jump\t// out\n        /* \"@openzeppelin/contracts/token/ERC721/ERC721.sol\":8446:8757  function _safeMint(... */\n    tag_303:\n        /* \"@openzeppelin/contracts/token/ERC721/ERC721.sol\":8571:8589  _mint(to, tokenId) */\n      tag_354\n        /* \"@openzeppelin/contracts/token/ERC721/ERC721.sol\":8577:8579  to */\n      dup4\n        /* \"@openzeppelin/contracts/token/ERC721/ERC721.sol\":8581:8588  tokenId */\n      dup4\n        /* \"@openzeppelin/contracts/token/ERC721/ERC721.sol\":8571:8576  _mint */\n      tag_355\n        /* \"@openzeppelin/contracts/token/ERC721/ERC721.sol\":8571:8589  _mint(to, tokenId) */\n      jump\t// in\n    tag_354:\n        /* \"@openzeppelin/contracts/token/ERC721/ERC721.sol\":8620:8674  _checkOnERC721Received(address(0), to, tokenId, _data) */\n      tag_356\n        /* \"@openzeppelin/contracts/token/ERC721/ERC721.sol\":8651:8652  0 */\n      0x00\n        /* \"@openzeppelin/contracts/token/ERC721/ERC721.sol\":8655:8657  to */\n      dup5\n        /* \"@openzeppelin/contracts/token/ERC721/ERC721.sol\":8659:8666  tokenId */\n      dup5\n        /* \"@openzeppelin/contracts/token/ERC721/ERC721.sol\":8668:8673  _data */\n      dup5\n        /* \"@openzeppelin/contracts/token/ERC721/ERC721.sol\":8620:8642  _checkOnERC721Received */\n      tag_277\n        /* \"@openzeppelin/contracts/token/ERC721/ERC721.sol\":8620:8674  _checkOnERC721Received(address(0), to, tokenId, _data) */\n      jump\t// in\n    tag_356:\n        /* \"@openzeppelin/contracts/token/ERC721/ERC721.sol\":8599:8750  require(... */\n      tag_136\n      jumpi\n      mload(0x40)\n      shl(0xe5, 0x461bcd)\n      dup2\n      mstore\n      0x04\n      add\n      tag_121\n      swap1\n      tag_280\n      jump\t// in\n        /* \"@openzeppelin/contracts/token/ERC721/ERC721.sol\":9723:10129  function _burn(uint256 tokenId) internal virtual {... */\n    tag_314:\n        /* \"@openzeppelin/contracts/token/ERC721/ERC721.sol\":9782:9795  address owner */\n      0x00\n        /* \"@openzeppelin/contracts/token/ERC721/ERC721.sol\":9798:9821  ERC721.ownerOf(tokenId) */\n      tag_360\n        /* \"@openzeppelin/contracts/token/ERC721/ERC721.sol\":9813:9820  tokenId */\n      dup3\n        /* \"@openzeppelin/contracts/token/ERC721/ERC721.sol\":9798:9812  ERC721.ownerOf */\n      tag_62\n        /* \"@openzeppelin/contracts/token/ERC721/ERC721.sol\":9798:9821  ERC721.ownerOf(tokenId) */\n      jump\t// in\n    tag_360:\n        /* \"@openzeppelin/contracts/token/ERC721/ERC721.sol\":9782:9821  address owner = ERC721.ownerOf(tokenId) */\n      swap1\n      pop\n        /* \"@openzeppelin/contracts/token/ERC721/ERC721.sol\":9918:9947  _approve(address(0), tokenId) */\n      tag_362\n        /* \"@openzeppelin/contracts/token/ERC721/ERC721.sol\":9935:9936  0 */\n      0x00\n        /* \"@openzeppelin/contracts/token/ERC721/ERC721.sol\":9939:9946  tokenId */\n      dup4\n        /* \"@openzeppelin/contracts/token/ERC721/ERC721.sol\":9918:9926  _approve */\n      tag_137\n        /* \"@openzeppelin/contracts/token/ERC721/ERC721.sol\":9918:9947  _approve(address(0), tokenId) */\n      jump\t// in\n    tag_362:\n      sub(shl(0xa0, 0x01), 0x01)\n        /* \"@openzeppelin/contracts/token/ERC721/ERC721.sol\":9958:9974  _balances[owner] */\n      dup2\n      and\n      0x00\n      swap1\n      dup2\n      mstore\n        /* \"@openzeppelin/contracts/token/ERC721/ERC721.sol\":9958:9967  _balances */\n      0x03\n        /* \"@openzeppelin/contracts/token/ERC721/ERC721.sol\":9958:9974  _balances[owner] */\n      0x20\n      mstore\n      0x40\n      dup2\n      keccak256\n        /* \"@openzeppelin/contracts/token/ERC721/ERC721.sol\":9958:9979  _balances[owner] -= 1 */\n      dup1\n      sload\n        /* \"@openzeppelin/contracts/token/ERC721/ERC721.sol\":9978:9979  1 */\n      0x01\n      swap3\n        /* \"@openzeppelin/contracts/token/ERC721/ERC721.sol\":9958:9974  _balances[owner] */\n      swap1\n        /* \"@openzeppelin/contracts/token/ERC721/ERC721.sol\":9958:9979  _balances[owner] -= 1 */\n      tag_363\n      swap1\n        /* \"@openzeppelin/contracts/token/ERC721/ERC721.sol\":9978:9979  1 */\n      dup5\n      swap1\n        /* \"@openzeppelin/contracts/token/ERC721/ERC721.sol\":9958:9979  _balances[owner] -= 1 */\n      tag_260\n      jump\t// in\n    tag_363:\n      swap1\n      swap2\n      sstore\n      pop\n      pop\n        /* \"@openzeppelin/contracts/token/ERC721/ERC721.sol\":9996:10012  _owners[tokenId] */\n      0x00\n      dup3\n      dup2\n      mstore\n        /* \"@openzeppelin/contracts/token/ERC721/ERC721.sol\":9996:10003  _owners */\n      0x02\n        /* \"@openzeppelin/contracts/token/ERC721/ERC721.sol\":9996:10012  _owners[tokenId] */\n      0x20\n      mstore\n      0x40\n      dup1\n      dup3\n      keccak256\n        /* \"@openzeppelin/contracts/token/ERC721/ERC721.sol\":9989:10012  delete _owners[tokenId] */\n      dup1\n      sload\n      not(sub(shl(0xa0, 0x01), 0x01))\n      and\n      swap1\n      sstore\n        /* \"@openzeppelin/contracts/token/ERC721/ERC721.sol\":10028:10064  Transfer(owner, address(0), tokenId) */\n      mload\n        /* \"@openzeppelin/contracts/token/ERC721/ERC721.sol\":10004:10011  tokenId */\n      dup4\n      swap2\n        /* \"@openzeppelin/contracts/token/ERC721/ERC721.sol\":9996:10012  _owners[tokenId] */\n      swap1\n      sub(shl(0xa0, 0x01), 0x01)\n        /* \"@openzeppelin/contracts/token/ERC721/ERC721.sol\":10028:10064  Transfer(owner, address(0), tokenId) */\n      dup5\n      and\n      swap1\n      0xddf252ad1be2c89b69c2b068fc378daa952ba7f163c4a11628f55a4df523b3ef\n      swap1\n        /* \"@openzeppelin/contracts/token/ERC721/ERC721.sol\":9996:10012  _owners[tokenId] */\n      dup4\n      swap1\n        /* \"@openzeppelin/contracts/token/ERC721/ERC721.sol\":10028:10064  Transfer(owner, address(0), tokenId) */\n      log4\n        /* \"contracts/sequential.sol\":1147:1169  baseTokenURI = baseURI */\n      pop\n        /* \"contracts/sequential.sol\":1077:1176  function setBaseURI(string memory baseURI) public onlyOwner {... */\n      pop\n      jump\t// out\n        /* \"@openzeppelin/contracts/utils/Strings.sol\":328:1031  function toString(uint256 value) internal pure returns (string memory) {... */\n    tag_351:\n        /* \"@openzeppelin/contracts/utils/Strings.sol\":384:397  string memory */\n      0x60\n        /* \"@openzeppelin/contracts/utils/Strings.sol\":601:611  value == 0 */\n      dup2\n        /* \"@openzeppelin/contracts/utils/Strings.sol\":597:648  if (value == 0) {... */\n      tag_367\n      jumpi\n      pop\n      pop\n        /* \"@openzeppelin/contracts/utils/Strings.sol\":627:637  return \"0\" */\n      0x40\n      dup1\n      mload\n      dup1\n      dup3\n      add\n      swap1\n      swap2\n      mstore\n      0x01\n      dup2\n      mstore\n      shl(0xfc, 0x03)\n      0x20\n      dup3\n      add\n      mstore\n      swap1\n        /* \"@openzeppelin/contracts/utils/Strings.sol\":328:1031  function toString(uint256 value) internal pure returns (string memory) {... */\n      jump\t// out\n        /* \"@openzeppelin/contracts/utils/Strings.sol\":597:648  if (value == 0) {... */\n    tag_367:\n        /* \"@openzeppelin/contracts/utils/Strings.sol\":672:677  value */\n      dup2\n        /* \"@openzeppelin/contracts/utils/Strings.sol\":657:669  uint256 temp */\n      0x00\n        /* \"@openzeppelin/contracts/utils/Strings.sol\":711:786  while (temp != 0) {... */\n    tag_368:\n        /* \"@openzeppelin/contracts/utils/Strings.sol\":718:727  temp != 0 */\n      dup2\n      iszero\n        /* \"@openzeppelin/contracts/utils/Strings.sol\":711:786  while (temp != 0) {... */\n      tag_369\n      jumpi\n        /* \"@openzeppelin/contracts/utils/Strings.sol\":743:751  digits++ */\n      dup1\n      tag_370\n      dup2\n      tag_371\n      jump\t// in\n    tag_370:\n      swap2\n      pop\n        /* \"@openzeppelin/contracts/utils/Strings.sol\":765:775  temp /= 10 */\n      tag_372\n      swap1\n      pop\n        /* \"@openzeppelin/contracts/utils/Strings.sol\":773:775  10 */\n      0x0a\n        /* \"@openzeppelin/contracts/utils/Strings.sol\":765:775  temp /= 10 */\n      dup4\n      tag_373\n      jump\t// in\n    tag_372:\n      swap2\n      pop\n        /* \"@openzeppelin/contracts/utils/Strings.sol\":711:786  while (temp != 0) {... */\n      jump(tag_368)\n    tag_369:\n        /* \"@openzeppelin/contracts/utils/Strings.sol\":795:814  bytes memory buffer */\n      0x00\n        /* \"@openzeppelin/contracts/utils/Strings.sol\":827:833  digits */\n      dup2\n        /* \"@openzeppelin/contracts/utils/Strings.sol\":817:834  new bytes(digits) */\n      0xffffffffffffffff\n      dup2\n      gt\n      iszero\n      tag_375\n      jumpi\n      tag_375\n      tag_376\n      jump\t// in\n    tag_375:\n      mload(0x40)\n      swap1\n      dup1\n      dup3\n      mstore\n      dup1\n      0x1f\n      add\n      not(0x1f)\n      and\n      0x20\n      add\n      dup3\n      add\n      0x40\n      mstore\n      dup1\n      iszero\n      tag_377\n      jumpi\n      0x20\n      dup3\n      add\n      dup2\n      dup1\n      calldatasize\n      dup4\n      calldatacopy\n      add\n      swap1\n      pop\n    tag_377:\n      pop\n        /* \"@openzeppelin/contracts/utils/Strings.sol\":795:834  bytes memory buffer = new bytes(digits) */\n      swap1\n      pop\n        /* \"@openzeppelin/contracts/utils/Strings.sol\":844:994  while (value != 0) {... */\n    tag_378:\n        /* \"@openzeppelin/contracts/utils/Strings.sol\":851:861  value != 0 */\n      dup5\n      iszero\n        /* \"@openzeppelin/contracts/utils/Strings.sol\":844:994  while (value != 0) {... */\n      tag_246\n      jumpi\n        /* \"@openzeppelin/contracts/utils/Strings.sol\":877:888  digits -= 1 */\n      tag_380\n        /* \"@openzeppelin/contracts/utils/Strings.sol\":887:888  1 */\n      0x01\n        /* \"@openzeppelin/contracts/utils/Strings.sol\":877:888  digits -= 1 */\n      dup4\n      tag_260\n      jump\t// in\n    tag_380:\n      swap2\n      pop\n        /* \"@openzeppelin/contracts/utils/Strings.sol\":945:955  value % 10 */\n      tag_381\n        /* \"@openzeppelin/contracts/utils/Strings.sol\":953:955  10 */\n      0x0a\n        /* \"@openzeppelin/contracts/utils/Strings.sol\":945:950  value */\n      dup7\n        /* \"@openzeppelin/contracts/utils/Strings.sol\":945:955  value % 10 */\n      tag_382\n      jump\t// in\n    tag_381:\n        /* \"@openzeppelin/contracts/utils/Strings.sol\":932:956  48 + uint256(value % 10) */\n      tag_383\n      swap1\n        /* \"@openzeppelin/contracts/utils/Strings.sol\":932:934  48 */\n      0x30\n        /* \"@openzeppelin/contracts/utils/Strings.sol\":932:956  48 + uint256(value % 10) */\n      tag_262\n      jump\t// in\n    tag_383:\n        /* \"@openzeppelin/contracts/utils/Strings.sol\":919:958  bytes1(uint8(48 + uint256(value % 10))) */\n      0xf8\n      shl\n        /* \"@openzeppelin/contracts/utils/Strings.sol\":902:908  buffer */\n      dup2\n        /* \"@openzeppelin/contracts/utils/Strings.sol\":909:915  digits */\n      dup4\n        /* \"@openzeppelin/contracts/utils/Strings.sol\":902:916  buffer[digits] */\n      dup2\n      mload\n      dup2\n      lt\n      tag_385\n      jumpi\n      tag_385\n      tag_386\n      jump\t// in\n    tag_385:\n      0x20\n      add\n      add\n        /* \"@openzeppelin/contracts/utils/Strings.sol\":902:958  buffer[digits] = bytes1(uint8(48 + uint256(value % 10))) */\n      swap1\n      not(sub(shl(0xf8, 0x01), 0x01))\n      and\n      swap1\n      dup2\n      0x00\n      byte\n      swap1\n      mstore8\n      pop\n        /* \"@openzeppelin/contracts/utils/Strings.sol\":972:983  value /= 10 */\n      tag_387\n        /* \"@openzeppelin/contracts/utils/Strings.sol\":981:983  10 */\n      0x0a\n        /* \"@openzeppelin/contracts/utils/Strings.sol\":972:983  value /= 10 */\n      dup7\n      tag_373\n      jump\t// in\n    tag_387:\n      swap5\n      pop\n        /* \"@openzeppelin/contracts/utils/Strings.sol\":844:994  while (value != 0) {... */\n      jump(tag_378)\n        /* \"@openzeppelin/contracts/token/ERC721/ERC721.sol\":9079:9506  function _mint(address to, uint256 tokenId) internal virtual {... */\n    tag_355:\n      sub(shl(0xa0, 0x01), 0x01)\n        /* \"@openzeppelin/contracts/token/ERC721/ERC721.sol\":9158:9174  to != address(0) */\n      dup3\n      and\n        /* \"@openzeppelin/contracts/token/ERC721/ERC721.sol\":9150:9211  require(to != address(0), \"ERC721: mint to the zero address\") */\n      tag_389\n      jumpi\n      mload(0x40)\n      shl(0xe5, 0x461bcd)\n      dup2\n      mstore\n        /* \"#utility.yul\":11020:11022   */\n      0x20\n        /* \"@openzeppelin/contracts/token/ERC721/ERC721.sol\":9150:9211  require(to != address(0), \"ERC721: mint to the zero address\") */\n      0x04\n      dup3\n      add\n        /* \"#utility.yul\":11002:11023   */\n      dup2\n      swap1\n      mstore\n        /* \"#utility.yul\":11039:11057   */\n      0x24\n      dup3\n      add\n        /* \"#utility.yul\":11032:11062   */\n      mstore\n        /* \"#utility.yul\":11098:11132   */\n      0x4552433732313a206d696e7420746f20746865207a65726f2061646472657373\n        /* \"#utility.yul\":11078:11096   */\n      0x44\n      dup3\n      add\n        /* \"#utility.yul\":11071:11133   */\n      mstore\n        /* \"#utility.yul\":11150:11168   */\n      0x64\n      add\n        /* \"@openzeppelin/contracts/token/ERC721/ERC721.sol\":9150:9211  require(to != address(0), \"ERC721: mint to the zero address\") */\n      tag_121\n        /* \"#utility.yul\":10818:11174   */\n      jump\n        /* \"@openzeppelin/contracts/token/ERC721/ERC721.sol\":9150:9211  require(to != address(0), \"ERC721: mint to the zero address\") */\n    tag_389:\n        /* \"@openzeppelin/contracts/token/ERC721/ERC721.sol\":9230:9246  _exists(tokenId) */\n      tag_392\n        /* \"@openzeppelin/contracts/token/ERC721/ERC721.sol\":9238:9245  tokenId */\n      dup2\n        /* \"@openzeppelin/contracts/token/ERC721/ERC721.sol\":9230:9237  _exists */\n      tag_119\n        /* \"@openzeppelin/contracts/token/ERC721/ERC721.sol\":9230:9246  _exists(tokenId) */\n      jump\t// in\n    tag_392:\n        /* \"@openzeppelin/contracts/token/ERC721/ERC721.sol\":9229:9246  !_exists(tokenId) */\n      iszero\n        /* \"@openzeppelin/contracts/token/ERC721/ERC721.sol\":9221:9279  require(!_exists(tokenId), \"ERC721: token already minted\") */\n      tag_393\n      jumpi\n      mload(0x40)\n      shl(0xe5, 0x461bcd)\n      dup2\n      mstore\n        /* \"#utility.yul\":7830:7832   */\n      0x20\n        /* \"@openzeppelin/contracts/token/ERC721/ERC721.sol\":9221:9279  require(!_exists(tokenId), \"ERC721: token already minted\") */\n      0x04\n      dup3\n      add\n        /* \"#utility.yul\":7812:7833   */\n      mstore\n        /* \"#utility.yul\":7869:7871   */\n      0x1c\n        /* \"#utility.yul\":7849:7867   */\n      0x24\n      dup3\n      add\n        /* \"#utility.yul\":7842:7872   */\n      mstore\n        /* \"#utility.yul\":7908:7938   */\n      0x4552433732313a20746f6b656e20616c7265616479206d696e74656400000000\n        /* \"#utility.yul\":7888:7906   */\n      0x44\n      dup3\n      add\n        /* \"#utility.yul\":7881:7939   */\n      mstore\n        /* \"#utility.yul\":7956:7974   */\n      0x64\n      add\n        /* \"@openzeppelin/contracts/token/ERC721/ERC721.sol\":9221:9279  require(!_exists(tokenId), \"ERC721: token already minted\") */\n      tag_121\n        /* \"#utility.yul\":7628:7980   */\n      jump\n        /* \"@openzeppelin/contracts/token/ERC721/ERC721.sol\":9221:9279  require(!_exists(tokenId), \"ERC721: token already minted\") */\n    tag_393:\n      sub(shl(0xa0, 0x01), 0x01)\n        /* \"@openzeppelin/contracts/token/ERC721/ERC721.sol\":9346:9359  _balances[to] */\n      dup3\n      and\n      0x00\n      swap1\n      dup2\n      mstore\n        /* \"@openzeppelin/contracts/token/ERC721/ERC721.sol\":9346:9355  _balances */\n      0x03\n        /* \"@openzeppelin/contracts/token/ERC721/ERC721.sol\":9346:9359  _balances[to] */\n      0x20\n      mstore\n      0x40\n      dup2\n      keccak256\n        /* \"@openzeppelin/contracts/token/ERC721/ERC721.sol\":9346:9364  _balances[to] += 1 */\n      dup1\n      sload\n        /* \"@openzeppelin/contracts/token/ERC721/ERC721.sol\":9363:9364  1 */\n      0x01\n      swap3\n        /* \"@openzeppelin/contracts/token/ERC721/ERC721.sol\":9346:9359  _balances[to] */\n      swap1\n        /* \"@openzeppelin/contracts/token/ERC721/ERC721.sol\":9346:9364  _balances[to] += 1 */\n      tag_397\n      swap1\n        /* \"@openzeppelin/contracts/token/ERC721/ERC721.sol\":9363:9364  1 */\n      dup5\n      swap1\n        /* \"@openzeppelin/contracts/token/ERC721/ERC721.sol\":9346:9364  _balances[to] += 1 */\n      tag_262\n      jump\t// in\n    tag_397:\n      swap1\n      swap2\n      sstore\n      pop\n      pop\n        /* \"@openzeppelin/contracts/token/ERC721/ERC721.sol\":9374:9390  _owners[tokenId] */\n      0x00\n      dup2\n      dup2\n      mstore\n        /* \"@openzeppelin/contracts/token/ERC721/ERC721.sol\":9374:9381  _owners */\n      0x02\n        /* \"@openzeppelin/contracts/token/ERC721/ERC721.sol\":9374:9390  _owners[tokenId] */\n      0x20\n      mstore\n      0x40\n      dup1\n      dup3\n      keccak256\n        /* \"@openzeppelin/contracts/token/ERC721/ERC721.sol\":9374:9395  _owners[tokenId] = to */\n      dup1\n      sload\n      not(sub(shl(0xa0, 0x01), 0x01))\n      and\n      sub(shl(0xa0, 0x01), 0x01)\n      dup7\n      and\n      swap1\n      dup2\n      or\n      swap1\n      swap2\n      sstore\n        /* \"@openzeppelin/contracts/token/ERC721/ERC721.sol\":9411:9444  Transfer(address(0), to, tokenId) */\n      swap1\n      mload\n        /* \"@openzeppelin/contracts/token/ERC721/ERC721.sol\":9374:9390  _owners[tokenId] */\n      dup4\n      swap3\n      swap1\n        /* \"@openzeppelin/contracts/token/ERC721/ERC721.sol\":9411:9444  Transfer(address(0), to, tokenId) */\n      0xddf252ad1be2c89b69c2b068fc378daa952ba7f163c4a11628f55a4df523b3ef\n      swap1\n        /* \"@openzeppelin/contracts/token/ERC721/ERC721.sol\":9374:9390  _owners[tokenId] */\n      dup3\n      swap1\n        /* \"@openzeppelin/contracts/token/ERC721/ERC721.sol\":9411:9444  Transfer(address(0), to, tokenId) */\n      log4\n        /* \"contracts/sequential.sol\":1147:1169  baseTokenURI = baseURI */\n      pop\n        /* \"contracts/sequential.sol\":1077:1176  function setBaseURI(string memory baseURI) public onlyOwner {... */\n      pop\n      jump\t// out\n    tag_165:\n      dup3\n      dup1\n      sload\n      tag_399\n      swap1\n      tag_112\n      jump\t// in\n    tag_399:\n      swap1\n      0x00\n      mstore\n      keccak256(0x00, 0x20)\n      swap1\n      0x1f\n      add\n      0x20\n      swap1\n      div\n      dup2\n      add\n      swap3\n      dup3\n      tag_401\n      jumpi\n      0x00\n      dup6\n      sstore\n      jump(tag_404)\n    tag_401:\n      dup3\n      0x1f\n      lt\n      tag_402\n      jumpi\n      dup1\n      mload\n      not(0xff)\n      and\n      dup4\n      dup1\n      add\n      or\n      dup6\n      sstore\n      jump(tag_404)\n    tag_402:\n      dup3\n      dup1\n      add\n      0x01\n      add\n      dup6\n      sstore\n      dup3\n      iszero\n      tag_404\n      jumpi\n      swap2\n      dup3\n      add\n    tag_403:\n      dup3\n      dup2\n      gt\n      iszero\n      tag_404\n      jumpi\n      dup3\n      mload\n      dup3\n      sstore\n      swap2\n      0x20\n      add\n      swap2\n      swap1\n      0x01\n      add\n      swap1\n      jump(tag_403)\n    tag_404:\n      pop\n      tag_405\n      swap3\n      swap2\n      pop\n      tag_406\n      jump\t// in\n    tag_405:\n      pop\n      swap1\n      jump\t// out\n    tag_318:\n      pop\n      dup1\n      sload\n      tag_407\n      swap1\n      tag_112\n      jump\t// in\n    tag_407:\n      0x00\n      dup3\n      sstore\n      dup1\n      0x1f\n      lt\n      tag_409\n      jumpi\n      pop\n      pop\n      jump\t// out\n    tag_409:\n      0x1f\n      add\n      0x20\n      swap1\n      div\n      swap1\n      0x00\n      mstore\n      keccak256(0x00, 0x20)\n      swap1\n      dup2\n      add\n      swap1\n      tag_155\n      swap2\n      swap1\n    tag_406:\n    tag_411:\n      dup1\n      dup3\n      gt\n      iszero\n      tag_405\n      jumpi\n      0x00\n      dup2\n      sstore\n      0x01\n      add\n      jump(tag_411)\n        /* \"#utility.yul\":14:645   */\n    tag_414:\n        /* \"#utility.yul\":78:83   */\n      0x00\n        /* \"#utility.yul\":108:126   */\n      0xffffffffffffffff\n        /* \"#utility.yul\":149:151   */\n      dup1\n        /* \"#utility.yul\":141:147   */\n      dup5\n        /* \"#utility.yul\":138:152   */\n      gt\n        /* \"#utility.yul\":135:175   */\n      iszero\n      tag_417\n      jumpi\n        /* \"#utility.yul\":155:173   */\n      tag_417\n      tag_376\n      jump\t// in\n    tag_417:\n        /* \"#utility.yul\":230:232   */\n      0x40\n        /* \"#utility.yul\":224:233   */\n      mload\n        /* \"#utility.yul\":198:200   */\n      0x1f\n        /* \"#utility.yul\":284:299   */\n      dup6\n      add\n      not(0x1f)\n        /* \"#utility.yul\":280:304   */\n      swap1\n      dup2\n      and\n        /* \"#utility.yul\":306:308   */\n      0x3f\n        /* \"#utility.yul\":276:309   */\n      add\n        /* \"#utility.yul\":272:314   */\n      and\n        /* \"#utility.yul\":260:315   */\n      dup2\n      add\n      swap1\n        /* \"#utility.yul\":330:348   */\n      dup3\n      dup3\n      gt\n        /* \"#utility.yul\":350:372   */\n      dup2\n      dup4\n      lt\n        /* \"#utility.yul\":327:373   */\n      or\n        /* \"#utility.yul\":324:396   */\n      iszero\n      tag_419\n      jumpi\n        /* \"#utility.yul\":376:394   */\n      tag_419\n      tag_376\n      jump\t// in\n    tag_419:\n        /* \"#utility.yul\":416:426   */\n      dup2\n        /* \"#utility.yul\":412:414   */\n      0x40\n        /* \"#utility.yul\":405:427   */\n      mstore\n        /* \"#utility.yul\":445:451   */\n      dup1\n        /* \"#utility.yul\":436:451   */\n      swap4\n      pop\n        /* \"#utility.yul\":475:481   */\n      dup6\n        /* \"#utility.yul\":467:473   */\n      dup2\n        /* \"#utility.yul\":460:482   */\n      mstore\n        /* \"#utility.yul\":515:518   */\n      dup7\n        /* \"#utility.yul\":506:512   */\n      dup7\n        /* \"#utility.yul\":501:504   */\n      dup7\n        /* \"#utility.yul\":497:513   */\n      add\n        /* \"#utility.yul\":494:519   */\n      gt\n        /* \"#utility.yul\":491:536   */\n      iszero\n      tag_420\n      jumpi\n        /* \"#utility.yul\":532:533   */\n      0x00\n        /* \"#utility.yul\":529:530   */\n      dup1\n        /* \"#utility.yul\":522:534   */\n      revert\n        /* \"#utility.yul\":491:536   */\n    tag_420:\n        /* \"#utility.yul\":582:588   */\n      dup6\n        /* \"#utility.yul\":577:580   */\n      dup6\n        /* \"#utility.yul\":570:574   */\n      0x20\n        /* \"#utility.yul\":562:568   */\n      dup4\n        /* \"#utility.yul\":558:575   */\n      add\n        /* \"#utility.yul\":545:589   */\n      calldatacopy\n        /* \"#utility.yul\":637:638   */\n      0x00\n        /* \"#utility.yul\":630:634   */\n      0x20\n        /* \"#utility.yul\":621:627   */\n      dup8\n        /* \"#utility.yul\":613:619   */\n      dup4\n        /* \"#utility.yul\":609:628   */\n      add\n        /* \"#utility.yul\":605:635   */\n      add\n        /* \"#utility.yul\":598:639   */\n      mstore\n      pop\n      pop\n      pop\n        /* \"#utility.yul\":14:645   */\n      swap4\n      swap3\n      pop\n      pop\n      pop\n      jump\t// out\n        /* \"#utility.yul\":650:823   */\n    tag_421:\n        /* \"#utility.yul\":718:738   */\n      dup1\n      calldataload\n      sub(shl(0xa0, 0x01), 0x01)\n        /* \"#utility.yul\":767:798   */\n      dup2\n      and\n        /* \"#utility.yul\":757:799   */\n      dup2\n      eq\n        /* \"#utility.yul\":747:817   */\n      tag_423\n      jumpi\n        /* \"#utility.yul\":813:814   */\n      0x00\n        /* \"#utility.yul\":810:811   */\n      dup1\n        /* \"#utility.yul\":803:815   */\n      revert\n        /* \"#utility.yul\":747:817   */\n    tag_423:\n        /* \"#utility.yul\":650:823   */\n      swap2\n      swap1\n      pop\n      jump\t// out\n        /* \"#utility.yul\":828:1049   */\n    tag_424:\n        /* \"#utility.yul\":871:876   */\n      0x00\n        /* \"#utility.yul\":924:927   */\n      dup3\n        /* \"#utility.yul\":917:921   */\n      0x1f\n        /* \"#utility.yul\":909:915   */\n      dup4\n        /* \"#utility.yul\":905:922   */\n      add\n        /* \"#utility.yul\":901:928   */\n      slt\n        /* \"#utility.yul\":891:946   */\n      tag_426\n      jumpi\n        /* \"#utility.yul\":942:943   */\n      0x00\n        /* \"#utility.yul\":939:940   */\n      dup1\n        /* \"#utility.yul\":932:944   */\n      revert\n        /* \"#utility.yul\":891:946   */\n    tag_426:\n        /* \"#utility.yul\":964:1043   */\n      tag_349\n        /* \"#utility.yul\":1039:1042   */\n      dup4\n        /* \"#utility.yul\":1030:1036   */\n      dup4\n        /* \"#utility.yul\":1017:1037   */\n      calldataload\n        /* \"#utility.yul\":1010:1014   */\n      0x20\n        /* \"#utility.yul\":1002:1008   */\n      dup6\n        /* \"#utility.yul\":998:1015   */\n      add\n        /* \"#utility.yul\":964:1043   */\n      tag_414\n      jump\t// in\n        /* \"#utility.yul\":1054:1240   */\n    tag_66:\n        /* \"#utility.yul\":1113:1119   */\n      0x00\n        /* \"#utility.yul\":1166:1168   */\n      0x20\n        /* \"#utility.yul\":1154:1163   */\n      dup3\n        /* \"#utility.yul\":1145:1152   */\n      dup5\n        /* \"#utility.yul\":1141:1164   */\n      sub\n        /* \"#utility.yul\":1137:1169   */\n      slt\n        /* \"#utility.yul\":1134:1186   */\n      iszero\n      tag_429\n      jumpi\n        /* \"#utility.yul\":1182:1183   */\n      0x00\n        /* \"#utility.yul\":1179:1180   */\n      dup1\n        /* \"#utility.yul\":1172:1184   */\n      revert\n        /* \"#utility.yul\":1134:1186   */\n    tag_429:\n        /* \"#utility.yul\":1205:1234   */\n      tag_349\n        /* \"#utility.yul\":1224:1233   */\n      dup3\n        /* \"#utility.yul\":1205:1234   */\n      tag_421\n      jump\t// in\n        /* \"#utility.yul\":1245:1505   */\n    tag_99:\n        /* \"#utility.yul\":1313:1319   */\n      0x00\n        /* \"#utility.yul\":1321:1327   */\n      dup1\n        /* \"#utility.yul\":1374:1376   */\n      0x40\n        /* \"#utility.yul\":1362:1371   */\n      dup4\n        /* \"#utility.yul\":1353:1360   */\n      dup6\n        /* \"#utility.yul\":1349:1372   */\n      sub\n        /* \"#utility.yul\":1345:1377   */\n      slt\n        /* \"#utility.yul\":1342:1394   */\n      iszero\n      tag_432\n      jumpi\n        /* \"#utility.yul\":1390:1391   */\n      0x00\n        /* \"#utility.yul\":1387:1388   */\n      dup1\n        /* \"#utility.yul\":1380:1392   */\n      revert\n        /* \"#utility.yul\":1342:1394   */\n    tag_432:\n        /* \"#utility.yul\":1413:1442   */\n      tag_433\n        /* \"#utility.yul\":1432:1441   */\n      dup4\n        /* \"#utility.yul\":1413:1442   */\n      tag_421\n      jump\t// in\n    tag_433:\n        /* \"#utility.yul\":1403:1442   */\n      swap2\n      pop\n        /* \"#utility.yul\":1461:1499   */\n      tag_434\n        /* \"#utility.yul\":1495:1497   */\n      0x20\n        /* \"#utility.yul\":1484:1493   */\n      dup5\n        /* \"#utility.yul\":1480:1498   */\n      add\n        /* \"#utility.yul\":1461:1499   */\n      tag_421\n      jump\t// in\n    tag_434:\n        /* \"#utility.yul\":1451:1499   */\n      swap1\n      pop\n        /* \"#utility.yul\":1245:1505   */\n      swap3\n      pop\n      swap3\n      swap1\n      pop\n      jump\t// out\n        /* \"#utility.yul\":1510:1838   */\n    tag_48:\n        /* \"#utility.yul\":1587:1593   */\n      0x00\n        /* \"#utility.yul\":1595:1601   */\n      dup1\n        /* \"#utility.yul\":1603:1609   */\n      0x00\n        /* \"#utility.yul\":1656:1658   */\n      0x60\n        /* \"#utility.yul\":1644:1653   */\n      dup5\n        /* \"#utility.yul\":1635:1642   */\n      dup7\n        /* \"#utility.yul\":1631:1654   */\n      sub\n        /* \"#utility.yul\":1627:1659   */\n      slt\n        /* \"#utility.yul\":1624:1676   */\n      iszero\n      tag_436\n      jumpi\n        /* \"#utility.yul\":1672:1673   */\n      0x00\n        /* \"#utility.yul\":1669:1670   */\n      dup1\n        /* \"#utility.yul\":1662:1674   */\n      revert\n        /* \"#utility.yul\":1624:1676   */\n    tag_436:\n        /* \"#utility.yul\":1695:1724   */\n      tag_437\n        /* \"#utility.yul\":1714:1723   */\n      dup5\n        /* \"#utility.yul\":1695:1724   */\n      tag_421\n      jump\t// in\n    tag_437:\n        /* \"#utility.yul\":1685:1724   */\n      swap3\n      pop\n        /* \"#utility.yul\":1743:1781   */\n      tag_438\n        /* \"#utility.yul\":1777:1779   */\n      0x20\n        /* \"#utility.yul\":1766:1775   */\n      dup6\n        /* \"#utility.yul\":1762:1780   */\n      add\n        /* \"#utility.yul\":1743:1781   */\n      tag_421\n      jump\t// in\n    tag_438:\n        /* \"#utility.yul\":1733:1781   */\n      swap2\n      pop\n        /* \"#utility.yul\":1828:1830   */\n      0x40\n        /* \"#utility.yul\":1817:1826   */\n      dup5\n        /* \"#utility.yul\":1813:1831   */\n      add\n        /* \"#utility.yul\":1800:1832   */\n      calldataload\n        /* \"#utility.yul\":1790:1832   */\n      swap1\n      pop\n        /* \"#utility.yul\":1510:1838   */\n      swap3\n      pop\n      swap3\n      pop\n      swap3\n      jump\t// out\n        /* \"#utility.yul\":1843:2509   */\n    tag_84:\n        /* \"#utility.yul\":1938:1944   */\n      0x00\n        /* \"#utility.yul\":1946:1952   */\n      dup1\n        /* \"#utility.yul\":1954:1960   */\n      0x00\n        /* \"#utility.yul\":1962:1968   */\n      dup1\n        /* \"#utility.yul\":2015:2018   */\n      0x80\n        /* \"#utility.yul\":2003:2012   */\n      dup6\n        /* \"#utility.yul\":1994:2001   */\n      dup8\n        /* \"#utility.yul\":1990:2013   */\n      sub\n        /* \"#utility.yul\":1986:2019   */\n      slt\n        /* \"#utility.yul\":1983:2036   */\n      iszero\n      tag_440\n      jumpi\n        /* \"#utility.yul\":2032:2033   */\n      0x00\n        /* \"#utility.yul\":2029:2030   */\n      dup1\n        /* \"#utility.yul\":2022:2034   */\n      revert\n        /* \"#utility.yul\":1983:2036   */\n    tag_440:\n        /* \"#utility.yul\":2055:2084   */\n      tag_441\n        /* \"#utility.yul\":2074:2083   */\n      dup6\n        /* \"#utility.yul\":2055:2084   */\n      tag_421\n      jump\t// in\n    tag_441:\n        /* \"#utility.yul\":2045:2084   */\n      swap4\n      pop\n        /* \"#utility.yul\":2103:2141   */\n      tag_442\n        /* \"#utility.yul\":2137:2139   */\n      0x20\n        /* \"#utility.yul\":2126:2135   */\n      dup7\n        /* \"#utility.yul\":2122:2140   */\n      add\n        /* \"#utility.yul\":2103:2141   */\n      tag_421\n      jump\t// in\n    tag_442:\n        /* \"#utility.yul\":2093:2141   */\n      swap3\n      pop\n        /* \"#utility.yul\":2188:2190   */\n      0x40\n        /* \"#utility.yul\":2177:2186   */\n      dup6\n        /* \"#utility.yul\":2173:2191   */\n      add\n        /* \"#utility.yul\":2160:2192   */\n      calldataload\n        /* \"#utility.yul\":2150:2192   */\n      swap2\n      pop\n        /* \"#utility.yul\":2243:2245   */\n      0x60\n        /* \"#utility.yul\":2232:2241   */\n      dup6\n        /* \"#utility.yul\":2228:2246   */\n      add\n        /* \"#utility.yul\":2215:2247   */\n      calldataload\n        /* \"#utility.yul\":2270:2288   */\n      0xffffffffffffffff\n        /* \"#utility.yul\":2262:2268   */\n      dup2\n        /* \"#utility.yul\":2259:2289   */\n      gt\n        /* \"#utility.yul\":2256:2306   */\n      iszero\n      tag_443\n      jumpi\n        /* \"#utility.yul\":2302:2303   */\n      0x00\n        /* \"#utility.yul\":2299:2300   */\n      dup1\n        /* \"#utility.yul\":2292:2304   */\n      revert\n        /* \"#utility.yul\":2256:2306   */\n    tag_443:\n        /* \"#utility.yul\":2325:2347   */\n      dup6\n      add\n        /* \"#utility.yul\":2378:2382   */\n      0x1f\n        /* \"#utility.yul\":2370:2383   */\n      dup2\n      add\n        /* \"#utility.yul\":2366:2393   */\n      dup8\n      sgt\n        /* \"#utility.yul\":2356:2411   */\n      tag_444\n      jumpi\n        /* \"#utility.yul\":2407:2408   */\n      0x00\n        /* \"#utility.yul\":2404:2405   */\n      dup1\n        /* \"#utility.yul\":2397:2409   */\n      revert\n        /* \"#utility.yul\":2356:2411   */\n    tag_444:\n        /* \"#utility.yul\":2430:2503   */\n      tag_445\n        /* \"#utility.yul\":2495:2502   */\n      dup8\n        /* \"#utility.yul\":2490:2492   */\n      dup3\n        /* \"#utility.yul\":2477:2493   */\n      calldataload\n        /* \"#utility.yul\":2472:2474   */\n      0x20\n        /* \"#utility.yul\":2468:2470   */\n      dup5\n        /* \"#utility.yul\":2464:2475   */\n      add\n        /* \"#utility.yul\":2430:2503   */\n      tag_414\n      jump\t// in\n    tag_445:\n        /* \"#utility.yul\":2420:2503   */\n      swap2\n      pop\n      pop\n        /* \"#utility.yul\":1843:2509   */\n      swap3\n      swap6\n      swap2\n      swap5\n      pop\n      swap3\n      pop\n      jump\t// out\n        /* \"#utility.yul\":2514:2861   */\n    tag_80:\n        /* \"#utility.yul\":2579:2585   */\n      0x00\n        /* \"#utility.yul\":2587:2593   */\n      dup1\n        /* \"#utility.yul\":2640:2642   */\n      0x40\n        /* \"#utility.yul\":2628:2637   */\n      dup4\n        /* \"#utility.yul\":2619:2626   */\n      dup6\n        /* \"#utility.yul\":2615:2638   */\n      sub\n        /* \"#utility.yul\":2611:2643   */\n      slt\n        /* \"#utility.yul\":2608:2660   */\n      iszero\n      tag_447\n      jumpi\n        /* \"#utility.yul\":2656:2657   */\n      0x00\n        /* \"#utility.yul\":2653:2654   */\n      dup1\n        /* \"#utility.yul\":2646:2658   */\n      revert\n        /* \"#utility.yul\":2608:2660   */\n    tag_447:\n        /* \"#utility.yul\":2679:2708   */\n      tag_448\n        /* \"#utility.yul\":2698:2707   */\n      dup4\n        /* \"#utility.yul\":2679:2708   */\n      tag_421\n      jump\t// in\n    tag_448:\n        /* \"#utility.yul\":2669:2708   */\n      swap2\n      pop\n        /* \"#utility.yul\":2758:2760   */\n      0x20\n        /* \"#utility.yul\":2747:2756   */\n      dup4\n        /* \"#utility.yul\":2743:2761   */\n      add\n        /* \"#utility.yul\":2730:2762   */\n      calldataload\n        /* \"#utility.yul\":2805:2810   */\n      dup1\n        /* \"#utility.yul\":2798:2811   */\n      iszero\n        /* \"#utility.yul\":2791:2812   */\n      iszero\n        /* \"#utility.yul\":2784:2789   */\n      dup2\n        /* \"#utility.yul\":2781:2813   */\n      eq\n        /* \"#utility.yul\":2771:2831   */\n      tag_449\n      jumpi\n        /* \"#utility.yul\":2827:2828   */\n      0x00\n        /* \"#utility.yul\":2824:2825   */\n      dup1\n        /* \"#utility.yul\":2817:2829   */\n      revert\n        /* \"#utility.yul\":2771:2831   */\n    tag_449:\n        /* \"#utility.yul\":2850:2855   */\n      dup1\n        /* \"#utility.yul\":2840:2855   */\n      swap2\n      pop\n      pop\n        /* \"#utility.yul\":2514:2861   */\n      swap3\n      pop\n      swap3\n      swap1\n      pop\n      jump\t// out\n        /* \"#utility.yul\":2866:3262   */\n    tag_92:\n        /* \"#utility.yul\":2944:2950   */\n      0x00\n        /* \"#utility.yul\":2952:2958   */\n      dup1\n        /* \"#utility.yul\":3005:3007   */\n      0x40\n        /* \"#utility.yul\":2993:3002   */\n      dup4\n        /* \"#utility.yul\":2984:2991   */\n      dup6\n        /* \"#utility.yul\":2980:3003   */\n      sub\n        /* \"#utility.yul\":2976:3008   */\n      slt\n        /* \"#utility.yul\":2973:3025   */\n      iszero\n      tag_451\n      jumpi\n        /* \"#utility.yul\":3021:3022   */\n      0x00\n        /* \"#utility.yul\":3018:3019   */\n      dup1\n        /* \"#utility.yul\":3011:3023   */\n      revert\n        /* \"#utility.yul\":2973:3025   */\n    tag_451:\n        /* \"#utility.yul\":3044:3073   */\n      tag_452\n        /* \"#utility.yul\":3063:3072   */\n      dup4\n        /* \"#utility.yul\":3044:3073   */\n      tag_421\n      jump\t// in\n    tag_452:\n        /* \"#utility.yul\":3034:3073   */\n      swap2\n      pop\n        /* \"#utility.yul\":3124:3126   */\n      0x20\n        /* \"#utility.yul\":3113:3122   */\n      dup4\n        /* \"#utility.yul\":3109:3127   */\n      add\n        /* \"#utility.yul\":3096:3128   */\n      calldataload\n        /* \"#utility.yul\":3151:3169   */\n      0xffffffffffffffff\n        /* \"#utility.yul\":3143:3149   */\n      dup2\n        /* \"#utility.yul\":3140:3170   */\n      gt\n        /* \"#utility.yul\":3137:3187   */\n      iszero\n      tag_453\n      jumpi\n        /* \"#utility.yul\":3183:3184   */\n      0x00\n        /* \"#utility.yul\":3180:3181   */\n      dup1\n        /* \"#utility.yul\":3173:3185   */\n      revert\n        /* \"#utility.yul\":3137:3187   */\n    tag_453:\n        /* \"#utility.yul\":3206:3256   */\n      tag_454\n        /* \"#utility.yul\":3248:3255   */\n      dup6\n        /* \"#utility.yul\":3239:3245   */\n      dup3\n        /* \"#utility.yul\":3228:3237   */\n      dup7\n        /* \"#utility.yul\":3224:3246   */\n      add\n        /* \"#utility.yul\":3206:3256   */\n      tag_424\n      jump\t// in\n    tag_454:\n        /* \"#utility.yul\":3196:3256   */\n      swap2\n      pop\n      pop\n        /* \"#utility.yul\":2866:3262   */\n      swap3\n      pop\n      swap3\n      swap1\n      pop\n      jump\t// out\n        /* \"#utility.yul\":3267:3521   */\n    tag_44:\n        /* \"#utility.yul\":3335:3341   */\n      0x00\n        /* \"#utility.yul\":3343:3349   */\n      dup1\n        /* \"#utility.yul\":3396:3398   */\n      0x40\n        /* \"#utility.yul\":3384:3393   */\n      dup4\n        /* \"#utility.yul\":3375:3382   */\n      dup6\n        /* \"#utility.yul\":3371:3394   */\n      sub\n        /* \"#utility.yul\":3367:3399   */\n      slt\n        /* \"#utility.yul\":3364:3416   */\n      iszero\n      tag_456\n      jumpi\n        /* \"#utility.yul\":3412:3413   */\n      0x00\n        /* \"#utility.yul\":3409:3410   */\n      dup1\n        /* \"#utility.yul\":3402:3414   */\n      revert\n        /* \"#utility.yul\":3364:3416   */\n    tag_456:\n        /* \"#utility.yul\":3435:3464   */\n      tag_457\n        /* \"#utility.yul\":3454:3463   */\n      dup4\n        /* \"#utility.yul\":3435:3464   */\n      tag_421\n      jump\t// in\n    tag_457:\n        /* \"#utility.yul\":3425:3464   */\n      swap5\n        /* \"#utility.yul\":3511:3513   */\n      0x20\n        /* \"#utility.yul\":3496:3514   */\n      swap4\n      swap1\n      swap4\n      add\n        /* \"#utility.yul\":3483:3515   */\n      calldataload\n      swap4\n      pop\n      pop\n      pop\n        /* \"#utility.yul\":3267:3521   */\n      jump\t// out\n        /* \"#utility.yul\":3526:3771   */\n    tag_28:\n        /* \"#utility.yul\":3584:3590   */\n      0x00\n        /* \"#utility.yul\":3637:3639   */\n      0x20\n        /* \"#utility.yul\":3625:3634   */\n      dup3\n        /* \"#utility.yul\":3616:3623   */\n      dup5\n        /* \"#utility.yul\":3612:3635   */\n      sub\n        /* \"#utility.yul\":3608:3640   */\n      slt\n        /* \"#utility.yul\":3605:3657   */\n      iszero\n      tag_459\n      jumpi\n        /* \"#utility.yul\":3653:3654   */\n      0x00\n        /* \"#utility.yul\":3650:3651   */\n      dup1\n        /* \"#utility.yul\":3643:3655   */\n      revert\n        /* \"#utility.yul\":3605:3657   */\n    tag_459:\n        /* \"#utility.yul\":3692:3701   */\n      dup2\n        /* \"#utility.yul\":3679:3702   */\n      calldataload\n        /* \"#utility.yul\":3711:3741   */\n      tag_349\n        /* \"#utility.yul\":3735:3740   */\n      dup2\n        /* \"#utility.yul\":3711:3741   */\n      tag_461\n      jump\t// in\n        /* \"#utility.yul\":3776:4025   */\n    tag_329:\n        /* \"#utility.yul\":3845:3851   */\n      0x00\n        /* \"#utility.yul\":3898:3900   */\n      0x20\n        /* \"#utility.yul\":3886:3895   */\n      dup3\n        /* \"#utility.yul\":3877:3884   */\n      dup5\n        /* \"#utility.yul\":3873:3896   */\n      sub\n        /* \"#utility.yul\":3869:3901   */\n      slt\n        /* \"#utility.yul\":3866:3918   */\n      iszero\n      tag_463\n      jumpi\n        /* \"#utility.yul\":3914:3915   */\n      0x00\n        /* \"#utility.yul\":3911:3912   */\n      dup1\n        /* \"#utility.yul\":3904:3916   */\n      revert\n        /* \"#utility.yul\":3866:3918   */\n    tag_463:\n        /* \"#utility.yul\":3946:3955   */\n      dup2\n        /* \"#utility.yul\":3940:3956   */\n      mload\n        /* \"#utility.yul\":3965:3995   */\n      tag_349\n        /* \"#utility.yul\":3989:3994   */\n      dup2\n        /* \"#utility.yul\":3965:3995   */\n      tag_461\n      jump\t// in\n        /* \"#utility.yul\":4030:4352   */\n    tag_58:\n        /* \"#utility.yul\":4099:4105   */\n      0x00\n        /* \"#utility.yul\":4152:4154   */\n      0x20\n        /* \"#utility.yul\":4140:4149   */\n      dup3\n        /* \"#utility.yul\":4131:4138   */\n      dup5\n        /* \"#utility.yul\":4127:4150   */\n      sub\n        /* \"#utility.yul\":4123:4155   */\n      slt\n        /* \"#utility.yul\":4120:4172   */\n      iszero\n      tag_466\n      jumpi\n        /* \"#utility.yul\":4168:4169   */\n      0x00\n        /* \"#utility.yul\":4165:4166   */\n      dup1\n        /* \"#utility.yul\":4158:4170   */\n      revert\n        /* \"#utility.yul\":4120:4172   */\n    tag_466:\n        /* \"#utility.yul\":4208:4217   */\n      dup2\n        /* \"#utility.yul\":4195:4218   */\n      calldataload\n        /* \"#utility.yul\":4241:4259   */\n      0xffffffffffffffff\n        /* \"#utility.yul\":4233:4239   */\n      dup2\n        /* \"#utility.yul\":4230:4260   */\n      gt\n        /* \"#utility.yul\":4227:4277   */\n      iszero\n      tag_467\n      jumpi\n        /* \"#utility.yul\":4273:4274   */\n      0x00\n        /* \"#utility.yul\":4270:4271   */\n      dup1\n        /* \"#utility.yul\":4263:4275   */\n      revert\n        /* \"#utility.yul\":4227:4277   */\n    tag_467:\n        /* \"#utility.yul\":4296:4346   */\n      tag_246\n        /* \"#utility.yul\":4338:4345   */\n      dup5\n        /* \"#utility.yul\":4329:4335   */\n      dup3\n        /* \"#utility.yul\":4318:4327   */\n      dup6\n        /* \"#utility.yul\":4314:4336   */\n      add\n        /* \"#utility.yul\":4296:4346   */\n      tag_424\n      jump\t// in\n        /* \"#utility.yul\":4357:4537   */\n    tag_38:\n        /* \"#utility.yul\":4416:4422   */\n      0x00\n        /* \"#utility.yul\":4469:4471   */\n      0x20\n        /* \"#utility.yul\":4457:4466   */\n      dup3\n        /* \"#utility.yul\":4448:4455   */\n      dup5\n        /* \"#utility.yul\":4444:4467   */\n      sub\n        /* \"#utility.yul\":4440:4472   */\n      slt\n        /* \"#utility.yul\":4437:4489   */\n      iszero\n      tag_470\n      jumpi\n        /* \"#utility.yul\":4485:4486   */\n      0x00\n        /* \"#utility.yul\":4482:4483   */\n      dup1\n        /* \"#utility.yul\":4475:4487   */\n      revert\n        /* \"#utility.yul\":4437:4489   */\n    tag_470:\n      pop\n        /* \"#utility.yul\":4508:4531   */\n      calldataload\n      swap2\n        /* \"#utility.yul\":4357:4537   */\n      swap1\n      pop\n      jump\t// out\n        /* \"#utility.yul\":4542:4799   */\n    tag_471:\n        /* \"#utility.yul\":4583:4586   */\n      0x00\n        /* \"#utility.yul\":4621:4626   */\n      dup2\n        /* \"#utility.yul\":4615:4627   */\n      mload\n        /* \"#utility.yul\":4648:4654   */\n      dup1\n        /* \"#utility.yul\":4643:4646   */\n      dup5\n        /* \"#utility.yul\":4636:4655   */\n      mstore\n        /* \"#utility.yul\":4664:4727   */\n      tag_473\n        /* \"#utility.yul\":4720:4726   */\n      dup2\n        /* \"#utility.yul\":4713:4717   */\n      0x20\n        /* \"#utility.yul\":4708:4711   */\n      dup7\n        /* \"#utility.yul\":4704:4718   */\n      add\n        /* \"#utility.yul\":4697:4701   */\n      0x20\n        /* \"#utility.yul\":4690:4695   */\n      dup7\n        /* \"#utility.yul\":4686:4702   */\n      add\n        /* \"#utility.yul\":4664:4727   */\n      tag_474\n      jump\t// in\n    tag_473:\n        /* \"#utility.yul\":4781:4783   */\n      0x1f\n        /* \"#utility.yul\":4760:4775   */\n      add\n      not(0x1f)\n        /* \"#utility.yul\":4756:4785   */\n      and\n        /* \"#utility.yul\":4747:4786   */\n      swap3\n      swap1\n      swap3\n      add\n        /* \"#utility.yul\":4788:4792   */\n      0x20\n        /* \"#utility.yul\":4743:4793   */\n      add\n      swap3\n        /* \"#utility.yul\":4542:4799   */\n      swap2\n      pop\n      pop\n      jump\t// out\n        /* \"#utility.yul\":4804:5274   */\n    tag_296:\n        /* \"#utility.yul\":4983:4986   */\n      0x00\n        /* \"#utility.yul\":5021:5027   */\n      dup4\n        /* \"#utility.yul\":5015:5028   */\n      mload\n        /* \"#utility.yul\":5037:5090   */\n      tag_476\n        /* \"#utility.yul\":5083:5089   */\n      dup2\n        /* \"#utility.yul\":5078:5081   */\n      dup5\n        /* \"#utility.yul\":5071:5075   */\n      0x20\n        /* \"#utility.yul\":5063:5069   */\n      dup9\n        /* \"#utility.yul\":5059:5076   */\n      add\n        /* \"#utility.yul\":5037:5090   */\n      tag_474\n      jump\t// in\n    tag_476:\n        /* \"#utility.yul\":5153:5166   */\n      dup4\n      mload\n        /* \"#utility.yul\":5112:5128   */\n      swap1\n      dup4\n      add\n      swap1\n        /* \"#utility.yul\":5175:5232   */\n      tag_477\n        /* \"#utility.yul\":5153:5166   */\n      dup2\n        /* \"#utility.yul\":5112:5128   */\n      dup4\n        /* \"#utility.yul\":5209:5213   */\n      0x20\n        /* \"#utility.yul\":5197:5214   */\n      dup9\n      add\n        /* \"#utility.yul\":5175:5232   */\n      tag_474\n      jump\t// in\n    tag_477:\n        /* \"#utility.yul\":5248:5268   */\n      add\n      swap5\n        /* \"#utility.yul\":4804:5274   */\n      swap4\n      pop\n      pop\n      pop\n      pop\n      jump\t// out\n        /* \"#utility.yul\":5487:5975   */\n    tag_325:\n      sub(shl(0xa0, 0x01), 0x01)\n        /* \"#utility.yul\":5756:5771   */\n      dup6\n      dup2\n      and\n        /* \"#utility.yul\":5738:5772   */\n      dup3\n      mstore\n        /* \"#utility.yul\":5808:5823   */\n      dup5\n      and\n        /* \"#utility.yul\":5803:5805   */\n      0x20\n        /* \"#utility.yul\":5788:5806   */\n      dup3\n      add\n        /* \"#utility.yul\":5781:5824   */\n      mstore\n        /* \"#utility.yul\":5855:5857   */\n      0x40\n        /* \"#utility.yul\":5840:5858   */\n      dup2\n      add\n        /* \"#utility.yul\":5833:5867   */\n      dup4\n      swap1\n      mstore\n        /* \"#utility.yul\":5903:5906   */\n      0x80\n        /* \"#utility.yul\":5898:5900   */\n      0x60\n        /* \"#utility.yul\":5883:5901   */\n      dup3\n      add\n        /* \"#utility.yul\":5876:5907   */\n      dup2\n      swap1\n      mstore\n        /* \"#utility.yul\":5681:5685   */\n      0x00\n      swap1\n        /* \"#utility.yul\":5924:5969   */\n      tag_480\n      swap1\n        /* \"#utility.yul\":5949:5968   */\n      dup4\n      add\n        /* \"#utility.yul\":5941:5947   */\n      dup5\n        /* \"#utility.yul\":5924:5969   */\n      tag_471\n      jump\t// in\n    tag_480:\n        /* \"#utility.yul\":5916:5969   */\n      swap7\n        /* \"#utility.yul\":5487:5975   */\n      swap6\n      pop\n      pop\n      pop\n      pop\n      pop\n      pop\n      jump\t// out\n        /* \"#utility.yul\":6172:6391   */\n    tag_35:\n        /* \"#utility.yul\":6321:6323   */\n      0x20\n        /* \"#utility.yul\":6310:6319   */\n      dup2\n        /* \"#utility.yul\":6303:6324   */\n      mstore\n        /* \"#utility.yul\":6284:6288   */\n      0x00\n        /* \"#utility.yul\":6341:6385   */\n      tag_349\n        /* \"#utility.yul\":6381:6383   */\n      0x20\n        /* \"#utility.yul\":6370:6379   */\n      dup4\n        /* \"#utility.yul\":6366:6384   */\n      add\n        /* \"#utility.yul\":6358:6364   */\n      dup5\n        /* \"#utility.yul\":6341:6385   */\n      tag_471\n      jump\t// in\n        /* \"#utility.yul\":6396:6810   */\n    tag_280:\n        /* \"#utility.yul\":6598:6600   */\n      0x20\n        /* \"#utility.yul\":6580:6601   */\n      dup1\n      dup3\n      mstore\n        /* \"#utility.yul\":6637:6639   */\n      0x32\n        /* \"#utility.yul\":6617:6635   */\n      swap1\n      dup3\n      add\n        /* \"#utility.yul\":6610:6640   */\n      mstore\n        /* \"#utility.yul\":6676:6710   */\n      0x4552433732313a207472616e7366657220746f206e6f6e204552433732315265\n        /* \"#utility.yul\":6671:6673   */\n      0x40\n        /* \"#utility.yul\":6656:6674   */\n      dup3\n      add\n        /* \"#utility.yul\":6649:6711   */\n      mstore\n      shl(0x71, 0x31b2b4bb32b91034b6b83632b6b2b73a32b9)\n        /* \"#utility.yul\":6742:6744   */\n      0x60\n        /* \"#utility.yul\":6727:6745   */\n      dup3\n      add\n        /* \"#utility.yul\":6720:6768   */\n      mstore\n        /* \"#utility.yul\":6800:6803   */\n      0x80\n        /* \"#utility.yul\":6785:6804   */\n      add\n      swap1\n        /* \"#utility.yul\":6396:6810   */\n      jump\t// out\n        /* \"#utility.yul\":12010:12366   */\n    tag_162:\n        /* \"#utility.yul\":12212:12214   */\n      0x20\n        /* \"#utility.yul\":12194:12215   */\n      dup1\n      dup3\n      mstore\n        /* \"#utility.yul\":12231:12249   */\n      dup2\n      dup2\n      add\n        /* \"#utility.yul\":12224:12254   */\n      mstore\n        /* \"#utility.yul\":12290:12324   */\n      0x4f776e61626c653a2063616c6c6572206973206e6f7420746865206f776e6572\n        /* \"#utility.yul\":12285:12287   */\n      0x40\n        /* \"#utility.yul\":12270:12288   */\n      dup3\n      add\n        /* \"#utility.yul\":12263:12325   */\n      mstore\n        /* \"#utility.yul\":12357:12359   */\n      0x60\n        /* \"#utility.yul\":12342:12360   */\n      add\n      swap1\n        /* \"#utility.yul\":12010:12366   */\n      jump\t// out\n        /* \"#utility.yul\":13189:13602   */\n    tag_144:\n        /* \"#utility.yul\":13391:13393   */\n      0x20\n        /* \"#utility.yul\":13373:13394   */\n      dup1\n      dup3\n      mstore\n        /* \"#utility.yul\":13430:13432   */\n      0x31\n        /* \"#utility.yul\":13410:13428   */\n      swap1\n      dup3\n      add\n        /* \"#utility.yul\":13403:13433   */\n      mstore\n        /* \"#utility.yul\":13469:13503   */\n      0x4552433732313a207472616e736665722063616c6c6572206973206e6f74206f\n        /* \"#utility.yul\":13464:13466   */\n      0x40\n        /* \"#utility.yul\":13449:13467   */\n      dup3\n      add\n        /* \"#utility.yul\":13442:13504   */\n      mstore\n      shl(0x7a, 0x1ddb995c881b9bdc88185c1c1c9bdd9959)\n        /* \"#utility.yul\":13535:13537   */\n      0x60\n        /* \"#utility.yul\":13520:13538   */\n      dup3\n      add\n        /* \"#utility.yul\":13513:13560   */\n      mstore\n        /* \"#utility.yul\":13592:13595   */\n      0x80\n        /* \"#utility.yul\":13577:13596   */\n      add\n      swap1\n        /* \"#utility.yul\":13189:13602   */\n      jump\t// out\n        /* \"#utility.yul\":14206:14334   */\n    tag_262:\n        /* \"#utility.yul\":14246:14249   */\n      0x00\n        /* \"#utility.yul\":14277:14278   */\n      dup3\n        /* \"#utility.yul\":14273:14279   */\n      not\n        /* \"#utility.yul\":14270:14271   */\n      dup3\n        /* \"#utility.yul\":14267:14280   */\n      gt\n        /* \"#utility.yul\":14264:14303   */\n      iszero\n      tag_506\n      jumpi\n        /* \"#utility.yul\":14283:14301   */\n      tag_506\n      tag_507\n      jump\t// in\n    tag_506:\n      pop\n        /* \"#utility.yul\":14319:14328   */\n      add\n      swap1\n        /* \"#utility.yul\":14206:14334   */\n      jump\t// out\n        /* \"#utility.yul\":14339:14459   */\n    tag_373:\n        /* \"#utility.yul\":14379:14380   */\n      0x00\n        /* \"#utility.yul\":14405:14406   */\n      dup3\n        /* \"#utility.yul\":14395:14430   */\n      tag_510\n      jumpi\n        /* \"#utility.yul\":14410:14428   */\n      tag_510\n      tag_511\n      jump\t// in\n    tag_510:\n      pop\n        /* \"#utility.yul\":14444:14453   */\n      div\n      swap1\n        /* \"#utility.yul\":14339:14459   */\n      jump\t// out\n        /* \"#utility.yul\":14464:14589   */\n    tag_260:\n        /* \"#utility.yul\":14504:14508   */\n      0x00\n        /* \"#utility.yul\":14532:14533   */\n      dup3\n        /* \"#utility.yul\":14529:14530   */\n      dup3\n        /* \"#utility.yul\":14526:14534   */\n      lt\n        /* \"#utility.yul\":14523:14557   */\n      iszero\n      tag_514\n      jumpi\n        /* \"#utility.yul\":14537:14555   */\n      tag_514\n      tag_507\n      jump\t// in\n    tag_514:\n      pop\n        /* \"#utility.yul\":14574:14583   */\n      sub\n      swap1\n        /* \"#utility.yul\":14464:14589   */\n      jump\t// out\n        /* \"#utility.yul\":14594:14852   */\n    tag_474:\n        /* \"#utility.yul\":14666:14667   */\n      0x00\n        /* \"#utility.yul\":14676:14789   */\n    tag_516:\n        /* \"#utility.yul\":14690:14696   */\n      dup4\n        /* \"#utility.yul\":14687:14688   */\n      dup2\n        /* \"#utility.yul\":14684:14697   */\n      lt\n        /* \"#utility.yul\":14676:14789   */\n      iszero\n      tag_518\n      jumpi\n        /* \"#utility.yul\":14766:14777   */\n      dup2\n      dup2\n      add\n        /* \"#utility.yul\":14760:14778   */\n      mload\n        /* \"#utility.yul\":14747:14758   */\n      dup4\n      dup3\n      add\n        /* \"#utility.yul\":14740:14779   */\n      mstore\n        /* \"#utility.yul\":14712:14714   */\n      0x20\n        /* \"#utility.yul\":14705:14715   */\n      add\n        /* \"#utility.yul\":14676:14789   */\n      jump(tag_516)\n    tag_518:\n        /* \"#utility.yul\":14807:14813   */\n      dup4\n        /* \"#utility.yul\":14804:14805   */\n      dup2\n        /* \"#utility.yul\":14801:14814   */\n      gt\n        /* \"#utility.yul\":14798:14846   */\n      iszero\n      tag_198\n      jumpi\n      pop\n      pop\n        /* \"#utility.yul\":14842:14843   */\n      0x00\n        /* \"#utility.yul\":14824:14840   */\n      swap2\n      add\n        /* \"#utility.yul\":14817:14844   */\n      mstore\n        /* \"#utility.yul\":14594:14852   */\n      jump\t// out\n        /* \"#utility.yul\":14857:15237   */\n    tag_112:\n        /* \"#utility.yul\":14936:14937   */\n      0x01\n        /* \"#utility.yul\":14932:14944   */\n      dup2\n      dup2\n      shr\n      swap1\n        /* \"#utility.yul\":14979:14991   */\n      dup3\n      and\n      dup1\n        /* \"#utility.yul\":15000:15061   */\n      tag_521\n      jumpi\n        /* \"#utility.yul\":15054:15058   */\n      0x7f\n        /* \"#utility.yul\":15046:15052   */\n      dup3\n        /* \"#utility.yul\":15042:15059   */\n      and\n        /* \"#utility.yul\":15032:15059   */\n      swap2\n      pop\n        /* \"#utility.yul\":15000:15061   */\n    tag_521:\n        /* \"#utility.yul\":15107:15109   */\n      0x20\n        /* \"#utility.yul\":15099:15105   */\n      dup3\n        /* \"#utility.yul\":15096:15110   */\n      lt\n        /* \"#utility.yul\":15076:15094   */\n      dup2\n        /* \"#utility.yul\":15073:15111   */\n      eq\n        /* \"#utility.yul\":15070:15231   */\n      iszero\n      tag_522\n      jumpi\n        /* \"#utility.yul\":15153:15163   */\n      0x4e487b71\n        /* \"#utility.yul\":15148:15151   */\n      0xe0\n        /* \"#utility.yul\":15144:15164   */\n      shl\n        /* \"#utility.yul\":15141:15142   */\n      0x00\n        /* \"#utility.yul\":15134:15165   */\n      mstore\n        /* \"#utility.yul\":15188:15192   */\n      0x22\n        /* \"#utility.yul\":15185:15186   */\n      0x04\n        /* \"#utility.yul\":15178:15193   */\n      mstore\n        /* \"#utility.yul\":15216:15220   */\n      0x24\n        /* \"#utility.yul\":15213:15214   */\n      0x00\n        /* \"#utility.yul\":15206:15221   */\n      revert\n        /* \"#utility.yul\":15070:15231   */\n    tag_522:\n      pop\n        /* \"#utility.yul\":14857:15237   */\n      swap2\n      swap1\n      pop\n      jump\t// out\n        /* \"#utility.yul\":15242:15377   */\n    tag_371:\n        /* \"#utility.yul\":15281:15284   */\n      0x00\n      not(0x00)\n        /* \"#utility.yul\":15302:15319   */\n      dup3\n      eq\n        /* \"#utility.yul\":15299:15342   */\n      iszero\n      tag_525\n      jumpi\n        /* \"#utility.yul\":15322:15340   */\n      tag_525\n      tag_507\n      jump\t// in\n    tag_525:\n      pop\n        /* \"#utility.yul\":15369:15370   */\n      0x01\n        /* \"#utility.yul\":15358:15371   */\n      add\n      swap1\n        /* \"#utility.yul\":15242:15377   */\n      jump\t// out\n        /* \"#utility.yul\":15382:15494   */\n    tag_382:\n        /* \"#utility.yul\":15414:15415   */\n      0x00\n        /* \"#utility.yul\":15440:15441   */\n      dup3\n        /* \"#utility.yul\":15430:15465   */\n      tag_528\n      jumpi\n        /* \"#utility.yul\":15445:15463   */\n      tag_528\n      tag_511\n      jump\t// in\n    tag_528:\n      pop\n        /* \"#utility.yul\":15479:15488   */\n      mod\n      swap1\n        /* \"#utility.yul\":15382:15494   */\n      jump\t// out\n        /* \"#utility.yul\":15499:15626   */\n    tag_507:\n        /* \"#utility.yul\":15560:15570   */\n      0x4e487b71\n        /* \"#utility.yul\":15555:15558   */\n      0xe0\n        /* \"#utility.yul\":15551:15571   */\n      shl\n        /* \"#utility.yul\":15548:15549   */\n      0x00\n        /* \"#utility.yul\":15541:15572   */\n      mstore\n        /* \"#utility.yul\":15591:15595   */\n      0x11\n        /* \"#utility.yul\":15588:15589   */\n      0x04\n        /* \"#utility.yul\":15581:15596   */\n      mstore\n        /* \"#utility.yul\":15615:15619   */\n      0x24\n        /* \"#utility.yul\":15612:15613   */\n      0x00\n        /* \"#utility.yul\":15605:15620   */\n      revert\n        /* \"#utility.yul\":15631:15758   */\n    tag_511:\n        /* \"#utility.yul\":15692:15702   */\n      0x4e487b71\n        /* \"#utility.yul\":15687:15690   */\n      0xe0\n        /* \"#utility.yul\":15683:15703   */\n      shl\n        /* \"#utility.yul\":15680:15681   */\n      0x00\n        /* \"#utility.yul\":15673:15704   */\n      mstore\n        /* \"#utility.yul\":15723:15727   */\n      0x12\n        /* \"#utility.yul\":15720:15721   */\n      0x04\n        /* \"#utility.yul\":15713:15728   */\n      mstore\n        /* \"#utility.yul\":15747:15751   */\n      0x24\n        /* \"#utility.yul\":15744:15745   */\n      0x00\n        /* \"#utility.yul\":15737:15752   */\n      revert\n        /* \"#utility.yul\":15763:15890   */\n    tag_386:\n        /* \"#utility.yul\":15824:15834   */\n      0x4e487b71\n        /* \"#utility.yul\":15819:15822   */\n      0xe0\n        /* \"#utility.yul\":15815:15835   */\n      shl\n        /* \"#utility.yul\":15812:15813   */\n      0x00\n        /* \"#utility.yul\":15805:15836   */\n      mstore\n        /* \"#utility.yul\":15855:15859   */\n      0x32\n        /* \"#utility.yul\":15852:15853   */\n      0x04\n        /* \"#utility.yul\":15845:15860   */\n      mstore\n        /* \"#utility.yul\":15879:15883   */\n      0x24\n        /* \"#utility.yul\":15876:15877   */\n      0x00\n        /* \"#utility.yul\":15869:15884   */\n      revert\n        /* \"#utility.yul\":15895:16022   */\n    tag_376:\n        /* \"#utility.yul\":15956:15966   */\n      0x4e487b71\n        /* \"#utility.yul\":15951:15954   */\n      0xe0\n        /* \"#utility.yul\":15947:15967   */\n      shl\n        /* \"#utility.yul\":15944:15945   */\n      0x00\n        /* \"#utility.yul\":15937:15968   */\n      mstore\n        /* \"#utility.yul\":15987:15991   */\n      0x41\n        /* \"#utility.yul\":15984:15985   */\n      0x04\n        /* \"#utility.yul\":15977:15992   */\n      mstore\n        /* \"#utility.yul\":16011:16015   */\n      0x24\n        /* \"#utility.yul\":16008:16009   */\n      0x00\n        /* \"#utility.yul\":16001:16016   */\n      revert\n        /* \"#utility.yul\":16027:16158   */\n    tag_461:\n      not(sub(shl(0xe0, 0x01), 0x01))\n        /* \"#utility.yul\":16101:16133   */\n      dup2\n      and\n        /* \"#utility.yul\":16091:16134   */\n      dup2\n      eq\n        /* \"#utility.yul\":16081:16152   */\n      tag_155\n      jumpi\n        /* \"#utility.yul\":16148:16149   */\n      0x00\n        /* \"#utility.yul\":16145:16146   */\n      dup1\n        /* \"#utility.yul\":16138:16150   */\n      revert\n\n    auxdata: 0xa264697066735822122075556b2b0693c63d4f30ba553ba3b20df21d26940246f6975bd898ef009f658c64736f6c63430008070033\n}\n",
				"bytecode": {
					"linkReferences": {},
					"object": "60806040523480156200001157600080fd5b50604080518082018252600781526626bcaa37b5b2b760c91b6020808301918252835180850190945260038452624d544b60e81b9084015281519192916200005c91600091620000eb565b50805162000072906001906020840190620000eb565b5050506200008f620000896200009560201b60201c565b62000099565b620001ce565b3390565b600780546001600160a01b038381166001600160a01b0319831681179093556040519116919082907f8be0079c531659141344cd1fd0a4f28419497f9722a3daafe3b4186f6b6457e090600090a35050565b828054620000f99062000191565b90600052602060002090601f0160209004810192826200011d576000855562000168565b82601f106200013857805160ff191683800117855562000168565b8280016001018555821562000168579182015b82811115620001685782518255916020019190600101906200014b565b50620001769291506200017a565b5090565b5b808211156200017657600081556001016200017b565b600181811c90821680620001a657607f821691505b60208210811415620001c857634e487b7160e01b600052602260045260246000fd5b50919050565b611bfa80620001de6000396000f3fe608060405234801561001057600080fd5b506004361061012c5760003560e01c8063715018a6116100ad578063c87b56dd11610071578063c87b56dd14610275578063d204c45e14610288578063d547cfb71461029b578063e985e9c5146102a3578063f2fde38b146102df57600080fd5b8063715018a61461022e5780638da5cb5b1461023657806395d89b4114610247578063a22cb4651461024f578063b88d4fde1461026257600080fd5b806342842e0e116100f457806342842e0e146101c157806342966c68146101d457806355f804b3146101e75780636352211e146101fa57806370a082311461020d57600080fd5b806301ffc9a71461013157806306fdde0314610159578063081812fc1461016e578063095ea7b31461019957806323b872dd146101ae575b600080fd5b61014461013f366004611872565b6102f2565b60405190151581526020015b60405180910390f35b610161610344565b6040516101509190611992565b61018161017c3660046118e1565b6103d6565b6040516001600160a01b039091168152602001610150565b6101ac6101a7366004611848565b610463565b005b6101ac6101bc366004611706565b610579565b6101ac6101cf366004611706565b6105ab565b6101ac6101e23660046118e1565b6105c6565b6101ac6101f53660046118ac565b610640565b6101816102083660046118e1565b610681565b61022061021b3660046116b8565b6106f8565b604051908152602001610150565b6101ac61077f565b6007546001600160a01b0316610181565b6101616107b5565b6101ac61025d3660046117be565b6107c4565b6101ac610270366004611742565b6107cf565b6101616102833660046118e1565b610807565b6101ac6102963660046117fa565b610812565b61016161086b565b6101446102b13660046116d3565b6001600160a01b03918216600090815260056020908152604080832093909416825291909152205460ff1690565b6101ac6102ed3660046116b8565b6108f9565b60006001600160e01b031982166380ac58cd60e01b148061032357506001600160e01b03198216635b5e139f60e01b145b8061033e57506301ffc9a760e01b6001600160e01b03198316145b92915050565b60606000805461035390611aec565b80601f016020809104026020016040519081016040528092919081815260200182805461037f90611aec565b80156103cc5780601f106103a1576101008083540402835291602001916103cc565b820191906000526020600020905b8154815290600101906020018083116103af57829003601f168201915b5050505050905090565b60006103e182610991565b6104475760405162461bcd60e51b815260206004820152602c60248201527f4552433732313a20617070726f76656420717565727920666f72206e6f6e657860448201526b34b9ba32b73a103a37b5b2b760a11b60648201526084015b60405180910390fd5b506000908152600460205260409020546001600160a01b031690565b600061046e82610681565b9050806001600160a01b0316836001600160a01b031614156104dc5760405162461bcd60e51b815260206004820152602160248201527f4552433732313a20617070726f76616c20746f2063757272656e74206f776e656044820152603960f91b606482015260840161043e565b336001600160a01b03821614806104f857506104f881336102b1565b61056a5760405162461bcd60e51b815260206004820152603860248201527f4552433732313a20617070726f76652063616c6c6572206973206e6f74206f7760448201527f6e6572206e6f7220617070726f76656420666f7220616c6c0000000000000000606482015260840161043e565b61057483836109ae565b505050565b610584335b82610a1c565b6105a05760405162461bcd60e51b815260040161043e90611a2c565b610574838383610b06565b610574838383604051806020016040528060008152506107cf565b6105cf3361057e565b6106345760405162461bcd60e51b815260206004820152603060248201527f4552433732314275726e61626c653a2063616c6c6572206973206e6f74206f7760448201526f1b995c881b9bdc88185c1c1c9bdd995960821b606482015260840161043e565b61063d81610ca2565b50565b6007546001600160a01b0316331461066a5760405162461bcd60e51b815260040161043e906119f7565b805161067d906009906020840190611537565b5050565b6000818152600260205260408120546001600160a01b03168061033e5760405162461bcd60e51b815260206004820152602960248201527f4552433732313a206f776e657220717565727920666f72206e6f6e657869737460448201526832b73a103a37b5b2b760b91b606482015260840161043e565b60006001600160a01b0382166107635760405162461bcd60e51b815260206004820152602a60248201527f4552433732313a2062616c616e636520717565727920666f7220746865207a65604482015269726f206164647265737360b01b606482015260840161043e565b506001600160a01b031660009081526003602052604090205490565b6007546001600160a01b031633146107a95760405162461bcd60e51b815260040161043e906119f7565b6107b36000610cab565b565b60606001805461035390611aec565b61067d338383610cfd565b6107d93383610a1c565b6107f55760405162461bcd60e51b815260040161043e90611a2c565b61080184848484610dcc565b50505050565b606061033e82610dff565b6007546001600160a01b0316331461083c5760405162461bcd60e51b815260040161043e906119f7565b600061084760085490565b9050610857600880546001019055565b6108618382610f6e565b6105748183610f88565b6009805461087890611aec565b80601f01602080910402602001604051908101604052809291908181526020018280546108a490611aec565b80156108f15780601f106108c6576101008083540402835291602001916108f1565b820191906000526020600020905b8154815290600101906020018083116108d457829003601f168201915b505050505081565b6007546001600160a01b031633146109235760405162461bcd60e51b815260040161043e906119f7565b6001600160a01b0381166109885760405162461bcd60e51b815260206004820152602660248201527f4f776e61626c653a206e6577206f776e657220697320746865207a65726f206160448201526564647265737360d01b606482015260840161043e565b61063d81610cab565b6000908152600260205260409020546001600160a01b0316151590565b600081815260046020526040902080546001600160a01b0319166001600160a01b03841690811790915581906109e382610681565b6001600160a01b03167f8c5be1e5ebec7d5bd14f71427d1e84f3dd0314c0f7b2291e5b200ac8c7c3b92560405160405180910390a45050565b6000610a2782610991565b610a885760405162461bcd60e51b815260206004820152602c60248201527f4552433732313a206f70657261746f7220717565727920666f72206e6f6e657860448201526b34b9ba32b73a103a37b5b2b760a11b606482015260840161043e565b6000610a9383610681565b9050806001600160a01b0316846001600160a01b03161480610ada57506001600160a01b0380821660009081526005602090815260408083209388168352929052205460ff165b80610afe5750836001600160a01b0316610af3846103d6565b6001600160a01b0316145b949350505050565b826001600160a01b0316610b1982610681565b6001600160a01b031614610b7d5760405162461bcd60e51b815260206004820152602560248201527f4552433732313a207472616e736665722066726f6d20696e636f72726563742060448201526437bbb732b960d91b606482015260840161043e565b6001600160a01b038216610bdf5760405162461bcd60e51b8152602060048201526024808201527f4552433732313a207472616e7366657220746f20746865207a65726f206164646044820152637265737360e01b606482015260840161043e565b610bea6000826109ae565b6001600160a01b0383166000908152600360205260408120805460019290610c13908490611aa9565b90915550506001600160a01b0382166000908152600360205260408120805460019290610c41908490611a7d565b909155505060008181526002602052604080822080546001600160a01b0319166001600160a01b0386811691821790925591518493918716917fddf252ad1be2c89b69c2b068fc378daa952ba7f163c4a11628f55a4df523b3ef91a4505050565b61063d81611013565b600780546001600160a01b038381166001600160a01b0319831681179093556040519116919082907f8be0079c531659141344cd1fd0a4f28419497f9722a3daafe3b4186f6b6457e090600090a35050565b816001600160a01b0316836001600160a01b03161415610d5f5760405162461bcd60e51b815260206004820152601960248201527f4552433732313a20617070726f766520746f2063616c6c657200000000000000604482015260640161043e565b6001600160a01b03838116600081815260056020908152604080832094871680845294825291829020805460ff191686151590811790915591519182527f17307eab39ab6107e8899845ad3d59bd9653f200f220920489ca2b5937696c31910160405180910390a3505050565b610dd7848484610b06565b610de384848484611053565b6108015760405162461bcd60e51b815260040161043e906119a5565b6060610e0a82610991565b610e705760405162461bcd60e51b815260206004820152603160248201527f45524337323155524953746f726167653a2055524920717565727920666f72206044820152703737b732bc34b9ba32b73a103a37b5b2b760791b606482015260840161043e565b60008281526006602052604081208054610e8990611aec565b80601f0160208091040260200160405190810160405280929190818152602001828054610eb590611aec565b8015610f025780601f10610ed757610100808354040283529160200191610f02565b820191906000526020600020905b815481529060010190602001808311610ee557829003601f168201915b505050505090506000610f2060408051602081019091526000815290565b9050805160001415610f33575092915050565b815115610f65578082604051602001610f4d929190611926565b60405160208183030381529060405292505050919050565b610afe84611160565b61067d828260405180602001604052806000815250611238565b610f9182610991565b610ff45760405162461bcd60e51b815260206004820152602e60248201527f45524337323155524953746f726167653a2055524920736574206f66206e6f6e60448201526d32bc34b9ba32b73a103a37b5b2b760911b606482015260840161043e565b6000828152600660209081526040909120825161057492840190611537565b61101c8161126b565b6000818152600660205260409020805461103590611aec565b15905061063d57600081815260066020526040812061063d916115bb565b60006001600160a01b0384163b1561115557604051630a85bd0160e11b81526001600160a01b0385169063150b7a0290611097903390899088908890600401611955565b602060405180830381600087803b1580156110b157600080fd5b505af19250505080156110e1575060408051601f3d908101601f191682019092526110de9181019061188f565b60015b61113b573d80801561110f576040519150601f19603f3d011682016040523d82523d6000602084013e611114565b606091505b5080516111335760405162461bcd60e51b815260040161043e906119a5565b805181602001fd5b6001600160e01b031916630a85bd0160e11b149050610afe565b506001949350505050565b606061116b82610991565b6111cf5760405162461bcd60e51b815260206004820152602f60248201527f4552433732314d657461646174613a2055524920717565727920666f72206e6f60448201526e3732bc34b9ba32b73a103a37b5b2b760891b606482015260840161043e565b60006111e660408051602081019091526000815290565b905060008151116112065760405180602001604052806000815250611231565b8061121084611306565b604051602001611221929190611926565b6040516020818303038152906040525b9392505050565b6112428383611404565b61124f6000848484611053565b6105745760405162461bcd60e51b815260040161043e906119a5565b600061127682610681565b90506112836000836109ae565b6001600160a01b03811660009081526003602052604081208054600192906112ac908490611aa9565b909155505060008281526002602052604080822080546001600160a01b0319169055518391906001600160a01b038416907fddf252ad1be2c89b69c2b068fc378daa952ba7f163c4a11628f55a4df523b3ef908390a45050565b60608161132a5750506040805180820190915260018152600360fc1b602082015290565b8160005b8115611354578061133e81611b27565b915061134d9050600a83611a95565b915061132e565b60008167ffffffffffffffff81111561136f5761136f611b98565b6040519080825280601f01601f191660200182016040528015611399576020820181803683370190505b5090505b8415610afe576113ae600183611aa9565b91506113bb600a86611b42565b6113c6906030611a7d565b60f81b8183815181106113db576113db611b82565b60200101906001600160f81b031916908160001a9053506113fd600a86611a95565b945061139d565b6001600160a01b03821661145a5760405162461bcd60e51b815260206004820181905260248201527f4552433732313a206d696e7420746f20746865207a65726f2061646472657373604482015260640161043e565b61146381610991565b156114b05760405162461bcd60e51b815260206004820152601c60248201527f4552433732313a20746f6b656e20616c7265616479206d696e74656400000000604482015260640161043e565b6001600160a01b03821660009081526003602052604081208054600192906114d9908490611a7d565b909155505060008181526002602052604080822080546001600160a01b0319166001600160a01b03861690811790915590518392907fddf252ad1be2c89b69c2b068fc378daa952ba7f163c4a11628f55a4df523b3ef908290a45050565b82805461154390611aec565b90600052602060002090601f01602090048101928261156557600085556115ab565b82601f1061157e57805160ff19168380011785556115ab565b828001600101855582156115ab579182015b828111156115ab578251825591602001919060010190611590565b506115b79291506115f1565b5090565b5080546115c790611aec565b6000825580601f106115d7575050565b601f01602090049060005260206000209081019061063d91905b5b808211156115b757600081556001016115f2565b600067ffffffffffffffff8084111561162157611621611b98565b604051601f8501601f19908116603f0116810190828211818310171561164957611649611b98565b8160405280935085815286868601111561166257600080fd5b858560208301376000602087830101525050509392505050565b80356001600160a01b038116811461169357600080fd5b919050565b600082601f8301126116a957600080fd5b61123183833560208501611606565b6000602082840312156116ca57600080fd5b6112318261167c565b600080604083850312156116e657600080fd5b6116ef8361167c565b91506116fd6020840161167c565b90509250929050565b60008060006060848603121561171b57600080fd5b6117248461167c565b92506117326020850161167c565b9150604084013590509250925092565b6000806000806080858703121561175857600080fd5b6117618561167c565b935061176f6020860161167c565b925060408501359150606085013567ffffffffffffffff81111561179257600080fd5b8501601f810187136117a357600080fd5b6117b287823560208401611606565b91505092959194509250565b600080604083850312156117d157600080fd5b6117da8361167c565b9150602083013580151581146117ef57600080fd5b809150509250929050565b6000806040838503121561180d57600080fd5b6118168361167c565b9150602083013567ffffffffffffffff81111561183257600080fd5b61183e85828601611698565b9150509250929050565b6000806040838503121561185b57600080fd5b6118648361167c565b946020939093013593505050565b60006020828403121561188457600080fd5b813561123181611bae565b6000602082840312156118a157600080fd5b815161123181611bae565b6000602082840312156118be57600080fd5b813567ffffffffffffffff8111156118d557600080fd5b610afe84828501611698565b6000602082840312156118f357600080fd5b5035919050565b60008151808452611912816020860160208601611ac0565b601f01601f19169290920160200192915050565b60008351611938818460208801611ac0565b83519083019061194c818360208801611ac0565b01949350505050565b6001600160a01b0385811682528416602082015260408101839052608060608201819052600090611988908301846118fa565b9695505050505050565b60208152600061123160208301846118fa565b60208082526032908201527f4552433732313a207472616e7366657220746f206e6f6e20455243373231526560408201527131b2b4bb32b91034b6b83632b6b2b73a32b960711b606082015260800190565b6020808252818101527f4f776e61626c653a2063616c6c6572206973206e6f7420746865206f776e6572604082015260600190565b60208082526031908201527f4552433732313a207472616e736665722063616c6c6572206973206e6f74206f6040820152701ddb995c881b9bdc88185c1c1c9bdd9959607a1b606082015260800190565b60008219821115611a9057611a90611b56565b500190565b600082611aa457611aa4611b6c565b500490565b600082821015611abb57611abb611b56565b500390565b60005b83811015611adb578181015183820152602001611ac3565b838111156108015750506000910152565b600181811c90821680611b0057607f821691505b60208210811415611b2157634e487b7160e01b600052602260045260246000fd5b50919050565b6000600019821415611b3b57611b3b611b56565b5060010190565b600082611b5157611b51611b6c565b500690565b634e487b7160e01b600052601160045260246000fd5b634e487b7160e01b600052601260045260246000fd5b634e487b7160e01b600052603260045260246000fd5b634e487b7160e01b600052604160045260246000fd5b6001600160e01b03198116811461063d57600080fdfea264697066735822122075556b2b0693c63d4f30ba553ba3b20df21d26940246f6975bd898ef009f658c64736f6c63430008070033",
					"opcodes": "PUSH1 0x80 PUSH1 0x40 MSTORE CALLVALUE DUP1 ISZERO PUSH3 0x11 JUMPI PUSH1 0x0 DUP1 REVERT JUMPDEST POP PUSH1 0x40 DUP1 MLOAD DUP1 DUP3 ADD DUP3 MSTORE PUSH1 0x7 DUP2 MSTORE PUSH7 0x26BCAA37B5B2B7 PUSH1 0xC9 SHL PUSH1 0x20 DUP1 DUP4 ADD SWAP2 DUP3 MSTORE DUP4 MLOAD DUP1 DUP6 ADD SWAP1 SWAP5 MSTORE PUSH1 0x3 DUP5 MSTORE PUSH3 0x4D544B PUSH1 0xE8 SHL SWAP1 DUP5 ADD MSTORE DUP2 MLOAD SWAP2 SWAP3 SWAP2 PUSH3 0x5C SWAP2 PUSH1 0x0 SWAP2 PUSH3 0xEB JUMP JUMPDEST POP DUP1 MLOAD PUSH3 0x72 SWAP1 PUSH1 0x1 SWAP1 PUSH1 0x20 DUP5 ADD SWAP1 PUSH3 0xEB JUMP JUMPDEST POP POP POP PUSH3 0x8F PUSH3 0x89 PUSH3 0x95 PUSH1 0x20 SHL PUSH1 0x20 SHR JUMP JUMPDEST PUSH3 0x99 JUMP JUMPDEST PUSH3 0x1CE JUMP JUMPDEST CALLER SWAP1 JUMP JUMPDEST PUSH1 0x7 DUP1 SLOAD PUSH1 0x1 PUSH1 0x1 PUSH1 0xA0 SHL SUB DUP4 DUP2 AND PUSH1 0x1 PUSH1 0x1 PUSH1 0xA0 SHL SUB NOT DUP4 AND DUP2 OR SWAP1 SWAP4 SSTORE PUSH1 0x40 MLOAD SWAP2 AND SWAP2 SWAP1 DUP3 SWAP1 PUSH32 0x8BE0079C531659141344CD1FD0A4F28419497F9722A3DAAFE3B4186F6B6457E0 SWAP1 PUSH1 0x0 SWAP1 LOG3 POP POP JUMP JUMPDEST DUP3 DUP1 SLOAD PUSH3 0xF9 SWAP1 PUSH3 0x191 JUMP JUMPDEST SWAP1 PUSH1 0x0 MSTORE PUSH1 0x20 PUSH1 0x0 KECCAK256 SWAP1 PUSH1 0x1F ADD PUSH1 0x20 SWAP1 DIV DUP2 ADD SWAP3 DUP3 PUSH3 0x11D JUMPI PUSH1 0x0 DUP6 SSTORE PUSH3 0x168 JUMP JUMPDEST DUP3 PUSH1 0x1F LT PUSH3 0x138 JUMPI DUP1 MLOAD PUSH1 0xFF NOT AND DUP4 DUP1 ADD OR DUP6 SSTORE PUSH3 0x168 JUMP JUMPDEST DUP3 DUP1 ADD PUSH1 0x1 ADD DUP6 SSTORE DUP3 ISZERO PUSH3 0x168 JUMPI SWAP2 DUP3 ADD JUMPDEST DUP3 DUP2 GT ISZERO PUSH3 0x168 JUMPI DUP3 MLOAD DUP3 SSTORE SWAP2 PUSH1 0x20 ADD SWAP2 SWAP1 PUSH1 0x1 ADD SWAP1 PUSH3 0x14B JUMP JUMPDEST POP PUSH3 0x176 SWAP3 SWAP2 POP PUSH3 0x17A JUMP JUMPDEST POP SWAP1 JUMP JUMPDEST JUMPDEST DUP1 DUP3 GT ISZERO PUSH3 0x176 JUMPI PUSH1 0x0 DUP2 SSTORE PUSH1 0x1 ADD PUSH3 0x17B JUMP JUMPDEST PUSH1 0x1 DUP2 DUP2 SHR SWAP1 DUP3 AND DUP1 PUSH3 0x1A6 JUMPI PUSH1 0x7F DUP3 AND SWAP2 POP JUMPDEST PUSH1 0x20 DUP3 LT DUP2 EQ ISZERO PUSH3 0x1C8 JUMPI PUSH4 0x4E487B71 PUSH1 0xE0 SHL PUSH1 0x0 MSTORE PUSH1 0x22 PUSH1 0x4 MSTORE PUSH1 0x24 PUSH1 0x0 REVERT JUMPDEST POP SWAP2 SWAP1 POP JUMP JUMPDEST PUSH2 0x1BFA DUP1 PUSH3 0x1DE PUSH1 0x0 CODECOPY PUSH1 0x0 RETURN INVALID PUSH1 0x80 PUSH1 0x40 MSTORE CALLVALUE DUP1 ISZERO PUSH2 0x10 JUMPI PUSH1 0x0 DUP1 REVERT JUMPDEST POP PUSH1 0x4 CALLDATASIZE LT PUSH2 0x12C JUMPI PUSH1 0x0 CALLDATALOAD PUSH1 0xE0 SHR DUP1 PUSH4 0x715018A6 GT PUSH2 0xAD JUMPI DUP1 PUSH4 0xC87B56DD GT PUSH2 0x71 JUMPI DUP1 PUSH4 0xC87B56DD EQ PUSH2 0x275 JUMPI DUP1 PUSH4 0xD204C45E EQ PUSH2 0x288 JUMPI DUP1 PUSH4 0xD547CFB7 EQ PUSH2 0x29B JUMPI DUP1 PUSH4 0xE985E9C5 EQ PUSH2 0x2A3 JUMPI DUP1 PUSH4 0xF2FDE38B EQ PUSH2 0x2DF JUMPI PUSH1 0x0 DUP1 REVERT JUMPDEST DUP1 PUSH4 0x715018A6 EQ PUSH2 0x22E JUMPI DUP1 PUSH4 0x8DA5CB5B EQ PUSH2 0x236 JUMPI DUP1 PUSH4 0x95D89B41 EQ PUSH2 0x247 JUMPI DUP1 PUSH4 0xA22CB465 EQ PUSH2 0x24F JUMPI DUP1 PUSH4 0xB88D4FDE EQ PUSH2 0x262 JUMPI PUSH1 0x0 DUP1 REVERT JUMPDEST DUP1 PUSH4 0x42842E0E GT PUSH2 0xF4 JUMPI DUP1 PUSH4 0x42842E0E EQ PUSH2 0x1C1 JUMPI DUP1 PUSH4 0x42966C68 EQ PUSH2 0x1D4 JUMPI DUP1 PUSH4 0x55F804B3 EQ PUSH2 0x1E7 JUMPI DUP1 PUSH4 0x6352211E EQ PUSH2 0x1FA JUMPI DUP1 PUSH4 0x70A08231 EQ PUSH2 0x20D JUMPI PUSH1 0x0 DUP1 REVERT JUMPDEST DUP1 PUSH4 0x1FFC9A7 EQ PUSH2 0x131 JUMPI DUP1 PUSH4 0x6FDDE03 EQ PUSH2 0x159 JUMPI DUP1 PUSH4 0x81812FC EQ PUSH2 0x16E JUMPI DUP1 PUSH4 0x95EA7B3 EQ PUSH2 0x199 JUMPI DUP1 PUSH4 0x23B872DD EQ PUSH2 0x1AE JUMPI JUMPDEST PUSH1 0x0 DUP1 REVERT JUMPDEST PUSH2 0x144 PUSH2 0x13F CALLDATASIZE PUSH1 0x4 PUSH2 0x1872 JUMP JUMPDEST PUSH2 0x2F2 JUMP JUMPDEST PUSH1 0x40 MLOAD SWAP1 ISZERO ISZERO DUP2 MSTORE PUSH1 0x20 ADD JUMPDEST PUSH1 0x40 MLOAD DUP1 SWAP2 SUB SWAP1 RETURN JUMPDEST PUSH2 0x161 PUSH2 0x344 JUMP JUMPDEST PUSH1 0x40 MLOAD PUSH2 0x150 SWAP2 SWAP1 PUSH2 0x1992 JUMP JUMPDEST PUSH2 0x181 PUSH2 0x17C CALLDATASIZE PUSH1 0x4 PUSH2 0x18E1 JUMP JUMPDEST PUSH2 0x3D6 JUMP JUMPDEST PUSH1 0x40 MLOAD PUSH1 0x1 PUSH1 0x1 PUSH1 0xA0 SHL SUB SWAP1 SWAP2 AND DUP2 MSTORE PUSH1 0x20 ADD PUSH2 0x150 JUMP JUMPDEST PUSH2 0x1AC PUSH2 0x1A7 CALLDATASIZE PUSH1 0x4 PUSH2 0x1848 JUMP JUMPDEST PUSH2 0x463 JUMP JUMPDEST STOP JUMPDEST PUSH2 0x1AC PUSH2 0x1BC CALLDATASIZE PUSH1 0x4 PUSH2 0x1706 JUMP JUMPDEST PUSH2 0x579 JUMP JUMPDEST PUSH2 0x1AC PUSH2 0x1CF CALLDATASIZE PUSH1 0x4 PUSH2 0x1706 JUMP JUMPDEST PUSH2 0x5AB JUMP JUMPDEST PUSH2 0x1AC PUSH2 0x1E2 CALLDATASIZE PUSH1 0x4 PUSH2 0x18E1 JUMP JUMPDEST PUSH2 0x5C6 JUMP JUMPDEST PUSH2 0x1AC PUSH2 0x1F5 CALLDATASIZE PUSH1 0x4 PUSH2 0x18AC JUMP JUMPDEST PUSH2 0x640 JUMP JUMPDEST PUSH2 0x181 PUSH2 0x208 CALLDATASIZE PUSH1 0x4 PUSH2 0x18E1 JUMP JUMPDEST PUSH2 0x681 JUMP JUMPDEST PUSH2 0x220 PUSH2 0x21B CALLDATASIZE PUSH1 0x4 PUSH2 0x16B8 JUMP JUMPDEST PUSH2 0x6F8 JUMP JUMPDEST PUSH1 0x40 MLOAD SWAP1 DUP2 MSTORE PUSH1 0x20 ADD PUSH2 0x150 JUMP JUMPDEST PUSH2 0x1AC PUSH2 0x77F JUMP JUMPDEST PUSH1 0x7 SLOAD PUSH1 0x1 PUSH1 0x1 PUSH1 0xA0 SHL SUB AND PUSH2 0x181 JUMP JUMPDEST PUSH2 0x161 PUSH2 0x7B5 JUMP JUMPDEST PUSH2 0x1AC PUSH2 0x25D CALLDATASIZE PUSH1 0x4 PUSH2 0x17BE JUMP JUMPDEST PUSH2 0x7C4 JUMP JUMPDEST PUSH2 0x1AC PUSH2 0x270 CALLDATASIZE PUSH1 0x4 PUSH2 0x1742 JUMP JUMPDEST PUSH2 0x7CF JUMP JUMPDEST PUSH2 0x161 PUSH2 0x283 CALLDATASIZE PUSH1 0x4 PUSH2 0x18E1 JUMP JUMPDEST PUSH2 0x807 JUMP JUMPDEST PUSH2 0x1AC PUSH2 0x296 CALLDATASIZE PUSH1 0x4 PUSH2 0x17FA JUMP JUMPDEST PUSH2 0x812 JUMP JUMPDEST PUSH2 0x161 PUSH2 0x86B JUMP JUMPDEST PUSH2 0x144 PUSH2 0x2B1 CALLDATASIZE PUSH1 0x4 PUSH2 0x16D3 JUMP JUMPDEST PUSH1 0x1 PUSH1 0x1 PUSH1 0xA0 SHL SUB SWAP2 DUP3 AND PUSH1 0x0 SWAP1 DUP2 MSTORE PUSH1 0x5 PUSH1 0x20 SWAP1 DUP2 MSTORE PUSH1 0x40 DUP1 DUP4 KECCAK256 SWAP4 SWAP1 SWAP5 AND DUP3 MSTORE SWAP2 SWAP1 SWAP2 MSTORE KECCAK256 SLOAD PUSH1 0xFF AND SWAP1 JUMP JUMPDEST PUSH2 0x1AC PUSH2 0x2ED CALLDATASIZE PUSH1 0x4 PUSH2 0x16B8 JUMP JUMPDEST PUSH2 0x8F9 JUMP JUMPDEST PUSH1 0x0 PUSH1 0x1 PUSH1 0x1 PUSH1 0xE0 SHL SUB NOT DUP3 AND PUSH4 0x80AC58CD PUSH1 0xE0 SHL EQ DUP1 PUSH2 0x323 JUMPI POP PUSH1 0x1 PUSH1 0x1 PUSH1 0xE0 SHL SUB NOT DUP3 AND PUSH4 0x5B5E139F PUSH1 0xE0 SHL EQ JUMPDEST DUP1 PUSH2 0x33E JUMPI POP PUSH4 0x1FFC9A7 PUSH1 0xE0 SHL PUSH1 0x1 PUSH1 0x1 PUSH1 0xE0 SHL SUB NOT DUP4 AND EQ JUMPDEST SWAP3 SWAP2 POP POP JUMP JUMPDEST PUSH1 0x60 PUSH1 0x0 DUP1 SLOAD PUSH2 0x353 SWAP1 PUSH2 0x1AEC JUMP JUMPDEST DUP1 PUSH1 0x1F ADD PUSH1 0x20 DUP1 SWAP2 DIV MUL PUSH1 0x20 ADD PUSH1 0x40 MLOAD SWAP1 DUP2 ADD PUSH1 0x40 MSTORE DUP1 SWAP3 SWAP2 SWAP1 DUP2 DUP2 MSTORE PUSH1 0x20 ADD DUP3 DUP1 SLOAD PUSH2 0x37F SWAP1 PUSH2 0x1AEC JUMP JUMPDEST DUP1 ISZERO PUSH2 0x3CC JUMPI DUP1 PUSH1 0x1F LT PUSH2 0x3A1 JUMPI PUSH2 0x100 DUP1 DUP4 SLOAD DIV MUL DUP4 MSTORE SWAP2 PUSH1 0x20 ADD SWAP2 PUSH2 0x3CC JUMP JUMPDEST DUP3 ADD SWAP2 SWAP1 PUSH1 0x0 MSTORE PUSH1 0x20 PUSH1 0x0 KECCAK256 SWAP1 JUMPDEST DUP2 SLOAD DUP2 MSTORE SWAP1 PUSH1 0x1 ADD SWAP1 PUSH1 0x20 ADD DUP1 DUP4 GT PUSH2 0x3AF JUMPI DUP3 SWAP1 SUB PUSH1 0x1F AND DUP3 ADD SWAP2 JUMPDEST POP POP POP POP POP SWAP1 POP SWAP1 JUMP JUMPDEST PUSH1 0x0 PUSH2 0x3E1 DUP3 PUSH2 0x991 JUMP JUMPDEST PUSH2 0x447 JUMPI PUSH1 0x40 MLOAD PUSH3 0x461BCD PUSH1 0xE5 SHL DUP2 MSTORE PUSH1 0x20 PUSH1 0x4 DUP3 ADD MSTORE PUSH1 0x2C PUSH1 0x24 DUP3 ADD MSTORE PUSH32 0x4552433732313A20617070726F76656420717565727920666F72206E6F6E6578 PUSH1 0x44 DUP3 ADD MSTORE PUSH12 0x34B9BA32B73A103A37B5B2B7 PUSH1 0xA1 SHL PUSH1 0x64 DUP3 ADD MSTORE PUSH1 0x84 ADD JUMPDEST PUSH1 0x40 MLOAD DUP1 SWAP2 SUB SWAP1 REVERT JUMPDEST POP PUSH1 0x0 SWAP1 DUP2 MSTORE PUSH1 0x4 PUSH1 0x20 MSTORE PUSH1 0x40 SWAP1 KECCAK256 SLOAD PUSH1 0x1 PUSH1 0x1 PUSH1 0xA0 SHL SUB AND SWAP1 JUMP JUMPDEST PUSH1 0x0 PUSH2 0x46E DUP3 PUSH2 0x681 JUMP JUMPDEST SWAP1 POP DUP1 PUSH1 0x1 PUSH1 0x1 PUSH1 0xA0 SHL SUB AND DUP4 PUSH1 0x1 PUSH1 0x1 PUSH1 0xA0 SHL SUB AND EQ ISZERO PUSH2 0x4DC JUMPI PUSH1 0x40 MLOAD PUSH3 0x461BCD PUSH1 0xE5 SHL DUP2 MSTORE PUSH1 0x20 PUSH1 0x4 DUP3 ADD MSTORE PUSH1 0x21 PUSH1 0x24 DUP3 ADD MSTORE PUSH32 0x4552433732313A20617070726F76616C20746F2063757272656E74206F776E65 PUSH1 0x44 DUP3 ADD MSTORE PUSH1 0x39 PUSH1 0xF9 SHL PUSH1 0x64 DUP3 ADD MSTORE PUSH1 0x84 ADD PUSH2 0x43E JUMP JUMPDEST CALLER PUSH1 0x1 PUSH1 0x1 PUSH1 0xA0 SHL SUB DUP3 AND EQ DUP1 PUSH2 0x4F8 JUMPI POP PUSH2 0x4F8 DUP2 CALLER PUSH2 0x2B1 JUMP JUMPDEST PUSH2 0x56A JUMPI PUSH1 0x40 MLOAD PUSH3 0x461BCD PUSH1 0xE5 SHL DUP2 MSTORE PUSH1 0x20 PUSH1 0x4 DUP3 ADD MSTORE PUSH1 0x38 PUSH1 0x24 DUP3 ADD MSTORE PUSH32 0x4552433732313A20617070726F76652063616C6C6572206973206E6F74206F77 PUSH1 0x44 DUP3 ADD MSTORE PUSH32 0x6E6572206E6F7220617070726F76656420666F7220616C6C0000000000000000 PUSH1 0x64 DUP3 ADD MSTORE PUSH1 0x84 ADD PUSH2 0x43E JUMP JUMPDEST PUSH2 0x574 DUP4 DUP4 PUSH2 0x9AE JUMP JUMPDEST POP POP POP JUMP JUMPDEST PUSH2 0x584 CALLER JUMPDEST DUP3 PUSH2 0xA1C JUMP JUMPDEST PUSH2 0x5A0 JUMPI PUSH1 0x40 MLOAD PUSH3 0x461BCD PUSH1 0xE5 SHL DUP2 MSTORE PUSH1 0x4 ADD PUSH2 0x43E SWAP1 PUSH2 0x1A2C JUMP JUMPDEST PUSH2 0x574 DUP4 DUP4 DUP4 PUSH2 0xB06 JUMP JUMPDEST PUSH2 0x574 DUP4 DUP4 DUP4 PUSH1 0x40 MLOAD DUP1 PUSH1 0x20 ADD PUSH1 0x40 MSTORE DUP1 PUSH1 0x0 DUP2 MSTORE POP PUSH2 0x7CF JUMP JUMPDEST PUSH2 0x5CF CALLER PUSH2 0x57E JUMP JUMPDEST PUSH2 0x634 JUMPI PUSH1 0x40 MLOAD PUSH3 0x461BCD PUSH1 0xE5 SHL DUP2 MSTORE PUSH1 0x20 PUSH1 0x4 DUP3 ADD MSTORE PUSH1 0x30 PUSH1 0x24 DUP3 ADD MSTORE PUSH32 0x4552433732314275726E61626C653A2063616C6C6572206973206E6F74206F77 PUSH1 0x44 DUP3 ADD MSTORE PUSH16 0x1B995C881B9BDC88185C1C1C9BDD9959 PUSH1 0x82 SHL PUSH1 0x64 DUP3 ADD MSTORE PUSH1 0x84 ADD PUSH2 0x43E JUMP JUMPDEST PUSH2 0x63D DUP2 PUSH2 0xCA2 JUMP JUMPDEST POP JUMP JUMPDEST PUSH1 0x7 SLOAD PUSH1 0x1 PUSH1 0x1 PUSH1 0xA0 SHL SUB AND CALLER EQ PUSH2 0x66A JUMPI PUSH1 0x40 MLOAD PUSH3 0x461BCD PUSH1 0xE5 SHL DUP2 MSTORE PUSH1 0x4 ADD PUSH2 0x43E SWAP1 PUSH2 0x19F7 JUMP JUMPDEST DUP1 MLOAD PUSH2 0x67D SWAP1 PUSH1 0x9 SWAP1 PUSH1 0x20 DUP5 ADD SWAP1 PUSH2 0x1537 JUMP JUMPDEST POP POP JUMP JUMPDEST PUSH1 0x0 DUP2 DUP2 MSTORE PUSH1 0x2 PUSH1 0x20 MSTORE PUSH1 0x40 DUP2 KECCAK256 SLOAD PUSH1 0x1 PUSH1 0x1 PUSH1 0xA0 SHL SUB AND DUP1 PUSH2 0x33E JUMPI PUSH1 0x40 MLOAD PUSH3 0x461BCD PUSH1 0xE5 SHL DUP2 MSTORE PUSH1 0x20 PUSH1 0x4 DUP3 ADD MSTORE PUSH1 0x29 PUSH1 0x24 DUP3 ADD MSTORE PUSH32 0x4552433732313A206F776E657220717565727920666F72206E6F6E6578697374 PUSH1 0x44 DUP3 ADD MSTORE PUSH9 0x32B73A103A37B5B2B7 PUSH1 0xB9 SHL PUSH1 0x64 DUP3 ADD MSTORE PUSH1 0x84 ADD PUSH2 0x43E JUMP JUMPDEST PUSH1 0x0 PUSH1 0x1 PUSH1 0x1 PUSH1 0xA0 SHL SUB DUP3 AND PUSH2 0x763 JUMPI PUSH1 0x40 MLOAD PUSH3 0x461BCD PUSH1 0xE5 SHL DUP2 MSTORE PUSH1 0x20 PUSH1 0x4 DUP3 ADD MSTORE PUSH1 0x2A PUSH1 0x24 DUP3 ADD MSTORE PUSH32 0x4552433732313A2062616C616E636520717565727920666F7220746865207A65 PUSH1 0x44 DUP3 ADD MSTORE PUSH10 0x726F2061646472657373 PUSH1 0xB0 SHL PUSH1 0x64 DUP3 ADD MSTORE PUSH1 0x84 ADD PUSH2 0x43E JUMP JUMPDEST POP PUSH1 0x1 PUSH1 0x1 PUSH1 0xA0 SHL SUB AND PUSH1 0x0 SWAP1 DUP2 MSTORE PUSH1 0x3 PUSH1 0x20 MSTORE PUSH1 0x40 SWAP1 KECCAK256 SLOAD SWAP1 JUMP JUMPDEST PUSH1 0x7 SLOAD PUSH1 0x1 PUSH1 0x1 PUSH1 0xA0 SHL SUB AND CALLER EQ PUSH2 0x7A9 JUMPI PUSH1 0x40 MLOAD PUSH3 0x461BCD PUSH1 0xE5 SHL DUP2 MSTORE PUSH1 0x4 ADD PUSH2 0x43E SWAP1 PUSH2 0x19F7 JUMP JUMPDEST PUSH2 0x7B3 PUSH1 0x0 PUSH2 0xCAB JUMP JUMPDEST JUMP JUMPDEST PUSH1 0x60 PUSH1 0x1 DUP1 SLOAD PUSH2 0x353 SWAP1 PUSH2 0x1AEC JUMP JUMPDEST PUSH2 0x67D CALLER DUP4 DUP4 PUSH2 0xCFD JUMP JUMPDEST PUSH2 0x7D9 CALLER DUP4 PUSH2 0xA1C JUMP JUMPDEST PUSH2 0x7F5 JUMPI PUSH1 0x40 MLOAD PUSH3 0x461BCD PUSH1 0xE5 SHL DUP2 MSTORE PUSH1 0x4 ADD PUSH2 0x43E SWAP1 PUSH2 0x1A2C JUMP JUMPDEST PUSH2 0x801 DUP5 DUP5 DUP5 DUP5 PUSH2 0xDCC JUMP JUMPDEST POP POP POP POP JUMP JUMPDEST PUSH1 0x60 PUSH2 0x33E DUP3 PUSH2 0xDFF JUMP JUMPDEST PUSH1 0x7 SLOAD PUSH1 0x1 PUSH1 0x1 PUSH1 0xA0 SHL SUB AND CALLER EQ PUSH2 0x83C JUMPI PUSH1 0x40 MLOAD PUSH3 0x461BCD PUSH1 0xE5 SHL DUP2 MSTORE PUSH1 0x4 ADD PUSH2 0x43E SWAP1 PUSH2 0x19F7 JUMP JUMPDEST PUSH1 0x0 PUSH2 0x847 PUSH1 0x8 SLOAD SWAP1 JUMP JUMPDEST SWAP1 POP PUSH2 0x857 PUSH1 0x8 DUP1 SLOAD PUSH1 0x1 ADD SWAP1 SSTORE JUMP JUMPDEST PUSH2 0x861 DUP4 DUP3 PUSH2 0xF6E JUMP JUMPDEST PUSH2 0x574 DUP2 DUP4 PUSH2 0xF88 JUMP JUMPDEST PUSH1 0x9 DUP1 SLOAD PUSH2 0x878 SWAP1 PUSH2 0x1AEC JUMP JUMPDEST DUP1 PUSH1 0x1F ADD PUSH1 0x20 DUP1 SWAP2 DIV MUL PUSH1 0x20 ADD PUSH1 0x40 MLOAD SWAP1 DUP2 ADD PUSH1 0x40 MSTORE DUP1 SWAP3 SWAP2 SWAP1 DUP2 DUP2 MSTORE PUSH1 0x20 ADD DUP3 DUP1 SLOAD PUSH2 0x8A4 SWAP1 PUSH2 0x1AEC JUMP JUMPDEST DUP1 ISZERO PUSH2 0x8F1 JUMPI DUP1 PUSH1 0x1F LT PUSH2 0x8C6 JUMPI PUSH2 0x100 DUP1 DUP4 SLOAD DIV MUL DUP4 MSTORE SWAP2 PUSH1 0x20 ADD SWAP2 PUSH2 0x8F1 JUMP JUMPDEST DUP3 ADD SWAP2 SWAP1 PUSH1 0x0 MSTORE PUSH1 0x20 PUSH1 0x0 KECCAK256 SWAP1 JUMPDEST DUP2 SLOAD DUP2 MSTORE SWAP1 PUSH1 0x1 ADD SWAP1 PUSH1 0x20 ADD DUP1 DUP4 GT PUSH2 0x8D4 JUMPI DUP3 SWAP1 SUB PUSH1 0x1F AND DUP3 ADD SWAP2 JUMPDEST POP POP POP POP POP DUP2 JUMP JUMPDEST PUSH1 0x7 SLOAD PUSH1 0x1 PUSH1 0x1 PUSH1 0xA0 SHL SUB AND CALLER EQ PUSH2 0x923 JUMPI PUSH1 0x40 MLOAD PUSH3 0x461BCD PUSH1 0xE5 SHL DUP2 MSTORE PUSH1 0x4 ADD PUSH2 0x43E SWAP1 PUSH2 0x19F7 JUMP JUMPDEST PUSH1 0x1 PUSH1 0x1 PUSH1 0xA0 SHL SUB DUP2 AND PUSH2 0x988 JUMPI PUSH1 0x40 MLOAD PUSH3 0x461BCD PUSH1 0xE5 SHL DUP2 MSTORE PUSH1 0x20 PUSH1 0x4 DUP3 ADD MSTORE PUSH1 0x26 PUSH1 0x24 DUP3 ADD MSTORE PUSH32 0x4F776E61626C653A206E6577206F776E657220697320746865207A65726F2061 PUSH1 0x44 DUP3 ADD MSTORE PUSH6 0x646472657373 PUSH1 0xD0 SHL PUSH1 0x64 DUP3 ADD MSTORE PUSH1 0x84 ADD PUSH2 0x43E JUMP JUMPDEST PUSH2 0x63D DUP2 PUSH2 0xCAB JUMP JUMPDEST PUSH1 0x0 SWAP1 DUP2 MSTORE PUSH1 0x2 PUSH1 0x20 MSTORE PUSH1 0x40 SWAP1 KECCAK256 SLOAD PUSH1 0x1 PUSH1 0x1 PUSH1 0xA0 SHL SUB AND ISZERO ISZERO SWAP1 JUMP JUMPDEST PUSH1 0x0 DUP2 DUP2 MSTORE PUSH1 0x4 PUSH1 0x20 MSTORE PUSH1 0x40 SWAP1 KECCAK256 DUP1 SLOAD PUSH1 0x1 PUSH1 0x1 PUSH1 0xA0 SHL SUB NOT AND PUSH1 0x1 PUSH1 0x1 PUSH1 0xA0 SHL SUB DUP5 AND SWAP1 DUP2 OR SWAP1 SWAP2 SSTORE DUP2 SWAP1 PUSH2 0x9E3 DUP3 PUSH2 0x681 JUMP JUMPDEST PUSH1 0x1 PUSH1 0x1 PUSH1 0xA0 SHL SUB AND PUSH32 0x8C5BE1E5EBEC7D5BD14F71427D1E84F3DD0314C0F7B2291E5B200AC8C7C3B925 PUSH1 0x40 MLOAD PUSH1 0x40 MLOAD DUP1 SWAP2 SUB SWAP1 LOG4 POP POP JUMP JUMPDEST PUSH1 0x0 PUSH2 0xA27 DUP3 PUSH2 0x991 JUMP JUMPDEST PUSH2 0xA88 JUMPI PUSH1 0x40 MLOAD PUSH3 0x461BCD PUSH1 0xE5 SHL DUP2 MSTORE PUSH1 0x20 PUSH1 0x4 DUP3 ADD MSTORE PUSH1 0x2C PUSH1 0x24 DUP3 ADD MSTORE PUSH32 0x4552433732313A206F70657261746F7220717565727920666F72206E6F6E6578 PUSH1 0x44 DUP3 ADD MSTORE PUSH12 0x34B9BA32B73A103A37B5B2B7 PUSH1 0xA1 SHL PUSH1 0x64 DUP3 ADD MSTORE PUSH1 0x84 ADD PUSH2 0x43E JUMP JUMPDEST PUSH1 0x0 PUSH2 0xA93 DUP4 PUSH2 0x681 JUMP JUMPDEST SWAP1 POP DUP1 PUSH1 0x1 PUSH1 0x1 PUSH1 0xA0 SHL SUB AND DUP5 PUSH1 0x1 PUSH1 0x1 PUSH1 0xA0 SHL SUB AND EQ DUP1 PUSH2 0xADA JUMPI POP PUSH1 0x1 PUSH1 0x1 PUSH1 0xA0 SHL SUB DUP1 DUP3 AND PUSH1 0x0 SWAP1 DUP2 MSTORE PUSH1 0x5 PUSH1 0x20 SWAP1 DUP2 MSTORE PUSH1 0x40 DUP1 DUP4 KECCAK256 SWAP4 DUP9 AND DUP4 MSTORE SWAP3 SWAP1 MSTORE KECCAK256 SLOAD PUSH1 0xFF AND JUMPDEST DUP1 PUSH2 0xAFE JUMPI POP DUP4 PUSH1 0x1 PUSH1 0x1 PUSH1 0xA0 SHL SUB AND PUSH2 0xAF3 DUP5 PUSH2 0x3D6 JUMP JUMPDEST PUSH1 0x1 PUSH1 0x1 PUSH1 0xA0 SHL SUB AND EQ JUMPDEST SWAP5 SWAP4 POP POP POP POP JUMP JUMPDEST DUP3 PUSH1 0x1 PUSH1 0x1 PUSH1 0xA0 SHL SUB AND PUSH2 0xB19 DUP3 PUSH2 0x681 JUMP JUMPDEST PUSH1 0x1 PUSH1 0x1 PUSH1 0xA0 SHL SUB AND EQ PUSH2 0xB7D JUMPI PUSH1 0x40 MLOAD PUSH3 0x461BCD PUSH1 0xE5 SHL DUP2 MSTORE PUSH1 0x20 PUSH1 0x4 DUP3 ADD MSTORE PUSH1 0x25 PUSH1 0x24 DUP3 ADD MSTORE PUSH32 0x4552433732313A207472616E736665722066726F6D20696E636F727265637420 PUSH1 0x44 DUP3 ADD MSTORE PUSH5 0x37BBB732B9 PUSH1 0xD9 SHL PUSH1 0x64 DUP3 ADD MSTORE PUSH1 0x84 ADD PUSH2 0x43E JUMP JUMPDEST PUSH1 0x1 PUSH1 0x1 PUSH1 0xA0 SHL SUB DUP3 AND PUSH2 0xBDF JUMPI PUSH1 0x40 MLOAD PUSH3 0x461BCD PUSH1 0xE5 SHL DUP2 MSTORE PUSH1 0x20 PUSH1 0x4 DUP3 ADD MSTORE PUSH1 0x24 DUP1 DUP3 ADD MSTORE PUSH32 0x4552433732313A207472616E7366657220746F20746865207A65726F20616464 PUSH1 0x44 DUP3 ADD MSTORE PUSH4 0x72657373 PUSH1 0xE0 SHL PUSH1 0x64 DUP3 ADD MSTORE PUSH1 0x84 ADD PUSH2 0x43E JUMP JUMPDEST PUSH2 0xBEA PUSH1 0x0 DUP3 PUSH2 0x9AE JUMP JUMPDEST PUSH1 0x1 PUSH1 0x1 PUSH1 0xA0 SHL SUB DUP4 AND PUSH1 0x0 SWAP1 DUP2 MSTORE PUSH1 0x3 PUSH1 0x20 MSTORE PUSH1 0x40 DUP2 KECCAK256 DUP1 SLOAD PUSH1 0x1 SWAP3 SWAP1 PUSH2 0xC13 SWAP1 DUP5 SWAP1 PUSH2 0x1AA9 JUMP JUMPDEST SWAP1 SWAP2 SSTORE POP POP PUSH1 0x1 PUSH1 0x1 PUSH1 0xA0 SHL SUB DUP3 AND PUSH1 0x0 SWAP1 DUP2 MSTORE PUSH1 0x3 PUSH1 0x20 MSTORE PUSH1 0x40 DUP2 KECCAK256 DUP1 SLOAD PUSH1 0x1 SWAP3 SWAP1 PUSH2 0xC41 SWAP1 DUP5 SWAP1 PUSH2 0x1A7D JUMP JUMPDEST SWAP1 SWAP2 SSTORE POP POP PUSH1 0x0 DUP2 DUP2 MSTORE PUSH1 0x2 PUSH1 0x20 MSTORE PUSH1 0x40 DUP1 DUP3 KECCAK256 DUP1 SLOAD PUSH1 0x1 PUSH1 0x1 PUSH1 0xA0 SHL SUB NOT AND PUSH1 0x1 PUSH1 0x1 PUSH1 0xA0 SHL SUB DUP7 DUP2 AND SWAP2 DUP3 OR SWAP1 SWAP3 SSTORE SWAP2 MLOAD DUP5 SWAP4 SWAP2 DUP8 AND SWAP2 PUSH32 0xDDF252AD1BE2C89B69C2B068FC378DAA952BA7F163C4A11628F55A4DF523B3EF SWAP2 LOG4 POP POP POP JUMP JUMPDEST PUSH2 0x63D DUP2 PUSH2 0x1013 JUMP JUMPDEST PUSH1 0x7 DUP1 SLOAD PUSH1 0x1 PUSH1 0x1 PUSH1 0xA0 SHL SUB DUP4 DUP2 AND PUSH1 0x1 PUSH1 0x1 PUSH1 0xA0 SHL SUB NOT DUP4 AND DUP2 OR SWAP1 SWAP4 SSTORE PUSH1 0x40 MLOAD SWAP2 AND SWAP2 SWAP1 DUP3 SWAP1 PUSH32 0x8BE0079C531659141344CD1FD0A4F28419497F9722A3DAAFE3B4186F6B6457E0 SWAP1 PUSH1 0x0 SWAP1 LOG3 POP POP JUMP JUMPDEST DUP2 PUSH1 0x1 PUSH1 0x1 PUSH1 0xA0 SHL SUB AND DUP4 PUSH1 0x1 PUSH1 0x1 PUSH1 0xA0 SHL SUB AND EQ ISZERO PUSH2 0xD5F JUMPI PUSH1 0x40 MLOAD PUSH3 0x461BCD PUSH1 0xE5 SHL DUP2 MSTORE PUSH1 0x20 PUSH1 0x4 DUP3 ADD MSTORE PUSH1 0x19 PUSH1 0x24 DUP3 ADD MSTORE PUSH32 0x4552433732313A20617070726F766520746F2063616C6C657200000000000000 PUSH1 0x44 DUP3 ADD MSTORE PUSH1 0x64 ADD PUSH2 0x43E JUMP JUMPDEST PUSH1 0x1 PUSH1 0x1 PUSH1 0xA0 SHL SUB DUP4 DUP2 AND PUSH1 0x0 DUP2 DUP2 MSTORE PUSH1 0x5 PUSH1 0x20 SWAP1 DUP2 MSTORE PUSH1 0x40 DUP1 DUP4 KECCAK256 SWAP5 DUP8 AND DUP1 DUP5 MSTORE SWAP5 DUP3 MSTORE SWAP2 DUP3 SWAP1 KECCAK256 DUP1 SLOAD PUSH1 0xFF NOT AND DUP7 ISZERO ISZERO SWAP1 DUP2 OR SWAP1 SWAP2 SSTORE SWAP2 MLOAD SWAP2 DUP3 MSTORE PUSH32 0x17307EAB39AB6107E8899845AD3D59BD9653F200F220920489CA2B5937696C31 SWAP2 ADD PUSH1 0x40 MLOAD DUP1 SWAP2 SUB SWAP1 LOG3 POP POP POP JUMP JUMPDEST PUSH2 0xDD7 DUP5 DUP5 DUP5 PUSH2 0xB06 JUMP JUMPDEST PUSH2 0xDE3 DUP5 DUP5 DUP5 DUP5 PUSH2 0x1053 JUMP JUMPDEST PUSH2 0x801 JUMPI PUSH1 0x40 MLOAD PUSH3 0x461BCD PUSH1 0xE5 SHL DUP2 MSTORE PUSH1 0x4 ADD PUSH2 0x43E SWAP1 PUSH2 0x19A5 JUMP JUMPDEST PUSH1 0x60 PUSH2 0xE0A DUP3 PUSH2 0x991 JUMP JUMPDEST PUSH2 0xE70 JUMPI PUSH1 0x40 MLOAD PUSH3 0x461BCD PUSH1 0xE5 SHL DUP2 MSTORE PUSH1 0x20 PUSH1 0x4 DUP3 ADD MSTORE PUSH1 0x31 PUSH1 0x24 DUP3 ADD MSTORE PUSH32 0x45524337323155524953746F726167653A2055524920717565727920666F7220 PUSH1 0x44 DUP3 ADD MSTORE PUSH17 0x3737B732BC34B9BA32B73A103A37B5B2B7 PUSH1 0x79 SHL PUSH1 0x64 DUP3 ADD MSTORE PUSH1 0x84 ADD PUSH2 0x43E JUMP JUMPDEST PUSH1 0x0 DUP3 DUP2 MSTORE PUSH1 0x6 PUSH1 0x20 MSTORE PUSH1 0x40 DUP2 KECCAK256 DUP1 SLOAD PUSH2 0xE89 SWAP1 PUSH2 0x1AEC JUMP JUMPDEST DUP1 PUSH1 0x1F ADD PUSH1 0x20 DUP1 SWAP2 DIV MUL PUSH1 0x20 ADD PUSH1 0x40 MLOAD SWAP1 DUP2 ADD PUSH1 0x40 MSTORE DUP1 SWAP3 SWAP2 SWAP1 DUP2 DUP2 MSTORE PUSH1 0x20 ADD DUP3 DUP1 SLOAD PUSH2 0xEB5 SWAP1 PUSH2 0x1AEC JUMP JUMPDEST DUP1 ISZERO PUSH2 0xF02 JUMPI DUP1 PUSH1 0x1F LT PUSH2 0xED7 JUMPI PUSH2 0x100 DUP1 DUP4 SLOAD DIV MUL DUP4 MSTORE SWAP2 PUSH1 0x20 ADD SWAP2 PUSH2 0xF02 JUMP JUMPDEST DUP3 ADD SWAP2 SWAP1 PUSH1 0x0 MSTORE PUSH1 0x20 PUSH1 0x0 KECCAK256 SWAP1 JUMPDEST DUP2 SLOAD DUP2 MSTORE SWAP1 PUSH1 0x1 ADD SWAP1 PUSH1 0x20 ADD DUP1 DUP4 GT PUSH2 0xEE5 JUMPI DUP3 SWAP1 SUB PUSH1 0x1F AND DUP3 ADD SWAP2 JUMPDEST POP POP POP POP POP SWAP1 POP PUSH1 0x0 PUSH2 0xF20 PUSH1 0x40 DUP1 MLOAD PUSH1 0x20 DUP2 ADD SWAP1 SWAP2 MSTORE PUSH1 0x0 DUP2 MSTORE SWAP1 JUMP JUMPDEST SWAP1 POP DUP1 MLOAD PUSH1 0x0 EQ ISZERO PUSH2 0xF33 JUMPI POP SWAP3 SWAP2 POP POP JUMP JUMPDEST DUP2 MLOAD ISZERO PUSH2 0xF65 JUMPI DUP1 DUP3 PUSH1 0x40 MLOAD PUSH1 0x20 ADD PUSH2 0xF4D SWAP3 SWAP2 SWAP1 PUSH2 0x1926 JUMP JUMPDEST PUSH1 0x40 MLOAD PUSH1 0x20 DUP2 DUP4 SUB SUB DUP2 MSTORE SWAP1 PUSH1 0x40 MSTORE SWAP3 POP POP POP SWAP2 SWAP1 POP JUMP JUMPDEST PUSH2 0xAFE DUP5 PUSH2 0x1160 JUMP JUMPDEST PUSH2 0x67D DUP3 DUP3 PUSH1 0x40 MLOAD DUP1 PUSH1 0x20 ADD PUSH1 0x40 MSTORE DUP1 PUSH1 0x0 DUP2 MSTORE POP PUSH2 0x1238 JUMP JUMPDEST PUSH2 0xF91 DUP3 PUSH2 0x991 JUMP JUMPDEST PUSH2 0xFF4 JUMPI PUSH1 0x40 MLOAD PUSH3 0x461BCD PUSH1 0xE5 SHL DUP2 MSTORE PUSH1 0x20 PUSH1 0x4 DUP3 ADD MSTORE PUSH1 0x2E PUSH1 0x24 DUP3 ADD MSTORE PUSH32 0x45524337323155524953746F726167653A2055524920736574206F66206E6F6E PUSH1 0x44 DUP3 ADD MSTORE PUSH14 0x32BC34B9BA32B73A103A37B5B2B7 PUSH1 0x91 SHL PUSH1 0x64 DUP3 ADD MSTORE PUSH1 0x84 ADD PUSH2 0x43E JUMP JUMPDEST PUSH1 0x0 DUP3 DUP2 MSTORE PUSH1 0x6 PUSH1 0x20 SWAP1 DUP2 MSTORE PUSH1 0x40 SWAP1 SWAP2 KECCAK256 DUP3 MLOAD PUSH2 0x574 SWAP3 DUP5 ADD SWAP1 PUSH2 0x1537 JUMP JUMPDEST PUSH2 0x101C DUP2 PUSH2 0x126B JUMP JUMPDEST PUSH1 0x0 DUP2 DUP2 MSTORE PUSH1 0x6 PUSH1 0x20 MSTORE PUSH1 0x40 SWAP1 KECCAK256 DUP1 SLOAD PUSH2 0x1035 SWAP1 PUSH2 0x1AEC JUMP JUMPDEST ISZERO SWAP1 POP PUSH2 0x63D JUMPI PUSH1 0x0 DUP2 DUP2 MSTORE PUSH1 0x6 PUSH1 0x20 MSTORE PUSH1 0x40 DUP2 KECCAK256 PUSH2 0x63D SWAP2 PUSH2 0x15BB JUMP JUMPDEST PUSH1 0x0 PUSH1 0x1 PUSH1 0x1 PUSH1 0xA0 SHL SUB DUP5 AND EXTCODESIZE ISZERO PUSH2 0x1155 JUMPI PUSH1 0x40 MLOAD PUSH4 0xA85BD01 PUSH1 0xE1 SHL DUP2 MSTORE PUSH1 0x1 PUSH1 0x1 PUSH1 0xA0 SHL SUB DUP6 AND SWAP1 PUSH4 0x150B7A02 SWAP1 PUSH2 0x1097 SWAP1 CALLER SWAP1 DUP10 SWAP1 DUP9 SWAP1 DUP9 SWAP1 PUSH1 0x4 ADD PUSH2 0x1955 JUMP JUMPDEST PUSH1 0x20 PUSH1 0x40 MLOAD DUP1 DUP4 SUB DUP2 PUSH1 0x0 DUP8 DUP1 EXTCODESIZE ISZERO DUP1 ISZERO PUSH2 0x10B1 JUMPI PUSH1 0x0 DUP1 REVERT JUMPDEST POP GAS CALL SWAP3 POP POP POP DUP1 ISZERO PUSH2 0x10E1 JUMPI POP PUSH1 0x40 DUP1 MLOAD PUSH1 0x1F RETURNDATASIZE SWAP1 DUP2 ADD PUSH1 0x1F NOT AND DUP3 ADD SWAP1 SWAP3 MSTORE PUSH2 0x10DE SWAP2 DUP2 ADD SWAP1 PUSH2 0x188F JUMP JUMPDEST PUSH1 0x1 JUMPDEST PUSH2 0x113B JUMPI RETURNDATASIZE DUP1 DUP1 ISZERO PUSH2 0x110F JUMPI PUSH1 0x40 MLOAD SWAP2 POP PUSH1 0x1F NOT PUSH1 0x3F RETURNDATASIZE ADD AND DUP3 ADD PUSH1 0x40 MSTORE RETURNDATASIZE DUP3 MSTORE RETURNDATASIZE PUSH1 0x0 PUSH1 0x20 DUP5 ADD RETURNDATACOPY PUSH2 0x1114 JUMP JUMPDEST PUSH1 0x60 SWAP2 POP JUMPDEST POP DUP1 MLOAD PUSH2 0x1133 JUMPI PUSH1 0x40 MLOAD PUSH3 0x461BCD PUSH1 0xE5 SHL DUP2 MSTORE PUSH1 0x4 ADD PUSH2 0x43E SWAP1 PUSH2 0x19A5 JUMP JUMPDEST DUP1 MLOAD DUP2 PUSH1 0x20 ADD REVERT JUMPDEST PUSH1 0x1 PUSH1 0x1 PUSH1 0xE0 SHL SUB NOT AND PUSH4 0xA85BD01 PUSH1 0xE1 SHL EQ SWAP1 POP PUSH2 0xAFE JUMP JUMPDEST POP PUSH1 0x1 SWAP5 SWAP4 POP POP POP POP JUMP JUMPDEST PUSH1 0x60 PUSH2 0x116B DUP3 PUSH2 0x991 JUMP JUMPDEST PUSH2 0x11CF JUMPI PUSH1 0x40 MLOAD PUSH3 0x461BCD PUSH1 0xE5 SHL DUP2 MSTORE PUSH1 0x20 PUSH1 0x4 DUP3 ADD MSTORE PUSH1 0x2F PUSH1 0x24 DUP3 ADD MSTORE PUSH32 0x4552433732314D657461646174613A2055524920717565727920666F72206E6F PUSH1 0x44 DUP3 ADD MSTORE PUSH15 0x3732BC34B9BA32B73A103A37B5B2B7 PUSH1 0x89 SHL PUSH1 0x64 DUP3 ADD MSTORE PUSH1 0x84 ADD PUSH2 0x43E JUMP JUMPDEST PUSH1 0x0 PUSH2 0x11E6 PUSH1 0x40 DUP1 MLOAD PUSH1 0x20 DUP2 ADD SWAP1 SWAP2 MSTORE PUSH1 0x0 DUP2 MSTORE SWAP1 JUMP JUMPDEST SWAP1 POP PUSH1 0x0 DUP2 MLOAD GT PUSH2 0x1206 JUMPI PUSH1 0x40 MLOAD DUP1 PUSH1 0x20 ADD PUSH1 0x40 MSTORE DUP1 PUSH1 0x0 DUP2 MSTORE POP PUSH2 0x1231 JUMP JUMPDEST DUP1 PUSH2 0x1210 DUP5 PUSH2 0x1306 JUMP JUMPDEST PUSH1 0x40 MLOAD PUSH1 0x20 ADD PUSH2 0x1221 SWAP3 SWAP2 SWAP1 PUSH2 0x1926 JUMP JUMPDEST PUSH1 0x40 MLOAD PUSH1 0x20 DUP2 DUP4 SUB SUB DUP2 MSTORE SWAP1 PUSH1 0x40 MSTORE JUMPDEST SWAP4 SWAP3 POP POP POP JUMP JUMPDEST PUSH2 0x1242 DUP4 DUP4 PUSH2 0x1404 JUMP JUMPDEST PUSH2 0x124F PUSH1 0x0 DUP5 DUP5 DUP5 PUSH2 0x1053 JUMP JUMPDEST PUSH2 0x574 JUMPI PUSH1 0x40 MLOAD PUSH3 0x461BCD PUSH1 0xE5 SHL DUP2 MSTORE PUSH1 0x4 ADD PUSH2 0x43E SWAP1 PUSH2 0x19A5 JUMP JUMPDEST PUSH1 0x0 PUSH2 0x1276 DUP3 PUSH2 0x681 JUMP JUMPDEST SWAP1 POP PUSH2 0x1283 PUSH1 0x0 DUP4 PUSH2 0x9AE JUMP JUMPDEST PUSH1 0x1 PUSH1 0x1 PUSH1 0xA0 SHL SUB DUP2 AND PUSH1 0x0 SWAP1 DUP2 MSTORE PUSH1 0x3 PUSH1 0x20 MSTORE PUSH1 0x40 DUP2 KECCAK256 DUP1 SLOAD PUSH1 0x1 SWAP3 SWAP1 PUSH2 0x12AC SWAP1 DUP5 SWAP1 PUSH2 0x1AA9 JUMP JUMPDEST SWAP1 SWAP2 SSTORE POP POP PUSH1 0x0 DUP3 DUP2 MSTORE PUSH1 0x2 PUSH1 0x20 MSTORE PUSH1 0x40 DUP1 DUP3 KECCAK256 DUP1 SLOAD PUSH1 0x1 PUSH1 0x1 PUSH1 0xA0 SHL SUB NOT AND SWAP1 SSTORE MLOAD DUP4 SWAP2 SWAP1 PUSH1 0x1 PUSH1 0x1 PUSH1 0xA0 SHL SUB DUP5 AND SWAP1 PUSH32 0xDDF252AD1BE2C89B69C2B068FC378DAA952BA7F163C4A11628F55A4DF523B3EF SWAP1 DUP4 SWAP1 LOG4 POP POP JUMP JUMPDEST PUSH1 0x60 DUP2 PUSH2 0x132A JUMPI POP POP PUSH1 0x40 DUP1 MLOAD DUP1 DUP3 ADD SWAP1 SWAP2 MSTORE PUSH1 0x1 DUP2 MSTORE PUSH1 0x3 PUSH1 0xFC SHL PUSH1 0x20 DUP3 ADD MSTORE SWAP1 JUMP JUMPDEST DUP2 PUSH1 0x0 JUMPDEST DUP2 ISZERO PUSH2 0x1354 JUMPI DUP1 PUSH2 0x133E DUP2 PUSH2 0x1B27 JUMP JUMPDEST SWAP2 POP PUSH2 0x134D SWAP1 POP PUSH1 0xA DUP4 PUSH2 0x1A95 JUMP JUMPDEST SWAP2 POP PUSH2 0x132E JUMP JUMPDEST PUSH1 0x0 DUP2 PUSH8 0xFFFFFFFFFFFFFFFF DUP2 GT ISZERO PUSH2 0x136F JUMPI PUSH2 0x136F PUSH2 0x1B98 JUMP JUMPDEST PUSH1 0x40 MLOAD SWAP1 DUP1 DUP3 MSTORE DUP1 PUSH1 0x1F ADD PUSH1 0x1F NOT AND PUSH1 0x20 ADD DUP3 ADD PUSH1 0x40 MSTORE DUP1 ISZERO PUSH2 0x1399 JUMPI PUSH1 0x20 DUP3 ADD DUP2 DUP1 CALLDATASIZE DUP4 CALLDATACOPY ADD SWAP1 POP JUMPDEST POP SWAP1 POP JUMPDEST DUP5 ISZERO PUSH2 0xAFE JUMPI PUSH2 0x13AE PUSH1 0x1 DUP4 PUSH2 0x1AA9 JUMP JUMPDEST SWAP2 POP PUSH2 0x13BB PUSH1 0xA DUP7 PUSH2 0x1B42 JUMP JUMPDEST PUSH2 0x13C6 SWAP1 PUSH1 0x30 PUSH2 0x1A7D JUMP JUMPDEST PUSH1 0xF8 SHL DUP2 DUP4 DUP2 MLOAD DUP2 LT PUSH2 0x13DB JUMPI PUSH2 0x13DB PUSH2 0x1B82 JUMP JUMPDEST PUSH1 0x20 ADD ADD SWAP1 PUSH1 0x1 PUSH1 0x1 PUSH1 0xF8 SHL SUB NOT AND SWAP1 DUP2 PUSH1 0x0 BYTE SWAP1 MSTORE8 POP PUSH2 0x13FD PUSH1 0xA DUP7 PUSH2 0x1A95 JUMP JUMPDEST SWAP5 POP PUSH2 0x139D JUMP JUMPDEST PUSH1 0x1 PUSH1 0x1 PUSH1 0xA0 SHL SUB DUP3 AND PUSH2 0x145A JUMPI PUSH1 0x40 MLOAD PUSH3 0x461BCD PUSH1 0xE5 SHL DUP2 MSTORE PUSH1 0x20 PUSH1 0x4 DUP3 ADD DUP2 SWAP1 MSTORE PUSH1 0x24 DUP3 ADD MSTORE PUSH32 0x4552433732313A206D696E7420746F20746865207A65726F2061646472657373 PUSH1 0x44 DUP3 ADD MSTORE PUSH1 0x64 ADD PUSH2 0x43E JUMP JUMPDEST PUSH2 0x1463 DUP2 PUSH2 0x991 JUMP JUMPDEST ISZERO PUSH2 0x14B0 JUMPI PUSH1 0x40 MLOAD PUSH3 0x461BCD PUSH1 0xE5 SHL DUP2 MSTORE PUSH1 0x20 PUSH1 0x4 DUP3 ADD MSTORE PUSH1 0x1C PUSH1 0x24 DUP3 ADD MSTORE PUSH32 0x4552433732313A20746F6B656E20616C7265616479206D696E74656400000000 PUSH1 0x44 DUP3 ADD MSTORE PUSH1 0x64 ADD PUSH2 0x43E JUMP JUMPDEST PUSH1 0x1 PUSH1 0x1 PUSH1 0xA0 SHL SUB DUP3 AND PUSH1 0x0 SWAP1 DUP2 MSTORE PUSH1 0x3 PUSH1 0x20 MSTORE PUSH1 0x40 DUP2 KECCAK256 DUP1 SLOAD PUSH1 0x1 SWAP3 SWAP1 PUSH2 0x14D9 SWAP1 DUP5 SWAP1 PUSH2 0x1A7D JUMP JUMPDEST SWAP1 SWAP2 SSTORE POP POP PUSH1 0x0 DUP2 DUP2 MSTORE PUSH1 0x2 PUSH1 0x20 MSTORE PUSH1 0x40 DUP1 DUP3 KECCAK256 DUP1 SLOAD PUSH1 0x1 PUSH1 0x1 PUSH1 0xA0 SHL SUB NOT AND PUSH1 0x1 PUSH1 0x1 PUSH1 0xA0 SHL SUB DUP7 AND SWAP1 DUP2 OR SWAP1 SWAP2 SSTORE SWAP1 MLOAD DUP4 SWAP3 SWAP1 PUSH32 0xDDF252AD1BE2C89B69C2B068FC378DAA952BA7F163C4A11628F55A4DF523B3EF SWAP1 DUP3 SWAP1 LOG4 POP POP JUMP JUMPDEST DUP3 DUP1 SLOAD PUSH2 0x1543 SWAP1 PUSH2 0x1AEC JUMP JUMPDEST SWAP1 PUSH1 0x0 MSTORE PUSH1 0x20 PUSH1 0x0 KECCAK256 SWAP1 PUSH1 0x1F ADD PUSH1 0x20 SWAP1 DIV DUP2 ADD SWAP3 DUP3 PUSH2 0x1565 JUMPI PUSH1 0x0 DUP6 SSTORE PUSH2 0x15AB JUMP JUMPDEST DUP3 PUSH1 0x1F LT PUSH2 0x157E JUMPI DUP1 MLOAD PUSH1 0xFF NOT AND DUP4 DUP1 ADD OR DUP6 SSTORE PUSH2 0x15AB JUMP JUMPDEST DUP3 DUP1 ADD PUSH1 0x1 ADD DUP6 SSTORE DUP3 ISZERO PUSH2 0x15AB JUMPI SWAP2 DUP3 ADD JUMPDEST DUP3 DUP2 GT ISZERO PUSH2 0x15AB JUMPI DUP3 MLOAD DUP3 SSTORE SWAP2 PUSH1 0x20 ADD SWAP2 SWAP1 PUSH1 0x1 ADD SWAP1 PUSH2 0x1590 JUMP JUMPDEST POP PUSH2 0x15B7 SWAP3 SWAP2 POP PUSH2 0x15F1 JUMP JUMPDEST POP SWAP1 JUMP JUMPDEST POP DUP1 SLOAD PUSH2 0x15C7 SWAP1 PUSH2 0x1AEC JUMP JUMPDEST PUSH1 0x0 DUP3 SSTORE DUP1 PUSH1 0x1F LT PUSH2 0x15D7 JUMPI POP POP JUMP JUMPDEST PUSH1 0x1F ADD PUSH1 0x20 SWAP1 DIV SWAP1 PUSH1 0x0 MSTORE PUSH1 0x20 PUSH1 0x0 KECCAK256 SWAP1 DUP2 ADD SWAP1 PUSH2 0x63D SWAP2 SWAP1 JUMPDEST JUMPDEST DUP1 DUP3 GT ISZERO PUSH2 0x15B7 JUMPI PUSH1 0x0 DUP2 SSTORE PUSH1 0x1 ADD PUSH2 0x15F2 JUMP JUMPDEST PUSH1 0x0 PUSH8 0xFFFFFFFFFFFFFFFF DUP1 DUP5 GT ISZERO PUSH2 0x1621 JUMPI PUSH2 0x1621 PUSH2 0x1B98 JUMP JUMPDEST PUSH1 0x40 MLOAD PUSH1 0x1F DUP6 ADD PUSH1 0x1F NOT SWAP1 DUP2 AND PUSH1 0x3F ADD AND DUP2 ADD SWAP1 DUP3 DUP3 GT DUP2 DUP4 LT OR ISZERO PUSH2 0x1649 JUMPI PUSH2 0x1649 PUSH2 0x1B98 JUMP JUMPDEST DUP2 PUSH1 0x40 MSTORE DUP1 SWAP4 POP DUP6 DUP2 MSTORE DUP7 DUP7 DUP7 ADD GT ISZERO PUSH2 0x1662 JUMPI PUSH1 0x0 DUP1 REVERT JUMPDEST DUP6 DUP6 PUSH1 0x20 DUP4 ADD CALLDATACOPY PUSH1 0x0 PUSH1 0x20 DUP8 DUP4 ADD ADD MSTORE POP POP POP SWAP4 SWAP3 POP POP POP JUMP JUMPDEST DUP1 CALLDATALOAD PUSH1 0x1 PUSH1 0x1 PUSH1 0xA0 SHL SUB DUP2 AND DUP2 EQ PUSH2 0x1693 JUMPI PUSH1 0x0 DUP1 REVERT JUMPDEST SWAP2 SWAP1 POP JUMP JUMPDEST PUSH1 0x0 DUP3 PUSH1 0x1F DUP4 ADD SLT PUSH2 0x16A9 JUMPI PUSH1 0x0 DUP1 REVERT JUMPDEST PUSH2 0x1231 DUP4 DUP4 CALLDATALOAD PUSH1 0x20 DUP6 ADD PUSH2 0x1606 JUMP JUMPDEST PUSH1 0x0 PUSH1 0x20 DUP3 DUP5 SUB SLT ISZERO PUSH2 0x16CA JUMPI PUSH1 0x0 DUP1 REVERT JUMPDEST PUSH2 0x1231 DUP3 PUSH2 0x167C JUMP JUMPDEST PUSH1 0x0 DUP1 PUSH1 0x40 DUP4 DUP6 SUB SLT ISZERO PUSH2 0x16E6 JUMPI PUSH1 0x0 DUP1 REVERT JUMPDEST PUSH2 0x16EF DUP4 PUSH2 0x167C JUMP JUMPDEST SWAP2 POP PUSH2 0x16FD PUSH1 0x20 DUP5 ADD PUSH2 0x167C JUMP JUMPDEST SWAP1 POP SWAP3 POP SWAP3 SWAP1 POP JUMP JUMPDEST PUSH1 0x0 DUP1 PUSH1 0x0 PUSH1 0x60 DUP5 DUP7 SUB SLT ISZERO PUSH2 0x171B JUMPI PUSH1 0x0 DUP1 REVERT JUMPDEST PUSH2 0x1724 DUP5 PUSH2 0x167C JUMP JUMPDEST SWAP3 POP PUSH2 0x1732 PUSH1 0x20 DUP6 ADD PUSH2 0x167C JUMP JUMPDEST SWAP2 POP PUSH1 0x40 DUP5 ADD CALLDATALOAD SWAP1 POP SWAP3 POP SWAP3 POP SWAP3 JUMP JUMPDEST PUSH1 0x0 DUP1 PUSH1 0x0 DUP1 PUSH1 0x80 DUP6 DUP8 SUB SLT ISZERO PUSH2 0x1758 JUMPI PUSH1 0x0 DUP1 REVERT JUMPDEST PUSH2 0x1761 DUP6 PUSH2 0x167C JUMP JUMPDEST SWAP4 POP PUSH2 0x176F PUSH1 0x20 DUP7 ADD PUSH2 0x167C JUMP JUMPDEST SWAP3 POP PUSH1 0x40 DUP6 ADD CALLDATALOAD SWAP2 POP PUSH1 0x60 DUP6 ADD CALLDATALOAD PUSH8 0xFFFFFFFFFFFFFFFF DUP2 GT ISZERO PUSH2 0x1792 JUMPI PUSH1 0x0 DUP1 REVERT JUMPDEST DUP6 ADD PUSH1 0x1F DUP2 ADD DUP8 SGT PUSH2 0x17A3 JUMPI PUSH1 0x0 DUP1 REVERT JUMPDEST PUSH2 0x17B2 DUP8 DUP3 CALLDATALOAD PUSH1 0x20 DUP5 ADD PUSH2 0x1606 JUMP JUMPDEST SWAP2 POP POP SWAP3 SWAP6 SWAP2 SWAP5 POP SWAP3 POP JUMP JUMPDEST PUSH1 0x0 DUP1 PUSH1 0x40 DUP4 DUP6 SUB SLT ISZERO PUSH2 0x17D1 JUMPI PUSH1 0x0 DUP1 REVERT JUMPDEST PUSH2 0x17DA DUP4 PUSH2 0x167C JUMP JUMPDEST SWAP2 POP PUSH1 0x20 DUP4 ADD CALLDATALOAD DUP1 ISZERO ISZERO DUP2 EQ PUSH2 0x17EF JUMPI PUSH1 0x0 DUP1 REVERT JUMPDEST DUP1 SWAP2 POP POP SWAP3 POP SWAP3 SWAP1 POP JUMP JUMPDEST PUSH1 0x0 DUP1 PUSH1 0x40 DUP4 DUP6 SUB SLT ISZERO PUSH2 0x180D JUMPI PUSH1 0x0 DUP1 REVERT JUMPDEST PUSH2 0x1816 DUP4 PUSH2 0x167C JUMP JUMPDEST SWAP2 POP PUSH1 0x20 DUP4 ADD CALLDATALOAD PUSH8 0xFFFFFFFFFFFFFFFF DUP2 GT ISZERO PUSH2 0x1832 JUMPI PUSH1 0x0 DUP1 REVERT JUMPDEST PUSH2 0x183E DUP6 DUP3 DUP7 ADD PUSH2 0x1698 JUMP JUMPDEST SWAP2 POP POP SWAP3 POP SWAP3 SWAP1 POP JUMP JUMPDEST PUSH1 0x0 DUP1 PUSH1 0x40 DUP4 DUP6 SUB SLT ISZERO PUSH2 0x185B JUMPI PUSH1 0x0 DUP1 REVERT JUMPDEST PUSH2 0x1864 DUP4 PUSH2 0x167C JUMP JUMPDEST SWAP5 PUSH1 0x20 SWAP4 SWAP1 SWAP4 ADD CALLDATALOAD SWAP4 POP POP POP JUMP JUMPDEST PUSH1 0x0 PUSH1 0x20 DUP3 DUP5 SUB SLT ISZERO PUSH2 0x1884 JUMPI PUSH1 0x0 DUP1 REVERT JUMPDEST DUP2 CALLDATALOAD PUSH2 0x1231 DUP2 PUSH2 0x1BAE JUMP JUMPDEST PUSH1 0x0 PUSH1 0x20 DUP3 DUP5 SUB SLT ISZERO PUSH2 0x18A1 JUMPI PUSH1 0x0 DUP1 REVERT JUMPDEST DUP2 MLOAD PUSH2 0x1231 DUP2 PUSH2 0x1BAE JUMP JUMPDEST PUSH1 0x0 PUSH1 0x20 DUP3 DUP5 SUB SLT ISZERO PUSH2 0x18BE JUMPI PUSH1 0x0 DUP1 REVERT JUMPDEST DUP2 CALLDATALOAD PUSH8 0xFFFFFFFFFFFFFFFF DUP2 GT ISZERO PUSH2 0x18D5 JUMPI PUSH1 0x0 DUP1 REVERT JUMPDEST PUSH2 0xAFE DUP5 DUP3 DUP6 ADD PUSH2 0x1698 JUMP JUMPDEST PUSH1 0x0 PUSH1 0x20 DUP3 DUP5 SUB SLT ISZERO PUSH2 0x18F3 JUMPI PUSH1 0x0 DUP1 REVERT JUMPDEST POP CALLDATALOAD SWAP2 SWAP1 POP JUMP JUMPDEST PUSH1 0x0 DUP2 MLOAD DUP1 DUP5 MSTORE PUSH2 0x1912 DUP2 PUSH1 0x20 DUP7 ADD PUSH1 0x20 DUP7 ADD PUSH2 0x1AC0 JUMP JUMPDEST PUSH1 0x1F ADD PUSH1 0x1F NOT AND SWAP3 SWAP1 SWAP3 ADD PUSH1 0x20 ADD SWAP3 SWAP2 POP POP JUMP JUMPDEST PUSH1 0x0 DUP4 MLOAD PUSH2 0x1938 DUP2 DUP5 PUSH1 0x20 DUP9 ADD PUSH2 0x1AC0 JUMP JUMPDEST DUP4 MLOAD SWAP1 DUP4 ADD SWAP1 PUSH2 0x194C DUP2 DUP4 PUSH1 0x20 DUP9 ADD PUSH2 0x1AC0 JUMP JUMPDEST ADD SWAP5 SWAP4 POP POP POP POP JUMP JUMPDEST PUSH1 0x1 PUSH1 0x1 PUSH1 0xA0 SHL SUB DUP6 DUP2 AND DUP3 MSTORE DUP5 AND PUSH1 0x20 DUP3 ADD MSTORE PUSH1 0x40 DUP2 ADD DUP4 SWAP1 MSTORE PUSH1 0x80 PUSH1 0x60 DUP3 ADD DUP2 SWAP1 MSTORE PUSH1 0x0 SWAP1 PUSH2 0x1988 SWAP1 DUP4 ADD DUP5 PUSH2 0x18FA JUMP JUMPDEST SWAP7 SWAP6 POP POP POP POP POP POP JUMP JUMPDEST PUSH1 0x20 DUP2 MSTORE PUSH1 0x0 PUSH2 0x1231 PUSH1 0x20 DUP4 ADD DUP5 PUSH2 0x18FA JUMP JUMPDEST PUSH1 0x20 DUP1 DUP3 MSTORE PUSH1 0x32 SWAP1 DUP3 ADD MSTORE PUSH32 0x4552433732313A207472616E7366657220746F206E6F6E204552433732315265 PUSH1 0x40 DUP3 ADD MSTORE PUSH18 0x31B2B4BB32B91034B6B83632B6B2B73A32B9 PUSH1 0x71 SHL PUSH1 0x60 DUP3 ADD MSTORE PUSH1 0x80 ADD SWAP1 JUMP JUMPDEST PUSH1 0x20 DUP1 DUP3 MSTORE DUP2 DUP2 ADD MSTORE PUSH32 0x4F776E61626C653A2063616C6C6572206973206E6F7420746865206F776E6572 PUSH1 0x40 DUP3 ADD MSTORE PUSH1 0x60 ADD SWAP1 JUMP JUMPDEST PUSH1 0x20 DUP1 DUP3 MSTORE PUSH1 0x31 SWAP1 DUP3 ADD MSTORE PUSH32 0x4552433732313A207472616E736665722063616C6C6572206973206E6F74206F PUSH1 0x40 DUP3 ADD MSTORE PUSH17 0x1DDB995C881B9BDC88185C1C1C9BDD9959 PUSH1 0x7A SHL PUSH1 0x60 DUP3 ADD MSTORE PUSH1 0x80 ADD SWAP1 JUMP JUMPDEST PUSH1 0x0 DUP3 NOT DUP3 GT ISZERO PUSH2 0x1A90 JUMPI PUSH2 0x1A90 PUSH2 0x1B56 JUMP JUMPDEST POP ADD SWAP1 JUMP JUMPDEST PUSH1 0x0 DUP3 PUSH2 0x1AA4 JUMPI PUSH2 0x1AA4 PUSH2 0x1B6C JUMP JUMPDEST POP DIV SWAP1 JUMP JUMPDEST PUSH1 0x0 DUP3 DUP3 LT ISZERO PUSH2 0x1ABB JUMPI PUSH2 0x1ABB PUSH2 0x1B56 JUMP JUMPDEST POP SUB SWAP1 JUMP JUMPDEST PUSH1 0x0 JUMPDEST DUP4 DUP2 LT ISZERO PUSH2 0x1ADB JUMPI DUP2 DUP2 ADD MLOAD DUP4 DUP3 ADD MSTORE PUSH1 0x20 ADD PUSH2 0x1AC3 JUMP JUMPDEST DUP4 DUP2 GT ISZERO PUSH2 0x801 JUMPI POP POP PUSH1 0x0 SWAP2 ADD MSTORE JUMP JUMPDEST PUSH1 0x1 DUP2 DUP2 SHR SWAP1 DUP3 AND DUP1 PUSH2 0x1B00 JUMPI PUSH1 0x7F DUP3 AND SWAP2 POP JUMPDEST PUSH1 0x20 DUP3 LT DUP2 EQ ISZERO PUSH2 0x1B21 JUMPI PUSH4 0x4E487B71 PUSH1 0xE0 SHL PUSH1 0x0 MSTORE PUSH1 0x22 PUSH1 0x4 MSTORE PUSH1 0x24 PUSH1 0x0 REVERT JUMPDEST POP SWAP2 SWAP1 POP JUMP JUMPDEST PUSH1 0x0 PUSH1 0x0 NOT DUP3 EQ ISZERO PUSH2 0x1B3B JUMPI PUSH2 0x1B3B PUSH2 0x1B56 JUMP JUMPDEST POP PUSH1 0x1 ADD SWAP1 JUMP JUMPDEST PUSH1 0x0 DUP3 PUSH2 0x1B51 JUMPI PUSH2 0x1B51 PUSH2 0x1B6C JUMP JUMPDEST POP MOD SWAP1 JUMP JUMPDEST PUSH4 0x4E487B71 PUSH1 0xE0 SHL PUSH1 0x0 MSTORE PUSH1 0x11 PUSH1 0x4 MSTORE PUSH1 0x24 PUSH1 0x0 REVERT JUMPDEST PUSH4 0x4E487B71 PUSH1 0xE0 SHL PUSH1 0x0 MSTORE PUSH1 0x12 PUSH1 0x4 MSTORE PUSH1 0x24 PUSH1 0x0 REVERT JUMPDEST PUSH4 0x4E487B71 PUSH1 0xE0 SHL PUSH1 0x0 MSTORE PUSH1 0x32 PUSH1 0x4 MSTORE PUSH1 0x24 PUSH1 0x0 REVERT JUMPDEST PUSH4 0x4E487B71 PUSH1 0xE0 SHL PUSH1 0x0 MSTORE PUSH1 0x41 PUSH1 0x4 MSTORE PUSH1 0x24 PUSH1 0x0 REVERT JUMPDEST PUSH1 0x1 PUSH1 0x1 PUSH1 0xE0 SHL SUB NOT DUP2 AND DUP2 EQ PUSH2 0x63D JUMPI PUSH1 0x0 DUP1 REVERT INVALID LOG2 PUSH5 0x6970667358 0x22 SLT KECCAK256 PUSH22 0x556B2B0693C63D4F30BA553BA3B20DF21D26940246F6 SWAP8 JUMPDEST 0xD8 SWAP9 0xEF STOP SWAP16 PUSH6 0x8C64736F6C63 NUMBER STOP ADDMOD SMOD STOP CALLER "
				},
				"gasEstimates": {
					"creation": {
						"codeDepositCost": "1432400",
						"executionCost": "infinite",
						"totalCost": "infinite"
					},
					"external": {
						"approve(address,uint256)": "infinite",
						"balanceOf(address)": "2700",
						"baseTokenURI()": "infinite",
						"burn(uint256)": "infinite",
						"getApproved(uint256)": "4799",
						"isApprovedForAll(address,address)": "infinite",
						"name()": "infinite",
						"owner()": "2376",
						"ownerOf(uint256)": "2645",
						"renounceOwnership()": "28140",
						"safeMint(address,string)": "infinite",
						"safeTransferFrom(address,address,uint256)": "infinite",
						"safeTransferFrom(address,address,uint256,bytes)": "infinite",
						"setApprovalForAll(address,bool)": "26775",
						"setBaseURI(string)": "infinite",
						"supportsInterface(bytes4)": "534",
						"symbol()": "infinite",
						"tokenURI(uint256)": "infinite",
						"transferFrom(address,address,uint256)": "infinite",
						"transferOwnership(address)": "28422"
					},
					"internal": {
						"_burn(uint256)": "infinite"
					}
				},
				"methodIdentifiers": {
					"approve(address,uint256)": "095ea7b3",
					"balanceOf(address)": "70a08231",
					"baseTokenURI()": "d547cfb7",
					"burn(uint256)": "42966c68",
					"getApproved(uint256)": "081812fc",
					"isApprovedForAll(address,address)": "e985e9c5",
					"name()": "06fdde03",
					"owner()": "8da5cb5b",
					"ownerOf(uint256)": "6352211e",
					"renounceOwnership()": "715018a6",
					"safeMint(address,string)": "d204c45e",
					"safeTransferFrom(address,address,uint256)": "42842e0e",
					"safeTransferFrom(address,address,uint256,bytes)": "b88d4fde",
					"setApprovalForAll(address,bool)": "a22cb465",
					"setBaseURI(string)": "55f804b3",
					"supportsInterface(bytes4)": "01ffc9a7",
					"symbol()": "95d89b41",
					"tokenURI(uint256)": "c87b56dd",
					"transferFrom(address,address,uint256)": "23b872dd",
					"transferOwnership(address)": "f2fde38b"
				}
			},
			"storageLayout": {
				"storage": [
					{
						"astId": 130,
						"contract": "contracts/sequential.sol:MyToken",
						"label": "_name",
						"offset": 0,
						"slot": "0",
						"type": "t_string_storage"
					},
					{
						"astId": 132,
						"contract": "contracts/sequential.sol:MyToken",
						"label": "_symbol",
						"offset": 0,
						"slot": "1",
						"type": "t_string_storage"
					},
					{
						"astId": 136,
						"contract": "contracts/sequential.sol:MyToken",
						"label": "_owners",
						"offset": 0,
						"slot": "2",
						"type": "t_mapping(t_uint256,t_address)"
					},
					{
						"astId": 140,
						"contract": "contracts/sequential.sol:MyToken",
						"label": "_balances",
						"offset": 0,
						"slot": "3",
						"type": "t_mapping(t_address,t_uint256)"
					},
					{
						"astId": 144,
						"contract": "contracts/sequential.sol:MyToken",
						"label": "_tokenApprovals",
						"offset": 0,
						"slot": "4",
						"type": "t_mapping(t_uint256,t_address)"
					},
					{
						"astId": 150,
						"contract": "contracts/sequential.sol:MyToken",
						"label": "_operatorApprovals",
						"offset": 0,
						"slot": "5",
						"type": "t_mapping(t_address,t_mapping(t_address,t_bool))"
					},
					{
						"astId": 1147,
						"contract": "contracts/sequential.sol:MyToken",
						"label": "_tokenURIs",
						"offset": 0,
						"slot": "6",
						"type": "t_mapping(t_uint256,t_string_storage)"
					},
					{
						"astId": 7,
						"contract": "contracts/sequential.sol:MyToken",
						"label": "_owner",
						"offset": 0,
						"slot": "7",
						"type": "t_address"
					},
					{
						"astId": 1941,
						"contract": "contracts/sequential.sol:MyToken",
						"label": "_tokenIdCounter",
						"offset": 0,
						"slot": "8",
						"type": "t_struct(Counter)1612_storage"
					},
					{
						"astId": 1943,
						"contract": "contracts/sequential.sol:MyToken",
						"label": "baseTokenURI",
						"offset": 0,
						"slot": "9",
						"type": "t_string_storage"
					}
				],
				"types": {
					"t_address": {
						"encoding": "inplace",
						"label": "address",
						"numberOfBytes": "20"
					},
					"t_bool": {
						"encoding": "inplace",
						"label": "bool",
						"numberOfBytes": "1"
					},
					"t_mapping(t_address,t_bool)": {
						"encoding": "mapping",
						"key": "t_address",
						"label": "mapping(address => bool)",
						"numberOfBytes": "32",
						"value": "t_bool"
					},
					"t_mapping(t_address,t_mapping(t_address,t_bool))": {
						"encoding": "mapping",
						"key": "t_address",
						"label": "mapping(address => mapping(address => bool))",
						"numberOfBytes": "32",
						"value": "t_mapping(t_address,t_bool)"
					},
					"t_mapping(t_address,t_uint256)": {
						"encoding": "mapping",
						"key": "t_address",
						"label": "mapping(address => uint256)",
						"numberOfBytes": "32",
						"value": "t_uint256"
					},
					"t_mapping(t_uint256,t_address)": {
						"encoding": "mapping",
						"key": "t_uint256",
						"label": "mapping(uint256 => address)",
						"numberOfBytes": "32",
						"value": "t_address"
					},
					"t_mapping(t_uint256,t_string_storage)": {
						"encoding": "mapping",
						"key": "t_uint256",
						"label": "mapping(uint256 => string)",
						"numberOfBytes": "32",
						"value": "t_string_storage"
					},
					"t_string_storage": {
						"encoding": "bytes",
						"label": "string",
						"numberOfBytes": "32"
					},
					"t_struct(Counter)1612_storage": {
						"encoding": "inplace",
						"label": "struct Counters.Counter",
						"members": [
							{
								"astId": 1611,
								"contract": "contracts/sequential.sol:MyToken",
								"label": "_value",
								"offset": 0,
								"slot": "0",
								"type": "t_uint256"
							}
						],
						"numberOfBytes": "32"
					},
					"t_uint256": {
						"encoding": "inplace",
						"label": "uint256",
						"numberOfBytes": "32"
					}
				}
			},
			"userdoc": {
				"kind": "user",
				"methods": {},
				"version": 1
			}
		}
	}
}