{
	"contracts/Migrations.sol": {
		"Migrations": {
			"abi": [
				{
					"inputs": [
						{
							"internalType": "uint256",
							"name": "_value",
							"type": "uint256"
						}
					],
					"name": "calculateTax",
					"outputs": [
						{
							"internalType": "uint256",
							"name": "",
							"type": "uint256"
						}
					],
					"stateMutability": "pure",
					"type": "function"
				},
				{
					"inputs": [],
					"name": "last_completed_migration",
					"outputs": [
						{
							"internalType": "uint256",
							"name": "",
							"type": "uint256"
						}
					],
					"stateMutability": "view",
					"type": "function"
				},
				{
					"inputs": [],
					"name": "owner",
					"outputs": [
						{
							"internalType": "address",
							"name": "",
							"type": "address"
						}
					],
					"stateMutability": "view",
					"type": "function"
				},
				{
					"inputs": [
						{
							"internalType": "uint256",
							"name": "completed",
							"type": "uint256"
						}
					],
					"name": "setCompleted",
					"outputs": [],
					"stateMutability": "nonpayable",
					"type": "function"
				}
			],
			"devdoc": {
				"kind": "dev",
				"methods": {},
				"version": 1
			},
			"evm": {
				"assembly": "    /* \"contracts/Migrations.sol\":66:522  contract Migrations {... */\n  mstore(0x40, 0x80)\n    /* \"contracts/Migrations.sol\":113:123  msg.sender */\n  caller\n    /* \"contracts/Migrations.sol\":90:123  address public owner = msg.sender */\n  0x00\n  dup1\n  0x0100\n  exp\n  dup2\n  sload\n  dup2\n  0xffffffffffffffffffffffffffffffffffffffff\n  mul\n  not\n  and\n  swap1\n  dup4\n  0xffffffffffffffffffffffffffffffffffffffff\n  and\n  mul\n  or\n  swap1\n  sstore\n  pop\n    /* \"contracts/Migrations.sol\":66:522  contract Migrations {... */\n  callvalue\n  dup1\n  iszero\n  tag_1\n  jumpi\n  0x00\n  dup1\n  revert\ntag_1:\n  pop\n  dataSize(sub_0)\n  dup1\n  dataOffset(sub_0)\n  0x00\n  codecopy\n  0x00\n  return\nstop\n\nsub_0: assembly {\n        /* \"contracts/Migrations.sol\":66:522  contract Migrations {... */\n      mstore(0x40, 0x80)\n      callvalue\n      dup1\n      iszero\n      tag_1\n      jumpi\n      0x00\n      dup1\n      revert\n    tag_1:\n      pop\n      jumpi(tag_2, lt(calldatasize, 0x04))\n      shr(0xe0, calldataload(0x00))\n      dup1\n      0x445df0ac\n      eq\n      tag_3\n      jumpi\n      dup1\n      0x483a9310\n      eq\n      tag_4\n      jumpi\n      dup1\n      0x8da5cb5b\n      eq\n      tag_5\n      jumpi\n      dup1\n      0xfdacd576\n      eq\n      tag_6\n      jumpi\n    tag_2:\n      0x00\n      dup1\n      revert\n        /* \"contracts/Migrations.sol\":127:163  uint public last_completed_migration */\n    tag_3:\n      tag_7\n      tag_8\n      jump\t// in\n    tag_7:\n      mload(0x40)\n      tag_9\n      swap2\n      swap1\n      tag_10\n      jump\t// in\n    tag_9:\n      mload(0x40)\n      dup1\n      swap2\n      sub\n      swap1\n      return\n        /* \"contracts/Migrations.sol\":420:520  function calculateTax(uint _value)public pure returns(uint){... */\n    tag_4:\n      tag_11\n      0x04\n      dup1\n      calldatasize\n      sub\n      dup2\n      add\n      swap1\n      tag_12\n      swap2\n      swap1\n      tag_13\n      jump\t// in\n    tag_12:\n      tag_14\n      jump\t// in\n    tag_11:\n      mload(0x40)\n      tag_15\n      swap2\n      swap1\n      tag_10\n      jump\t// in\n    tag_15:\n      mload(0x40)\n      dup1\n      swap2\n      sub\n      swap1\n      return\n        /* \"contracts/Migrations.sol\":90:123  address public owner = msg.sender */\n    tag_5:\n      tag_16\n      tag_17\n      jump\t// in\n    tag_16:\n      mload(0x40)\n      tag_18\n      swap2\n      swap1\n      tag_19\n      jump\t// in\n    tag_18:\n      mload(0x40)\n      dup1\n      swap2\n      sub\n      swap1\n      return\n        /* \"contracts/Migrations.sol\":313:416  function setCompleted(uint completed) public restricted {... */\n    tag_6:\n      tag_20\n      0x04\n      dup1\n      calldatasize\n      sub\n      dup2\n      add\n      swap1\n      tag_21\n      swap2\n      swap1\n      tag_13\n      jump\t// in\n    tag_21:\n      tag_22\n      jump\t// in\n    tag_20:\n      stop\n        /* \"contracts/Migrations.sol\":127:163  uint public last_completed_migration */\n    tag_8:\n      sload(0x01)\n      dup2\n      jump\t// out\n        /* \"contracts/Migrations.sol\":420:520  function calculateTax(uint _value)public pure returns(uint){... */\n    tag_14:\n        /* \"contracts/Migrations.sol\":474:478  uint */\n      0x00\n        /* \"contracts/Migrations.sol\":510:513  927 */\n      0x039f\n        /* \"contracts/Migrations.sol\":503:507  1000 */\n      0x03e8\n        /* \"contracts/Migrations.sol\":496:502  _value */\n      dup4\n        /* \"contracts/Migrations.sol\":496:507  _value/1000 */\n      tag_24\n      swap2\n      swap1\n      tag_25\n      jump\t// in\n    tag_24:\n        /* \"contracts/Migrations.sol\":496:513  _value/1000 * 927 */\n      tag_26\n      swap2\n      swap1\n      tag_27\n      jump\t// in\n    tag_26:\n        /* \"contracts/Migrations.sol\":489:513  return _value/1000 * 927 */\n      swap1\n      pop\n        /* \"contracts/Migrations.sol\":420:520  function calculateTax(uint _value)public pure returns(uint){... */\n      swap2\n      swap1\n      pop\n      jump\t// out\n        /* \"contracts/Migrations.sol\":90:123  address public owner = msg.sender */\n    tag_17:\n      0x00\n      dup1\n      sload\n      swap1\n      0x0100\n      exp\n      swap1\n      div\n      0xffffffffffffffffffffffffffffffffffffffff\n      and\n      dup2\n      jump\t// out\n        /* \"contracts/Migrations.sol\":313:416  function setCompleted(uint completed) public restricted {... */\n    tag_22:\n        /* \"contracts/Migrations.sol\":225:230  owner */\n      0x00\n      dup1\n      sload\n      swap1\n      0x0100\n      exp\n      swap1\n      div\n      0xffffffffffffffffffffffffffffffffffffffff\n      and\n        /* \"contracts/Migrations.sol\":211:230  msg.sender == owner */\n      0xffffffffffffffffffffffffffffffffffffffff\n      and\n        /* \"contracts/Migrations.sol\":211:221  msg.sender */\n      caller\n        /* \"contracts/Migrations.sol\":211:230  msg.sender == owner */\n      0xffffffffffffffffffffffffffffffffffffffff\n      and\n      eq\n        /* \"contracts/Migrations.sol\":196:297  require(... */\n      tag_29\n      jumpi\n      mload(0x40)\n      0x08c379a000000000000000000000000000000000000000000000000000000000\n      dup2\n      mstore\n      0x04\n      add\n      tag_30\n      swap1\n      tag_31\n      jump\t// in\n    tag_30:\n      mload(0x40)\n      dup1\n      swap2\n      sub\n      swap1\n      revert\n    tag_29:\n        /* \"contracts/Migrations.sol\":402:411  completed */\n      dup1\n        /* \"contracts/Migrations.sol\":375:399  last_completed_migration */\n      0x01\n        /* \"contracts/Migrations.sol\":375:411  last_completed_migration = completed */\n      dup2\n      swap1\n      sstore\n      pop\n        /* \"contracts/Migrations.sol\":313:416  function setCompleted(uint completed) public restricted {... */\n      pop\n      jump\t// out\n        /* \"#utility.yul\":7:146   */\n    tag_34:\n        /* \"#utility.yul\":53:58   */\n      0x00\n        /* \"#utility.yul\":91:97   */\n      dup2\n        /* \"#utility.yul\":78:98   */\n      calldataload\n        /* \"#utility.yul\":69:98   */\n      swap1\n      pop\n        /* \"#utility.yul\":107:140   */\n      tag_36\n        /* \"#utility.yul\":134:139   */\n      dup2\n        /* \"#utility.yul\":107:140   */\n      tag_37\n      jump\t// in\n    tag_36:\n        /* \"#utility.yul\":7:146   */\n      swap3\n      swap2\n      pop\n      pop\n      jump\t// out\n        /* \"#utility.yul\":152:481   */\n    tag_13:\n        /* \"#utility.yul\":211:217   */\n      0x00\n        /* \"#utility.yul\":260:262   */\n      0x20\n        /* \"#utility.yul\":248:257   */\n      dup3\n        /* \"#utility.yul\":239:246   */\n      dup5\n        /* \"#utility.yul\":235:258   */\n      sub\n        /* \"#utility.yul\":231:263   */\n      slt\n        /* \"#utility.yul\":228:347   */\n      iszero\n      tag_39\n      jumpi\n        /* \"#utility.yul\":266:345   */\n      tag_40\n      tag_41\n      jump\t// in\n    tag_40:\n        /* \"#utility.yul\":228:347   */\n    tag_39:\n        /* \"#utility.yul\":386:387   */\n      0x00\n        /* \"#utility.yul\":411:464   */\n      tag_42\n        /* \"#utility.yul\":456:463   */\n      dup5\n        /* \"#utility.yul\":447:453   */\n      dup3\n        /* \"#utility.yul\":436:445   */\n      dup6\n        /* \"#utility.yul\":432:454   */\n      add\n        /* \"#utility.yul\":411:464   */\n      tag_34\n      jump\t// in\n    tag_42:\n        /* \"#utility.yul\":401:464   */\n      swap2\n      pop\n        /* \"#utility.yul\":357:474   */\n      pop\n        /* \"#utility.yul\":152:481   */\n      swap3\n      swap2\n      pop\n      pop\n      jump\t// out\n        /* \"#utility.yul\":487:605   */\n    tag_43:\n        /* \"#utility.yul\":574:598   */\n      tag_45\n        /* \"#utility.yul\":592:597   */\n      dup2\n        /* \"#utility.yul\":574:598   */\n      tag_46\n      jump\t// in\n    tag_45:\n        /* \"#utility.yul\":569:572   */\n      dup3\n        /* \"#utility.yul\":562:599   */\n      mstore\n        /* \"#utility.yul\":487:605   */\n      pop\n      pop\n      jump\t// out\n        /* \"#utility.yul\":611:977   */\n    tag_47:\n        /* \"#utility.yul\":753:756   */\n      0x00\n        /* \"#utility.yul\":774:841   */\n      tag_49\n        /* \"#utility.yul\":838:840   */\n      0x33\n        /* \"#utility.yul\":833:836   */\n      dup4\n        /* \"#utility.yul\":774:841   */\n      tag_50\n      jump\t// in\n    tag_49:\n        /* \"#utility.yul\":767:841   */\n      swap2\n      pop\n        /* \"#utility.yul\":850:943   */\n      tag_51\n        /* \"#utility.yul\":939:942   */\n      dup3\n        /* \"#utility.yul\":850:943   */\n      tag_52\n      jump\t// in\n    tag_51:\n        /* \"#utility.yul\":968:970   */\n      0x40\n        /* \"#utility.yul\":963:966   */\n      dup3\n        /* \"#utility.yul\":959:971   */\n      add\n        /* \"#utility.yul\":952:971   */\n      swap1\n      pop\n        /* \"#utility.yul\":611:977   */\n      swap2\n      swap1\n      pop\n      jump\t// out\n        /* \"#utility.yul\":983:1101   */\n    tag_53:\n        /* \"#utility.yul\":1070:1094   */\n      tag_55\n        /* \"#utility.yul\":1088:1093   */\n      dup2\n        /* \"#utility.yul\":1070:1094   */\n      tag_56\n      jump\t// in\n    tag_55:\n        /* \"#utility.yul\":1065:1068   */\n      dup3\n        /* \"#utility.yul\":1058:1095   */\n      mstore\n        /* \"#utility.yul\":983:1101   */\n      pop\n      pop\n      jump\t// out\n        /* \"#utility.yul\":1107:1329   */\n    tag_19:\n        /* \"#utility.yul\":1200:1204   */\n      0x00\n        /* \"#utility.yul\":1238:1240   */\n      0x20\n        /* \"#utility.yul\":1227:1236   */\n      dup3\n        /* \"#utility.yul\":1223:1241   */\n      add\n        /* \"#utility.yul\":1215:1241   */\n      swap1\n      pop\n        /* \"#utility.yul\":1251:1322   */\n      tag_58\n        /* \"#utility.yul\":1319:1320   */\n      0x00\n        /* \"#utility.yul\":1308:1317   */\n      dup4\n        /* \"#utility.yul\":1304:1321   */\n      add\n        /* \"#utility.yul\":1295:1301   */\n      dup5\n        /* \"#utility.yul\":1251:1322   */\n      tag_43\n      jump\t// in\n    tag_58:\n        /* \"#utility.yul\":1107:1329   */\n      swap3\n      swap2\n      pop\n      pop\n      jump\t// out\n        /* \"#utility.yul\":1335:1754   */\n    tag_31:\n        /* \"#utility.yul\":1501:1505   */\n      0x00\n        /* \"#utility.yul\":1539:1541   */\n      0x20\n        /* \"#utility.yul\":1528:1537   */\n      dup3\n        /* \"#utility.yul\":1524:1542   */\n      add\n        /* \"#utility.yul\":1516:1542   */\n      swap1\n      pop\n        /* \"#utility.yul\":1588:1597   */\n      dup2\n        /* \"#utility.yul\":1582:1586   */\n      dup2\n        /* \"#utility.yul\":1578:1598   */\n      sub\n        /* \"#utility.yul\":1574:1575   */\n      0x00\n        /* \"#utility.yul\":1563:1572   */\n      dup4\n        /* \"#utility.yul\":1559:1576   */\n      add\n        /* \"#utility.yul\":1552:1599   */\n      mstore\n        /* \"#utility.yul\":1616:1747   */\n      tag_60\n        /* \"#utility.yul\":1742:1746   */\n      dup2\n        /* \"#utility.yul\":1616:1747   */\n      tag_47\n      jump\t// in\n    tag_60:\n        /* \"#utility.yul\":1608:1747   */\n      swap1\n      pop\n        /* \"#utility.yul\":1335:1754   */\n      swap2\n      swap1\n      pop\n      jump\t// out\n        /* \"#utility.yul\":1760:1982   */\n    tag_10:\n        /* \"#utility.yul\":1853:1857   */\n      0x00\n        /* \"#utility.yul\":1891:1893   */\n      0x20\n        /* \"#utility.yul\":1880:1889   */\n      dup3\n        /* \"#utility.yul\":1876:1894   */\n      add\n        /* \"#utility.yul\":1868:1894   */\n      swap1\n      pop\n        /* \"#utility.yul\":1904:1975   */\n      tag_62\n        /* \"#utility.yul\":1972:1973   */\n      0x00\n        /* \"#utility.yul\":1961:1970   */\n      dup4\n        /* \"#utility.yul\":1957:1974   */\n      add\n        /* \"#utility.yul\":1948:1954   */\n      dup5\n        /* \"#utility.yul\":1904:1975   */\n      tag_53\n      jump\t// in\n    tag_62:\n        /* \"#utility.yul\":1760:1982   */\n      swap3\n      swap2\n      pop\n      pop\n      jump\t// out\n        /* \"#utility.yul\":2069:2238   */\n    tag_50:\n        /* \"#utility.yul\":2153:2164   */\n      0x00\n        /* \"#utility.yul\":2187:2193   */\n      dup3\n        /* \"#utility.yul\":2182:2185   */\n      dup3\n        /* \"#utility.yul\":2175:2194   */\n      mstore\n        /* \"#utility.yul\":2227:2231   */\n      0x20\n        /* \"#utility.yul\":2222:2225   */\n      dup3\n        /* \"#utility.yul\":2218:2232   */\n      add\n        /* \"#utility.yul\":2203:2232   */\n      swap1\n      pop\n        /* \"#utility.yul\":2069:2238   */\n      swap3\n      swap2\n      pop\n      pop\n      jump\t// out\n        /* \"#utility.yul\":2244:2429   */\n    tag_25:\n        /* \"#utility.yul\":2284:2285   */\n      0x00\n        /* \"#utility.yul\":2301:2321   */\n      tag_67\n        /* \"#utility.yul\":2319:2320   */\n      dup3\n        /* \"#utility.yul\":2301:2321   */\n      tag_56\n      jump\t// in\n    tag_67:\n        /* \"#utility.yul\":2296:2321   */\n      swap2\n      pop\n        /* \"#utility.yul\":2335:2355   */\n      tag_68\n        /* \"#utility.yul\":2353:2354   */\n      dup4\n        /* \"#utility.yul\":2335:2355   */\n      tag_56\n      jump\t// in\n    tag_68:\n        /* \"#utility.yul\":2330:2355   */\n      swap3\n      pop\n        /* \"#utility.yul\":2374:2375   */\n      dup3\n        /* \"#utility.yul\":2364:2399   */\n      tag_69\n      jumpi\n        /* \"#utility.yul\":2379:2397   */\n      tag_70\n      tag_71\n      jump\t// in\n    tag_70:\n        /* \"#utility.yul\":2364:2399   */\n    tag_69:\n        /* \"#utility.yul\":2421:2422   */\n      dup3\n        /* \"#utility.yul\":2418:2419   */\n      dup3\n        /* \"#utility.yul\":2414:2423   */\n      div\n        /* \"#utility.yul\":2409:2423   */\n      swap1\n      pop\n        /* \"#utility.yul\":2244:2429   */\n      swap3\n      swap2\n      pop\n      pop\n      jump\t// out\n        /* \"#utility.yul\":2435:2783   */\n    tag_27:\n        /* \"#utility.yul\":2475:2482   */\n      0x00\n        /* \"#utility.yul\":2498:2518   */\n      tag_73\n        /* \"#utility.yul\":2516:2517   */\n      dup3\n        /* \"#utility.yul\":2498:2518   */\n      tag_56\n      jump\t// in\n    tag_73:\n        /* \"#utility.yul\":2493:2518   */\n      swap2\n      pop\n        /* \"#utility.yul\":2532:2552   */\n      tag_74\n        /* \"#utility.yul\":2550:2551   */\n      dup4\n        /* \"#utility.yul\":2532:2552   */\n      tag_56\n      jump\t// in\n    tag_74:\n        /* \"#utility.yul\":2527:2552   */\n      swap3\n      pop\n        /* \"#utility.yul\":2720:2721   */\n      dup2\n        /* \"#utility.yul\":2652:2718   */\n      0xffffffffffffffffffffffffffffffffffffffffffffffffffffffffffffffff\n        /* \"#utility.yul\":2648:2722   */\n      div\n        /* \"#utility.yul\":2645:2646   */\n      dup4\n        /* \"#utility.yul\":2642:2723   */\n      gt\n        /* \"#utility.yul\":2637:2638   */\n      dup3\n        /* \"#utility.yul\":2630:2639   */\n      iszero\n        /* \"#utility.yul\":2623:2640   */\n      iszero\n        /* \"#utility.yul\":2619:2724   */\n      and\n        /* \"#utility.yul\":2616:2747   */\n      iszero\n      tag_75\n      jumpi\n        /* \"#utility.yul\":2727:2745   */\n      tag_76\n      tag_77\n      jump\t// in\n    tag_76:\n        /* \"#utility.yul\":2616:2747   */\n    tag_75:\n        /* \"#utility.yul\":2775:2776   */\n      dup3\n        /* \"#utility.yul\":2772:2773   */\n      dup3\n        /* \"#utility.yul\":2768:2777   */\n      mul\n        /* \"#utility.yul\":2757:2777   */\n      swap1\n      pop\n        /* \"#utility.yul\":2435:2783   */\n      swap3\n      swap2\n      pop\n      pop\n      jump\t// out\n        /* \"#utility.yul\":2789:2885   */\n    tag_46:\n        /* \"#utility.yul\":2826:2833   */\n      0x00\n        /* \"#utility.yul\":2855:2879   */\n      tag_79\n        /* \"#utility.yul\":2873:2878   */\n      dup3\n        /* \"#utility.yul\":2855:2879   */\n      tag_80\n      jump\t// in\n    tag_79:\n        /* \"#utility.yul\":2844:2879   */\n      swap1\n      pop\n        /* \"#utility.yul\":2789:2885   */\n      swap2\n      swap1\n      pop\n      jump\t// out\n        /* \"#utility.yul\":2891:3017   */\n    tag_80:\n        /* \"#utility.yul\":2928:2935   */\n      0x00\n        /* \"#utility.yul\":2968:3010   */\n      0xffffffffffffffffffffffffffffffffffffffff\n        /* \"#utility.yul\":2961:2966   */\n      dup3\n        /* \"#utility.yul\":2957:3011   */\n      and\n        /* \"#utility.yul\":2946:3011   */\n      swap1\n      pop\n        /* \"#utility.yul\":2891:3017   */\n      swap2\n      swap1\n      pop\n      jump\t// out\n        /* \"#utility.yul\":3023:3100   */\n    tag_56:\n        /* \"#utility.yul\":3060:3067   */\n      0x00\n        /* \"#utility.yul\":3089:3094   */\n      dup2\n        /* \"#utility.yul\":3078:3094   */\n      swap1\n      pop\n        /* \"#utility.yul\":3023:3100   */\n      swap2\n      swap1\n      pop\n      jump\t// out\n        /* \"#utility.yul\":3106:3286   */\n    tag_77:\n        /* \"#utility.yul\":3154:3231   */\n      0x4e487b7100000000000000000000000000000000000000000000000000000000\n        /* \"#utility.yul\":3151:3152   */\n      0x00\n        /* \"#utility.yul\":3144:3232   */\n      mstore\n        /* \"#utility.yul\":3251:3255   */\n      0x11\n        /* \"#utility.yul\":3248:3249   */\n      0x04\n        /* \"#utility.yul\":3241:3256   */\n      mstore\n        /* \"#utility.yul\":3275:3279   */\n      0x24\n        /* \"#utility.yul\":3272:3273   */\n      0x00\n        /* \"#utility.yul\":3265:3280   */\n      revert\n        /* \"#utility.yul\":3292:3472   */\n    tag_71:\n        /* \"#utility.yul\":3340:3417   */\n      0x4e487b7100000000000000000000000000000000000000000000000000000000\n        /* \"#utility.yul\":3337:3338   */\n      0x00\n        /* \"#utility.yul\":3330:3418   */\n      mstore\n        /* \"#utility.yul\":3437:3441   */\n      0x12\n        /* \"#utility.yul\":3434:3435   */\n      0x04\n        /* \"#utility.yul\":3427:3442   */\n      mstore\n        /* \"#utility.yul\":3461:3465   */\n      0x24\n        /* \"#utility.yul\":3458:3459   */\n      0x00\n        /* \"#utility.yul\":3451:3466   */\n      revert\n        /* \"#utility.yul\":3601:3718   */\n    tag_41:\n        /* \"#utility.yul\":3710:3711   */\n      0x00\n        /* \"#utility.yul\":3707:3708   */\n      dup1\n        /* \"#utility.yul\":3700:3712   */\n      revert\n        /* \"#utility.yul\":3724:3962   */\n    tag_52:\n        /* \"#utility.yul\":3864:3898   */\n      0x546869732066756e6374696f6e206973207265737472696374656420746f2074\n        /* \"#utility.yul\":3860:3861   */\n      0x00\n        /* \"#utility.yul\":3852:3858   */\n      dup3\n        /* \"#utility.yul\":3848:3862   */\n      add\n        /* \"#utility.yul\":3841:3899   */\n      mstore\n        /* \"#utility.yul\":3933:3954   */\n      0x686520636f6e74726163742773206f776e657200000000000000000000000000\n        /* \"#utility.yul\":3928:3930   */\n      0x20\n        /* \"#utility.yul\":3920:3926   */\n      dup3\n        /* \"#utility.yul\":3916:3931   */\n      add\n        /* \"#utility.yul\":3909:3955   */\n      mstore\n        /* \"#utility.yul\":3724:3962   */\n      pop\n      jump\t// out\n        /* \"#utility.yul\":3968:4090   */\n    tag_37:\n        /* \"#utility.yul\":4041:4065   */\n      tag_90\n        /* \"#utility.yul\":4059:4064   */\n      dup2\n        /* \"#utility.yul\":4041:4065   */\n      tag_56\n      jump\t// in\n    tag_90:\n        /* \"#utility.yul\":4034:4039   */\n      dup2\n        /* \"#utility.yul\":4031:4066   */\n      eq\n        /* \"#utility.yul\":4021:4084   */\n      tag_91\n      jumpi\n        /* \"#utility.yul\":4080:4081   */\n      0x00\n        /* \"#utility.yul\":4077:4078   */\n      dup1\n        /* \"#utility.yul\":4070:4082   */\n      revert\n        /* \"#utility.yul\":4021:4084   */\n    tag_91:\n        /* \"#utility.yul\":3968:4090   */\n      pop\n      jump\t// out\n\n    auxdata: 0xa2646970667358221220470b4932b2cc46643acaabe01b9abb4706a918517e9b4600c4786a71c918579a64736f6c63430008070033\n}\n",
				"bytecode": {
					"linkReferences": {},
					"object": "6080604052336000806101000a81548173ffffffffffffffffffffffffffffffffffffffff021916908373ffffffffffffffffffffffffffffffffffffffff16021790555034801561005057600080fd5b5061046f806100606000396000f3fe608060405234801561001057600080fd5b506004361061004c5760003560e01c8063445df0ac14610051578063483a93101461006f5780638da5cb5b1461009f578063fdacd576146100bd575b600080fd5b6100596100d9565b604051610066919061027d565b60405180910390f35b610089600480360381019061008491906101d4565b6100df565b604051610096919061027d565b60405180910390f35b6100a7610103565b6040516100b49190610242565b60405180910390f35b6100d760048036038101906100d291906101d4565b610127565b005b60015481565b600061039f6103e8836100f291906102a9565b6100fc91906102da565b9050919050565b60008054906101000a900473ffffffffffffffffffffffffffffffffffffffff1681565b60008054906101000a900473ffffffffffffffffffffffffffffffffffffffff1673ffffffffffffffffffffffffffffffffffffffff163373ffffffffffffffffffffffffffffffffffffffff16146101b5576040517f08c379a00000000000000000000000000000000000000000000000000000000081526004016101ac9061025d565b60405180910390fd5b8060018190555050565b6000813590506101ce81610422565b92915050565b6000602082840312156101ea576101e96103ce565b5b60006101f8848285016101bf565b91505092915050565b61020a81610334565b82525050565b600061021d603383610298565b9150610228826103d3565b604082019050919050565b61023c81610366565b82525050565b60006020820190506102576000830184610201565b92915050565b6000602082019050818103600083015261027681610210565b9050919050565b60006020820190506102926000830184610233565b92915050565b600082825260208201905092915050565b60006102b482610366565b91506102bf83610366565b9250826102cf576102ce61039f565b5b828204905092915050565b60006102e582610366565b91506102f083610366565b9250817fffffffffffffffffffffffffffffffffffffffffffffffffffffffffffffffff048311821515161561032957610328610370565b5b828202905092915050565b600061033f82610346565b9050919050565b600073ffffffffffffffffffffffffffffffffffffffff82169050919050565b6000819050919050565b7f4e487b7100000000000000000000000000000000000000000000000000000000600052601160045260246000fd5b7f4e487b7100000000000000000000000000000000000000000000000000000000600052601260045260246000fd5b600080fd5b7f546869732066756e6374696f6e206973207265737472696374656420746f207460008201527f686520636f6e74726163742773206f776e657200000000000000000000000000602082015250565b61042b81610366565b811461043657600080fd5b5056fea2646970667358221220470b4932b2cc46643acaabe01b9abb4706a918517e9b4600c4786a71c918579a64736f6c63430008070033",
					"opcodes": "PUSH1 0x80 PUSH1 0x40 MSTORE CALLER PUSH1 0x0 DUP1 PUSH2 0x100 EXP DUP2 SLOAD DUP2 PUSH20 0xFFFFFFFFFFFFFFFFFFFFFFFFFFFFFFFFFFFFFFFF MUL NOT AND SWAP1 DUP4 PUSH20 0xFFFFFFFFFFFFFFFFFFFFFFFFFFFFFFFFFFFFFFFF AND MUL OR SWAP1 SSTORE POP CALLVALUE DUP1 ISZERO PUSH2 0x50 JUMPI PUSH1 0x0 DUP1 REVERT JUMPDEST POP PUSH2 0x46F DUP1 PUSH2 0x60 PUSH1 0x0 CODECOPY PUSH1 0x0 RETURN INVALID PUSH1 0x80 PUSH1 0x40 MSTORE CALLVALUE DUP1 ISZERO PUSH2 0x10 JUMPI PUSH1 0x0 DUP1 REVERT JUMPDEST POP PUSH1 0x4 CALLDATASIZE LT PUSH2 0x4C JUMPI PUSH1 0x0 CALLDATALOAD PUSH1 0xE0 SHR DUP1 PUSH4 0x445DF0AC EQ PUSH2 0x51 JUMPI DUP1 PUSH4 0x483A9310 EQ PUSH2 0x6F JUMPI DUP1 PUSH4 0x8DA5CB5B EQ PUSH2 0x9F JUMPI DUP1 PUSH4 0xFDACD576 EQ PUSH2 0xBD JUMPI JUMPDEST PUSH1 0x0 DUP1 REVERT JUMPDEST PUSH2 0x59 PUSH2 0xD9 JUMP JUMPDEST PUSH1 0x40 MLOAD PUSH2 0x66 SWAP2 SWAP1 PUSH2 0x27D JUMP JUMPDEST PUSH1 0x40 MLOAD DUP1 SWAP2 SUB SWAP1 RETURN JUMPDEST PUSH2 0x89 PUSH1 0x4 DUP1 CALLDATASIZE SUB DUP2 ADD SWAP1 PUSH2 0x84 SWAP2 SWAP1 PUSH2 0x1D4 JUMP JUMPDEST PUSH2 0xDF JUMP JUMPDEST PUSH1 0x40 MLOAD PUSH2 0x96 SWAP2 SWAP1 PUSH2 0x27D JUMP JUMPDEST PUSH1 0x40 MLOAD DUP1 SWAP2 SUB SWAP1 RETURN JUMPDEST PUSH2 0xA7 PUSH2 0x103 JUMP JUMPDEST PUSH1 0x40 MLOAD PUSH2 0xB4 SWAP2 SWAP1 PUSH2 0x242 JUMP JUMPDEST PUSH1 0x40 MLOAD DUP1 SWAP2 SUB SWAP1 RETURN JUMPDEST PUSH2 0xD7 PUSH1 0x4 DUP1 CALLDATASIZE SUB DUP2 ADD SWAP1 PUSH2 0xD2 SWAP2 SWAP1 PUSH2 0x1D4 JUMP JUMPDEST PUSH2 0x127 JUMP JUMPDEST STOP JUMPDEST PUSH1 0x1 SLOAD DUP2 JUMP JUMPDEST PUSH1 0x0 PUSH2 0x39F PUSH2 0x3E8 DUP4 PUSH2 0xF2 SWAP2 SWAP1 PUSH2 0x2A9 JUMP JUMPDEST PUSH2 0xFC SWAP2 SWAP1 PUSH2 0x2DA JUMP JUMPDEST SWAP1 POP SWAP2 SWAP1 POP JUMP JUMPDEST PUSH1 0x0 DUP1 SLOAD SWAP1 PUSH2 0x100 EXP SWAP1 DIV PUSH20 0xFFFFFFFFFFFFFFFFFFFFFFFFFFFFFFFFFFFFFFFF AND DUP2 JUMP JUMPDEST PUSH1 0x0 DUP1 SLOAD SWAP1 PUSH2 0x100 EXP SWAP1 DIV PUSH20 0xFFFFFFFFFFFFFFFFFFFFFFFFFFFFFFFFFFFFFFFF AND PUSH20 0xFFFFFFFFFFFFFFFFFFFFFFFFFFFFFFFFFFFFFFFF AND CALLER PUSH20 0xFFFFFFFFFFFFFFFFFFFFFFFFFFFFFFFFFFFFFFFF AND EQ PUSH2 0x1B5 JUMPI PUSH1 0x40 MLOAD PUSH32 0x8C379A000000000000000000000000000000000000000000000000000000000 DUP2 MSTORE PUSH1 0x4 ADD PUSH2 0x1AC SWAP1 PUSH2 0x25D JUMP JUMPDEST PUSH1 0x40 MLOAD DUP1 SWAP2 SUB SWAP1 REVERT JUMPDEST DUP1 PUSH1 0x1 DUP2 SWAP1 SSTORE POP POP JUMP JUMPDEST PUSH1 0x0 DUP2 CALLDATALOAD SWAP1 POP PUSH2 0x1CE DUP2 PUSH2 0x422 JUMP JUMPDEST SWAP3 SWAP2 POP POP JUMP JUMPDEST PUSH1 0x0 PUSH1 0x20 DUP3 DUP5 SUB SLT ISZERO PUSH2 0x1EA JUMPI PUSH2 0x1E9 PUSH2 0x3CE JUMP JUMPDEST JUMPDEST PUSH1 0x0 PUSH2 0x1F8 DUP5 DUP3 DUP6 ADD PUSH2 0x1BF JUMP JUMPDEST SWAP2 POP POP SWAP3 SWAP2 POP POP JUMP JUMPDEST PUSH2 0x20A DUP2 PUSH2 0x334 JUMP JUMPDEST DUP3 MSTORE POP POP JUMP JUMPDEST PUSH1 0x0 PUSH2 0x21D PUSH1 0x33 DUP4 PUSH2 0x298 JUMP JUMPDEST SWAP2 POP PUSH2 0x228 DUP3 PUSH2 0x3D3 JUMP JUMPDEST PUSH1 0x40 DUP3 ADD SWAP1 POP SWAP2 SWAP1 POP JUMP JUMPDEST PUSH2 0x23C DUP2 PUSH2 0x366 JUMP JUMPDEST DUP3 MSTORE POP POP JUMP JUMPDEST PUSH1 0x0 PUSH1 0x20 DUP3 ADD SWAP1 POP PUSH2 0x257 PUSH1 0x0 DUP4 ADD DUP5 PUSH2 0x201 JUMP JUMPDEST SWAP3 SWAP2 POP POP JUMP JUMPDEST PUSH1 0x0 PUSH1 0x20 DUP3 ADD SWAP1 POP DUP2 DUP2 SUB PUSH1 0x0 DUP4 ADD MSTORE PUSH2 0x276 DUP2 PUSH2 0x210 JUMP JUMPDEST SWAP1 POP SWAP2 SWAP1 POP JUMP JUMPDEST PUSH1 0x0 PUSH1 0x20 DUP3 ADD SWAP1 POP PUSH2 0x292 PUSH1 0x0 DUP4 ADD DUP5 PUSH2 0x233 JUMP JUMPDEST SWAP3 SWAP2 POP POP JUMP JUMPDEST PUSH1 0x0 DUP3 DUP3 MSTORE PUSH1 0x20 DUP3 ADD SWAP1 POP SWAP3 SWAP2 POP POP JUMP JUMPDEST PUSH1 0x0 PUSH2 0x2B4 DUP3 PUSH2 0x366 JUMP JUMPDEST SWAP2 POP PUSH2 0x2BF DUP4 PUSH2 0x366 JUMP JUMPDEST SWAP3 POP DUP3 PUSH2 0x2CF JUMPI PUSH2 0x2CE PUSH2 0x39F JUMP JUMPDEST JUMPDEST DUP3 DUP3 DIV SWAP1 POP SWAP3 SWAP2 POP POP JUMP JUMPDEST PUSH1 0x0 PUSH2 0x2E5 DUP3 PUSH2 0x366 JUMP JUMPDEST SWAP2 POP PUSH2 0x2F0 DUP4 PUSH2 0x366 JUMP JUMPDEST SWAP3 POP DUP2 PUSH32 0xFFFFFFFFFFFFFFFFFFFFFFFFFFFFFFFFFFFFFFFFFFFFFFFFFFFFFFFFFFFFFFFF DIV DUP4 GT DUP3 ISZERO ISZERO AND ISZERO PUSH2 0x329 JUMPI PUSH2 0x328 PUSH2 0x370 JUMP JUMPDEST JUMPDEST DUP3 DUP3 MUL SWAP1 POP SWAP3 SWAP2 POP POP JUMP JUMPDEST PUSH1 0x0 PUSH2 0x33F DUP3 PUSH2 0x346 JUMP JUMPDEST SWAP1 POP SWAP2 SWAP1 POP JUMP JUMPDEST PUSH1 0x0 PUSH20 0xFFFFFFFFFFFFFFFFFFFFFFFFFFFFFFFFFFFFFFFF DUP3 AND SWAP1 POP SWAP2 SWAP1 POP JUMP JUMPDEST PUSH1 0x0 DUP2 SWAP1 POP SWAP2 SWAP1 POP JUMP JUMPDEST PUSH32 0x4E487B7100000000000000000000000000000000000000000000000000000000 PUSH1 0x0 MSTORE PUSH1 0x11 PUSH1 0x4 MSTORE PUSH1 0x24 PUSH1 0x0 REVERT JUMPDEST PUSH32 0x4E487B7100000000000000000000000000000000000000000000000000000000 PUSH1 0x0 MSTORE PUSH1 0x12 PUSH1 0x4 MSTORE PUSH1 0x24 PUSH1 0x0 REVERT JUMPDEST PUSH1 0x0 DUP1 REVERT JUMPDEST PUSH32 0x546869732066756E6374696F6E206973207265737472696374656420746F2074 PUSH1 0x0 DUP3 ADD MSTORE PUSH32 0x686520636F6E74726163742773206F776E657200000000000000000000000000 PUSH1 0x20 DUP3 ADD MSTORE POP JUMP JUMPDEST PUSH2 0x42B DUP2 PUSH2 0x366 JUMP JUMPDEST DUP2 EQ PUSH2 0x436 JUMPI PUSH1 0x0 DUP1 REVERT JUMPDEST POP JUMP INVALID LOG2 PUSH5 0x6970667358 0x22 SLT KECCAK256 SELFBALANCE SIGNEXTEND 0x49 ORIGIN 0xB2 0xCC CHAINID PUSH5 0x3ACAABE01B SWAP11 0xBB SELFBALANCE MOD 0xA9 XOR MLOAD PUSH31 0x9B4600C4786A71C918579A64736F6C63430008070033000000000000000000 "
				},
				"gasEstimates": {
					"creation": {
						"codeDepositCost": "227000",
						"executionCost": "24535",
						"totalCost": "251535"
					},
					"external": {
						"calculateTax(uint256)": "infinite",
						"last_completed_migration()": "2407",
						"owner()": "2533",
						"setCompleted(uint256)": "24731"
					}
				},
				"methodIdentifiers": {
					"calculateTax(uint256)": "483a9310",
					"last_completed_migration()": "445df0ac",
					"owner()": "8da5cb5b",
					"setCompleted(uint256)": "fdacd576"
				}
			},
			"storageLayout": {
				"storage": [
					{
						"astId": 5,
						"contract": "contracts/Migrations.sol:Migrations",
						"label": "owner",
						"offset": 0,
						"slot": "0",
						"type": "t_address"
					},
					{
						"astId": 7,
						"contract": "contracts/Migrations.sol:Migrations",
						"label": "last_completed_migration",
						"offset": 0,
						"slot": "1",
						"type": "t_uint256"
					}
				],
				"types": {
					"t_address": {
						"encoding": "inplace",
						"label": "address",
						"numberOfBytes": "20"
					},
					"t_uint256": {
						"encoding": "inplace",
						"label": "uint256",
						"numberOfBytes": "32"
					}
				}
			},
			"userdoc": {
				"kind": "user",
				"methods": {},
				"version": 1
			}
		}
	}
}